:020000040800F2
:10000000000400201101000801020008010200089C
:1000100001020008010200080102000801020008B4
:100020000102000801020008010200085102000854
:100030000102000801020008010200082102000874
:100040000102000801020008010200080102000884
:100050000102000801020008010200080102000874
:10006000010200080102000801020008D121000875
:100070003122000891220008F122000851230008D3
:10008000B123000811240008010200080102000841
:100090000102000801020008010200080102000834
:1000A0000102000801020008010200080102000824
:1000B00001020008010200080102000811320008D4
:1000C00031320008010200080102000801020008A4
:1000D00001020008E13500080136000801020008AD
:0C00E000010200080102000801020008F3
:1000F000704700BFAFF30080AFF30080AFF3008024
:10010000FEE700BFAFF30080AFF30080AFF30080E5
:1001100072B640F60004C2F2000484F309884FF07E
:10012000020484F31488BFF36F8F40F20004C2F21C
:10013000000440F20045C2F2000504E04FF05533E0
:10014000236004F10404AC42F8D340F20044C2F24C
:10015000000440F60005C2F2000504E04FF05533FC
:10016000236004F10404AC42F8D303F0C9FB44F665
:100170003045C0F6000540F60004C2F2000405E078
:100180002B68236004F1040405F1040540F64803DC
:10019000C2F200039C42F3D340F64804C2F20004CA
:1001A00041F2B855C2F2000504E04FF000032360AD
:1001B00004F10404AC42F8D3FFF79AFF40F2EC04D8
:1001C000C0F6000403E02368984704F1040440F2F9
:1001D000EC03C0F600039C42F5D303F0A1FB40F210
:1001E000EC04C0F6000403E02368984704F104041B
:1001F00040F2EC03C0F600039C42F5D3FFF780FF0A
:10020000FEE700BFAFF30080AFF30080AFF30080E4
:1002100072B6FEE7AFF30080AFF30080AFF300806B
:1002200008B500F0D5FA4FF0200383F3118800F0F1
:100230008FFA00F0CDF900F0ABFA4FF0000383F332
:10024000118800F0F5FA00F043F808BDAFF3008024
:1002500010B483B0EFF309840194019B03F12003F0
:100260000193019B83F309884FF0000383F3118806
:1002700003B010BC704700BFAFF30080AFF3008045
:1002800008B54FF46D43CEF200034FF000029A60C0
:100290004FF46D43CEF200034FF00002C0F2FA5269
:1002A000DA604FF007004FF0100100F0F1F84FF066
:1002B0000A004FF4007100F0EBF84FF00B004FF024
:1002C000800100F0E5F808BDAFF30080AFF30080D7
:1002D00010B483B04FF0200383F311884FF46D43C3
:1002E000CEF200035B6803F40063002B47D0EFF30A
:1002F00009840194019BA3F120030193019B83F3E3
:100300000988019B4FF08072DA6140F67453C2F2A3
:1003100000039B69002B11D040F67453C2F2000316
:100320001B689A6840F67453C2F20003DB699B684D
:100330009A4294BF00230123DBB210E040F67453CD
:10034000C2F200031B689A6840F67453C2F20003BD
:10035000DB699B689A4234BF00230123DBB2002B88
:1003600006D0019A40F29133C0F6000393610AE08F
:10037000019A40F29C33C0F60003936103E04FF012
:10038000000383F3118803B010BC7047AFF3008003
:1003900000F09EF900F094FD00F0BAF900DF00BF14
:1003A00003460A462DE9F04FC2F80CD0D3F80CD022
:1003B000BDE8F08FAFF30080AFF30080AFF30080B3
:1003C00008B500F0A5F94FF0000383F31188284623
:1003D000A04700F0DDFE08BDAFF30080AFF3008062
:1003E00084B001900091019B03F003034FEAC30323
:1003F00003934FF46143CEF20003019A4FEA920057
:100400004FF46142CEF2000201994FEA910101F1ED
:10041000C00152F82110039A4FF0FF0C0CFA02F2BF
:100420006FEA020201EA0201039ADDF800C00CFA49
:1004300002F241EA020100F1C00243F822104FF437
:100440006143CEF20003019A4FEA5212019901F082
:100450001F014FF0010000FA01F102F1600243F8C0
:1004600022104FF46143CEF20003019A4FEA521278
:10047000019901F01F014FF0010000FA01F143F86A
:10048000221004B0704700BFAFF30080AFF30080CC
:1004900084B001900091019B03F003034FEAC30372
:1004A00003934FF46D43CEF20003019A4FEA92009A
:1004B0004FF46D42CEF2000201994FEA910101F131
:1004C000060152F82110039A4FF0FF0C0CFA02F2C9
:1004D0006FEA020201EA0201039ADDF800C00CFA99
:1004E00002F241EA020100F1060243F8221004B0D0
:1004F000704700BFAFF30080AFF30080AFF3008020
:1005000082B0019040F67453C2F20003DA6944F2FB
:100510004063C0F600039361FEE700BFAFF30080C5
:1005200000B583B0FFF7ACFE00F03AFB00F050FAE4
:1005300001F026FB00F0DCF940F60810C2F20000E2
:100540004FF0400100F014FD024640F67453C2F231
:100550000003DA6140F67453C2F20003DB694FF026
:10056000010283F8202040F67453C2F20003DA69D6
:1005700040F20043C2F20003D36100F091F84FF063
:10058000000383F3118862B640F67453C2F200038D
:10059000DA6944F24863C0F60003936140F2015304
:1005A000C0F600034FF00002009240F64800C2F28D
:1005B00000004FF0C0014FF0010200F089FD03B0D0
:1005C00000BD00BFAFF30080AFF30080AFF3008049
:1005D00000B583B000F05CF940F67453C2F200033A
:1005E0009B69002B0BDD40F67453C2F200039B693C
:1005F00003F1FF3240F67453C2F200039A6140F6F1
:100600007453C2F20003DB695A6A02F101025A62B2
:1006100040F66453C2F20003DB6803F1010240F6C6
:100620006453C2F20003DA6040F66453C2F200037E
:100630001B681A4640F66453C2F200039A422DD05A
:1006400040F66453C2F200031B689A6802F1FF325D
:100650009A6019E0019BDB680093019B4FF0000258
:10066000DA60019B1A6840F66453C2F200035360DB
:10067000019B1A6840F66453C2F200031A60019BA2
:100680001A69009B1046984740F66453C2F2000373
:100690001B680193019B9B68002BDBD003B000BD5E
:1006A00008B540F65013C2F200031B68002B06D1B8
:1006B00040F65413C2F200031B68002B05D044F22D
:1006C0006060C0F6000000F073F908BDAFF3008071
:1006D00008B540F65013C2F200031B68002B06D188
:1006E00040F65413C2F200031B68002B05D044F2FD
:1006F0006860C0F6000000F05BF940F65413C2F2E7
:1007000000034FF001021A6008BD00BFAFF3008084
:1007100008B540F65013C2F200031B68002B06D147
:1007200040F65413C2F200031B68002B05DC44F2B0
:100730007060C0F6000000F03BF940F65413C2F2BE
:1007400000034FF000021A6008BD00BFAFF3008045
:1007500008B540F65013C2F200031B68002B06DDFB
:1007600040F65413C2F200031B68002B05D044F27C
:100770007860C0F6000000F01BF940F65413C2F296
:1007800000034FF001021A6008BD00BFAFF3008004
:1007900008B540F65013C2F200031B68002B06DDBB
:1007A00040F65413C2F200031B68002B05DC44F230
:1007B0008060C0F6000000F0FBF840F65413C2F26F
:1007C00000034FF000021A6008BD00BFAFF30080C5
:1007D00008B54FF0200383F3118840F65013C2F29E
:1007E00000031B68002B06DB40F65413C2F2000323
:1007F0001B68002B05D044F28860C0F6000000F0B2
:10080000D7F840F65013C2F200031B6803F101024F
:1008100040F65013C2F200031A604FF0000383F356
:10082000118808BDAFF30080AFF30080AFF3008004
:1008300008B54FF0200383F3118840F65013C2F23D
:1008400000031B68002B06DD40F65413C2F20003C0
:100850001B68002B05D044F29060C0F6000000F049
:10086000A7F840F65013C2F200031B6803F1FF32F1
:1008700040F65013C2F200031A604FF0000383F3F6
:10088000118808BDAFF30080AFF30080AFF30080A4
:1008900008B540F65013C2F200031B68002B06DBBC
:1008A00040F65413C2F200031B68002B05DC44F22F
:1008B0009860C0F6000000F07BF808BDAFF3008040
:1008C00008B540F65013C2F200031B68002B06D196
:1008D00040F65413C2F200031B68002B05DC44F2FF
:1008E000A060C0F6000000F063F808BDAFF3008020
:1008F00040F65813C2F200034FF040021A6040F66F
:100900005813C2F20003014A5A6070476009002080
:1009100082B0019040F65813C2F200035A6840F6C4
:100920006453C2F20003DB68136040F65813C2F24E
:1009300000035A6840F67453C2F20003DB69536047
:1009400040F65813C2F200035B68019A926A9A60FB
:1009500040F65813C2F200035B68019A92F8202017
:100960001A7340F65813C2F200035B6803F11002D9
:1009700040F65813C2F200035A6040F65813C2F210
:1009800000035A68054B9A4205D340F65813C2F249
:100990000003034A5A6002B0704700BF600D002098
:1009A00060090020AFF30080AFF30080AFF3008058
:1009B00000B583B0019040F66053C2F20003019A83
:1009C0001A60FFF725FC03B000BD00BFAFF3008045
:1009D00040F66452C2F2000240F66453C2F20003D1
:1009E0005A6040F66453C2F200035A6840F66453FA
:1009F000C2F200031A6040F66453C2F200034FF0E3
:100A0000FF329A6040F66453C2F200034FF00002D6
:100A1000DA607047AFF30080AFF30080AFF300807F
:100A200000B587B00390029101920093FFF730FF69
:100A3000039B002B05D0019B002B02D0029B002BB7
:100A400005D144F2B060C0F60000FFF7B1FF039B90
:100A5000009A1A61039B019ADA6040F66453C2F26D
:100A600000031B68059308E0059B9B68029AC3EB93
:100A700002030293059B1B680593059B9A68029BE2
:100A80009A42F1D3039B059A1A60039B1B685A682C
:100A9000039B5A60039B5B68059A03995160059A12
:100AA00052681A60039B029A9A60059A40F6645352
:100AB000C2F200039A4206D0059B9A68029BC3EBE0
:100AC0000202059B9A6007B000BD00BFAFF3008033
:100AD00000B583B00190FFF7DBFE019B002B05D131
:100AE00044F2C060C0F60000FFF762FF019BDB68C4
:100AF000002B05D144F2D060C0F60000FFF758FF8C
:100B0000019B1A6840F66453C2F200039A4208D06F
:100B1000019B1B68019A12689168019A92680A44C5
:100B20009A60019B5B68019A12681A60019B1B68BE
:100B3000019A52685A60019B4FF00002DA6003B0DC
:100B400000BD00BFAFF30080AFF30080AFF30080C3
:100B500084B00190019B1B680393039B1A68019B5F
:100B60001A60019B1B68019A5A60039B184604B0E7
:100B7000704700BFAFF30080AFF30080AFF3008099
:100B800082B00190019B5B68019A12681A60019B18
:100B90001B68019A52685A60019B184602B0704760
:100BA00040F67452C2F2000240F67453C2F20003DF
:100BB0005A6040F67453C2F200035A6840F6745308
:100BC000C2F200031A6040F67453C2F200034FF001
:100BD00000029A6040F67453C2F200034FF0140210
:100BE0009A6140F67452C2F2000240F67453C2F2A7
:100BF00000035A6140F67453C2F200035A6940F68A
:100C00007453C2F200031A61704700BFAFF3008053
:100C100000B585B00190019B93F82030002B04D0E3
:100C2000019B93F820300E2B05D144F2F060C0F602
:100C30000000FFF7BDFE019B4FF0000283F820206B
:100C400040F67453C2F200030393039B1B680393A3
:100C5000039B9A68019B9B689A42F6D2019B039A78
:100C60001A60039B5A68019B5A60019B5B68039A58
:100C700001995160039A52681A60019B184605B0A9
:100C800000BD00BFAFF30080AFF30080AFF3008082
:100C900000B585B003468DF80730FFF711FE40F62A
:100CA0007453C2F20003DB690393039B9DF8072092
:100CB00083F8202040F67453C2F200034FF0140270
:100CC0009A6140F67450C2F20000FFF741FF0246FD
:100CD00040F67453C2F20003DA6140F67453C2F274
:100CE0000003DB694FF0010283F820200398FFF72F
:100CF0000FFE6B46A3F12402039BDB699A4205D2E7
:100D000044F20470C0F60000FFF752FE40F6745340
:100D1000C2F20003DB6918460399FFF741FB05B0F7
:100D200000BD00BFAFF30080AFF30080AFF30080E1
:100D300000B585B00190019B0393039B93F820308D
:100D40000D2B28D801A252F823F000BFA70D0008F0
:100D5000970D0008970D0008850D0008970D0008F5
:100D6000910D0008970D0008970D0008970D0008D9
:100D7000970D0008970D0008970D0008970D0008C3
:100D8000910D0008039B9B6A9A6802F101029A6028
:100D90000398FFF7F5FE039B4FF0FF329A6203982A
:100DA000FFF736FF00E000BF05B000BDAFF30080E5
:100DB00000B589B0034600918DF80730FFF780FD3C
:100DC000009BB3F1FF3F1AD040F67453C2F2000308
:100DD000DB6903AA1046009940F63152C0F60002C2
:100DE000FFF71EFE9DF807301846FFF751FF069BE0
:100DF000002B0AD003AB1846FFF76AFE06E09DF809
:100E000007301846FFF744FF00E000BF40F6745378
:100E1000C2F20003DB699B6A184609B000BD00BF3F
:100E200000B585B001900091FFF74AFD019B009A43
:100E30009A62019B9A6840F67453C2F20003DB6920
:100E40009B689A4203D80198FFF7E2FE2FE040F634
:100E50007453C2F20003DB691846FFF7D9FE03465C
:100E6000039340F67453C2F200034FF014029A61E8
:100E700040F67453C2F20003019ADA61019B4FF00D
:100E8000010283F820200398FFF742FD6B46A3F18F
:100E90002402039BDB699A4205D244F20470C0F637
:100EA0000000FFF785FD01980399FFF779FA05B077
:100EB00000BD00BFAFF30080AFF30080AFF3008050
:100EC00000B583B040F67453C2F200034FF0140231
:100ED0009A6140F67453C2F20003DB69019340F655
:100EE0007450C2F20000FFF733FE024640F674531E
:100EF000C2F20003DA6140F67453C2F20003DB6908
:100F00004FF0010283F820200198FFF781FE01983D
:100F1000FFF7FEFC6B46A3F12402019BDB699A42BA
:100F200005D244F20470C0F60000FFF741FD40F620
:100F30007453C2F20003DB6918460199FFF730FAD7
:100F400003B000BDAFF30080AFF30080AFF30080CB
:100F500084B00190019B1B680393039B1A68019B5B
:100F60001A60039B184604B0704700BFAFF30080BF
:100F700082B001900091019B009A9A60019B4FF012
:100F8000020283F82020019B4FF0000283F8212009
:100F9000019B009A5A64019B4FF000021A64019B66
:100FA0004FF00002DA63019B4FF000025A62019B8E
:100FB0004FF000029A6140F67453C2F20003019AA6
:100FC000136140F67453C2F200035A69019B5A61DF
:100FD000019B5A6940F67453C2F2000301995961AA
:100FE00040F67453C2F200035B691361019B03F185
:100FF0002C031A46019BDA62019B03F130031A4667
:10100000019B5A63019B5A6B019B1A63019B03F17D
:101010004802019BDA61019B184602B0704700BF8D
:1010200084B00390029113468DF8073007E0039BCC
:101030009DF807201A70039B03F101030393039AA1
:10104000029B9A42F3D304B0704700BFAFF3008015
:1010500000B587B00390029101920093039B059322
:10106000FFF716FC039B002B08D0029BAF2B05D982
:10107000019B7F2B02D8009B002B05D144F22070EE
:10108000C0F60000FFF794FC039A029BA3F124032F
:101090001A44059BDA60059BDB68009A1A60059B81
:1010A000DB68089A5A60059BDA6840F2C133C0F6E3
:1010B0000003136205980199FFF75AFF034618468B
:1010C00007B000BDAFF30080AFF30080AFF3008046
:1010D00000B589B00590049103920293059A059B8F
:1010E00003F14803104619464FF0FF02FFF798FF3F
:1010F000059B03F148020599049B0B4410461946D1
:101100004FF05502FFF78CFF4FF0200383F3118857
:10111000FFF7DEFA0A9B009305980499039A029B55
:10112000FFF796FF0346079307984FF00001FFF77C
:1011300077FEFFF7EDFA4FF0000383F31188079B6A
:10114000184609B000BD00BFAFF30080AFF30080C8
:1011500000B583B00190019B002B05D144F2607073
:10116000C0F60000FFF724FC4FF0200383F3118842
:10117000FFF7AEFA4FF006000199FFF719FEFFF7EF
:10118000C7FA4FF0000383F3118803B000BD00BF1E
:1011900000B583B001904FF0200383F31188FFF76F
:1011A00097FA019800F004F803B000BDAFF3008097
:1011B00000B585B0019040F67453C2F20003DB69BC
:1011C0000393039B019A9A6209E0039B03F12C03AA
:1011D0001846FFF7BDFE03461846FFF719FD039BAF
:1011E000DA6A039B03F12C039A42EED1039B93F836
:1011F000213003F00303002B09D1039B5B69039AA1
:1012000012691A61039B1B69039A52695A614FF074
:101210000E00FFF73DFD44F27070C0F60000FFF7CE
:10122000C7FB05B000BD00BFAFF30080AFF3008087
:1012300084B001900091009B0393039B1B68039370
:10124000009B039A9A4205D0039B9A68019B9B6876
:101250009A42F2D2019B039A1A60039B5A68019B3F
:101260005A60019B5B68039A01995160039A526826
:101270001A6004B0704700BFAFF30080AFF3008086
:1012800084B00190019B1B680393039B1A68019B28
:101290001A60019B1B68019A5A60039B184604B0B0
:1012A000704700BFAFF30080AFF30080AFF3008062
:1012B00082B00190019B5B68019A12681A60019BE1
:1012C0001B68019A52685A60019B184602B0704729
:1012D00000B583B00190019B002B05D144F2B070A2
:1012E000C0F60000FFF764FB019B1A46019B5A60A1
:1012F000019B5A68019B1A60019B4FF000029A60A3
:1013000003B000BDAFF30080AFF30080AFF3008007
:1013100000B583B001904FF0200383F31188FFF7ED
:10132000D7F9019800F00CF8FFF7F2F94FF000033D
:1013300083F3118803B000BDAFF30080AFF30080EA
:1013400000B585B0019040F67453C2F20003DB692A
:101350000293FFF7B5FA019B002B05D144F2C07050
:10136000C0F60000FFF724FB019B9B68002B62D0B6
:10137000019B9B68039335E0029B9A68039B9A60EC
:10138000039B93F82030042B04D0052B11D0002BA5
:101390001AD02DE00398FFF78BFF0246039B9B6A50
:1013A00010461946FFF744FF039B9B6A9B68039313
:1013B00018E00398FFF77CFF0246039B9B6A1046E8
:1013C0001946FFF735FF0CE0039B4FF0010283F84D
:1013D00020200398FFF76CFF03461846FFF718FC20
:1013E00000BF05E0039B9A68029B9B689A42C3D3A7
:1013F000019B02981946FFF71BFF029B019A9A6214
:101400004FF00400FFF744FC019B9A68029B9A424C
:1014100005D044F2D070C0F60000FFF7C9FA029B75
:101420001A6C019B9A4210D044F2E470C0F600009E
:10143000FFF7BEFA09E0019B029A9A60029B1A6CC0
:10144000019BDA60029B019A1A6405B000BD00BFDF
:1014500000B587B040F67453C2F20003DB69039312
:101460004FF0200383F31188FFF732F9039B1B6CC5
:10147000002B05D144F60C00C0F60000FFF798FAE7
:10148000039B1B6C9A68039B9A4205D044F620008C
:10149000C0F60000FFF78CFA039B1B6C0293029BC3
:1014A000DA68039B1A64029B1A68029B9A4234D042
:1014B000039B5B6C0493039B1B6C059311E0059BE2
:1014C0001A68059B9A4209D0059B1B689A68049B81
:1014D0009A4203D9059B1B689B680493059BDB68B4
:1014E0000593059B002BEAD1039B049A9A60029B0B
:1014F0001846FFF7C5FE03460193029B019A9A60C6
:10150000019B1A6C029BDA60019B029A1A64019893
:101510004FF00001FFF784FC03E0029B4FF0000254
:101520009A60FFF7F5F84FF0000383F31188029BF0
:10153000184607B000BD00BFAFF30080AFF30080D6
:1015400000B583B001900091FFF7A2F9019B002B39
:1015500005D144F69C00C0F60000FFF729FA019B74
:10156000DA6B009B42EA0302019BDA63019B93F86A
:101570002030082B07D1019BDA6B019B9B6A02EAA2
:101580000303002B0ED1019B93F82030092B10D1BF
:10159000019BDA6B019B9B6A02EA0302019B9B6A37
:1015A0009A4206D10198FFF733FB03464FF0000241
:1015B0009A6203B000BD00BFAFF30080AFF30080BC
:1015C00000B585B001900091FFF762F9019B002BF7
:1015D00005D144F6B000C0F60000FFF7E9F9019B21
:1015E0001B6803930DE0039B5A68039B9968009B5B
:1015F00041EA030310461946FFF7A2FF039B1B684D
:101600000393019B039A9A42EDD105B000BD00BF40
:1016100082B001900091009A019B1A60009B5A6869
:10162000019B5A60019B5B68009A01995160009A86
:1016300052681A6002B07047AFF30080AFF30080C9
:1016400084B00190019B1B680393039B1A68019B64
:101650001A60019B1B68019A5A60039B184604B0EC
:10166000704700BFAFF30080AFF30080AFF300809E
:1016700000B583B001900091009B002B02D14FF088
:10168000FF3316E040F67453C2F20003DB69019A9F
:101690009A6240F67453C2F20003DA69019B104665
:1016A0001946FFF7B5FF4FF00D000099FFF780FBDB
:1016B0000346184603B000BDAFF30080AFF30080CF
:1016C00084B00390029101920093039B1A46039BFE
:1016D0005A60039B5A68039B1A60039B4FF00002F9
:1016E0009A60039B029A5A61039B5A69039B9A6111
:1016F000039B9A69039BDA60029A019B1A44039B3D
:101700001A61039B009ADA6104B07047AFF300805E
:1017100000B583B001900B468DF80330FFF7B8F8A1
:10172000019B5A69019B9B699A4206D1019B9B6868
:10173000002B02D06FF003032BE0019B9B6803F1A9
:101740000102019B9A60019B5B699DF803201A705E
:1017500003F10102019B5A61019B5A69019B1B69BC
:101760009A4203D3019BDA68019B5A61019B1A6874
:10177000019B9A420BD0019B1846FFF761FF03467D
:101780001846FFF745FA03464FF000029A624FF001
:101790000003184603B000BDAFF30080AFF3008034
:1017A00000B585B0019000914FF0200383F31188BC
:1017B000FEF78EFF019BDB69002B15D0019BDB69D7
:1017C0000198984711E001980099FFF751FF0346EF
:1017D0000393039B002B08DAFEF79AFF4FF00003F8
:1017E00083F31188039B25E000BF019B9B68002BBE
:1017F000E9D0019B9B6803F1FF32019B9A60019B3A
:101800009B691A788DF80B2003F10102019B9A6104
:10181000019B9A69019B1B699A4203D3019BDA6879
:10182000019B9A61FEF774FF4FF0000383F3118868
:101830009DF80B30184605B000BD00BFAFF3008027
:1018400000B587B00390029101920093039BDB697E
:1018500004934FF000030593019B002B05D144F640
:10186000F000C0F60000FFF7A3F84FF0200383F369
:101870001188FEF72DFF049B002B12D0049B0398C8
:1018800098470FE003980099FFF7F2FE0346002BFC
:1018900008D0FEF73DFF4FF0000383F31188059B4E
:1018A0003BE000BF039B9B68002BEBD0039B9B6836
:1018B00003F1FF32039B9A60039B9B691978029A9C
:1018C0001170029A02F10102029203F10102039BDC
:1018D0009A61039B9A69039B1B699A4203D3039BFA
:1018E000DA68039B9A61FEF713FF4FF0000383F35E
:1018F0001188059B03F101030593019B03F1FF335D
:101900000193019B002B01D1059B06E04FF02003C2
:1019100083F31188FEF7DCFEADE7184607B000BD83
:1019200084B00390029101920093039B1A46039B9B
:101930005A60039B5A68039B1A60039B019A9A6042
:10194000039B029A5A61039B5A69039B9A61039B0A
:101950009A69039BDA60029A019B1A44039B1A61FD
:10196000039B009ADA6104B0704700BFAFF30080B8
:1019700000B587B003900B4601928DF80B304FF005
:10198000200383F31188FEF7A3FE10E0039801996A
:10199000FFF76EFE03460593059B002B07DAFEF763
:1019A000B7FE4FF0000383F31188059B2CE0039BE7
:1019B0009B68002BEAD0039B9B6803F1FF32039BDB
:1019C0009A60039B5B699DF80B201A7003F101027A
:1019D000039B5A61039B5A69039B1B699A4203D379
:1019E000039BDA68039B5A61039BDB69002B03D0DE
:1019F000039BDB6903989847FEF78AFE4FF00003CC
:101A000083F311884FF00003184607B000BD00BFF4
:101A100000B585B00190FEF73BFF019B5A69019B21
:101A20009B699A4206D1019B9B68002B02D06FF004
:101A300002032BE0019B9B6803F10102019B9A606A
:101A4000019B9B691A788DF80F2003F10102019B1D
:101A50009A61019B9A69019B1B699A4203D3019B7E
:101A6000DA68019B9A61019B1A68019B9A420BD02C
:101A7000019B1846FFF7E4FD03461846FFF7C8F838
:101A800003464FF000029A629DF80F30184605B0E9
:101A900000BD00BFAFF30080AFF30080AFF3008064
:101AA00000B587B00390029101920093039BDB691C
:101AB00004934FF000030593019B002B05D144F6DE
:101AC0000410C0F60000FEF773FF4FF0200383F30D
:101AD0001188FEF7FDFD0EE003980099FFF7C8FDA1
:101AE0000346002B07D0FEF713FE4FF0000383F3ED
:101AF0001188059B41E0039B9B68002BECD0039B66
:101B00009B6803F1FF32039B9A60039B5B69029A17
:101B100012781A7003F10102039B5A61029B03F1D0
:101B200001030293039B5A69039B1B699A4203D3E7
:101B3000039BDA68039B5A61049B002B02D0049B31
:101B400003989847FEF7E4FD4FF0000383F31188F4
:101B5000059B03F101030593019B03F1FF330193FF
:101B6000019B002B01D1059B07E04FF0200383F37D
:101B70001188FEF7ADFD00BFBDE7184607B000BDF8
:101B800041F2B853C2F2000303F1070323F0070345
:101B90001A4640F69453C2F200031A6042F2000360
:101BA000C2F2000323F007031A4640F69853C2F22C
:101BB00000031A60704700BFAFF30080AFF30080EE
:101BC00008B500F05DFD00F0C3FA44F6C030C0F681
:101BD000000001F09DFD00F00BF800F0D9F800F0D6
:101BE000BFF901F095FE08BDAFF30080AFF30080B0
:101BF00008B500F055FF08BDAFF30080AFF30080DB
:101C000000B583B00190019B4FF001021A70019B57
:101C10004FF000025A60019B4FF000029A60019B56
:101C20004FF00002DA60019B4FF000021A61019B45
:101C30004FF000025A61019B03F118031846FFF7A9
:101C400047FB03B000BD00BFAFF30080AFF30080DF
:101C500000B583B001900091019B002B05D144F6A3
:101C60002010C0F60000FEF7A3FE4FF0200383F320
:101C70001188FEF72DFD019B1B78012B09D0019BDC
:101C80001B78022B05D044F63010C0F60000FEF79A
:101C90008FFE019B009A5A60019800F071FF019B32
:101CA0004FF002021A70FEF733FD4FF0000383F38A
:101CB000118803B000BD00BFAFF30080AFF3008018
:101CC00000B585B003900291019200934FF020037C
:101CD00083F31188FEF7FCFC03980299019A009B9C
:101CE00000F00EF8FEF714FD4FF0000383F31188A7
:101CF00005B000BDAFF30080AFF30080AFF300800C
:101D000000B585B00390029101920093FEF7C0FDEB
:101D1000039B002B0ED0029B002B0BD0019B002BB2
:101D200008D0009B012B0BD0009B03F00103DBB21A
:101D3000002B05D044F65C10C0F60000FEF738FE1C
:101D4000039B1B78022B0DD0039B1B78042B09D01F
:101D5000039B1B78052B05D044F67410C0F60000D9
:101D6000FEF726FE039B019A9A60039B009ADA60B5
:101D7000039B029A1A61039B4FF003021A700398A7
:101D800000F046FF05B000BDAFF30080AFF3008068
:101D900008B501F05DFA08BDAFF30080AFF3008035
:101DA00000B583B00190019B4FF001021A70019BB6
:101DB0004FF000025A60019B03F10C031846FFF735
:101DC00087FA03B000BD00BFAFF30080AFF300801F
:101DD00000B585B0039002910192039B03F130039B
:101DE00018460299019A4FF0FF33FFF759FE034658
:101DF000184605B000BD00BFAFF30080AFF3008010
:101E000000B585B0039002910192039B03F110038A
:101E100018460299019A4FF0FF33FFF711FD034670
:101E2000184605B000BD00BFAFF30080AFF30080DF
:101E300082B00190019B9B6B002B14BF00230123F8
:101E4000184602B0704700BFAFF30080AFF30080C8
:101E500082B00190019B9B69002B14BF00230123DA
:101E6000184602B0704700BFAFF30080AFF30080A8
:101E700000B585B003900B4601928DF80B30039BA3
:101E800003F130029DF80B3010461946019AFFF716
:101E90006FFD0346184605B000BD00BFAFF30080DC
:101EA00000B583B001900091019B03F11003184627
:101EB0000099FFF775FC0346184603B000BD00BF4C
:101EC00000B585B00390029101920093039B03F14A
:101ED000300318460299019A009BFFF7E1FD034683
:101EE000184605B000BD00BFAFF30080AFF300801F
:101EF00000B585B00390029101920093039B03F11A
:101F0000100318460299019A009BFFF799FC0346BB
:101F1000184605B000BD00BFAFF30080AFF30080EE
:101F200000B585B001904FF0200383F31188FEF7D0
:101F3000CFFB019B9B680393019B4FF000029A60CB
:101F4000FEF7E6FB4FF0000383F31188039B18466E
:101F500005B000BDAFF30080AFF30080AFF30080A9
:101F600008B501F05DFB08BDAFF30080AFF3008062
:101F700000B585B0039002910192039A44F60033B4
:101F8000C0F600031360039B03F104031A46039B8E
:101F90005A60039B4FF000029A60039B4FF00102CE
:101FA0001A73039B03F11002039B03F150031046C5
:101FB00019464FF04002029BFFF782FB039B03F19F
:101FC0003002039B03F19003104619464FF0400284
:101FD000019BFFF7A5FC05B000BD00BFAFF300807B
:101FE00000B583B001900091019B002B05D144F610
:101FF0003020C0F60000FEF7DBFC4FF0200383F337
:102000001188FEF765FB019B1B7B012B09D0019B0F
:102010001B7B022B05D044F63C20C0F60000FEF7E7
:10202000C7FC0198009901F02BFB019B4FF00202C5
:102030001A73FEF76DFB4FF0000383F3118803B0B2
:1020400000BD00BFAFF30080AFF30080AFF30080AE
:1020500000B583B001900B468DF80330FEF718FCF5
:10206000019B002B05D144F66820C0F60000FEF766
:102070009FFC019B9B69002B0DD1019B9B6843F04A
:102080000402019B9A60019B03F1040318464FF080
:102090000001FFF795FA019B03F110029DF8033050
:1020A00010461946FFF734FB0346002B0DDA019B5F
:1020B0009B6843F08002019B9A60019B03F104033B
:1020C00018464FF00001FFF77BFA03B000BD00BFD8
:1020D00082B001904FF48053CEF200035A68019B06
:1020E0009A6002B0704700BFAFF30080AFF300808A
:1020F00084B001904FF48053CEF200035B680393E9
:10210000019B9B68039AC3EB020240F69C53C2F208
:1021100000031B68C3EB0202019B9A60019B9A6853
:10212000019BDB689A4204D9019B9A68019BDA60A3
:1021300009E0019B9A68019B1B699A4203D2019BAB
:102140009A68019B1A6104B0704700BFAFF300802A
:1021500000B587B040F69C53C2F200034FF0000276
:102160001A6001AB184600F013F8019B01AA104653
:102170009847029B01AA10469847039A40F69C5341
:10218000C2F200031A6007B000BD00BFAFF30080C9
:1021900082B00190019A42F2D103C0F600031360AD
:1021A000019A42F2F103C0F600035360019B4FF025
:1021B00000029A60019B4FF00002DA60019B4FF031
:1021C000FF321A6102B07047AFF30080AFF30080B6
:1021D00000B583B0FEF7FCFA4FF00003C4F202032F
:1021E0001B6803F00F0301934FF00003C4F20203D6
:1021F0004FF00F025A6040F6A453C2F200031B686E
:10220000002B0CD040F6A453C2F200031A6840F62B
:10221000A453C2F200035B68184601999047FEF789
:1022200007FBFEF755F803B000BD00BFAFF3008019
:1022300000B583B0FEF7CCFA4FF00003C4F20203FE
:102240001B684FEA131303F00F0301934FF00003D1
:10225000C4F202034FF0F0025A6040F6A453C2F2F7
:1022600000039B68002B0CD040F6A453C2F200037D
:102270009A6840F6A453C2F20003DB68184601993D
:102280009047FEF7D5FAFEF723F803B000BD00BF74
:1022900000B583B0FEF79CFA4FF00003C4F20203CE
:1022A0001B684FEA132303F00F0301934FF0000361
:1022B000C4F202034FF470625A6040F6A453C2F2B3
:1022C00000031B69002B0CD040F6A453C2F200039C
:1022D0001A6940F6A453C2F200035B6918460199DB
:1022E0009047FEF7A5FAFDF7F3FF03B000BD00BF6E
:1022F00000B583B0FEF76CFA4FF00003C4F202039E
:102300001B684FEA133303F00F0301934FF00003F0
:10231000C4F202034FF470425A6040F6A453C2F272
:1023200000039B69002B0CD040F6A453C2F20003BB
:102330009A6940F6A453C2F20003DB69184601997A
:102340009047FEF775FAFDF7C3FF03B000BD00BF6D
:1023500000B583B0FEF73CFA4FF00003C4F202036D
:102360001B684FEA134303F00F0301934FF0000380
:10237000C4F202034FF470225A6040F6A453C2F232
:1023800000031B6A002B0CD040F6A453C2F20003DA
:102390001A6A40F6A453C2F200035B6A1846019918
:1023A0009047FEF745FAFDF793FF03B000BD00BF6D
:1023B00000B583B0FEF70CFA4FF00003C4F202033D
:1023C0001B684FEA135303F00F0301934FF0000310
:1023D000C4F202034FF470025A6040F6A453C2F2F2
:1023E00000039B6A002B0CD040F6A453C2F20003FA
:1023F0009A6A40F6A453C2F20003DB6A18460199B8
:102400009047FEF715FAFDF763FF03B000BD00BF6C
:1024100000B583B0FEF7DCF94FF00003C4F202030D
:102420001B684FEA136303F00F0301934FF000039F
:10243000C4F202034FF070625A6040F6A453C2F235
:1024400000031B6B002B0CD040F6A453C2F2000318
:102450001A6B40F6A453C2F200035B6B1846019955
:102460009047FEF7E5F9FDF733FF03B000BD00BF6D
:1024700082B040F6A053C2F200034FF000021A608F
:102480004FF0000301931CE044F63032C0F6000226
:1024900001990B464FEA43030B444FEA830313446D
:1024A0001B684FF000021A6040F6A453C2F200030A
:1024B000019A4FF0000143F83210019B03F1010330
:1024C0000193019B062BDFDD4FF00003C4F20203F2
:1024D0004FF0FF325A6002B0704700BFAFF3008088
:1024E00000B585B00390029101920093039B002BED
:1024F00005D144F69020C0F60000FEF759FA039B80
:102500005B7A4FF0010202FA03F31A4640F6A05339
:10251000C2F200031B6802EA0303002B02D04FF053
:10252000010361E0039B5B7A1A4640F6A453C2F2B2
:102530000003019943F83210039B5B7A40F6A452E2
:10254000C2F200024FEAC3031344009A5A60039B8D
:102550005B7A4FF0010202FA03F31A4640F6A053E9
:10256000C2F200031B6842EA030240F6A053C2F223
:1025700000031A6040F6A053C2F200031B6803F088
:102580007F03002B0BD04FF48053C4F202034FF4AF
:102590008052C4F20202526942F001025A61039B66
:1025A0001B68039A1268126822F001021A60039BEA
:1025B0005B68039A127A4FF00F0101FA02F21A6077
:1025C000039B1B684FF000021A60019B002B09D08F
:1025D000039B9B7A1A46029B4FEA03131046194647
:1025E000FDF7FEFE4FF00003184605B000BD00BF2A
:1025F0004FF4E043C4F200034FF4E042C4F200029F
:10260000126842F480721A604FF48053C4F20203DD
:102610001B6A03F44073B3F5407F0DD04FF4805331
:10262000C4F202034FF480321A624FF48053C4F2B2
:1026300002034FF000021A624FF48053C4F2020307
:102640001B6A03F40043002B17D14FF48053C4F2EC
:1026500002034FF48052C4F20202126A42F4407242
:102660001A624FF48053C4F202034FF48052C4F252
:102670000202126A42F400421A627047AFF300800D
:1026800008B54FF48053C4F202031B694FF4805322
:10269000C4F202034FF0FF321A614FF48053C4F2C8
:1026A00002034FF000021A614FF48053C4F2020398
:1026B000DB684FF48053C4F202034FF0FF32DA605C
:1026C0004FF48053C4F202034FF00002DA604EF27E
:1026D0001003CEF200034BF67F325A604EF2100325
:1026E000CEF200034FF000029A604EF21003CEF2D9
:1026F00000034FF007021A604EF6F053CEF20003CB
:102700004EF6F052CEF20002D26842F08072DA60E9
:102710004FF48053CEF200034FF48052CEF2000209
:10272000126842F001021A604FF48053C4F20203AF
:102730004FF48052C4F20202D26942F08052DA6150
:102740004FF48053C4F202034FF48052C4F20202E9
:10275000D26942F00062DA61FFF74AFFFFF788FEB4
:1027600008BD00BFAFF30080AFF30080AFF300807F
:102770004FF48053C4F202034FF48052C4F20202B9
:10278000126842F001021A6000BF4FF48053C4F295
:1027900002031B6803F00203002BF6D04FF48053B2
:1027A000C4F202034FF48052C4F20202126802F033
:1027B000F9021A604FF48053C4F202034FF0000292
:1027C0005A6000BF4FF48053C4F202035B6803F009
:1027D0000C03002BF6D14FF48053C4F202034FF4E4
:1027E0008052C4F20202126842F480321A6000BFC2
:1027F0004FF48053C4F202031B6803F40033002B30
:10280000F6D04FF48053C4F202034FF48052C4F266
:102810000202526842F4A0225A604FF48053C4F27C
:1028200002034FF48052C4F20202126842F0807236
:102830001A6000BF4FF48053C4F202031B6803F018
:102840000073002BF6D04FF48053C4F202034FF410
:10285000C842C0F205025A604FF40053C4F20203AA
:102860004FF010021A604FF48053C4F202034FF489
:102870008052C4F20202526842F002025A6000BF63
:102880004FF48053C4F202035B6803F00C03082B7F
:10289000F6D17047AFF30080AFF30080AFF3008054
:1028A00000B589B001900091009B03F00803002B54
:1028B0003DD0019800F024FA019B1B69DB68002BD6
:1028C00012D0019B4FF005021A70019B1B69DB6857
:1028D00001984FF000019847019B1B78052B03D10D
:1028E000019B4FF002021A70019B4FF000021A6127
:1028F0004FF0200383F31188FDF72AFF019B5B69EA
:10290000002B0DD0019B5B690793019B4FF00002E8
:102910005A61079B4FF0FF329A620798FEF778F9E9
:10292000FDF736FF4FF0000383F31188AFE0009B03
:1029300003F00403002B0FD0019B1B699B68002B45
:102940000AD0019B1B699B68019A9168019AD26821
:102950004FEA520201989847009B03F00203002BB4
:1029600000F09580019B1B691B68002B2DD0019BFB
:102970001B699B68002B00F08A80019BDB68012BA0
:1029800019D9019BDB684FEA53030693019B1B692E
:102990009B88069A02FB03F30593019B1B699B68C6
:1029A000019A9168059A4FEA42020A440198114639
:1029B000069A98476BE0019B1B699B68019A916896
:1029C000019AD2680198984761E0019800F098F95F
:1029D000019B1B699B68002B33D0019B4FF00402C5
:1029E0001A70019BDB68012B19D9019BDB684FEA48
:1029F00053030493019B1B699B88049A02FB03F316
:102A00000393019B1B699B68019A9168039A4FEAA3
:102A100042020A4401981146049A984708E0019B33
:102A20001B699B68019A9168019AD268019898473E
:102A3000019B1B78042B08D1019B4FF002021A70F6
:102A400003E0019B4FF002021A70019B4FF000025D
:102A50001A614FF0200383F31188FDF779FE019B83
:102A60005B69002B0DD0019B5B690293019B4FF0CA
:102A700000025A61029B4FF000029A620298FEF730
:102A8000C7F8FDF785FE4FF0000383F3118809B006
:102A900000BD00BFAFF30080AFF30080AFF3008054
:102AA00008B540F6DC50C2F20000FFF7A9F840F686
:102AB000DC53C2F200034FF41052C4F201029A62D6
:102AC00040F6DC53C2F2000344F63032C0F6000296
:102AD000DA6240F6DC53C2F2000342F28A521A6311
:102AE0004FF48053C4F202034FF48052C4F2020246
:102AF000926942F400729A614FF41053C4F20103D8
:102B00004FF000025A604FF41053C4F201034FF02B
:102B100001029A604FF41053C4F201034FF009020E
:102B20009A6000BF4FF41053C4F201039B6803F096
:102B30000803002BF6D14FF41053C4F201034FF0F9
:102B400005029A6000BF4FF41053C4F201039B6862
:102B500003F00403002BF6D14FF41053C4F2010329
:102B60004FF000029A604FF48053C4F202034FF416
:102B70008052C4F20202926922F400729A6108BD86
:102B800000B585B00190019B1B78012B3CD1019AC7
:102B900040F6DC53C2F200039A422BD1019BDA6A61
:102BA00042F6A103C0F6000310464FF005011A4695
:102BB000019BFFF795FC03460393039B002B05D075
:102BC00044F6D020C0F60000FDF7F2FE019BDB6A60
:102BD0001A6842F24C43C4F2010393604FF48053ED
:102BE000C4F202034FF48052C4F20202926942F42A
:102BF00000729A61019B9B6A4FF000025A60019B30
:102C00009B6A4FF000029A6005B000BDAFF30080F0
:102C100086B00190019B1B690393019B1B6B05937D
:102C2000039B1B68002B03D0059B43F020030593F7
:102C3000019BDB68012B0BD9059B43F00403059333
:102C4000039B9B88019AD26802FB03F3049302E082
:102C5000039B9B880493019BDB6A1B68019A926823
:102C6000DA60019BDB6A1B68049A5A60019BDB6A8D
:102C70001B68059A1A60019BDB6A1B68019AD26A7D
:102C80001268126842F001021A60019B9B6A039A63
:102C9000126942F480725A60019B9A6A039B5B69D5
:102CA00043F4807343F003039360019B9B6A039A90
:102CB0009269DA60019B9B6A039AD2691A61019B4F
:102CC0009B6A039A126ADA62019B9B6A039A526AB0
:102CD0001A63019B9B6A039A926A5A63019B9A6AE0
:102CE000039B5B6943F4807343F00303936006B076
:102CF000704700BFAFF30080AFF30080AFF30080F8
:102D000082B00190019BDB6A1B68019AD26A12684B
:102D1000126822F001021A60019BDB6A5B68019A6B
:102D2000D26A127A4FF00F0101FA02F21A60019B87
:102D30009B6A4FF000029A6002B07047AFF30080C8
:102D400000B587B00190019B1B6B0493049B1B8B08
:102D50009BB20393049B9B8A9BB20593019B93F8C0
:102D60003430002B40F0B780039B4FEA0342059BB1
:102D700042EA030323F07F434FF00202C0F2030252
:102D800093421ED04FF00202C0F20302934206D8D3
:102D90004FF00102C0F2030293420DD093E04FF0D6
:102DA0008202C0F20702934234D04FF08402C0F294
:102DB0000702934241D086E0019B1A8C049B1A8241
:102DC00081E0049B9B889BB223F400739AB2049B1E
:102DD0009A80019B9B6A1B68019A926A126812682A
:102DE00042F001021A60049B9B889BB243F480531B
:102DF0009AB2049B9A80019B9B6A1B685B68012BBB
:102E000060D8049B1B889BB223F480639AB2049B16
:102E10001A8058E0049B9B889BB223F400739AB2FB
:102E2000049B9A80019BDB6A1B68019AD26A126834
:102E3000126842F001021A6045E0019B9B6A1B6820
:102E40005B68002B0FD0019B1B8C43F001039AB2EF
:102E5000019B1A84049B1B889BB243F4A0639AB223
:102E6000049B1A80B5E0049B9B889BB223F40073FB
:102E70009AB2049B9A80049B1B889BB243F4007314
:102E80009AB2049B1A804FF0200383F31188FDF758
:102E90005FFC019BDB69002B0DD0019BDB6902937A
:102EA000019B4FF00002DA61029B4FF000029A6230
:102EB0000298FDF7ADFEFDF76BFC4FF0000383F3C6
:102EC000118800E000BF059B03F00A03002B7FD0B0
:102ED000049B1B8B7DE0059B03F00A03002B0FD0A6
:102EE000019B4FF000021A64019B4FF000021A652B
:102EF000049B9B8A9BB20593049B1B8B9BB2039301
:102F0000059B03F08003002B16D0019B9A6C019B5C
:102F10001B6D1A4412781146049A118203F10102C2
:102F2000019B1A65019B1A6C019BDB6C9A4203D3CF
:102F3000019B4FF000021A65059B03F04003002B34
:102F400017D0019B9A6B019B1B6C1A440499098A48
:102F500089B2C9B2117003F10102019B1A64019B8D
:102F60001A6C019BDB6B9A4203D3019B4FF000026A
:102F70001A64059B03F01003002B13D0049B9B8A5B
:102F80009BB20593049B1B889BB243F001039AB24A
:102F9000049B1A80019B5B6C002B03D0019B5B6C34
:102FA00001989847059B03F48063002B11D0049B84
:102FB0009B8A9BB223F480639AB2049B9A82019B02
:102FC0005B6D002B05D0019B5B6D0198984700E07D
:102FD00000BF07B000BD00BFAFF30080AFF30080BB
:102FE00000B587B00190019B1B6B04934FF0200349
:102FF00083F31188FDF7ACFB019BDB6A1B68019A28
:10300000D26A1268126822F001021A60019BDB6A20
:103010005B68019AD26A127A4FF00F0101FA02F24C
:103020001A60019B9B6A1B68019A926A1268126877
:1030300022F001021A60019B9B6A5B68019A926A06
:10304000127A4FF00F0101FA02F21A60FDF7A0FBAD
:103050004FF0000383F311884FF000030593049BA6
:103060009B8A9BB203F48073002B0BD0049B9B8A3A
:103070009BB223F480739AB2049B9A82059B43F01F
:1030800001030593049B9B8A9BB203F40073002BFE
:103090000BD0049B9B8A9BB223F400739AB2049BCF
:1030A0009A82059B43F002030593019B93F8343009
:1030B000002B23D1049B9B8A9BB203F48063002BDB
:1030C0002DD0049B9B8A9BB223F480639AB2049B0D
:1030D0009A82049B9B889BB223F400739AB2049B50
:1030E0009A80049B1B889BB243F400739AB2049BA2
:1030F0001A80059B43F00403059311E0049B9B8A0F
:103100009BB223F480639AB2049B9A82019B5B6D0D
:10311000002B05D0019B5B6D0198984700E000BF34
:10312000049B9B8A9BB203F40063002B0BD0049B8F
:103130009B8A9BB223F400639AB2049B9A82059BFC
:1031400043F008030593049B9B8A9BB203F48053CE
:10315000002B0BD0049B9B8A9BB223F480539AB222
:10316000049B9A82059B43F010030593049B9B8A62
:103170009BB203F48043002B0BD0049B9B8A9BB231
:1031800023F480439AB2049B9A82059B43F0200368
:103190000593049B9B8A9BB29BB21BB2002B0DDA5A
:1031A000049B9B8A9BB24FEA43434FEA53439AB234
:1031B000049B9A82059B43F040030593059B002BDB
:1031C00020D0019B059A9A604FF0200383F3118869
:1031D000FDF7BEFA019BDB69002B0DD0019BDB697B
:1031E0000393019B4FF00002DA61039B6FF0010231
:1031F0009A620398FDF70CFDFDF7CAFA4FF0000341
:1032000083F3118807B000BDAFF30080AFF30080F7
:1032100008B5FDF7DDFA40F61060C2F20000FFF7D6
:103220008FFDFDF705FBFDF753F808BDAFF30080F8
:1032300008B5FDF7CDFA40F61060C2F20000FFF7C6
:10324000CFFEFDF7F5FAFDF743F808BDAFF30080B8
:1032500008B540F61060C2F20000FEF7A1FD40F68E
:103260001063C2F200034FF00002DA6140F610630F
:10327000C2F200034FF4A842C4F200021A6340F6FF
:103280001063C2F20003044A9A6240F61063C2F26D
:103290000003024ADA6208BD784B00086C4B000854
:1032A00084B001900091019BD3F8D0300393019B2F
:1032B000D3F8D0204FF46053C4F201039A420BD1EB
:1032C000009B1A684FF4D853C0F2B703B3FBF2F374
:1032D0009AB2039B1A810AE0009B1A684FF4D853F4
:1032E000C0F2B703B3FBF2F39AB2039B1A81009BBF
:1032F0009B8843F4045343F02C039AB2039B9A81B6
:10330000009BDB8843F040039AB2039B1A82009B28
:103310001B8943F001039AB2039B9A82039B4FF0EF
:1033200000021A80039B1B88039B9B8804B0704794
:1033300000B585B001900B46ADF802304FF00003A8
:103340000393BDF8023003F00803002B03D0039B66
:1033500043F080030393BDF8023003F00103DBB2B6
:10336000002B03D0039B43F020030393BDF80230EE
:1033700003F00203002B03D0039B43F040030393AD
:10338000BDF8023003F00403002B03D0039B43F489
:10339000807303934FF0200383F31188FDF7D8F96E
:1033A000019B9A68039B42EA0302019B9A60019B7E
:1033B00003F1040318464FF00001FEF701F9FDF791
:1033C000E7F94FF0000383F3118805B000BD00BF9B
:1033D00000B587B00190019BD3F8D0300593059BD1
:1033E0009B89ADF81230059B1B88ADF81030059B0A
:1033F0009B88ADF80E30BDF8103003F00F03002BA2
:1034000005D0BDF8103001981946FFF791FFBDF8BF
:10341000103003F48073002B21D04FF0200383F38E
:103420001188FDF795F9019B9B6843F40072019B9D
:103430009A60019B03F1040318464FF00001FEF768
:10344000BFF8FDF7A5F94FF0000383F31188059B42
:103450001B889BB223F480739AB2059B1A80BDF837
:10346000103003F02003002B12D04FF0200383F321
:103470001188FDF76DF9BDF80E30DBB201981946E1
:10348000FEF7E6FDFDF784F94FF0000383F31188A2
:10349000BDF8123003F08003002B3AD0BDF8103095
:1034A00003F08003002B34D04FF0200383F3118806
:1034B000FDF74EF9019B03F130031846FEF7A8FA19
:1034C00003460293029B002B19DA019B9B6843F091
:1034D0000802019B9A60019B03F1040318464FF018
:1034E0000001FEF76DF8BDF8123023F0C0039BB267
:1034F00043F040039BB29AB2059B9A8103E0029B82
:103500009AB2059B9A80FDF743F94FF0000383F3CD
:103510001188BDF8103003F04003002B28D04FF085
:10352000200383F31188FDF713F9019B9B6843F097
:103530001002019B9A60019B03F1040318464FF0AF
:103540000001FEF73DF8FDF723F94FF0000383F388
:103550001188BDF8123023F040039AB2059B9A817E
:10356000059B1B889BB223F040039AB2059B1A80EF
:1035700007B000BDAFF30080AFF30080AFF3008071
:1035800082B001904FF46053C4F201034FF46052D3
:10359000C4F20102928992B242F0800292B29A8100
:1035A00002B07047AFF30080AFF30080AFF300804C
:1035B00082B001904FF48843C4F200034FF4884274
:1035C000C4F20002928992B242F0800292B29A81D1
:1035D00002B07047AFF30080AFF30080AFF300801C
:1035E00008B5FDF7F5F840F66860C2F20000FFF795
:1035F000EFFEFDF71DF9FCF76BFE08BDAFF3008091
:1036000008B5FDF7E5F840F63C70C2F20000FFF7A0
:10361000DFFEFDF70DF9FCF75BFE08BDAFF30080A0
:1036200008B540F66860C2F200004FF0000143F2B6
:103630008152C0F60002FEF79BFC40F66863C2F2BE
:1036400000034FF46052C4F20102C3F8D02040F6E8
:103650003C70C2F200004FF0000143F2B152C0F6DC
:103660000002FEF785FC40F63C73C2F200034FF403
:103670008842C4F20002C3F8D02008BDAFF3008036
:1036800000B583B001900091009B002B04D144F65B
:103690009033C0F600030093019B1B7B012B31D1BB
:1036A000019A40F66863C2F200039A4211D14FF4C6
:1036B0008053C4F202034FF48052C4F202029269B2
:1036C00042F480429A614FF025004FF0C001FCF7B0
:1036D00087FE019A40F63C73C2F200039A4211D170
:1036E0004FF48053C4F202034FF48052C4F202023A
:1036F000D26942F40032DA614FF026004FF0C00187
:10370000FCF76EFE01980099FFF7CAFD03B000BDFB
:1037100082B001904FF48053C4F202034FF4805200
:10372000C4F20202926942F07D029A614FF4006392
:10373000C4F20103019A1268DA604FF40063C4F224
:103740000103019A92685A604FF40063C4F20103C6
:10375000019A52681A604FF44063C4F20103019A5F
:10376000D268DA604FF44063C4F20103019A5269EF
:103770005A604FF44063C4F20103019A12691A605F
:103780004FF48053C4F20103019A9269DA604FF456
:103790008053C4F20103019A126A5A604FF48053B5
:1037A000C4F20103019AD2691A604FF4A053C4F223
:1037B0000103019A526ADA604FF4A053C4F2010384
:1037C000019AD26A5A604FF4A053C4F20103019ADD
:1037D000926A1A604FF4C053C4F20103019A126B4B
:1037E000DA604FF4C053C4F20103019A926B5A603D
:1037F0004FF4C053C4F20103019A526B1A6002B035
:10380000704700BFAFF30080AFF30080AFF30080DC
:103810008AB0039002910192019B032B03D1039B79
:10382000029A1A6105E0019B042B02D1039B029AC4
:103830005A6144F6A033C0F60003019A13441B7882
:1038400004934FF000030693069B0793079B08938E
:10385000089B09934FF00003059335E0089B4FEA5E
:1038600003130893099B4FEA03130993069B4FEA3E
:1038700003130693079B4FEA03130793029B03F07E
:103880008003002B04D1089B43F00F03089304E04E
:10389000069A049B42EA03030693029B03F4004347
:1038A000002B04D1099B43F00F03099304E0079A0E
:1038B000049B42EA03030793029B4FEA43030293EC
:1038C000059B03F101030593059B072BC6D9039BB9
:1038D0005A68099B02EA0302079B42EA0302039B20
:1038E0005A60039B1A68089B02EA0302069B42EA9D
:1038F0000302039B1A600AB0704700BFAFF3008059
:1039000008B5FEF735FF08BDAFF30080AFF30080C8
:10391000704700BFAFF30080AFF30080AFF30080CB
:1039200000B583B0FEF74CF9FCF7FAFD00F050F952
:1039300000F046F800F044FA00F08AF84FF0010079
:1039400000F096F94FF00003ADF804304FF000039B
:10395000ADF8063001AB184600F062F84FF00500F4
:10396000FDF7F6FB4FF0020000F082F940F2FF7322
:10397000ADF8043040F2FF73ADF8063001AB1846E5
:1039800000F04EF800F084F84FF00500FDF7E0FB82
:103990004FF0040000F06CF940F6FF73ADF804300E
:1039A00040F6FF73ADF8063001AB184600F038F86A
:1039B00000F06EF84FF00500FDF7CAFBBEE700BF50
:1039C00008B54FF40060C4F201004FF010014FF051
:1039D0000502FFF71DFF4FF40060C4F201004FF035
:1039E00020014FF00502FFF713FF4FF48053C4F29C
:1039F00002034FF48052C4F20202D26942F0005234
:103A0000DA614FF4E843C4F200034FF001121A6088
:103A100008BD00BFAFF30080AFF30080AFF30080BC
:103A200082B001904FF4E843C4F20003019A128877
:103A30009A604FF4E843C4F20003019A52885A6135
:103A400002B07047AFF30080AFF30080AFF30080A7
:103A500008B540F66860C2F200004FF00001FEF7C2
:103A6000BFFA4FF40060C4F201004FF400714FF050
:103A70001002FFF7CDFE4FF40060C4F201004FF4D6
:103A800080614FF00202FFF7C3FE08BDAFF3008074
:103A900000B583B008484FF0FF31FDF781FE0346C3
:103AA0000193019BDBB2054819464FF0FF32FDF749
:103AB0005FFF03B000BD00BF780E0020980E00200D
:103AC00041F21003C2F2000318467047AFF30080C2
:103AD00000B583B0019040F67453C2F20003DA6976
:103AE00044F6F023C0F60003936141F23000C2F2C5
:103AF0000000FDF70DFC41F24003C2F200031A681A
:103B000041F2F813C2F200031A6041F2F813C2F254
:103B100000031B6803F00103DBB2002B0CD04FF451
:103B20008053C4F201034FF48052C4F20102D26800
:103B300082F02002DA6006E04FF48053C4F2010301
:103B40004FF020025A6141F2F813C2F200031B68E1
:103B500003F00203002B0CD04FF44063C4F20103C6
:103B60004FF44062C4F20102D26882F00102DA60CE
:103B700006E04FF44063C4F201034FF001025A61C2
:103B800041F2F813C2F200031B6803F00403002B98
:103B90000CD04FF44063C4F201034FF44062C4F20E
:103BA0000102D26882F00202DA6006E04FF440635C
:103BB000C4F201034FF002025A61FDF749FC4FF0D5
:103BC0007D00FDF7C5FA90E7AFF30080AFF300800A
:103BD00000B583B04FF48053C4F201034FF02002CC
:103BE0005A614FF44063C4F201034FF001025A617D
:103BF0004FF44063C4F201034FF002025A614FF4E4
:103C00008050C4F201004FF020014FF00602FFF790
:103C1000FFFD4FF44060C4F201004FF001014FF08E
:103C20000602FFF7F5FD4FF44060C4F201004FF0CB
:103C300002014FF00602FFF7EBFD41F23000C2F245
:103C40000000FDF745FB4FF00003009341F24800F0
:103C5000C2F200004FF4D8714FF0400243F6D12376
:103C6000C0F60003FDF734FA03B000BDAFF30080E7
:103C700000B583B0019041F23000C2F20000FDF7C0
:103C800047FB41F24003C2F20003019A1A60FDF7BC
:103C9000DFFB03B000BD00BFAFF30080AFF30080D7
:103CA00082B00190019B03F00103DBB2002B0BD02B
:103CB0004FF48053C4F201034FF48052C4F2010266
:103CC000D26882F02002DA60019B03F00203002B2D
:103CD0000BD04FF44063C4F201034FF44062C4F2CE
:103CE0000102D26882F00102DA60019B03F0040352
:103CF000002B0BD04FF44063C4F201034FF4406239
:103D0000C4F20102D26882F00202DA6002B07047A7
:103D100000B587B00390029101924FF00400FFF7C5
:103D2000BFFF41F28453C2F200031B7840F60C023D
:103D3000C2F200024FEAC30313445B68984702983B
:103D400000F0D6FB4FF0200383F31188FCF700FD51
:103D500041F25C50C2F20000FDF75AFE03460593A3
:103D6000059B13F1030F0CBF002301238DF81330C3
:103D70009DF81330002B06D0059BDAB241F2845334
:103D8000C2F200031A70FCF703FD4FF0000383F347
:103D900011889DF81330002B0CD041F28453C2F2ED
:103DA00000031B781A4640F60C03C2F2000353F8D6
:103DB0003230984707B000BDAFF30080AFF300800A
:103DC00008B541F25C50C2F2000041F27C51C2F2EF
:103DD00000014FF004024FF00003FDF7A1FD41F296
:103DE000FC10C2F2000041F25C21C2F200014FF46B
:103DF00080724FF00003FDF763FC41F21C20C2F219
:103E0000000041F25C31C2F200014FF480724FF0C9
:103E10000003FDF755FC41F23C20C2F2000041F2E4
:103E20005C41C2F200014FF480724FF00003FDF7D5
:103E300047FC4FF48050C4F201004FF4E0514FF0C2
:103E40000502FFF7E5FC40F6DC50C2F200004FF03F
:103E50000001FDF7FDFE40F6DC50C2F2000044F622
:103E60000041C0F6000141F28852C2F200024FF058
:103E70000203FDF725FF08BDAFF30080AFF300801C
:103E800000B583B0FFF71CFE03460193019B1B782E
:103E90001A46019B03F101031B784FEA03231A44DE
:103EA00040F60403C2F200031A60019B03F102030F
:103EB0001B781A46019B03F103031B784FEA032387
:103EC0001A4440F60003C2F200031A6003B000BDBA
:103ED00000B583B040F60403C2F200031B689BB236
:103EE000ADF8043040F60003C2F200031B689BB239
:103EF000ADF8063001AB1846FFF792FD03B000BDE8
:103F000000B583B0FFF7DCFD03460193019B1B78EE
:103F10001A46019B03F101031B784FEA03239BB26E
:103F200013449AB241F29853C2F200031A80019BE3
:103F300003F102031B781A46019B03F103031B786C
:103F40004FEA03239BB213449AB241F29853C2F250
:103F500000035A8041F29850C2F20000FFF760FD62
:103F600040F60403C2F200031B689AB241F29C536C
:103F7000C2F200031A8040F60003C2F200031B687D
:103F80009AB241F29C53C2F200035A8041F2985314
:103F9000C2F200031B881A4640F60403C2F2000373
:103FA0001A6041F29853C2F200035B881A4640F649
:103FB0000003C2F200031A60019B03F104031B78A3
:103FC0001A46019B03F105031B784FEA03231A44A9
:103FD000019B03F106031B784FEA03431A44019B3C
:103FE00003F107031B784FEA03631A4440F63403D6
:103FF000C2F200031A6041F29453C2F200034FF080
:1040000000021A6003B000BDAFF30080AFF3008080
:1040100008B541F29453C2F200031B6803F1010298
:1040200041F29453C2F200031A6041F29453C2F277
:1040300000031A6840F63403C2F200031B689A4278
:1040400022D341F29C50C2F20000FFF7E9FC41F29A
:104050009C53C2F200031B881A4640F60403C2F2C6
:1040600000031A6041F29C53C2F200035B881A46B7
:1040700040F60003C2F200031A6041F28453C2F218
:1040800000034FF000021A7008BD00BFAFF30080BC
:1040900000B583B0FFF714FD03460193019B1B7825
:1040A0001A46019B03F101031B784FEA03239BB2DD
:1040B00013449AB241F2A453C2F200031A80019B46
:1040C00003F102031B781A46019B03F103031B78DB
:1040D0004FEA03239BB213449AB241F2A453C2F2B3
:1040E00000035A80019B03F104031B781A46019BCD
:1040F00003F105031B784FEA03231A44019B03F1E4
:1041000006031B784FEA03431A44019B03F107039C
:104110001B784FEA03631A4440F63803C2F20003E7
:104120001A60019B03F108031B781A46019B03F1F7
:1041300009031B784FEA03239BB213449AB241F25E
:10414000A853C2F200031A80019B03F10A031B78F3
:104150001A46019B03F10B031B784FEA03239BB222
:1041600013449AB241F2A853C2F200035A80019B51
:1041700003F10C031B781A46019B03F10D031B7816
:104180004FEA03231A44019B03F10E031B784FEA05
:1041900003431A44019B03F10F031B784FEA0363A7
:1041A0001A4440F63C03C2F200031A6040F63C0396
:1041B000C2F200031A6840F63803C2F200031B681B
:1041C0001A4440F63C03C2F200031A6040F63C0376
:1041D000C2F200031A6841F2A053C2F200031A604F
:1041E00003B000BDAFF30080AFF30080AFF30080F9
:1041F00008B541F2A053C2F200031B6803F10102AB
:1042000041F2A053C2F200031A6041F2A053C2F27D
:1042100000031A6840F63803C2F200031B689A4292
:1042200006D141F2A850C2F20000FFF7F9FB22E0EC
:1042300041F2A053C2F200031A6840F63C03C2F2F6
:1042400000031B689A4216D341F2A450C2F2000048
:10425000FFF7E6FB41F2A053C2F200031A6840F6F2
:104260003C03C2F200031B68C3EB020241F2A053FD
:10427000C2F200031A6008BDAFF30080AFF3008004
:1042800000B583B0FFF71CFC03460193019B1B782C
:104290001A46019B03F101031B784FEA03239BB2EB
:1042A00013449AB241F2B053C2F200031A80019B48
:1042B00003F102031B781A46019B03F103031B78E9
:1042C0004FEA03239BB213449AB241F2B053C2F2B5
:1042D00000035A80019B03F104031B781A46019BDB
:1042E00003F105031B784FEA03239BB213449AB2F0
:1042F00041F2B453C2F200031A80019B03F106039A
:104300001B781A46019B03F107031B784FEA03232E
:104310009BB213449AB241F2B453C2F200035A80E2
:10432000019B03F108031B781A46019B03F1090363
:104330001B784FEA03231A44019B03F10A031B78FD
:104340004FEA03431A44019B03F10B031B784FEA26
:1043500003631A4440F64003C2F200031A6041F2BC
:10436000AC53C2F200034FF000021A6040F644035F
:10437000C2F200034FF001021A7003B000BD00BF8B
:1043800000B587B040F64403C2F200031B785AB26E
:1043900041F2AC53C2F200031B681A4441F2AC5321
:1043A000C2F200031A6041F2AC53C2F200031A6871
:1043B00040F64003C2F200031B689A4234BF002358
:1043C00001238DF8133041F2AC53C2F200031B6895
:1043D000002B14BF002301238DF812309DF81330F9
:1043E000002B06D040F64003C2F200031B68059381
:1043F0000DE09DF81230002B03D04FF00003059321
:1044000005E041F2AC53C2F200031B6805939DF82E
:104410001330002B03D19DF81230002B0CD040F646
:104420004403C2F200031B78C3F10003DAB240F682
:104430004403C2F200031A7041F2B053C2F2000307
:104440001B88039341F2B453C2F200031B8802930A
:10445000029A039BC3EB0203059A02FB03F31A467D
:1044600040F64003C2F200031B68B2FBF3F2039B69
:1044700013440193019B9BB2ADF8003041F2B0535D
:10448000C2F200035B88039341F2B453C2F200030B
:104490005B880293029A039BC3EB0203059A02FB1B
:1044A00003F31A4640F64003C2F200031B68B2FB56
:1044B000F3F2039B13440193019B9BB2ADF80230CE
:1044C0006B461846FFF7ACFA07B000BDAFF30080AB
:1044D000704700BFAFF30080AFF30080AFF3008000
:1044E000704700BFAFF30080AFF30080AFF30080F0
:1044F00000B585B0019041F28053C2F200031B6801
:1045000003F1010241F28053C2F200031A6041F24A
:104510008053C2F200031A6840F60803C2F2000397
:104520001B689A42C0F2848041F28053C2F20003B9
:104530001A6840F60803C2F200031B68C3EB0202CC
:1045400041F28053C2F200031A604FF0200383F35C
:104550001188FCF7FDF8019B1B88ADF80E30BDF803
:104560000E308DF80D30BDF80E304FEA13239BB29C
:104570008DF80C309DF80D3041F2FC10C2F20000B5
:104580001946FDF7C5F89DF80C3041F2FC10C2F257
:1045900000001946FDF7BCF8019B03F102031B88DC
:1045A000ADF80E30BDF80E308DF80D30BDF80E3080
:1045B0004FEA13239BB28DF80C309DF80D3041F279
:1045C0001C20C2F200001946FDF7A2F89DF80C303D
:1045D00041F21C20C2F200001946FDF799F8019B38
:1045E00003F104031B88ADF80E30BDF80E308DF8D2
:1045F0000D30BDF80E304FEA13239BB28DF80C300E
:104600009DF80D3041F23C20C2F200001946FDF742
:104610007FF89DF80C3041F23C20C2F200001946B0
:10462000FDF776F8FCF7B4F84FF0000383F3118838
:1046300005B000BDAFF30080AFF30080AFF30080A2
:1046400069646C65000000006D61696E0000000027
:10465000535623310000000053562332000000005F
:10466000535623330000000053562334000000004B
:104670005356233500000000535623360000000037
:104680005356233700000000535623380000000023
:1046900053562339000000005356233130000000E8
:1046A00053562331310000000000000000000000DC
:1046B000226368565453657449222829000000007B
:1046C0002263685654526573657449222829000094
:1046D0006368565452657365744928292C20233128
:1046E00000000000000000000000000000000000CA
:1046F000636853636852656164794928292C2023D3
:1047000031000000737461636B206F766572666CB4
:104710006F770000000000000000000000000000B3
:10472000226368546864437265617465492228296C
:104730000000000022636854686453657450726915
:104740006F72697479222829000000006368546838
:1047500064526573756D6528292C20233100000093
:10476000226368546864536C6565702228290000D0
:104770006368546864457869745328292C20233170
:10478000000000002263685468645761697422283D
:104790002900000063685468645761697428292CF3
:1047A0002023310000000000000000000000000095
:1047B0002263684D7478496E6974222829000000CC
:1047C0002263684D74784C6F636B53222829000074
:1047D00063684D74784C6F636B5328292C20233108
:1047E0000000000063684D74784C6F636B53282998
:1047F0002C202332000000002263684D747854722C
:10480000794C6F636B5322282900000063684D7454
:1048100078556E6C6F636B28292C202331000000C3
:1048200063684D7478556E6C6F636B28292C202358
:104830003200000063684D7478556E6C6F636B5383
:1048400028292C202331000063684D7478556E6C44
:104850006F636B5328292C202332000000000000D6
:1048600022636845767452656769737465724D6139
:10487000736B222829000000226368457674556E08
:10488000726567697374657222282900226368451E
:1048900076745369676E616C22282900226368452B
:1048A00076745369676E616C492228290000000004
:1048B00022636845767442726F6164636173744DFC
:1048C00061736B4922282900226368457674446924
:1048D000737061746368222829000000636845765C
:1048E00074446973706174636828292C2023310033
:1048F00022636849515265616454696D656F7574CE
:10490000222829002263684F5157726974655469DF
:104910006D656F75742228290000000000000000FA
:1049200022616463537461727422282900000000BC
:10493000616463537461727428292C202331000050
:104940002261646353746F70222829006164635389
:10495000746F7028292C20233100000022616463C9
:104960005374617274436F6E76657273696F6E49CA
:10497000222829006164635374617274436F6E76F8
:10498000657273696F6E4928292C2023310000005D
:104990002261646353746F70436F6E7665727369DE
:1049A0006F6E22282900000061646353746F7043A6
:1049B0006F6E76657273696F6E28292C2023310023
:1049C0002261646353746F70436F6E7665727369AE
:1049D0006F6E49222829000061646353746F70432D
:1049E0006F6E76657273696F6E4928292C202331AA
:1049F00000000000616463436F6E7665727428295D
:104A00002C20233100000000226164634163717532
:104A1000697265427573222829000000226164636F
:104A200052656C6561736542757322282900000028
:104A3000227364537461727422282900736453745E
:104A400061727428292C20233100000022736453E2
:104A5000746F702228290000736453746F702829C2
:104A60002C20233100000000227364496E636F6DB7
:104A7000696E674461746149222829002273645277
:104A80006571756573744461746149222829000059
:104A900022646D61416C6C6F63617465222829002A
:104AA00022646D6152656C6561736522282900007E
:104AB000646D6152656C6561736528292C20233112
:104AC00000000000000000000000000000000000E6
:104AD0006164635F6C6C645F737461727428292C09
:104AE0002023310000000000000000000000000052
:104AF0006C640000000000000000000000000000E6
:104B0000D11D0008011E0008311E0008511E0008BA
:104B1000711E0008A11E0008C11E0008F11E000839
:104B2000211F00080000000000000000000000003D
:104B3000080002400400024000000B001C0002407C
:104B40000400024004010C00300002400400024056
:104B500008020D0044000240040002400C030E0055
:104B6000580002400400024010040F006C00024094
:104B700004000240140510008000024004000240BE
:104B800018061100000000000000000000000000F6
:104B90008025000000000040000000000000000030
:104BA00004020408080003070808080808080808A1
:104BB0000B0F0000000000000000000000000000DB
:104BC000FFFFFFFF4444444444444444FFFFFFFFCD
:104BD0004444444444444444FFFFFFFF44444444A9
:104BE00044444444FFFFFFFF444444444444444499
:104BF000FFFFFFFF88888888888888880000000079
:104C00000100000003000000113D0008000000004A
:104C10000000000000000000DB00000000000000B9
:0C4C200000002000000000006A310000CD
:104C3000FF070000FF07000010270000813E00086A
:104C4000D13E0008013F00081140000891400008D3
:104C5000F14100088142000881430008D144000866
:104C6000E1440008E8030000E8030000D00700006A
:084C7000E80300000100000050
:0400000508000111DD
:00000001FF
