:020000040800F2
:1000000000040020E1060008B1070008B10700085D
:10001000B1070008B1070008B1070008B1070008E0
:10002000B1070008B1070008B1070008E1070008A0
:10003000B1070008B1070008B1070008B1080008BF
:10004000B1070008B1070008B1070008B1070008B0
:10005000B1070008B1070008B1070008B1070008A0
:10006000B1070008B1070008B107000851290008CE
:1000700091290008D1290008112A0008512A0008F6
:10008000912A0008D12A0008B1070008C1390008E8
:10009000B13C0008B1070008B1070008B10700082B
:1000A000B1070008B1070008B1070008B107000850
:1000B000B1070008B1070008B1070008112F0008B8
:1000C000B1300008B1070008B1070008B107000807
:1000D000B1070008B1070008B1070008B107000820
:0C00E000B1070008B1070008B1070008D4
:1000F00008B500210A2200F08BF908BD08B50022DE
:100100000A2300F0D5F808BD000000000000000040
:10011000114A034670B44FF0000C156813F80C2018
:10012000AC181046647804F00304012C11F80C405C
:1001300008BF02F120000CF1010C2E19224676783E
:1001400006F00306012E08BF04F12002801A01D137
:10015000002AE3D170BC70470008002000000000B6
:10016000C9B270B4002950D010F0030F10D003783A
:10017000002B79D0994246D0431C05E013F8012B9F
:10018000002A3FD091423ED013F0030F1846F5D11C
:10019000036841EA01260546A3F1013246EA064614
:1001A00022EA030212F0803F1DD186EA0303A3F185
:1001B000013222EA030313F0803F14D1043002E03D
:1001C00012F0803F0FD1054650F8043BA3F10134F3
:1001D00086EA030224EA0303A2F1013C13F0803F04
:1001E0002CEA0202ECD02B782846002B3CD0994216
:1001F00009D06B1C01E0914205D0184613F8012B81
:10020000002AF8D1104670BC704710F0030F0CD0D4
:100210000378002BF7D0431C03E013F8012B002ACE
:10022000F1D013F0030F1846F7D102680346A2F18C
:10023000013121EA020212F0803F0AD10430034664
:1002400050F8042BA2F1013121EA020212F0803FA2
:10025000F5D01A781846002AD5D00133184613F87D
:10026000012B002AFAD1CEE71846CCE700000000A7
:1002700070B40478054674B10E788446054656B1CC
:10028000B44218BF0A4602D108E09C4206D012F8D8
:10029000013F002BF9D1281A70BC70479CF801402F
:1002A0000CF10105002CF6D0AC46E9E70000000097
:1002B0002DE9F04F85B01F468C4602920B46534AFB
:1002C0000390166813F8014B32191D4692F801B0DD
:1002D0001BF0080BF6D12D2C73D02B2C08BF15F872
:1002E000014BD7F1010338BF0023102F14BF1A466A
:1002F00043F0010232B1302C73D01BB1302C00F02E
:1003000082800A27BA46BBF1000F51460CBF6FF03E
:1003100000494FF00049CDF804C0484600F0B6F956
:1003200048468846514600F083F833190022DDF82C
:1003300004C05B78114613F0040F1ED0303CA74276
:1003400025DD814294BF0023012353EAD2722ED1CE
:10035000814214BF002301234445D4BF002303F08E
:100360000103002B23D10AFB014115F8014B0122A7
:1003700033195B7813F0040FE0D113F0030306D0B8
:10038000012B14BF57233723E41AA742D9DCB2F15B
:10039000FF3F1BD00846BBF1000F10D1029B1BB1E1
:1003A00052B90299C1F800C005B0BDE8F08F4FF016
:1003B000FF3215F8014BDBE705F1FF3CF1E748425E
:1003C000ECE715F8014B4FF0010B8AE70399BBF1FD
:1003D000000F0CBF6FF000404FF0004022230B6075
:1003E000DCE72A78782A14BF00210121582A14BF9B
:1003F0000A4641F00102002A3FF47FAF10276C78D3
:10040000BA4602357FE70827BA467CE70008002095
:1004100040F6080CC2F2000C08B58E4613460146A1
:100420007246DCF80000FFF743FF08BD0000000043
:100430004A1E08BF7047C0F02481884240F21681EE
:10044000114200F01781B0FA80F3B1FA81F2A2EB09
:100450000303C3F11F0304A202EB03134FF00002D6
:100460009F4600BFAFF30080B0EBC17F00BF42EBFF
:10047000020228BFA0EBC170B0EB817F00BF42EB4E
:10048000020228BFA0EB8170B0EB417F00BF42EBBE
:10049000020228BFA0EB4170B0EB017F00BF42EB2E
:1004A000020228BFA0EB0170B0EBC16F00BF42EBAE
:1004B000020228BFA0EBC160B0EB816F00BF42EB2E
:1004C000020228BFA0EB8160B0EB416F00BF42EB9E
:1004D000020228BFA0EB4160B0EB016F00BF42EB0E
:1004E000020228BFA0EB0160B0EBC15F00BF42EB8E
:1004F000020228BFA0EBC150B0EB815F00BF42EB0E
:10050000020228BFA0EB8150B0EB415F00BF42EB7D
:10051000020228BFA0EB4150B0EB015F00BF42EBED
:10052000020228BFA0EB0150B0EBC14F00BF42EB6D
:10053000020228BFA0EBC140B0EB814F00BF42EBED
:10054000020228BFA0EB8140B0EB414F00BF42EB5D
:10055000020228BFA0EB4140B0EB014F00BF42EBCD
:10056000020228BFA0EB0140B0EBC13F00BF42EB4D
:10057000020228BFA0EBC130B0EB813F00BF42EBCD
:10058000020228BFA0EB8130B0EB413F00BF42EB3D
:10059000020228BFA0EB4130B0EB013F00BF42EBAD
:1005A000020228BFA0EB0130B0EBC12F00BF42EB2D
:1005B000020228BFA0EBC120B0EB812F00BF42EBAD
:1005C000020228BFA0EB8120B0EB412F00BF42EB1D
:1005D000020228BFA0EB4120B0EB012F00BF42EB8D
:1005E000020228BFA0EB0120B0EBC11F00BF42EB0D
:1005F000020228BFA0EBC110B0EB811F00BF42EB8D
:10060000020228BFA0EB8110B0EB411F00BF42EBFC
:10061000020228BFA0EB4110B0EB011F00BF42EB6C
:10062000020228BFA0EB0110B0EBC10F00BF42EBEC
:10063000020228BFA0EBC100B0EB810F00BF42EB6C
:10064000020228BFA0EB8100B0EB410F00BF42EBDC
:10065000020228BFA0EB4100B0EB010F00BF42EB4C
:10066000020228BFA0EB0100104670470CBF01201A
:1006700000207047B1FA81F2C2F11F0220FA02F0A5
:10068000704708B14FF0FF3000F012B80029F8D0E1
:100690002DE90340FFF7CCFEBDE8064002FB00F366
:1006A000A1EB0301704700BF000000000000000044
:1006B000704700BF000000000000000000000000C4
:1006C000704700BFAFF30080AFF30080AFF300804E
:1006D000FEE700BFAFF30080AFF30080AFF3008010
:1006E00072B6244A82F30988022383F31488BFF385
:1006F0006F8F214B21498B4205D24FF0553043F883
:10070000040B8B42FBD31E4B934205D24FF0553165
:1007100043F8041B9342FBD303F0B2FC194B1A4875
:10072000834206D2194A52F8041B43F8041B834241
:10073000F9D3174B174A934204D2002143F8041B04
:100740009342FBD3144D154CFFF7BAFFAC4204D2D1
:1007500054F8043B9847AC42FAD3114D114C04F0C5
:100760001FF8AC4204D254F8043B9847AC42FAD389
:10077000FFF7AEFF0008002000000020000400206A
:1007800000040020000800205C0C0020D86800084D
:10079000600C00206C1B0020EC000008EC0000083E
:1007A000EC000008EC000008AFF30080AFF300801D
:1007B000FEE700BFAFF30080AFF30080AFF300802F
:1007C00072B6FEE7AFF30080AFF30080AFF30080B6
:1007D00000F096F900F00CFC00F0AAF900DF00BF71
:1007E000EFF30983203383F30988002383F311880F
:1007F000704700BFAFF30080AFF30080AFF300801D
:1008000008B500224FF46D43CEF20003C0F2FA5255
:10081000002199600720DA60102100F0C1F80A2059
:100820004FF4007100F0BCF80B20802100F0B8F804
:1008300008BD00BFAFF30080AFF30080AFF30080CE
:10084000202383F311884FF46D43CEF200035B68DD
:1008500013F4006316D0EFF30983203B83F3098878
:10086000104A4FF080709169D86171B11168D269F6
:1008700089689268914294BF002201227AB10A4AA3
:100880009A6101E083F3118870471168D269896821
:100890009268914234BF00220122002AEFD1034A1C
:1008A0009A61F1E794110020D1070008DC070008E5
:1008B00008B500F09DF9202383F3118800F058F962
:1008C00000F0D6F800F074F9002383F3118800F0EB
:1008D000AFF9FFF7B5FF08BDAFF30080AFF30080BD
:1008E0002DE9F04FC1F80CD0D0F80CD0BDE8F08F56
:1008F00008B500F01DF9002383F311882846A047AE
:1009000000F09EFC08BD00BFAFF30080AFF3008095
:1009100000F0030330B4DB00FF259D4000F01F0210
:1009200011FA03F34FF0010C0CFA02FC84084FF4A7
:100930006142CEF20002C03452F82410400921EA8C
:10094000050141EA030300F1600142F8243042F856
:1009500021C042F820C030BC704700BFAFF3008018
:1009600000F01F034FF0010C0CFA03FC00F003022F
:10097000FF23D20013FA02F241094FF46143CEF291
:1009800000032031800843F821C0C03053F8201004
:1009900021EA020243F82020704700BFAFF3008035
:1009A00000F0030310B4DB00FF249C4011FA03F3B2
:1009B00080084FF46D42CEF20002063052F820C09B
:1009C0002CEA040141EA030342F8203010BC7047CE
:1009D000024B034ADB699A61FEE700BF94110020D5
:1009E000B0580008AFF30080AFF30080AFF3008091
:1009F00030B583B0FFF704FF00F022FA00F0B0F941
:100A000000F066FF00F0BCFF00F062F940F66040C5
:100A10004021C2F2000000F013FB41F2941440F2B6
:100A20000043C2F20003C2F200040125E06180F835
:100A30002050C36100F04CF8002383F3118862B6A4
:100A400045F6B801E269C0F60001916140F6B04098
:100A5000002240F6D1130092C0F60003C0212A46BE
:100A6000C2F2000000F074FB03B030BDAFF30080B1
:100A700070B500F0FDF8114B9A69002A01DD013ACA
:100A80009A61DB690E4C596A226801315962E36848
:100A90000133A242E3600FD09568013D95605DB9D6
:100AA00026461168D3681069D5604E60216098476A
:100AB00022689368002BF4D070BD00BF9411002011
:100AC00084110020AFF30080AFF30080AFF300800B
:100AD00008B5064B1B6813B9054B1B6823B1054AC3
:100AE000054B1A60FFF76CFE08BD00BF700D0020BB
:100AF0007C110020D058000880110020AFF3008046
:100B0000074B10B51B68074C13B9064C236823B17B
:100B1000054A064B1A60FFF753FE0123236010BD00
:100B2000700D00207C110020D85800088011002092
:100B3000084B10B51B68084C33B9074C2368002BD1
:100B400002DD0023236010BD044A054B1A60FFF745
:100B500037FEF6E7700D00207C110020E0580008F9
:100B600080110020AFF30080AFF30080AFF300806E
:100B7000084B10B51B68002BD8BF074C02DD064C94
:100B8000236823B1054A064B1A60FFF719FE0123BB
:100B9000236010BD700D00207C110020E858000873
:100BA00080110020AFF30080AFF30080AFF300802E
:100BB000094B10B51B68002BD8BF084C06DD074C4D
:100BC0002368002B02DD0023236010BD044A054B7F
:100BD0001A60FFF7F5FDF6E7700D00207C1100208C
:100BE000F058000880110020AFF30080AFF30080C0
:100BF00010B5202383F31188094C2368002B02DBF6
:100C0000084A12682AB1084B084A1A60FFF7D8FD53
:100C1000236801332360002383F3118810BD00BFD4
:100C2000700D00207C11002080110020F858000871
:100C300010B5202383F31188094C2368002B02DDB3
:100C4000084A12682AB1084B084A1A60FFF7B8FD33
:100C50002368013B2360002383F3118810BD00BF8C
:100C6000700D00207C110020801100200059000828
:100C700008B5074B1B68002B04DB064B1B68002BD9
:100C800000DD08BD044A054B1A60FFF799FDF8E73F
:100C9000700D00207C1100200859000880110020F0
:100CA00008B5074B1B6823B9064B1B68002B00DDFA
:100CB00008BD054A054B1A60FFF782FDF8E700BF43
:100CC000700D00207C1100201059000880110020B8
:100CD00040F67453C2F200031A46402142F8081B42
:100CE0005A607047AFF30080AFF30080AFF300802D
:100CF00070B40D4A0D495368CE680D49846ACD69B8
:100D000090F820C003F1100102F5816081421E605D
:100D10005D609C6083F80CC028BF02F1080351603D
:100D200028BF536070BC7047740D002084110020F0
:100D300094110020AFF30080AFF30080AFF3008088
:100D400008B541F28013C2F200031860FFF738FDC6
:100D500008BD00BFAFF30080AFF30080AFF30080A9
:100D600041F28413C2F200034FF0FF329A60002276
:100D70005B601B60DA607047AFF30080AFF3008008
:100D8000F8B5044615461F460E46FFF771FFD4F12D
:100D9000010338BF0023002D08BF43F00103002BDF
:100DA00019D1002E17D00E4927610B68E5609A68AB
:100DB000964204D91B68B61A9A68B242FAD35A68A6
:100DC0008B422360626014605C60A66002D09A6807
:100DD000961B9E60F8BD0348FFF7B2FFE3E700BF34
:100DE0008411002020590008AFF30080AFF3008089
:100DF00010B50446FFF73CFF84B1E36893B1236864
:100E00000A4A934203D09968A2688A189A60626875
:100E1000002113602368E1605A6010BD0448FFF7A9
:100E20008FFFEAE70348FFF78BFFE8E78411002014
:100E30003059000840590008AFF30080AFF300803C
:100E400041F29413C2F2000300229A6014225B6004
:100E50001B609A615B611B61704700BFAFF300804C
:100E600010B590F820300446D3F1010238BF0022BB
:100E70000E2B14BF134642F001037BB90022094B2D
:100E8000A16884F820201B689A688A42FBD25A68BD
:100E90002360626014605C60204610BD0248FFF76A
:100EA0004FFFEBE79411002060590008AFF300807A
:100EB00008B590F820300D2B11D8DFE803F015109D
:100EC0001007100B101010101010100B836A9A6886
:100ED00001329A60436802681A60026853604FF0FA
:100EE000FF338362FFF7BCFF08BD00BFAFF3008094
:100EF00070B5104C0646FFF7D3FEE569142185F85E
:100F00002060236828461A68A1610121546083F893
:100F100020102260E361FFF7EBFEEA69ADF12403E4
:100F20009A4202D90448FFF70BFFE0692946FFF710
:100F3000D7FC70BD9411002074590008AFF30080F5
:100F4000F0B50F4687B00546FFF7AAFEB7F1FF3FA1
:100F500013D00C4C01AEE36939460B4A3046FFF71B
:100F60000FFF2846FFF7C4FF049B13B13046FFF77D
:100F70003FFFE369986A07B0F0BD2846FFF7B8FF66
:100F8000004CF6E794110020B10E0008AFF300808A
:100F900070B5144D04460E46FFF782FEE869A2685C
:100FA0008368A6629A4214D9FFF75AFF01230646C6
:100FB00084F820301423AB61EC61FFF799FEF269ED
:100FC000ADF124039A4208D820463146FFF788FC49
:100FD00070BD2046FFF744FFFAE70348FFF7B0FE75
:100FE000F2E700BF9411002074590008AFF30080AD
:100FF00038B50F4C14212368E5691A68A1610121F5
:10100000546083F8201028462260E361FFF728FF30
:101010002846FFF76DFEEA69ADF124039A4202D932
:101020000448FFF78DFEE0692946FFF759FC38BDFB
:101030009411002074590008AFF30080AFF30080D2
:101040004FF0020C002380F820C041F294124FF0C0
:10105000010CC2F2000280F8213080F822C0D2F8E0
:1010600014C070B400F1300400F12C0600F14C05FE
:1010700002618160C0F814C0416450610364C363BD
:1010800043628361CCF81000C66244630463C561A7
:1010900070BC7047AFF30080AFF30080AFF3008007
:1010A000884203D200F8012B8142FBD8704700BF71
:1010B000F8B504460D461F461646FFF7D9FDD4F194
:1010C000010338BF0023AF2D98BF43F0010343B99C
:1010D0007F2E94BF00230123002F08BF43F001039C
:1010E00013B11648FFF72CFE243D06986119E16004
:1010F000486013486751086202210023114A84F8AE
:101100002010012184F8221084F82130506904F164
:10111000300104F12C0504F14C0C22616061A660E1
:101120006664546123640461E3636362A361E562FE
:1011300061632163C4F81CC02046F8BD90590008C3
:10114000F108000894110020AFF30080AFF3008095
:10115000F0B50D4616461F4683B0044600F14C021A
:101160000346FF2103F8011B9342FBD163199A4206
:1011700004D2552102F8011B9A42FBD1202383F3AC
:101180001188FFF7BDFCDDF820C03B4632462946FA
:101190002046CDF800C0FFF78BFF00210446FFF783
:1011A000F7FEFFF7C5FC002383F31188204603B048
:1011B000F0BD00BFAFF30080AFF30080AFF300805D
:1011C00010B5044610B90948FFF7BAFD202383F390
:1011D0001188FFF795FC21460620FFF7B1FEFFF7C7
:1011E000A7FC002383F3118810BD00BFD05900086D
:1011F000114A38B5D4690346254655F82C0FA36229
:10120000A84206D00368E362FFF72AFEE06AA8421C
:10121000F8D194F8213013F0030F01BF22696369FC
:101220001A61226908BF53610E20FFF761FE03486F
:10123000FFF786FD38BD00BF94110020E05900087B
:1012400010B52023044683F31188FFF759FC20468C
:10125000FFF7CEFF10BD00BFAFF30080AFF30080FB
:1012600038B50446202383F31188FFF749FC94F82E
:101270002250002D20D0013DEDB284F82250FFF71E
:1012800057FC002383F311881DB994F820300E2BEE
:1012900000D038BD94F8213003F00303012B11D0A6
:1012A000022BF6D163692269A06C1A61226921467A
:1012B000536100F075FCECE70748FFF741FD94F837
:1012C0002250D8E76369226920461A612269536176
:1012D00000F0B6FBDDE700BF445A0008AFF3008022
:1012E0002DE9F04182B00D4616461F4600F060FB26
:1012F000044628B300F14C084146FF22FFF7D0FE18
:10130000611940465522FFF7CBFE202383F3118855
:10131000FFF7F6FBDDF820C032463B462946204663
:10132000CDF800C0FFF7C4FE0123044684F8213045
:101330000021FFF72DFEFFF7FBFB002383F311884D
:10134000204602B0BDE8F081AFF30080AFF300802B
:1013500010B5202383F31188FFF7D2FB41F29413D9
:10136000C2F200031C6994F82230013384F8223061
:10137000FFF7DEFB002383F31188204610BD00BF7A
:1013800038B50546202383F31188FFF7B9FB2C6994
:101390000D4B9C4216D094F82230FF2B0CD0013319
:1013A00084F82230FFF7C4FB002383F3118828461A
:1013B000FFF756FF204638BD0448FFF7C1FC94F8FC
:1013C0002230ECE70024EDE794110020805A000859
:1013D00010B5044620B1002364602460A36010BDF2
:1013E0000148FFF7ADFCF6E7A05A0008AFF3008014
:1013F00038B53D4B0546DC69FFF752FC002D6FD038
:10140000A868002867D0A26883689A4208D990F833
:1014100020308260042B42D0052B2AD0002B1DD017
:101420002B461B689D4203D09968A2689142F8D26E
:101430005A682360626004205C601460A562FFF754
:1014400057FDAB68A34202D02848FFF779FC236C14
:10145000AB4202D02648FFF773FC38BD43680268F0
:1014600001211A60026880F820105360FFF7F8FC31
:10147000D6E741680368D0F828C00B60D0F800E0D8
:101480006346CEF804101B689C4502D099689142CF
:10149000F9D25A680360426010605860C0E7416842
:1014A0000368D0F828C00B60D0F800E06346CEF89F
:1014B00004101B689C4502D099688A42F9D95A6881
:1014C0000360426010605860DCF80800A26883681E
:1014D00093429CD3A4E7236CAC60EB602564BCE72B
:1014E0000448FFF72DFC8BE794110020C05A000838
:1014F000D45A0008B05A0008AFF30080AFF3008060
:1015000010B52023044683F31188FFF7F9FA20462B
:10151000FFF76EFFFFF70CFB002383F3118810BD6C
:101520001E4A38B5D569202383F31188FFF7E8FAFE
:101530002C6C002C2CD0A368AB4203D01848FFF7CA
:10154000FFFB2C6C2068E368A0422B641DD0696C03
:101550004BB11A689A4203D09268914238BF114643
:10156000DB68002BF5D10368026CA96023600021C1
:101570005C60A060E2600464FFF70AFDFFF7D8FA40
:10158000002383F31188204638BD0023A360F5E7CC
:101590000448FFF7D5FB2C6CCDE700BF9411002069
:1015A000105B0008FC5A0008AFF30080AFF3008026
:1015B00038B504460D46FFF75BFB002C1CD0E26BF0
:1015C00094F820301543082BE5630CD0092B00D08C
:1015D00038BDA36A1D40AB42FAD12046FFF740FC5C
:1015E00000238362F4E7A36A1D42F1D02046FFF78F
:1015F00037FC00238362EBE70148FFF7A1FBDEE73E
:101600007C5B0008AFF30080AFF30080AFF3008095
:1016100070B505460E46FFF72BFB65B12C68AC4252
:1016200008D0A168606846EA0101FFF7C1FF24689D
:10163000AC42F6D170BD0248FFF782FBEEE700BF77
:10164000A05B0008AFF30080AFF30080AFF3008031
:1016500008B503464FF0FF3069B1074AD3F804C01C
:10166000D2690D2013609362C2F804C05A60CCF8AE
:101670000020FFF765FC08BD94110020AFF3008047
:101680008A184FF0000C40600060C0F808C041614B
:101690008161C1600261C361704700BFAFF3008028
:1016A00070B5202382B004460D4683F31188FFF7FE
:1016B00027FAE3690BB120469847A66820462946D9
:1016C00066B9FFF7C5FF0028F7DA0190FFF730FA97
:1016D000334683F31188019802B070BDA369013EBF
:1016E000A66013F8015B2269A361934224BFE368FB
:1016F000A361FFF71DFA002383F311882846EBE767
:101700002DE9F047044690468A461D46C769002ADF
:1017100038D0202383F31188FFF7F2F900260FB1A8
:101720002046B847D4F8089020462946B9F1000F62
:101730000BD1FFF78DFF0028F4D0FFF7F9F94B46E6
:1017400083F311883046BDE8F087A36909F1FF39BA
:10175000C4F8089013F8012B0AF806202269A36147
:10176000934224BFE368A361FFF7E2F9002383F308
:1017700011880136B045E5D0202383F31188FFF7A7
:10178000BFF9CCE70148FFF7DBFAC2E7E05B0008EE
:1017900001EB020C40600060826041618161C160C8
:1017A000C0F810C0C3617047AFF30080AFF3008092
:1017B000F0B5202383B004460D46164683F3118806
:1017C000FFF79EF9A7682046314667B9FFF740FF4B
:1017D0000028F7DA0190FFF7ABF93B4683F3118855
:1017E000019803B0F0BD6369013FA76003F8015B96
:1017F00022696361934224BFE3686361E3690BB1CB
:1018000020469847FFF794F9002383F31188184680
:10181000E7E700BFAFF30080AFF30080AFF30080D5
:101820002DE9F047044615460E469A46D0F81C802E
:10183000002A40D0202383F31188FFF761F90027A5
:10184000D4F8089009F1FF33B9F1000F25D0A36057
:101850003278636903F8012B22696361934224BFE4
:10186000E3686361B8F1000F01D02046C047FFF77D
:101870005FF9002383F31188013715F1FF3517D085
:101880000136202383F31188FFF73AF9D4F8089042
:1018900009F1FF33B9F1000FD9D120465146FFF7C6
:1018A000D7FE0028CCD0FFF743F94B4683F31188CD
:1018B0003846BDE8F0870248FFF742FABAE700BFB2
:1018C000F45B0008AFF30080AFF30080AFF300805B
:1018D00045F20001084841F2B81241F2B413C2F2D5
:1018E0000001C2F2000220F00700C2F2000321F062
:1018F0000701106019607047731B0020AFF3008070
:1019000010B50446FFF7B4F9074A08491368096897
:10191000E01D20F00700C91A884203D8181810608B
:10192000184610BD0020FCE7B8110020B4110020BB
:1019300010B52023044683F31188FFF7E1F8204611
:10194000FFF7DEFF0446FFF7F3F8002383F3118867
:10195000204610BDAFF30080AFF30080AFF30080EE
:1019600041F2B41241F2B813C2F20002C2F2000313
:1019700010681B68C01A7047AFF30080AFF3008097
:1019800008B541F6311141F2C013C2F20003002242
:10199000C0F6000103F1100019609A60DA60FFF7E9
:1019A00017FD08BDAFF30080AFF30080AFF30080F8
:1019B000224B70B50446002808BF1C46CE1D04F11A
:1019C000100026F0070604F10805FFF799FD00E076
:1019D0001D462B68002B21D05A689642F8D806F194
:1019E0000801914217D84FF6F870CFF6FF70D3F880
:1019F00000E0801B03EB010C821843F801E0CCF8F7
:101A00000420C5F800C05E601D4645F8084BFFF78E
:101A100087FD284670BD1A682A60F5E7FFF780FD4C
:101A20002568002DF5D006F10800A84705460028D6
:101A3000EFD00460466000F10805EAE7C01100201D
:101A4000F8B5074600285DD057F8086CA7F10805DF
:101A500006F11000FFF754FD08363446AC4204D8B6
:101A600063680833E3189D4214D3B44214BF0023C3
:101A70000123A54288BF43F00103C3B12368C3B16A
:101A80009D4216D31C46AC42EFD863680833E31876
:101A90009D42EAD21D48FFF753F9B44214BF002318
:101AA0000123A54288BF43F00103002BE6D124683F
:101AB000D4E76A6847F8083C256002F1080357F844
:101AC000080CE918814208D0636803F10802A218E3
:101AD000AA420FD0FFF724FDF8BD4968EB58521811
:101AE00008326A6047F8083C636803F10802A218EC
:101AF000AA42EFD1696857F8082C5B180833636075
:101B00002260E7E70248FFF71BF99DE7305C000819
:101B1000205C0008AFF30080AFF30080AFF30080DB
:101B200038B50E4B0446002808BF1C4604F11000CF
:101B30000D46FFF7E5FCA3681A461C463BB10022A0
:101B4000144659681B6852180134002BF9D105B1AD
:101B50002A60FFF7E5FC204638BD00BFC011002019
:101B600038B504460D46FFF783F8D4F1010338BFBA
:101B70000023002D08BF43F0010313B915F0070F30
:101B800002D00348FFF7DCF823682B60256038BDDE
:101B9000745C0008AFF30080AFF30080AFF3008007
:101BA00038B505460C46202383F31188FEF7A8FFBD
:101BB00028462146FFF7D4FFFEF7BAFF002383F340
:101BC000118838BDAFF30080AFF30080AFF3008021
:101BD00008B501F04DF800F093FC46F2A010C0F6F5
:101BE000000001F06DFE00F00BF800F089F900F044
:101BF0008FFD02F04DFA08BDAFF30080AFF3008017
:101C000008B501F00DFB08BDAFF30080AFF3008015
:101C100008B5012203461A70002200F10C005A6038
:101C2000FFF7D6FB08BD00BFAFF30080AFF3008025
:101C300038B5D0F1010338BF0023002908BF43F0B5
:101C4000010304460D46002B1FD123785A1ED2B241
:101C5000053B18BF0123012A94BF002303F00103B1
:101C600013B10C48FFF76CF8202383F31188FEF7BB
:101C700047FF2046656001F0EBFA02232370FEF770
:101C800057FF002383F3118838BD0348FFF758F846
:101C9000DBE700BFA05C0008905C0008AFF30080A9
:101CA00010B50446F0B123785A1ED2B2053B18BFD6
:101CB0000123012A94BF002303F0010313B10B4851
:101CC000FFF73EF8202383F31188FEF719FF204623
:101CD00001F01EFC01232370FEF72AFF002383F38B
:101CE000118810BD0248FFF72BF8DCE7BC5C000848
:101CF000B05C0008AFF30080AFF30080AFF300806A
:101D00002DE9F0478846D0F1010138BF002184B0A9
:101D1000B8F1000F08BF41F00101044692461D468C
:101D2000DDF830900D9E0E9F49B9D2F1010338BF06
:101D30000023002D08BF43F00103002B2AD01A48CE
:101D4000FEF7FEFF2378022B02D01848FEF7F8FFBB
:101D5000202383F31188FEF7D3FE0023A36003231F
:101D6000237020462B4641465246CDF800900196FE
:101D7000029701F07DFCB0F1FF3F054611D0022330
:101D80002370FEF7D5FE002383F31188284604B0A4
:101D9000BDE8F08716B1B9F1000FD0D0002FD1D136
:101DA000CDE705232370ECE7E05C0008005D000848
:101DB0002DE9F0410F46D0F1010138BF002182B07A
:101DC000002F08BF41F00101044690461D46089EC1
:101DD00049B9D2F1010338BF0023002D08BF43F0F9
:101DE0000103002B27D01748FEF7AAFF2378022B08
:101DF00002D01548FEF7A4FF202383F31188FEF7D5
:101E00007FFE0023A3600423237020462B4639461F
:101E10004246009601F0A4FBB0F1FF3F05460DD00D
:101E200002232370FEF784FE002383F311882846E3
:101E300002B0BDE8F081002ED8D1D4E7052323708D
:101E4000F0E700BF205D00083C5D0008AFF30080B4
:101E5000F0B51D4687B004460F461646202383F38F
:101E60001188FEF74DFEDDF830C00023A36023701B
:101E7000CDF800C0DDF834C02B46CDF804C0DDF845
:101E800038C02046CDF808C0DDF83CC03946CDF852
:101E90000CC0DDF840C03246CDF810C001F080FC27
:101EA000B0F1FF3F054609D002232370FEF740FE44
:101EB000002383F31188284607B0F0BD0523237063
:101EC000F4E700BFAFF30080AFF30080AFF3008012
:101ED00010B590F84230044684F84A3001F0A8FD6D
:101EE00063681B6813B120460121984703232370C0
:101EF00010BD00BFAFF30080AFF30080AFF30080F0
:101F000008B501F065FD08BDAFF30080AFF30080B8
:101F1000002301220270436083608381C381704784
:101F2000D0F1010338BF0023002908BF43F00103AB
:101F300070B504460D46002B21D1202383F3118870
:101F4000FEF7DEFD2378013BDBB2012B02D90E4800
:101F5000FEF7F6FE00262046656026616661A661F2
:101F6000E66126626662A662E66201F039FD02233E
:101F70002370FEF7DDFD334683F3118870BD0348FF
:101F8000FEF7DEFED9E700BFB05D0008A05D0008E7
:101F9000F8B5044615460E46FEF76AFED4F1010375
:101FA00038BF0023002D08BF43F00103002B26D1CA
:101FB0002378042B02D01448FEF7C2FE371D54F8D4
:101FC000273013B11148FEF7BBFE2B6813F0100346
:101FD0000ED169690A4642F8043B4B605360A96917
:101FE0000A4642F8043B04324B6042F8043B13605B
:101FF00044F827502046314601F02AFDF8BD044838
:10200000FEF79EFED4E700BFF45D0008105E0008F6
:10201000DC5D0008AFF30080AFF30080AFF3008019
:1020200070B504460E46FEF723FE94B1E38953FAD9
:1020300006F515F0010501D0012070BD0122B24066
:1020400042EA03032046E381314601F0A9FF284616
:10205000F3E70248FEF774FEE8E700BF645E00089D
:1020600070B504460E46FEF703FE94B1A38953FAF9
:1020700006F515F0010501D0012070BD0122B24026
:1020800042EA03032046A381314601F099FF284626
:10209000F3E70248FEF754FEE8E700BF7C5E000865
:1020A00008B5022100230170A0F8483080F84A30BA
:1020B00080F84B308381C381036143618361C361D5
:1020C000036243628362C36280F8303001F040FDF6
:1020D00008BD00BFAFF30080AFF30080AFF3008016
:1020E000F8B50023044680F8303000F1400201F0DA
:1020F0006FFD63689B68002B1ED020469847D8B1BF
:10210000A56B94F84030B4F84620AA423CBFA263C5
:10211000154613F0800F79D1002D69D1042384F87E
:102120003030204629462A462B4601F021FF204622
:10213000294601F045FFF8BD94F8403013F06006E1
:102140001A4611D00021204601F05AFF20460021F6
:1021500001F046FF63681B6813B1204605219847CC
:10216000052384F83030E6E794F8417003F07F01EE
:1021700041EA0727B7F5407F00F0A68016DDB7F5E6
:10218000C06F00F0CB805EDDB7F5106F00F0B3805C
:1021900040F60242974269D0B7F5006FD2D10125CF
:1021A00004F14B026263A563E663ACE7022F74D0CF
:1021B00057DDB7F5807F60D0B7F5817FC2D194F845
:1021C0004230002BBED194F8443013F00F0109D0F7
:1021D00013F0800F40F0DE80C9B2204601F020FFEE
:1021E00094F8402000256563A563E56313468AE7FC
:1021F000032384F8303020460021626B2B4601F027
:102200009FFE2046002101F0CBFE94E76DB1012333
:1022100084F8303020460021626B2B4601F0A8FE86
:102220002046002101F0CCFE85E7022384F83030FF
:10223000204629462A462B4601F082FE20462946A2
:1022400001F0AEFE77E740F202318F427BD0B7F566
:10225000A06F7FF477AF564A6663A663E2633546A4
:1022600051E7002F40D0012F7FF46CAF514A022577
:1022700062630022A563E26345E794F84220012AE5
:102280007FF460AFB4F84820666322F00202A4F83D
:102290004820A663E663354635E794F8441011F00C
:1022A000800F68D101F00F01204601F071FC012878
:1022B00068D002287FF446AF3F4BA0636363E663B8
:1022C00094F8403005461EE794F84220012A7FF436
:1022D00039AFB4F84820666342F00202A4F84820FF
:1022E000A663E66335460EE7022504F14802626301
:1022F000A563E76307E794F8423084F84B30002B7E
:1023000036D10323237063681B68002B3FF46AAF48
:1023100020460221984794F8402063E7606894F8CB
:102320004310456894F84220B4F844302046A8474A
:1023300000283FF407AF436805686363A563E6635D
:1023400094F84030DFE694F84230002B7FF4FAAE88
:1023500094F8443013F00F013FF444AF13F0800FB2
:102360001FD1C9B2204601F03BFE94F8402039E766
:1023700004232370C7E701F00F01204601F018FC89
:10238000012896D10D4BA7636363E66394F8403050
:102390003D46B8E6C9B2204601F05AFE94F8402006
:1023A00020E7C9B2204601F02BFE94F8402019E73F
:1023B000D11E0008805D0008905D0008D05E000816
:1023C00038B590F830300446012B19D0042B10D0CA
:1023D000002101F015FE2046002101F001FE636896
:1023E0001B6813B1204605219847052384F8303037
:1023F00038BDC36B03B19847002384F83030F7E74A
:10240000836BB0F846209A4206D90269128AB3FB60
:10241000F2F502FB15356DB10021022384F830304E
:1024200020460A460B4601F08BFD2046002101F0B4
:10243000B7FDDDE729462A462B4601F099FD2046E7
:10244000294601F0BDFDD3E7AFF30080AFF3008074
:1024500090F8303010B5022B044620D0032B11D059
:102460000021204601F0CCFD2046002101F0B8FDFE
:1024700063681B6813B1204605219847052384F83B
:10248000303010BD0021042380F830300A460B465E
:1024900001F06EFD2046002101F092FDF1E7036995
:1024A0009B69DB68002BDBD1C36B03B1984700232A
:1024B00084F83030E5E700BFAFF30080AFF3008071
:1024C0004FF48053CEF200035B688360704700BF17
:1024D0004FF48053CEF2000308495A6883680968B4
:1024E000D31AC2685B1A9342836088BFC36003D863
:1024F0000269934238BF0361704700BFE0110020BA
:1025000030B542F2C14287B0C0F6000241F2E01499
:10251000002301ADC2F20004019242F2D142C0F6A2
:10252000000228462360039304934FF0FF33029286
:102530000593FFF7C5FF029B28469847039B23603E
:1025400007B030BDAFF30080AFF30080AFF3008081
:10255000806BD0F1010038BF00207047AFF30080DE
:102560008069D0F1010038BF00207047AFF30080D0
:1025700070B52023044683F311880026FEF7C0FAC5
:10258000A568A660FEF7D4FA334683F3118828467F
:1025900070BD00BFAFF30080AFF30080AFF30080E9
:1025A0002DE9F0418469D4F8D030D4F840801B681C
:1025B000E76B9D89A66B15F0020501D0BDE8F0819F
:1025C000FEF7B6FA2B4683F31188D4F8D030C7EB68
:1025D00008071868E26BBB1B012101F041FB2023B7
:1025E00083F31188FEF78CFAD4F8D03001211868F3
:1025F000FFF736FDA368264643F00803201DA360BD
:102600002946FFF705F8E26B216C56F8303F891A2E
:10261000B3426264A163D1D01A681846226356603F
:10262000FEF71EFC236B8562B342F5D1C6E700BFFF
:10263000F8B54469D4F8D0301B68DB8913F0080F73
:1026400001D1A56905B1F8BDFEF772FA2B4683F3F7
:102650001188D4F8D030E26918680321402301F0D2
:10266000D7FA2023064683F31188FEF749FAD4F8F7
:10267000D03003211868FFF7D3FCA368274643F046
:102680000403201DA3602946FEF7C2FF57F8103F40
:10269000E269BB42A262A661D5D01A6818462261DF
:1026A0005760FEF7DDFB23698562BB42F5D1CAE7BF
:1026B00008B51030FFF724F808BD00BFAFF3008065
:1026C00008B510304FF0FF33FFF71AF808BD00BF10
:1026D00008B53030FFF7A4F808BD00BFAFF30080A5
:1026E00008B530304FF0FF33FFF79AF808BD00BF50
:1026F00008B51030FEF7D4FF08BD00BFAFF300806F
:1027000008B53030FFF754F808BD00BFAFF30080C4
:10271000704700BFAFF30080AFF30080AFF30080DD
:1027200045F620728446C0F6000210B504464CF807
:10273000042BC4F804C04FF0000CC4F808C042F2E7
:1027400031634FF0010CC0F6000300F1100004F1FA
:102750005001402284F80CC0FEF792FF42F2A153D0
:10276000C0F6000304F1300004F190014022FFF7AD
:102770000FF86462A46410BDAFF30080AFF3008073
:1027800038B504460D46E8B1202383F31188FEF7DF
:10279000B7F9237B013BDBB2012B02D90B48FEF7D3
:1027A000CFFA2B68C4F8D0509C6002232373FEF745
:1027B000BFF9002383F31188294651F8040BFFF772
:1027C000AFFB38BD0248FEF7BBFADDE7F05E00085C
:1027D000E05E0008AFF30080AFF30080AFF300804D
:1027E00090F8403003F06003202B01D000207047A8
:1027F00090F84130212B03D0222B09D0202BF5D18A
:10280000064B4363072383630023C3630120EEE782
:10281000002343638363C3630120E8E7380C00208F
:10282000F8B5846805460E46202383F31188FEF729
:102830009FF9276CE26BA36BBF1AFF1A05D1FEF755
:10284000B7F9002383F31188F8BDFEF7B1F900232F
:1028500083F311883B46E26B2846314601F000FACB
:10286000202383F31188FEF783F928463146FFF7CA
:10287000F7FBA368002143F00803201DA360254651
:10288000FEF7C6FEE36B216C55F8302FC91AAA4239
:102890006364A163D3D000261368104623635D6090
:1028A000FEF7DEFA226B86629542F5D1C7E700BFDC
:1028B0002DE9F0412023846806460F4683F31188F2
:1028C000FEF756F9A56935B1FEF772F9002383F3D7
:1028D0001188BDE8F081FEF76BF92B4683F3118870
:1028E0004023E2693046394601F092F920238046C0
:1028F00083F31188FEF73CF930463946FFF790FB29
:10290000A368201D43F00403A36026462946FEF772
:102910007FFE56F8102FE369B242A362C4F8188014
:10292000D2D01368104623615E60FEF799FA2269DF
:102930008562B242F5D1C7E7AFF30080AFF3008004
:10294000704700BFAFF30080AFF30080AFF30080AB
:1029500008B5FEF74DF90A4800220368C4F20202E6
:102960004FF00F0C1168C2F804C01BB1406801EAB7
:102970000C019847FEF75CF9FDF762FF08BD00BF48
:10298000E4110020AFF30080AFF30080AFF30080CC
:1029900008B5FEF72DF90A4800228368C4F2020246
:1029A0004FF0F00C1168C2F804C01BB1C068C1F34D
:1029B00003119847FEF73CF9FDF742FF08BD00BF41
:1029C000E4110020AFF30080AFF30080AFF300808C
:1029D00008B5FEF70DF90A4800220369C4F20202A5
:1029E0004FF4706C1168C2F804C01BB14069C1F3A8
:1029F00003219847FEF71CF9FDF722FF08BD00BF31
:102A0000E4110020AFF30080AFF30080AFF300804B
:102A100008B5FEF7EDF80A4800228369C4F2020205
:102A20004FF4704C1168C2F804C01BB1C069C1F307
:102A300003319847FEF7FCF8FDF702FF08BD00BF21
:102A4000E4110020AFF30080AFF30080AFF300800B
:102A500008B5FEF7CDF80A480022036AC4F2020264
:102A60004FF4702C1168C2F804C01BB1406AC1F366
:102A700003419847FEF7DCF8FDF7E2FE08BD00BF12
:102A8000E4110020AFF30080AFF30080AFF30080CB
:102A900008B5FEF7ADF80A480022836AC4F20202C4
:102AA0004FF4700C1168C2F804C01BB1C06AC1F3C6
:102AB00003519847FEF7BCF8FDF7C2FE08BD00BF02
:102AC000E4110020AFF30080AFF30080AFF300808B
:102AD00008B5FEF78DF80A480022036BC4F2020223
:102AE0004FF0706C1168C2F804C01BB1406BC1F3A9
:102AF00003619847FEF79CF8FDF7A2FE08BD00BFF2
:102B0000E4110020AFF30080AFF30080AFF300804A
:102B10000C49002310B4DFF830C00C4C0B601A468F
:102B20001946E0580C3301604CF802100832542B5F
:102B3000F7D10023C4F202034FF0FF325A6010BCF9
:102B4000704700BF1C120020E4110020905F0008B5
:102B50002DE9F041044684B000283BD094F809C028
:102B6000012505FA0CF8204E376818EA070F18BF40
:102B700028462CD11D4848EA070700EBCC0517F082
:102B80007F0F6B6018BF4FF48053376018BFC4F2DB
:102B9000020340F83C2018BF58694FF00F0C1CBFCF
:102BA00040F001005861237A60680CFA03FC236846
:102BB00000251E6826F001061E60C0F800C01D60DA
:102BC000104622B1A07A0901FDF7A2FE284604B002
:102BD000BDE8F0810648039102920193FEF7B0F838
:102BE000019B029A0399B9E71C120020E41100200E
:102BF000505F0008AFF30080AFF30080AFF30080B8
:102C000038B50446002822D0637A01229A40124D3A
:102C10002B681A4217D0A07AFDF7A2FE637A012230
:102C200012FA03F32A6822EA030313F07F0F2B60E2
:102C300001BF4FF48053C4F202035A6922F001022B
:102C400008BF5A6138BD0548FEF77AF8E3E7044843
:102C5000FEF776F8D8E700BF1C120020705F00086E
:102C6000605F0008AFF30080AFF30080AFF3008037
:102C70004FF4805310B5C4F2020300214FF0FF3E21
:102C80004EF2100243F27F20D3F810C0CEF20002C1
:102C9000C3F810E0C0F202001961DC684EF6F05C87
:102CA000C3F80CE0D960506007209160CEF2000CB0
:102CB0001060DCF80C204FF4805042F08072CCF8A9
:102CC0000C20CEF20000D0F800C04FF4E0424CF0EF
:102CD000010CC0F800C0D869C4F2000240F0805076
:102CE000D861D86940F00060D861106840F4807005
:102CF00010601A6A02F44072B2F5407F1EBF4FF4B2
:102D000080321A6219624FF48053C4F202031A6AC5
:102D100012F4004F07D11A6A42F440721A621A6A1A
:102D200042F400421A62FFF7F3FE10BDAFF30080D9
:102D30004FF48053C4F202031A68194642F00102AC
:102D40001A600A684FF4805312F0020FC4F20203B3
:102D5000F7D01A68194602F0F9021A6000225A6088
:102D60004A684FF4805312F00C0FC4F20203F7D1FB
:102D70001A68194642F480321A600A684FF4805388
:102D800012F4003FC4F20203F7D05A68194642F425
:102D9000E8125A601A6842F080721A600A684FF4AA
:102DA000805312F0007FC4F20203F7D04FF4C84101
:102DB000C0F21D014FF400525960C4F20202122108
:102DC000116059681A4641F002015960536803F0D6
:102DD0000C03082BFAD17047AFF30080AFF30080EB
:102DE00070B4C26A4FF00F0C157A036B0CFA05F53C
:102DF0001468002148F200061E801980998099828B
:102E000021685268836A21F0010121601560197AF6
:102E10001A680CFA01FC11685B6821F0010111606D
:102E2000C3F800C070BC7047AFF30080AFF3008000
:102E300038B5C46905464CB1FFF7D2FF0023EB61FA
:102E40004FF0FF33A3622046FEF70AF838BD00BFFB
:102E500011F0080F38B50446056B01D0FDF7B0FC42
:102E6000E36A0F20197A1A6810FA01F110685B689A
:102E700020F0010010601960AB889BB243F400732E
:102E8000AB8038BDAFF30080AFF30080AFF30080BC
:102E900011F0080F70B50446056B31D1A36A0F20FD
:102EA000197A1A6810FA01F110685B6820F00100C5
:102EB0001060196094F8346006B170BDAA882023B0
:102EC00022F480521204120CAA802A8822F4806212
:102ED0001204120C2A802A8892B242F400722A80CC
:102EE00083F31188FDF744FEE06918B1E66186625C
:102EF000FDF7B6FFFDF75CFE002383F31188DCE7E6
:102F0000FDF75EFCCAE700BFAFF30080AFF30080BF
:102F1000F8B5634CFDF76CFE256B94F834302A8BC2
:102F2000AE8A92B2B6B2CBB9022346EA024222F08E
:102F30007F42C0F203039A426ED054D80123C0F2FC
:102F400003039A4201D1238C2B8216F00A0F18BF7B
:102F50002B8BFDF76DFEFDF773FCF8BD16F00A0F25
:102F600005D0AE8A00232A8BB6B22364236516F0FF
:102F7000800F0CD0236DA26C216CD05CE26C01330D
:102F800091422882236502D3454B00221A6516F030
:102F9000400F0BD0226C288AA16B531C8854E26B23
:102FA0002364934202D33E4B00221A6416F0100FA2
:102FB0000AD0AE8A2A88636C92B242F00102B6B29D
:102FC0002A800BB13648984716F4806FC1D0AA8A80
:102FD000636D22F480621204120CAA82002BB8D016
:102FE0002F489847B5E78223C0F207039A422ED0B4
:102FF0008423C0F207039A42A7D1A36A1B685F68C3
:10300000002F31D02B88228C9BB242F0010243F476
:10301000A06322842B809CE7AB88A26A23F4007310
:103020001B0412681B0CAB80136843F00103136090
:10303000AB889BB243F48053AB805368012B84D898
:103040002B8823F480631B041B0C2B807DE7AB884B
:10305000E26A23F400731B0412681B0CAB80136834
:1030600043F00103136070E7AA88202322F4007262
:103070001204120CAA802A8892B242F400722A80AA
:1030800083F31188FDF774FDE06918B18762E76189
:10309000FDF7E6FEFDF78CFD002383F3118854E76E
:1030A00020120020AFF30080AFF30080AFF3008068
:1030B00070B5594DFDF79CFD2C6B202383F31188CF
:1030C000FDF756FDEB6A0F2193F808C01A6801FA64
:1030D0000CFCD2F800E058682EF0010EAB6AC2F882
:1030E00000E0C0F800C0187A1A68814010685B6878
:1030F00020F0010010601960FDF75AFD002383F3F2
:103100001188A68A16F4807606D0A38A012623F4B5
:1031100080731B041B0CA382A38A13F4007F07D0C7
:10312000A38A46F0020623F400731B041B0CA3823F
:1031300095F834303848002B32D1A38A13F4806FCD
:1031400039D1A38A13F4006F07D0A38A46F008068A
:1031500023F400631B041B0CA382A38A13F4805F77
:1031600007D0A38A46F0100623F480531B041B0CDF
:10317000A382A38A13F4804F07D0A38A46F02006C7
:1031800023F480431B041B0CA382A38A1BB2002BD5
:1031900025DB002E29D1FDF74BFDFDF751FB70BD5E
:1031A000A28A436D22F480621204120CA282002BC8
:1031B000C7D09847C5E7A38A46F0040623F4806386
:1031C0001B041B0CA382A38823F400731B041B0C99
:1031D000A38023889BB243F400732380B1E7A38AC2
:1031E00046F040065B045B0CA382AE60202383F3B1
:1031F0001188FDF7BDFCE86938B1074B0022DA61A0
:103200006FF001038362FDF72BFEFDF7D1FC002375
:1032100083F31188BFE700BF20120020AFF30080C6
:1032200010B541F22024C2F200042046FEF7F0FC63
:10323000064B4FF4A842C4F20002A3F10C01002097
:10324000E0612263A362E16210BD00BFD85F0008A5
:1032500002788A23012A2DE9F04104464362056B76
:1032600000F099802F464FF09A089C46A26AE36AC4
:1032700060681B681168466805F11002C3F8008099
:1032800090F80880C1F800C08A609A6048F2000295
:103290002A8000234FF41062002E2B80AA8061DD6B
:1032A0004FF41063C0F23D039E425BDCBB8848F2E2
:1032B000A06223F03F031B041B0CBB80BB88C0F241
:1032C00001029BB243F024039642BB804EDCB8F16E
:1032D000010F02D08048FDF733FD4FF4A243760082
:1032E000C0F2252393FBF6F306FB03F24FF4A2434F
:1032F000C0F225239B1A002B40F08E804FF4A2438E
:10330000C0F2252393FBF6F39BB2032B7CD91E0559
:103310002522360DB3F5805F3A8402D36F48FDF75E
:103320000FFD216B6268BE8312780B88022A9BB264
:1033300002BF43F002024FF6F77313400AD0032A8C
:1033400008BF43F00A0305D0012A03D123F00A0382
:103350001B041B0C0B802B889BB243F001032B80BA
:10336000BDE8F0815E48FDF7EBFC9FE74FF4D453D6
:10337000C0F206039E420CDCA8F10203DBB2012B73
:1033800058D95848FDF7DCFC48F6FF760B233B8400
:10339000C7E70026C5E7544EB0427FF463AF4FF451
:1033A0008053C4F202031A69806A42F400121A615F
:1033B00000221A610A214D4A2346FFF7C9FB002863
:1033C00040F08580F06A0A21494A474BFFF7C0FB6D
:1033D000002878D14FF48053C4F20203DA691F2029
:1033E00042F40012A021DA61FDF792FA2020A02118
:1033F000FDF78EFAD6F824C0376B4CF4805CC6F823
:1034000024C04CF0100831E73A481E05FDF798FC3F
:103410002523360D3B8484E73748FDF791FC4FF4B4
:10342000A243C0F2252393FBF6F39BB2032B3FF696
:103430006EAFE9E7B8F1020F1ED14FF4A24306EBDD
:103440004606C0F2252393FBF6F306FB03F24FF486
:10345000A243C0F225239B1A53B94FF4A243C0F2F2
:10346000252393FBF6F63605360D46F400468DE728
:103470002248FDF765FCF0E7B8F1030F18BF48F6E6
:10348000FF7683D106EB86064FF4A24306EB860651
:10349000C0F2252393FBF6F306FB03F24FF4A2439D
:1034A000C0F225239B1A53B94FF4A243C0F225233F
:1034B00093FBF6F63605360D46F4404666E71048AF
:1034C000FDF73EFCF0E70F48FDF73AFC82E70E48B7
:1034D000FDF736FC76E700BF30600008C0600008EA
:1034E000186000087860000820120020912E000863
:1034F000512E0008606000084860000890600008D5
:10350000A860000804600008F05F0008AFF30080C6
:10351000037810B5012B04460AD0FFF761FCE06A7E
:10352000FFF76EFBA06AFFF76BFB094B9C4200D0D4
:1035300010BD1F20FDF714FA2020FDF711FA4FF4FB
:103540008053C4F20203DA6922F40012DA61EFE771
:1035500020120020AFF30080AFF30080AFF30080B3
:103560002DE9F045012B87B006461F468846924656
:103570000E9D046B70D9B5F1FF3F05D001A8294617
:10358000374A3346FDF7FCFBFDF7D2FA002383F3FD
:103590001188B36A4FEA48081B6848F00108002206
:1035A000A6F82080B260C3F80CA05F6004E0FDF7CD
:1035B000BFFA002383F31188228B202312F0020F1D
:1035C00003D1278817F400770CD083F31188FDF717
:1035D00097FAB5F1FF3FEAD0049B002BE7D14FF0FB
:1035E000FF301AE083F31188FDF78AFAB5F1FF3F47
:1035F00016D186F83470A3881A4D9BB243F4007339
:10360000A3802288EB6992B242F4A0622280022059
:10361000F361FDF76DFCEB69986A07B0BDE8F085D2
:10362000049B002BDBD086F83470A3880D4D9BB231
:1036300043F40073A3802288EB6992B242F4A06243
:1036400022800220F361FDF753FC049B002BE2D0A3
:1036500001A8FDF7CDFBDEE70348FDF771FB8AE724
:10366000312E000894110020D8600008AFF30080CC
:103670002DE9F04F87B0119F06468846924699463D
:10368000DDF840B0129D046B4FB1DBF1010338BF90
:103690000023012F98BF43F00103002B58D1B5F14F
:1036A000FF3F05D001A82946394A3346FDF768FB9C
:1036B000FDF73EFA002383F31188F26AB36A1268B9
:1036C0001B684FEA48080021A6F82080B160C2F8C4
:1036D0000CA0C2F80490C3F80CB05F6004E0FDF7E2
:1036E00027FA002383F31188228B202312F0020F84
:1036F00003D1278817F400770CD083F31188FDF7E6
:10370000FFF9B5F1FF3FEAD0049B002BE7D14FF062
:10371000FF301AE083F31188FDF7F2F9B5F1FF3FAE
:103720001AD186F83470A3881A4D9BB243F4007303
:10373000A3802288EB6992B242F480722280022038
:10374000F361FDF7D5FBEB69986A07B0BDE8F08F30
:103750001148FDF7F5FAA2E7049B002BD7D086F8B5
:103760003470A3880B4D9BB243F40073A38022886E
:10377000EB6992B242F4807222800220F361FDF77D
:10378000B7FB049B002BDED001A8FDF731FBDAE785
:10379000312E000894110020FC600008AFF3008077
:1037A0002DE9F04F444F87B0149DD7F81CC0B5F1F8
:1037B000FF3F0646C0F81CC0884692469946046BF7
:1037C00005D001A829463D4A3346FDF7D9FAFDF751
:1037D000AFF9002383F3118804E0FDF7A9F9002372
:1037E00083F31188228B202312F0020F03D1228849
:1037F00012F4007F0ED083F31188FDF781F9B5F143
:10380000FF3FEAD0049B002BE7D14FF0FF3007B019
:10381000BDE8F08F83F31188FDF772F9B5F1FF3F32
:1038200043D1012386F83430129A23887264109AA7
:1038300023F48073B264119A1B04F264139A4FF05C
:10384000000B1B0C4FEA4808A6F820807265C6F8EA
:1038500008B0C6F838A0C6F83C90C6F840B0C6F824
:1038600050B02380A38808F0FE0823F400631B04F3
:103870001B0CA380A4F80880A288FB6992B242F4D2
:10388000C062A2802288B5F1FF3F92B242F480620A
:10389000228008BF5846F361B9D004980028B6D0FA
:1038A00001A8FDF7A5FA5846B1E7049B002BB8D153
:1038B0004FF0FF30ABE700BF94110020312E00081D
:1038C0004FF48053C4F202039A6942F07D029A6178
:1038D00003684FF40062C4F20102D36081684FF4C0
:1038E000406351604168C4F201031160C2684FF443
:1038F0008051DA604269C4F201015A60D0F810C008
:103900004FF4A052C3F800C08369C4F20102CB6037
:10391000D0F820C04FF4C053C1F804C0D0F81CC088
:10392000C4F20103C1F800C0416AD160C16A5160AC
:10393000816A1160026BDA60826B5A60426B1A60B6
:10394000704700BFAFF30080AFF30080AFF300809B
:10395000032A70B408BF016102D0042A08BF416184
:10396000DFF858C000231CF8026008259C461A4660
:103970001C4600E04900120124011B0111F0800FD8
:1039800008BF42F00F024FEA0C1C18BF334311F47A
:10399000004F0CBF44F00F044CEA060C15F1FF3544
:1039A000E8D141680C4044EA0C0CC0F804C001683E
:1039B0000A4042EA0303036070BC704720610008BC
:1039C00008B5FDF715F9FDF733F9FCF739FF08BD28
:1039D00041F2782008B5C2F20000FEF799FA08BD5E
:1039E00038B503780446012B00D038BD0F4A904209
:1039F00003D02046FEF754FBF7E74FF48052C4F2A1
:103A00000202D1694FF4B84541F40001C4F2000547
:103A1000D16113202B646021FCF77AFF1420E02190
:103A2000FCF776FF00232B64E3E700BF7812002049
:103A300090F84A204FF4B84342F08002C4F20003E9
:103A4000DA647047AFF30080AFF30080AFF300801B
:103A50000B1D2DE9F04150F8235006462A6802F06C
:103A60000303013B022B96BF37484FF4007330F835
:103A70001330A86808B143F02003E86828B112F0B9
:103A8000100F08BF43F4005350D143EA010020F463
:103A9000F0404FF4B842C4F2000220F0700042F847
:103AA000210047F6700052F821C003EA00006B8A3B
:103AB00080EA0C003E2B42F821002DD9581E40F020
:103AC0001F00013040116FEAC0606FEA504080B2C1
:103AD0004FF4B842C4F20002176DF46C2A8A07F161
:103AE000005707F5405707EBC101A04614194F00D6
:103AF0000022B4F5007FBA80B881F4641ED81B1987
:103B0000B3F5007FC7F80080F36402D90F48FDF7D2
:103B100017F9BC60BDE8F081581E40F0010001308B
:103B200000EBD070400200F47C40D1E701228A40D3
:103B3000F08943F440530243F281A6E70348FDF7BE
:103B4000FFF86B8AF46CDAE74061000870610008E6
:103B5000426808B5D26800214FF4B843C4F20003AC
:103B60008A4214BF4FF41E424FF41C424FF0800CA7
:103B700019655964C3F84CC01A644023C364024BEE
:103B80000361FFF765FF08BD80610008AFF30080A7
:103B90004FF4B843C4F2000353F8210010F440502E
:103BA00004D0B0F5805F0CBF01200220704700BF39
:103BB0004FF4B843C4F2000353F8213003F030034C
:103BC000102B9ABF014AD05C022070475061000858
:103BD0004FF4B843C4F200031B6D03F1005303F527
:103BE000405303EBC1035B009B6803F1005303F5F3
:103BF00040535B0003F1100053F8041B834222F88A
:103C0000021BF9D1704700BFAFF30080AFF3008013
:103C10004FF4B840C4F20000006D00F1005000F510
:103C2000405000EBC1014900D1F808C088898005E7
:103C3000800D834228BF034601335B080CD00CF192
:103C4000005C0CF5405C4FEA4C0C5CF8041B13F173
:103C5000FF3322F8021BF8D1704700BFAFF300809A
:103C60004FF4B840C4F20000006D00F1005000F5C0
:103C7000405000EBC10198B2013349005B08D1F814
:103C800000C088800CD00CF1005C0CF5405C4FEA61
:103C90004C0C32F8021B13F1FF334CF8041BF8D123
:103CA000704700BFAFF30080AFF30080AFF3008038
:103CB0002DE9F84FFCF79CFF4FF4B843C4F2000322
:103CC0005C6C14F4806F40F0238114F4006F17D003
:103CD000DFF864824FF4B842C4F20002D8F804302E
:103CE000116C1B6841F00801116413B140460321B7
:103CF00098474FF4B843C4F200036FF400625A646B
:103D000014F4805F0FD04FF4B842C4F20002936CF9
:103D100013F4004F00F0EC804FF4B843C4F20003FA
:103D20006FF480525A6414F4007F0ED0DFF80882DA
:103D3000D8F80430DB680BB1404698474FF4B843DD
:103D4000C4F200036FF400725A6414F4004F00F0E0
:103D5000A480DFF8E4814FF4B845C4F20005C14601
:103D600013E0012313FA04F1B8F80E2058F82A30B2
:103D700022EA0102A8F80E20E1B2DB686E489847FB
:103D80006C6C14F4004F00F0888004F00F0455F8B8
:103D9000246004F1040A16F0800F58F82A7037D016
:103DA00055F8243023F4F04323F0F00345F8243091
:103DB0003B6813F0100F76D12B6D796903F1005336
:103DC00003F5405303EBC4035B009B880A688868D3
:103DD000D1F804C09BB2D218C018C3EB0C030A6020
:103DE00088604B60002B5ED0398A5FFA84FB8B427F
:103DF00028BF0B4650485946FFF732FF55F82B3085
:103E000023F4F04323F0400383F0300345F82B30D4
:103E100016F4004FB4D055F8243016F4006F23F494
:103E2000784323F0700345F824304AD13B6813F0FF
:103E3000100F96D1BB69E6B25A6831469B683E487E
:103E4000FFF7E6FEBB6955F826E01A88D3F804C0F0
:103E5000D9689F682EF4904E2EF0700E013A84447B
:103E600009188EF4405E381A92B245F826E0C3F87D
:103E700004C0D96098601A80002A29D055F82430EF
:103E800023F4904323F0700383F4405345F8243027
:103E90006C6C14F4004F7FF478AFFCF7C9FEFCF7AC
:103EA000CFFCBDE8F88F012313FA04F2B9F80C3007
:103EB000E1B223EA0203A9F80C301F48BB68984717
:103EC000A6E758F82A30E1B25B681B48984757E7E5
:103ED000012313FA04F4B9F80E2059F82A3022EA23
:103EE0000404A9F80E40DB6813483146984747E7B9
:103EF000DFF84480116CD8F8043021F008011B6809
:103F00001164002B3FF408AF40460421984703E7B3
:103F1000DFF824804046FEF7C3F8D8F804301B6869
:103F200013B14046002198474FF4B843C4F2000350
:103F30006FF480625A64C8E678120020AFF3008004
:103F4000043150F821108869426000228360C26009
:103F500033B14A8A511ECB18B3FBF2F2028070478C
:103F600001230380FBE700BFAFF30080AFF30080C5
:103F700001F1040C50F82CC008B59E46BCF8103076
:103F8000DCF814C09E4538BF7346CCF804E04FF00F
:103F9000000ECCF80020CCF808E0FFF761FE08BD69
:103FA0004FF4B843C4F2000353F8212022F49042A6
:103FB00022F0700282F4405243F82120704700BF83
:103FC0004FF4B843C4F2000353F8212022F4F04226
:103FD00022F0400282F0300243F82120704700BFF7
:103FE0004FF4B843C4F2000353F8212022F4904266
:103FF00022F0700282F4805243F82120704700BF03
:104000004FF4B843C4F2000353F8212022F4F042E5
:1040100022F0400282F0100243F82120704700BFD6
:104020004FF4B843C4F2000353F8212002F4405285
:10403000B2F5405F1FBF53F8212022F4F04222F076
:10404000400282F4005218BF43F82120704700BF9D
:104050004FF4B843C4F2000353F8212002F03002B9
:10406000302A1FBF53F8212022F4F04222F04002F0
:1040700082F0200218BF43F821207047AFF3008080
:1040800008B5FEF755FE08BDAFF30080AFF3008022
:10409000704700BFAFF30080AFF30080AFF3008044
:1040A000002908B504DD0549054A00F029FA08BDD4
:1040B000044B0549DA6800F023FAF8E7E0610008EC
:1040C000EC61000884110020F4610008AFF3008067
:1040D00010B5002982B0044605DD1849184A00F0E1
:1040E0000FFA02B010BD1749174A00F009FA20462E
:1040F0001649174A00F004FA20461649164A00F0FD
:10410000FFF920461549164A00F0FAF920461549EC
:10411000154A00F0F5F920461449154A00F0F0F967
:1041200020461449144A00F0EBF9144B2046009342
:104130001349144A144B00F0E3F9D2E7E061000898
:10414000FC61000804620008186200082062000890
:104150003462000840620008546200085C62000893
:10416000706200087C62000890620008A862000883
:10417000BC620008E4620008F862000834630008CA
:104180000C6300082463000830630008AFF300806C
:104190000A6838B5054642B10C462846034900F086
:1041A000AFF954F8082F002AF7D138BD4063000852
:1041B000844600682DE9F0410C461646984690B1B9
:1041C000674602E057F8080F68B13146FBF7A0FFD9
:1041D00005460028F6D12046D7F804C04146069A85
:1041E000E047284600E00120BDE8F081AFF3008001
:1041F00038B504460D46A8B128600C492046FCF7A6
:1042000037F8241820462021FBF7AAFF286018B1B0
:10421000002300F8013B28602378002B08BF00240E
:10422000204638BD0C68002CFAD0E6E7905700080D
:1042300041F2D823C2F200031B607047AFF3008045
:1042400000B544F21133844683B0C0F60003002069
:10425000CDF800C0FDF744F803B000BDAFF3008017
:104260002DE9F84502F1FF3A884605460F468A4493
:104270002B6828465B694FF0FF31984786B234B20D
:10428000002C2CDB042C2DD0082C0FD00D2C2FD083
:104290001F2CEDDD5745EBD22B68F1B21B69284688
:1042A0004FF0FF32984707F8016BE1E74745DFD051
:1042B0002B6821464FF0FF321B69284698472B6830
:1042C00020214FF0FF321B69284698472B6828466B
:1042D0001B6921464FF0FF329847013FC8E7012094
:1042E000BDE8F8852846064900F00AF90120F7E7FD
:1042F0002846044900F004F900203870F0E700BFB8
:104300004463000874680008AFF30080AFF30080D6
:104310002DE9F04F574B0668DB694068564A9BB061
:1043200003909A613046554900F0EAF804AF19ADA0
:104330000DF1500A4FF000093046514900F0E0F805
:10434000304639464022FFF78BFF0446002836D11D
:1043500029463846FFF74CFF294680460020AAF13F
:10436000040BFFF745FF50B1042C3CD04BF8040F71
:10437000294600200134FFF73BFF0028F4D11AAA98
:1043800002EB840343F8180CB8F1000FD4D0404678
:104390003C49FBF7BDFE00282CD1A4B1394A304678
:1043A000394900F0ADF83046354900F0A9F83046FB
:1043B00039464022FFF754FF04460028C8D0304653
:1043C000324900F09DF8202383F31188FCF798FB15
:1043D00000212F48FDF71CF90020FCF709FF002001
:1043E0001BB0BDE8F08F30462A4900F089F8CDF8BF
:1043F0006090A1E740462849FBF78AFE30B934B304
:1044000030462149244A00F07BF895E7234831469D
:1044100042462346CDF800A0FFF7CAFE00288BD005
:10442000039A52B11046314642462346CDF800A0C9
:10443000FFF7BEFE00283FF47FAF304618494246E2
:1044400000F05EF83046174900F05AF874E730463D
:10445000154900F055F830461049FFF799FE039BC7
:104460001BB130461946FFF793FE30460F4900F066
:1044700047F861E794110020486300085063000882
:104480006863000894630008E06100087063000836
:10449000D81200207C6300089C630008400C0020B8
:1044A000BC630008C0630008A463000874680008C7
:1044B00070B400F10B0600F10A04B1FBF2F302FB49
:1044C000131101F1300CBCF1390FC8BF01F1370CE9
:1044D0005FFA8CFC2546194604F801C9002BECD183
:1044E0002A46711B01E012F801CF00F803C0013326
:1044F0008B42F8D1C01870BC704700BFAFF300808A
:104500000EB42DE9F04F84B00DAB53F8044B0546C3
:104510000393EB46217859B1013425290DD02B683E
:1045200028461B694FF0FF32984721780029F3D1C4
:1045300004B0BDE8F04F03B07047237803982D2BEB
:1045400006BF14F8013F4FF001094FF000092E2B70
:1045500006BF14F8013F4FF0300A4FF0200A611CEB
:10456000002607E00278043006EB860611F8013BCE
:1045700002EB4606A3F13002D2B2092A0C46F3D967
:104580002A2BEFD02E2B039018BF4FF0000C00F019
:10459000D3806C2B14BF002201224C2B08BF42F0A9
:1045A0000102002A00F0C0802278002A00F0DA80A0
:1045B000013413460121A3F14402342A00F29D8004
:1045C000DFE802F0A39B9B9B9B9B9B9B9B9B9BA1E0
:1045D0009B9B9B9B9B939B9B889B9B9B9B9B9B9B46
:1045E0009B9B9B40A39B9B9B9B9B9B9B9B9B9BA168
:1045F0009B9B9B1B9B939B9B8800039B47F6FF7297
:104600001F680433039346F2D033C0F60003002F33
:1046100008BF1F463B78BCF1000F08BF94463846E0
:104620004FF0200ACBB10CF1FF3C7B1C02E01CF1E7
:10463000FF3C04D41A7818460133002AF7D14FF012
:10464000200A0AE0039B4FF0200A1A680433039300
:104650008DF800205F460BF10100C7EB0008C8EBA6
:10466000060626EAE676B9F1000F22D1764206B3B5
:104670003A78BAF1300F14BF002301232D2A14BF5A
:10468000002303F00103002B7DD12B6828461B6912
:1046900051464FF0FF3298470136F6D118F1FF38F6
:1046A0000AD42B6817F8011B1B6928464FF0FF320C
:1046B000984718F1FF38F4D5002E3FF42BAF2B6844
:1046C00028461B6951464FF0FF32984716F1FF36D6
:1046D000F5D11FE7102259B1039B191D03911968E9
:1046E0006846FFF7E5FE6F46B7E70A220029F3D1D7
:1046F000039B181D19680390F2E78DF800305F46A0
:104700000BF10100A9E70822E5E700292CD1039B62
:1047100019681A1D00290392A8BF68462CDB0A22DB
:10472000FFF7C6FE6F4698E7A3F14101C9B2192908
:104730008CBF002101213EE74FF0000C0C4614F81D
:10474000013B0CEB8C07A3F13002D2B2092A2146BF
:1047500003D92A2B04D10278043002EB470CEDE791
:10476000039016E7012126E7039B19681A1D00290B
:104770000392A8BF6846D2DA2D238DF80030494253
:104780000BF10100CBE72B6828461B692D214FF068
:10479000FF329847013708F1FF3876E7AFF3008022
:1047A00008B5FDF715FAFCF723F900F051FF0720D3
:1047B00000F086FF00F0CCF900F0C2FA00F020FB18
:1047C00000F0AEF800F0D4F87D20FCF7F9FCF9E732
:1047D000022908BF074805D0032904D0064801294B
:1047E00018BF00207047032A9ABF044800EBC2009C
:1047F0000020F7E750640008C067000880670008E1
:1048000070B5002984B0054604DD1449FFF778FE31
:1048100004B070BD1249FFF773FEFCF799FD114E0D
:104820000446A268E368D4F824C0009294F82220D9
:104830000D49013A019294F82000224656F820E0F2
:104840002846CDF808E0CDF80CC0FFF759FE204609
:10485000FCF796FD04460028E3D1D9E7106500086F
:1048600024650008D064000854650008AFF3008098
:1048700030B5002983B0044604DD0E49FFF740FE41
:1048800003B030BD01A90020FDF74AF90546FDF748
:1048900067F8094902462046FFF732FE20462A46BD
:1048A0000649FFF72DFE20460549019AFFF728FE2D
:1048B000E6E700BF7465000884650008A465000889
:1048C000BC650008AFF30080AFF30080AFF3008059
:1048D000022938B50C46054618D1202383F31188E8
:1048E000FCF746F928460121094AFDF751FB284605
:1048F0002146084AFDF74CFB28460321064AFDF7EE
:1049000047FBFCF755F9002383F3118838BD00BF3E
:10491000E063000860640008C0660008AFF3008030
:1049200070B54FF400644FF40075C4F20104062220
:1049300029462046656141F2DC26FFF709F8C2F2FC
:1049400000064FF4FA70FCF73BFC3046FDF7E8FE3A
:1049500046F2A0713046C0F60001FDF711FF204677
:10496000294606222561FEF7F3FFFFF761FC70BDC3
:1049700010B50E4C206848B190F820300E2B00D0B6
:1049800010BDFCF76DFC00232360F9E7084BD3F85A
:10499000D0301B681B78042BEED106484FF44B61D6
:1049A0004022FFF74DFC2060EAE700BFB013002073
:1049B000DC120020E0660008AFF30080AFF3008057
:1049C0002DE9F84F5A4B5B4ADB694FF400655A4CAE
:1049D000DFF868A1DFF868B1DFF868919A61C4F286
:1049E000010501274FF0000804260520FCF7E8FB2D
:1049F00000226F61228023889BB21F2B08D800BF42
:104A0000238801339BB2238023889BB21F2BF6D9C6
:104A10002F61002303E000BF238801339BB2238072
:104A200023889BB21F2BF6D902226A61002303E080
:104A300000BF238801339BB2238023889BB21F2BA6
:104A4000F6D9CAF80080CBF80070A9F8008040467B
:104A5000394610222E61002303E000BF2388013372
:104A60009BB2238023889BB21F2BF6D90023D5F855
:104A700008C023802388CCF3C00C9BB2BCF1000F8C
:104A800014BF8E464FF0000E49001F2B704408D80B
:104A900000BF238801339BB2238023889BB21F2B46
:104AA000F6D96E61002303E000BF238801339BB277
:104AB000238023889BB21F2BF6D9013A92B2002A99
:104AC000C8D11023A9F8003041F2D433C2F2000358
:104AD000A3F800C00423CAF80000CBF800102B6133
:104AE000228023889BB21F2B08D800BF2388013364
:104AF0009BB2238023889BB21F2BF6D902222A6106
:104B0000002303E000BF238801339BB22380238866
:104B10009BB21F2BF6D90C48FCF7F2FCDAF80030F8
:104B200041F2BC32C2F200021360FCF7F9FC5CE710
:104B300094110020D0670008D6130020B413002081
:104B4000B8130020D8130020C4130020AFF3008056
:104B500070B54FF40064C4F2010482B0204608210D
:104B60000222FEF7F5FE022601210425216106221C
:104B7000266120462561FEF7EBFE204631460622DF
:104B8000FEF7E6FE294606222046FEF7E1FE41F248
:104B9000C430C2F20000FCF71BFC002241F2E030FE
:104BA00044F6C1130092C0F600034FF4D8714022BE
:104BB000C2F20000FCF7CCFA02B070BDAFF3008087
:104BC00041F2C43010B5C2F20000FCF799FC41F28A
:104BD000BC33C2F200031B6841F2C034C2F20004CD
:104BE0002360FCF79DFC206810BD00BFAFF3008080
:104BF0002DE9F04F484B4949DA694FF40065484BBD
:104C0000DFF82081484CDFF824B1DFF8249183B02D
:104C10009161C4F201054FF0004A2026802701204F
:104C20000193FCF7CDFA4348FCF76AFC41F264714A
:104C3000C2F200010A68C8F80020FCF771FC019B71
:104C4000D8F800C01A689445E9D041F25C72C2F20B
:104C500000022021C2F800C06961002203E000BF09
:104C60002288013292B22280228892B21F2AF6D97B
:104C7000402200212A612180228892B21F2A08D86E
:104C800000BF2288013292B22280228892B21F2A6B
:104C9000F6D91F22CBF800A0A9F800202020514609
:104CA0006E61002203E000BF2288013292B22280AE
:104CB000228892B21F2AF6D911EA0C0F14BF2F6175
:104CC0006F61002203E000BF2288013292B222808D
:104CD000228892B21F2AF6D92E61002203E000BF7B
:104CE0002288013292B22280228892B21F2AF6D9FB
:104CF000013880B249080028D2D1CBF800104FF01B
:104D0000FF31A9F80010BCF1000F02D010222A6177
:104D100085E710226A6182E794110020E0670008AD
:104D20005C17002054170020501700206017002047
:104D30005817002090150020AFF30080AFF30080DB
:104D4000F0B54FF40064C4F201044025102120277F
:104D5000802683B061610622256120462761266195
:104D6000FEF7F6FD204629460622FEF7F1FD204615
:104D700039460622FEF7ECFD314606222046FEF7B4
:104D8000E7FD41F29050C2F20000FCF721FB002247
:104D900041F2A05044F6F1330092C0F600034FF404
:104DA000D8712A46C2F20000FCF7D2F903B0F0BD78
:104DB00041F29053C2F2000310B504461846FCF7C6
:104DC0009FFB41F26473C2F200031C60FCF7A8FB76
:104DD00010BD00BFAFF30080AFF30080AFF30080E1
:104DE00008B5042000F0ACFC08BD00BFAFF30080A4
:104DF00008B5022000F0A4FC08BD00BFAFF300809E
:104E000030B54FF48054C4F2010483B0022220462E
:104E10004FF40041FEF79CFD4FF44065204602220E
:104E20004FF48041FEF794FDC4F2010520460222B2
:104E30004FF40051FEF78CFD402111222846FEF769
:104E400087FD112280212846FEF782FD3220FCF7E3
:104E5000B7F9FCF7D5FE41F2202046F6B001C2F2C8
:104E60000000C0F60001FCF7E3FE41F6781141F6C0
:104E7000881241F648130024C2F20001C2F2000277
:104E8000C2F2000341F638100C6014601C604C60E4
:104E900054605C60C2F20000FCF79AFA41F288703C
:104EA00045F20113C0F600034FF4D8714022C2F25C
:104EB00000000094FCF74CF903B030BDAFF3008064
:104EC00038B541F63813C2F20003044618460D46C1
:104ED000FCF716FB41F64813C2F2000353F82430E6
:104EE0002B60FCF71DFB38BDAFF30080AFF30080F3
:104EF00038B541F63813C2F2000304460D46184691
:104F0000FCF7FEFA2A6841F68813C2F2000343F860
:104F10002420FCF705FB38BDAFF30080AFF3008021
:104F20002DE9F041002482B001AF5FFA84F8064613
:104F300039464046FFF7C4FF012530461549B8F110
:104F4000000F16D0B8F1020F18D0019AFFF7D8FA67
:104F50006BB2022B17DC01345FFA84F84046394605
:104F60000135FFF7ADFFEDB230460A49B8F1000F49
:104F7000E8D10949019AFFF7C3FAECE7304607493F
:104F8000019AFFF7BDFA30460549FFF7B9FA02B0BA
:104F9000BDE8F081FC670008F0670008F8670008CA
:104FA00000680008AFF30080AFF30080AFF300802B
:104FB000F0B5022983B0044616DD1646002501AF80
:104FC00056F8040BFBF794F80346E8B2013539466E
:104FD000EDB20193FFF78CFF032DF1D12046044978
:104FE000FFF78EFA03B0F0BD0249FFF789FAF9E73F
:104FF000246800080C680008AFF30080AFF300805D
:1050000070B5324C84B03248FCF77AFA314D2378CF
:105010002B70FCF785FA2B78012B01D004B070BD02
:105020002D4B2E4D1B784FF0960CC5F800C0E3B900
:105030002B4B1B788BB12B4AD5F800C011782A482E
:105040002A4ACDF800C0FCF7B3FE294E306040BBC1
:10505000042000F04DFB33685BBB1D48FCF750FAA1
:1050600000232370FCF75CFAD8E71E4A4FF0000ECD
:1050700011781D481F4ACDF800E0CDF804E0CDF8C6
:1050800008C0FCF73DFE1A4E306070B9022000F0F7
:105090002FFB3368002BCBD00D48FCF731FA0223ED
:1050A0000BE0072000F00CFBD5E7072000F008FB21
:1050B000EFE70748FCF724FA03232370FCF730FAE4
:1050C00009480D49FCF7B4FDA8E700BF9C19002072
:1050D000381900208619002082170020741900203A
:1050E00080170020580C0020201200206817002094
:1050F000841700205C190020B0680008AFF300801E
:105100002DE9F04F9F4BA04ADB6989B00A209A61D4
:10511000FCF756F84FF48050C4F201009B4E9C4FB0
:105120009C4CDFF87492DFF87482DFF874A29D4D16
:1051300007904FF0000B0799DDF81CE08B68896839
:10514000DEF80820C1F38031C2F34032920042EA17
:105150004101C3F3C0331943C94311F0070114BF20
:10516000002301230A22C8F8002041F65A12C2F295
:10517000000213701846069100F0A2FA41F65A1E7A
:10518000C2F2000E9EF800300699002B00F0AA80B3
:105190008548FCF7B5F9FFF713FDDAF8003041F662
:1051A0004811C2F2000108601846FFF701FEFCF743
:1051B000B7F900223A704AE0FCF7A2F941F69410E0
:1051C000C2F2000041F27C7190F90030C2F200019D
:1051D0000A6841F6781E0133C2F2000E4EF8232011
:1051E000FCF79EF9022000F083FA97F90010D8F836
:1051F00000C0013189B20423644A6C48CDF800C074
:10520000FCF7D6FD41F698110346C2F200010420D6
:105210000B60002B4CD100F06BFA6348FCF770F97F
:1052200041F69412C2F2000292F9003041F6481E93
:1052300032680133C2F2000E4EF82320FCF770F9F9
:105240003B780133DBB25AB2012A3B7044DC56484A
:10525000FCF756F997F9003001335AF8232059F832
:10526000233022602B60FCF75BF921682B68494AE8
:105270009942BAD041F69413C2F2000393F9001098
:10528000D8F800C00131042389B24848CDF800B0F5
:10529000CDF804B0CDF808C0FCF732FD41F6981EF9
:1052A0000346C2F2000E4048CEF80030002B83D0F7
:1052B000072000F005FA3D48FCF7F2FC0520FBF75B
:1052C0007FFF3A483A49FCF7B3FC3B780133DBB245
:1052D0005AB2012A3B70BADDFFF792FE0520FBF7B8
:1052E0006FFF28E7334FDFF8D0B03970FFF768FC65
:1052F000DFF8C8A030604FF0040941F6701EC2F21A
:10530000000E3978D8F800C0CDF800E044F6E15E30
:10531000C0F6000E234A4B462448CDF80490CDF841
:1053200008B0CDF80CE0CDF810C0FCF791FD41F6C7
:105330009811C2F200010860C0B9002000F0C0F965
:105340000520FBF73DFFFFF73BFC2023206083F3A4
:105350001188FBF7D5FB23683360FBF7E9FB0023DB
:1053600083F311882868FFF723FDE9E70F48104908
:10537000FCF75EFC072000F0A3F9DAF80030002B00
:10538000BBD1DAE7941100203068000870190020C2
:10539000941900207C17002078190020541900204F
:1053A000881900206C1900203819002020120020D4
:1053B000B068000858190020F14D00089819002025
:1053C00041F63813C2F2000310B504461846FCF744
:1053D00097F841F69C13C2F200031C70FCF7A0F88A
:1053E00010BD00BFAFF30080AFF30080AFF30080CB
:1053F00041F6381010B5C2F20000FCF781F841F612
:105400009C13C2F200031B7841F65914C2F2000447
:105410002370FCF785F8207810BD00BFAFF3008043
:10542000002910B504460CDD1068FAF761FE074B41
:10543000C0B21870064B074918702046FFF760F895
:1054400010BD0549FFF75CF8FAE700BF841900209A
:10545000580C00203468000844680008AFF300804E
:1054600000292DE9F0470C46054617462ADD10684D
:10547000FAF73EFEDFF85480154E002314F1FF3496
:1054800088F80000337017D0DFF84890DFF848A0A4
:10549000013357F82300FAF72BFE327898F8001002
:1054A000531CDBB25218C0B2D2B2A34289F800003A
:1054B0000AF802003370EBDB28460849FFF720F8B2
:1054C000BDE8F0870649FFF71BF8F9E785190020CA
:1054D00081170020831700205C19002058680008FD
:1054E0000C680008AFF30080AFF30080AFF30080DA
:1054F000012970B50446154614DD1068FAF7F8FD69
:105500000A4E30706868FAF7F3FD094D03462B70B8
:105510000120FFF755FF32782B7820460549FEF72A
:10552000EFFF70BD0449FEF7EBFFFAE7821700209A
:1055300080170020686800080C680008AFF300803E
:1055400010B50446FFF754FF41F69613C2F200036C
:1055500046F6780102461870C0F600012046FEF7B4
:10556000CFFF10BDAFF30080AFF30080AFF300803A
:105570000029F8B5054620DD1068FAF7B9FD114E8F
:105580000346114928463370104CFEF7B9FF3278B4
:105590000023237062B10E4FFA5C28460D49FEF7D6
:1055A000AFFF237832780133DBB29A422370F3D80D
:1055B00028460949FEF7A4FFF8BD0849FEF7A0FFF9
:1055C000FAE700BF781700208468000895190020CA
:1055D00068170020FC6700088C68000894680008C1
:1055E000154B164ADB6970B54FF44064144E154DE7
:1055F0009A61C4F201041448FBF782FF33682B6000
:1056000013F0010F1EBFE26882F48042E26013F0E3
:10561000020F1EBFE26882F40052E26013F0040F32
:105620001EBFE36883F48053E360FBF779FF7D20BE
:10563000FBF7C6FDDFE700BF94110020C06800083B
:10564000B0190020681B0020A0190020AFF30080D3
:1056500070B54FF44064C4F201044FF480414FF43C
:1056600000564FF4805582B0216106222661204603
:105670002561FEF76DF9204631460622FEF768F9EE
:10568000294606222046FEF763F941F6A010C2F231
:105690000000FBF79DFE002241F6B81045F2E153F1
:1056A0000092C0F600034FF4D8714022C2F200000D
:1056B000FBF74EFD02B070BDAFF30080AFF300808A
:1056C00041F6A013C2F2000310B504461846FBF7DA
:1056D00017FF41F6B013C2F200031C60FBF720FF76
:1056E00010BD00BFAFF30080AFF30080AFF30080C8
:1056F00010F0010F1FBF4FF44063C4F20103DA68DA
:1057000082F4804218BFDA6010F0020F1FBF4FF41E
:105710004063C4F20103DA6882F4005218BFDA6011
:1057200010F0040F1FBF4FF44063C4F20103DA68A6
:1057300082F4805218BFDA60704700BFAFF3008078
:1057400010F0010F1FBF4FF44063C4F20103DA6889
:1057500082F4804218BFDA6010F0020F1FBF4FF4CE
:105760004063C4F20103DA6882F4005218BFDA60C1
:1057700010F0040F1FBF4FF44063C4F20103DA6856
:1057800082F4805218BFDA60704700BFAFF3008028
:1057900020003900000000000000000000000000B0
:1057A00000202020202020202020282828282820F1
:1057B00020202020202020202020202020202020E9
:1057C0002088101010101010101010101010101051
:1057D0001004040404040404040404101010101041
:1057E000101041414141414101010101010101010B
:1057F000010101010101010101010101101010105D
:1058000010104242424242420202020202020202DC
:105810000202020202020202020202021010101030
:105820002000000000000000000000000000000058
:105830000000000000000000000000000000000068
:105840000000000000000000000000000000000058
:105850000000000000000000000000000000000048
:105860000000000000000000000000000000000038
:105870000000000000000000000000000000000028
:105880000000000000000000000000000000000018
:105890000000000000000000000000000000000008
:1058A00000000000000000000000000000000000F8
:1058B00069646C65000000006D61696E00000000A5
:1058C00053562331000000005356233200000000DD
:1058D00053562333000000005356233400000000C9
:1058E00053562335000000005356233600000000B5
:1058F00053562337000000005356233800000000A1
:105900005356233900000000535623313000000065
:105910005356233131000000000000000000000059
:1059200022636856545365744922282900000000F8
:105930002263685654526573657449222829000011
:105940006368565452657365744928292C202331A5
:105950000000000000000000000000000000000047
:10596000636853636852656164794928292C202350
:1059700031000000737461636B206F766572666C32
:105980006F77000000000000000000000000000031
:1059900022636854686443726561746549222829EA
:1059A0000000000022636854686453657450726993
:1059B0006F726974792228290000000063685468B6
:1059C00064526573756D6528292C20233100000011
:1059D000226368546864536C65657022282900004E
:1059E0006368546864457869745328292C202331EE
:1059F00000000000226368546864576169742228BB
:105A00002900000063685468645761697428292C70
:105A10002023310063685468645761697428292C15
:105A20002023320000000000000000000000000001
:105A3000636854686441646452656628292C202395
:105A400031000000636854686452656C6561736579
:105A500028292C2023310000226368546864437293
:105A60006561746546726F6D4D656D6F7279506FCB
:105A70006F6C2228290000000000000000000000D8
:105A800063685265674E657874546872656164280E
:105A9000292C20233100000000000000000000003D
:105AA0002263684D7478496E6974222829000000C9
:105AB0002263684D74784C6F636B53222829000071
:105AC00063684D74784C6F636B5328292C20233105
:105AD0000000000063684D74784C6F636B53282995
