:020000040800F2
:100000000004002021060008F1060008F10600089F
:10001000F1060008F1060008F1060008F1060008E4
:10002000F1060008F1060008F106000821070008A3
:10003000F1060008F1060008F1060008F1070008C3
:10004000F1060008F1060008F1060008F1060008B4
:10005000F1060008F1060008F1060008F1060008A4
:10006000F1060008F1060008F1060008F11A000880
:10007000311B0008711B0008B11B0008F11B0008B0
:10008000311C0008711C0008F1060008F106000888
:10009000F1060008F1060008F1060008F106000864
:1000A000F1060008F1060008F1060008F106000854
:1000B000F1060008F1060008F1060008B121000869
:1000C00051230008F1060008F1060008F1060008B7
:1000D000F106000891260008B1260008F106000884
:0C00E000F1060008F1060008F106000817
:1000F00080F0004002E000BF81F0004142001FBFDD
:100100005FEA410392EA030F7FEA226C7FEA236CE5
:100110006AD04FEA1262D2EB1363C1BFD2184140DA
:1001200048404140B8BF5B42192B88BF704710F070
:10013000004F40F4000020F07F4018BF404211F013
:10014000004F41F4000121F07F4118BF494292EA7B
:10015000030F3FD0A2F1010241FA03FC10EB0C00A7
:10016000C3F1200301FA03F100F0004302D5494234
:1001700060EB4000B0F5000F13D3B0F1807F06D3E1
:1001800040084FEA310102F10102FE2A51D2B1F1D9
:10019000004F40EBC25008BF20F0010040EA0300CE
:1001A0007047490040EB000010F4000FA2F101027B
:1001B000EDD1B0FA80FCACF1080CB2EB0C0200FA05
:1001C0000CF0AABF00EBC25052421843BCBFD04053
:1001D0001843704792F0000F81F4000106BF80F4CD
:1001E00000000132013BB5E74FEA41037FEA226C90
:1001F00018BF7FEA236C21D092EA030F04D092F05B
:10020000000F08BF0846704790EA010F1CBF00208E
:10021000704712F07F4F04D1400028BF40F00040EB
:10022000704712F100723CBF00F50000704700F00B
:10023000004343F0FE4040F4000070477FEA226232
:1002400016BF08467FEA23630146420206BF5FEA03
:10025000412390EA010F40F4800070474FF0000303
:1002600004E000BF10F0004348BF40425FEA000CCA
:1002700008BF704743F0964301464FF000001CE072
:1002800050EA010208BF70474FF000030AE000BFC8
:1002900050EA010208BF704711F0004302D5404206
:1002A00061EB41015FEA010C02BF84460146002078
:1002B00043F0B64308BFA3F18053A3F50003BCFA93
:1002C0008CF2083AA3EBC25310DB01FA02FC634440
:1002D00000FA02FCC2F12002BCF1004F20FA02F247
:1002E00043EB020008BF20F00100704702F120023A
:1002F00001FA02FCC2F1200250EA4C0021FA02F29B
:1003000043EB020008BF20EADC70704700000000E9
:100310004FF0FF0C1CEAD0521EBF1CEAD15392EAE8
:100320000C0F93EA0C0F6FD01A4480EA010C4002C4
:1003300018BF5FEA41211ED04FF0006343EA50101E
:1003400043EA5111A0FB01310CF00040B1F5000F60
:100350003EBF490041EAD3715B0040EA010062F10F
:100360007F02FD2A1DD8B3F1004F40EBC25008BFF9
:1003700020F00100704790F0000F0CF0004C08BF17
:1003800049024CEA502040EA51207F3AC2BFD2F1E4
:10039000FF0340EAC250704740F400004FF00003F2
:1003A000013A5DDC12F1190FDCBF00F0004070472C
:1003B000C2F10002410021FA02F1C2F1200200FA6A
:1003C00002FC5FEA310040F1000053EA4C0308BF31
:1003D00020EADC70704792F0000F00F0004C02BF82
:1003E000400010F4000F013AF9D040EA0C0093F0FD
:1003F000000F01F0004C02BF490011F4000F013B57
:10040000F9D041EA0C018FE70CEAD15392EA0C0FC4
:1004100018BF93EA0C0F0AD030F0004C18BF31F02F
:10042000004CD8D180EA010000F00040704790F005
:10043000000F17BF90F0004F084691F0000F91F0A9
:10044000004F14D092EA0C0F01D142020FD193EA6F
:100450000C0F03D14B0218BF084608D180EA0100F7
:1004600000F0004040F0FE4040F40000704740F0D3
:10047000FE4040F4400070474FF0FF0C1CEAD052A1
:100480001EBF1CEAD15392EA0C0F93EA0C0F69D0FD
:10049000A2EB030280EA010C49024FEA402037D068
:1004A0004FF0805343EA111143EA10130CF000405F
:1004B0008B4238BF5B0042F17D024FF4000C8B424F
:1004C00024BF5B1A40EA0C00B3EB510F24BFA3EB2F
:1004D000510340EA5C00B3EB910F24BFA3EB9103FF
:1004E00040EA9C00B3EBD10F24BFA3EBD10340EA59
:1004F000DC001B0118BF5FEA1C1CE0D1FD2A3FF69F
:1005000050AF8B4240EBC25008BF20F00100704753
:100510000CF0004C4CEA50207F32C2BFD2F1FF03F6
:1005200040EAC250704740F400004FF00003013A27
:1005300037E792F0000F00F0004C02BF400010F4CB
:10054000000F013AF9D040EA0C0093F0000F01F0DF
:10055000004C02BF490011F4000F013BF9D041EA01
:100560000C0195E70CEAD15392EA0C0F08D1420234
:100570007FF47DAF93EA0C0F7FF470AF084676E707
:1005800093EA0C0F04D14B023FF44CAF08466EE7E0
:1005900030F0004C18BF31F0004CCAD130F00042AE
:1005A0007FF45CAF31F000437FF43CAF5FE700BF06
:1005B0004FEA4002B2F1FE4F0FD34FF09E03B3EB70
:1005C00012620DD94FEA002343F0004310F0004FB0
:1005D00023FA02F018BF404270474FF00000704706
:1005E00012F1610F01D1420205D110F0004008BFA5
:1005F0006FF0004070474FF00000704700000000AF
:10060000704700BFAFF30080AFF30080AFF300800E
:10061000FEE700BFAFF30080AFF30080AFF30080D0
:1006200072B6244A82F30988022383F31488BFF345
:100630006F8F214B21498B4205D24FF0553043F843
:10064000040B8B42FBD31E4B934205D24FF0553126
:1006500043F8041B9342FBD302F03AF9194B1A48B2
:10066000834206D2194A52F8041B43F8041B834202
:10067000F9D3174B174A934204D2002143F8041BC5
:100680009342FBD3144D154CFFF7BAFFAC4204D292
:1006900054F8043B9847AC42FAD3114D114C02F088
:1006A00027F9AC4204D254F8043B9847AC42FAD341
:1006B000FFF7AEFF0008002000000020000400202B
:1006C00000040020000800203C080020703D0008C5
:1006D00040080020601E0020EC000008EC0000082C
:1006E000EC000008EC000008AFF30080AFF30080DE
:1006F000FEE700BFAFF30080AFF30080AFF30080F0
:1007000072B6FEE7AFF30080AFF30080AFF3008076
:1007100000F076F900F0ECFB00F08AF900DF00BF92
:10072000EFF30983203383F30988002383F31188CF
:10073000704700BFAFF30080AFF30080AFF30080DD
:1007400008B500224FF46D43CEF20003C0F2FA5216
:10075000002199600720DA60102100F0A1F80A203A
:100760004FF4007100F09CF80B20802100F098F805
:1007700008BD00BFAFF30080AFF30080AFF300808F
:10078000202383F311884FF46D43CEF200035B689E
:1007900013F4006316D0EFF30983203B83F3098839
:1007A000104A4FF080709169D86171B11168D269B7
:1007B00089689268914294BF002201227AB10A4A64
:1007C0009A6101E083F3118870471168D2698968E2
:1007D0009268914234BF00220122002AEFD1034ADD
:1007E0009A61F1E76C0D0020110700081C07000852
:1007F00008B500F07DF9202383F3118800F038F963
:1008000000F0B6F800F054F9002383F3118800F0EB
:100810008FF9FFF7B5FF08BDAFF30080AFF300809D
:100820002DE9F04FC1F80CD0D0F80CD0BDE8F08F16
:1008300008B500F0FDF8002383F311882846A0478F
:1008400000F06EFC08BD00BFAFF30080AFF3008086
:1008500000F0030330B4DB00FF259D4000F01F02D1
:1008600011FA03F34FF0010C0CFA02FC84084FF468
:100870006142CEF20002C03452F82410400921EA4D
:10088000050141EA030300F1600142F8243042F817
:1008900021C042F820C030BC704700BFAFF30080D9
:1008A00000F0030310B4DB00FF249C4011FA03F3B3
:1008B00080084FF46D42CEF20002063052F820C09C
:1008C0002CEA040141EA030342F8203010BC7047CF
:1008D000024B034ADB699A61FEE700BF6C0D002002
:1008E00010370008AFF30080AFF30080AFF3008053
:1008F00030B583B0FFF724FF00F022FA00F0B0F922
:1009000000F0F6FE00F064F940F640004021C2F22B
:10091000000000F015FB40F66C5440F20043C2F2B8
:100920000003C2F200040125E06180F82050C36199
:1009300000F04EF8002383F3118862B643F2187179
:10094000E269C0F60001916140F68800002240F69D
:10095000D1030092C0F60003C0212A46C2F2000073
:1009600000F066FB03B030BDAFF30080AFF3008052
:1009700070B500F0FDF8114B9A69002A01DD013ACB
:100980009A61DB690E4C596A226801315962E36849
:100990000133A242E3600FD09568013D95605DB9D7
:1009A00026461168D3681069D5604E60216098476B
:1009B00022689368002BF4D070BD00BF6C0D00203E
:1009C0005C0D0020AFF30080AFF30080AFF3008038
:1009D00008B5064B1B6813B9054B1B6823B1054AC4
:1009E000054B1A60FFF78CFE08BD00BF48090020C8
:1009F000540D002030370008580D0020AFF3008060
:100A0000074B10B51B68074C13B9064C236823B17C
:100A1000054A064B1A60FFF773FE0123236010BDE1
:100A200048090020540D002038370008580D0020D8
:100A3000084B10B51B68084C33B9074C2368002BD2
:100A400002DD0023236010BD044A054B1A60FFF746
:100A500057FEF6E748090020540D002040370008F3
:100A6000580D0020AFF30080AFF30080AFF300809B
:100A7000084B10B51B68002BD8BF074C02DD064C95
:100A8000236823B1054A064B1A60FFF739FE01239C
:100A9000236010BD48090020540D0020483700088D
:100AA000580D0020AFF30080AFF30080AFF300805B
:100AB000094B10B51B68002BD8BF084C06DD074C4E
:100AC0002368002B02DD0023236010BD044A054B80
:100AD0001A60FFF715FEF6E748090020540D0020C4
:100AE00050370008580D0020AFF30080AFF30080AE
:100AF00010B5202383F31188094C2368002B02DBF7
:100B0000084A12682AB1084B084A1A60FFF7F8FD34
:100B1000236801332360002383F3118810BD00BFD5
:100B200048090020540D0020580D002058370008B7
:100B300010B5202383F31188094C2368002B02DDB4
:100B4000084A12682AB1084B084A1A60FFF7D8FD14
:100B50002368013B2360002383F3118810BD00BF8D
:100B600048090020540D0020580D0020603700086F
:100B700008B5074B1B68002B04DB064B1B68002BDA
:100B800000DD08BD044A054B1A60FFF7B9FDF8E720
:100B900048090020540D002068370008580D002037
:100BA00008B5074B1B6823B9064B1B68002B00DDFB
:100BB00008BD054A054B1A60FFF7A2FDF8E700BF24
:100BC00048090020540D002070370008580D0020FF
:100BD00040F64C13C2F200031A46402142F8081BAB
:100BE0005A607047AFF30080AFF30080AFF300802E
:100BF00070B40D4A0D495368CE680D49846ACD69B9
:100C000090F820C003F1100102F5816081421E605E
:100C10005D609C6083F80CC028BF02F1080351603E
:100C200028BF536070BC70474C0900205C0D002049
:100C30006C0D0020AFF30080AFF30080AFF30080B5
:100C400008B540F65853C2F200031860FFF758FD8C
:100C500008BD00BFAFF30080AFF30080AFF30080AA
:100C600040F65C53C2F200034FF0FF329A6000225C
:100C70005B601B60DA607047AFF30080AFF3008009
:100C8000F8B5044615461F460E46FFF771FFD4F12E
:100C9000010338BF0023002D08BF43F00103002BE0
:100CA00019D1002E17D00E4927610B68E5609A68AC
:100CB000964204D91B68B61A9A68B242FAD35A68A7
:100CC0008B422360626014605C60A66002D09A6808
:100CD000961B9E60F8BD0348FFF7B2FFE3E700BF35
:100CE0005C0D002080370008AFF30080AFF3008078
:100CF00010B50446FFF73CFF84B1E36893B1236865
:100D00000A4A934203D09968A2688A189A60626876
:100D1000002113602368E1605A6010BD0448FFF7AA
:100D20008FFFEAE70348FFF78BFFE8E75C0D002041
:100D300090370008A0370008AFF30080AFF30080C1
:100D400040F66C53C2F2000300229A6014225B60EA
:100D50001B609A615B611B61704700BFAFF300804D
:100D600010B590F820300446D3F1010238BF0022BC
:100D70000E2B14BF134642F001037BB90022094B2E
:100D8000A16884F820201B689A688A42FBD25A68BE
:100D90002360626014605C60204610BD0248FFF76B
:100DA0004FFFEBE76C0D0020C0370008AFF3008069
:100DB00008B590F820300D2B11D8DFE803F015109E
:100DC0001007100B101010101010100B836A9A6887
:100DD00001329A60436802681A60026853604FF0FB
:100DE000FF338362FFF7BCFF08BD00BFAFF3008095
:100DF00070B5104C0646FFF7D3FEE569142185F85F
:100E00002060236828461A68A1610121546083F894
:100E100020102260E361FFF7EBFEEA69ADF12403E5
:100E20009A4202D90448FFF70BFFE0692946FFF711
:100E3000F7FC70BD6C0D0020D4370008AFF30080C4
:100E4000F0B50F4687B00546FFF7AAFEB7F1FF3FA2
:100E500013D00C4C01AEE36939460B4A3046FFF71C
:100E60000FFF2846FFF7C4FF049B13B13046FFF77E
:100E70003FFFE369986A07B0F0BD2846FFF7B8FF67
:100E8000004CF6E76C0D0020B10D0008AFF30080B8
:100E900070B5144D04460E46FFF782FEE869A2685D
:100EA0008368A6629A4214D9FFF75AFF01230646C7
:100EB00084F820301423AB61EC61FFF799FEF269EE
:100EC000ADF124039A4208D820463146FFF7A8FC2A
:100ED00070BD2046FFF744FFFAE70348FFF7B0FE76
:100EE000F2E700BF6C0D0020D4370008AFF300809C
:100EF00038B50F4C14212368E5691A68A1610121F6
:100F0000546083F8201028462260E361FFF728FF31
:100F10002846FFF76DFEEA69ADF124039A4202D933
:100F20000448FFF78DFEE0692946FFF779FC38BDDC
:100F30006C0D0020D4370008AFF30080AFF30080C1
:100F400000234FF0020C40F66C52C2F2000280F80F
:100F500020C080F82130D2F814C070B400F1300401
:100F600000F12C0600F1480502618160C0F814C050
:100F7000416450610364C36343628361CCF8100031
:100F8000C66244630463C56170BC7047AFF3008000
:100F9000F8B504460D461F461646FFF7E9FDD4F1A5
:100FA000010338BF0023AF2D98BF43F0010343B9BD
:100FB0007F2E94BF00230123002F08BF43F00103BD
:100FC00013B11548FFF73CFE243D06986119E16016
:100FD0004860124800230862114A0221675184F8D0
:100FE000201084F82130506904F1300104F12C05FF
:100FF00004F1480C22616061A66066645461236458
:101000000461E3636362A361E56261632163C4F821
:101010001CC02046F8BD00BFF037000831080008AA
:101020006C0D0020AFF30080AFF30080AFF30080C1
:10103000F0B50D4616461F4683B0044600F148023F
:101040000346FF2103F8011B9342FBD163199A4227
:1010500004D2552102F8011B9A42FBD1202383F3CD
:101060001188FFF7CDFCDDF820C03B46324629460B
:101070002046CDF800C0FFF78BFF00210446FFF7A4
:1010800007FFFFF7D5FC002383F31188204603B048
:10109000F0BD00BFAFF30080AFF30080AFF300807E
:1010A00010B5044610B90948FFF7CAFD202383F3A1
:1010B0001188FFF7A5FC21460620FFF7C1FEFFF7C8
:1010C000B7FC002383F3118810BD00BF303800083F
:1010D000114A38B5D4690346254655F82C0FA3624A
:1010E000A84206D00368E362FFF73AFEE06AA8422E
:1010F000F8D194F8213013F0030F01BF226963691E
:101100001A61226908BF53610E20FFF771FE034880
:10111000FFF796FD38BD00BF6C0D00204038000879
:1011200010B52023044683F31188FFF769FC20469D
:10113000FFF7CEFF10BD00BFAFF30080AFF300801C
:1011400010B5044620B1002364602460A36010BD84
:101150000148FFF775FDF6E780380008AFF300801F
:1011600038B53D4B0546DC69FFF71AFD002D6FD001
:10117000A868002867D0A26883689A4208D990F8C6
:1011800020308260042B42D0052B2AD0002B1DD0AA
:101190002B461B689D4203D09968A2689142F8D201
:1011A0005A682360626004205C601460A562FFF7E7
:1011B0001FFEAB68A34202D02848FFF741FD236C15
:1011C000AB4202D02648FFF73BFD38BD43680268BA
:1011D00001211A60026880F820105360FFF7C0FDFB
:1011E000D6E741680368D0F828C00B60D0F800E06B
:1011F0006346CEF804101B689C4502D09968914262
:10120000F9D25A680360426010605860C0E74168D4
:101210000368D0F828C00B60D0F800E06346CEF831
:1012200004101B689C4502D099688A42F9D95A6813
:101230000360426010605860DCF80800A2688368B0
:1012400093429CD3A4E7236CAC60EB602564BCE7BD
:101250000448FFF7F5FC8BE76C0D0020A038000870
:10126000B438000890380008AFF30080AFF3008076
:1012700010B52023044683F31188FFF7C1FB2046F5
:10128000FFF76EFFFFF7D4FB002383F3118810BD37
:101290001E4A38B5D569202383F31188FFF7B0FBC8
:1012A0002C6C002C2CD0A368AB4203D01848FFF75D
:1012B000C7FC2C6C2068E368A0422B641DD0696CCD
:1012C0004BB11A689A4203D09268914238BF1146D6
:1012D000DB68002BF5D10368026CA9602360002154
:1012E0005C60A060E2600464FFF7D2FDFFF7A0FB42
:1012F000002383F31188204638BD0023A360F5E75F
:101300000448FFF79DFC2C6CCDE700BF6C0D00205E
:10131000F0380008DC380008AFF30080AFF300803D
:1013200038B504460D46FFF723FC002C1CD0E26BB9
:1013300094F820301543082BE5630CD0092B00D01E
:1013400038BDA36A1D40AB42FAD12046FFF708FD25
:1013500000238362F4E7A36A1D42F1D02046FFF721
:10136000FFFC00238362EBE70148FFF769FCDEE73F
:101370005C390008AFF30080AFF30080AFF300806A
:1013800070B505460E46FFF7F3FB65B12C68AC421D
:1013900008D0A168606846EA0101FFF7C1FF246830
:1013A000AC42F6D170BD0248FFF74AFCEEE700BF41
:1013B00080390008AFF30080AFF30080AFF3008006
:1013C00008B503464FF0FF3069B1074AD3F804C0AF
:1013D000D2690D2013609362C2F804C05A60CCF841
:1013E0000020FFF72DFD08BD6C0D0020AFF300803D
:1013F0008A184FF0000C40600060C0F808C04161DE
:101400008161C1600261C361704700BFAFF30080BA
:1014100038B504460D46FFF7ABFBA26963699342FA
:1014200018BFA26818D00132A26003F8015B2269DC
:101430006361934228BFE368206828BF6361A042CC
:1014400008D0036823605C60FFF78AFC0023836296
:10145000184638BD0020FCE7A268002AE3D06FF0F0
:101460000300F6E7AFF30080AFF30080AFF3008036
:1014700070B5202382B004460D4683F31188FFF730
:10148000BFFAE3690BB120469847A6682046294673
:1014900066B9FFF795FF0028F7DA0190FFF7C8FA61
:1014A000334683F31188019802B070BDA369013EF1
:1014B000A66013F8015B2269A361934224BFE3682D
:1014C000A361FFF7B5FA002383F311882846EBE701
:1014D0002DE9F047044690468A461D46C769002A12
:1014E00038D0202383F31188FFF78AFA00260FB142
:1014F0002046B847D4F8089020462946B9F1000F95
:101500000BD1FFF75DFF0028F4D0FFF791FA4B46AF
:1015100083F311883046BDE8F087A36909F1FF39EC
:10152000C4F8089013F8012B0AF806202269A36179
:10153000934224BFE368A361FFF77AFA002383F3A1
:1015400011880136B045E5D0202383F31188FFF7D9
:1015500057FACCE70148FFF773FBC2E7C039000830
:1015600001EB020C40600060826041618161C160FA
:10157000C0F810C0C3617047AFF30080AFF30080C4
:10158000F0B5202383B004460D46164683F3118838
:10159000FFF736FAA7682046314667B9FFF710FF14
:1015A0000028F7DA0190FFF743FA3B4683F31188EE
:1015B000019803B0F0BD6369013FA76003F8015BC8
:1015C00022696361934224BFE3686361E3690BB1FD
:1015D00020469847FFF72CFA002383F3118818461A
:1015E000E7E700BFAFF30080AFF30080AFF3008008
:1015F00038B50446FFF7BCFA6269A3699A4218BF7E
:10160000A26816D00132A26013F8015B2269A361BF
:10161000934228BFE368206828BFA361A04206D098
:10162000036823605C60FFF79BFB0023836228460E
:1016300038BDA268002AE5D06FF00200F8E700BFCD
:101640002DE9F047044615460E469A46D0F81C8010
:10165000002A40D0202383F31188FFF7D1F9002717
:10166000D4F8089009F1FF33B9F1000F25D0A36039
:101670003278636903F8012B22696361934224BFC6
:10168000E3686361B8F1000F01D02046C047FFF75F
:10169000CFF9002383F31188013715F1FF3517D0F7
:1016A0000136202383F31188FFF7AAF9D4F80890B4
:1016B00009F1FF33B9F1000FD9D120465146FFF7A8
:1016C0007FFE0028CCD0FFF7B3F94B4683F3118897
:1016D0003846BDE8F0870248FFF7B2FABAE700BF24
:1016E000D4390008AFF30080AFF30080AFF300807F
:1016F00042F20001084840F6905240F68C53C2F284
:101700000001C2F2000220F00700C2F2000321F043
:101710000701106019607047671E0020AFF300805A
:1017200008B500F03DFB00F0BBF943F68040C0F681
:10173000000001F04DF800F00BF800F099F800F00F
:1017400007F901F0CDF808BDAFF30080AFF30080DA
:1017500008B500F07DFC08BDAFF30080AFF300805A
:1017600008B500220346012100F1180019705A60E3
:101770009A60DA601A615A61FFF7E2FC08BD00BFA7
:1017800038B504460D46C0B1202383F31188FFF716
:1017900037F92378013BDBB2012B02D90948FFF767
:1017A0004FFA2046656000F093FC02232370FFF798
:1017B0003FF9002383F3118838BD0348FFF740FA4F
:1017C000E2E700BF003A0008F0390008AFF30080FC
:1017D000F8B504460D461F461646FFF7C9F9D4F181
:1017E000010338BF0023002D08BF43F00103002B85
:1017F0001ED1002E1CD0012F02D017F0010F17D1DF
:1018000023789A1E18BF0122042B0CBF002202F07D
:10181000010222B1052B02D00748FFF711FA03237A
:10182000A660E76025612370204600F081FCF8BDCA
:101830000248FFF705FAE3E7443A00082C3A0008AB
:10184000F8B51C4607460E461546202383F311883B
:10185000FFF7D6F82346384631462A46FFF7B8FF49
:10186000FFF7E6F8002383F31188F8BDAFF300809B
:1018700008B500F025FE08BDAFF30080AFF300808F
:1018800008B5012203461A70002200F10C005A60CC
:10189000FFF756FC08BD00BFAFF30080AFF3008038
:1018A000806BD0F1010038BF00207047AFF300809B
:1018B0008069D0F1010038BF00207047AFF300808D
:1018C00070B52023044683F311880026FFF798F8AB
:1018D000A568A660FFF7ACF8334683F31188284665
:1018E00070BD00BFAFF30080AFF30080AFF30080A6
:1018F00008B51030FFF7ECFD08BD00BFAFF3008066
:1019000008B510304FF0FF33FFF7E2FD08BD00BF10
:1019100008B53030FFF794FE08BD00BFAFF300807C
:1019200008B530304FF0FF33FFF78AFE08BD00BF27
:1019300008B51030FFF79CFD08BD00BFAFF3008075
:1019400008B53030FFF71CFE08BD00BFAFF30080C4
:1019500008B500F0BDFE08BDAFF30080AFF3008016
:1019600038B50B4643F660318446C0F600010446A4
:101970004CF8041BC4F804C04FF0000CC4F808C0B5
:101980004FF0010C04F15001154600F110004FF426
:10199000007284F80CC0FFF72BFD04F5147104F1FC
:1019A00030004FF400722B46FFF7DAFD38BD00BF60
:1019B00038B504460D46C0B1202383F31188FFF7E4
:1019C0001FF8237B013BDBB2012B02D90948FFF74B
:1019D00037F92046294600F0A3FE02232373FFF7C0
:1019E00027F8002383F3118838BD0348FFF728F94F
:1019F000E2E700BF0C3B0008003B0008AFF30080AB
:101A000038B504460D46FFF7B3F8002C20D0A16985
:101A100039B104F110002946FFF7FAFC00280EDB6B
:101A200038BDA368201D43F00403A360FFF7A8FCA2
:101A300004F110002946FFF7EBFC0028F0DAA36858
:101A4000201D43F08003A3600021FFF799FCE7E726
:101A50000148FFF7F5F8DAE7383B0008AFF30080FC
:101A60004FF48053CEF200035B688360704700BF81
:101A70004FF48053CEF2000308495A68836809681E
:101A8000D31AC2685B1A9342836088BFC36003D8CD
:101A90000269934238BF0361704700BF940D002074
:101AA00030B541F6612287B0C0F6000240F694548A
:101AB000002301ADC2F20004019241F67122C0F68A
:101AC000000228462360039304934FF0FF330292F1
:101AD0000593FFF7C5FF029B28469847039B2360A9
:101AE00007B030BDAFF30080AFF30080AFF30080EC
:101AF00008B5FEF7FDFF0A4800220368C4F202029F
:101B00004FF00F0C1168C2F804C01BB1406801EA25
:101B10000C019847FFF70CF8FEF732FE08BD00BF36
:101B2000980D0020AFF30080AFF30080AFF300808A
:101B300008B5FEF7DDFF0A4800228368C4F20202FE
:101B40004FF0F00C1168C2F804C01BB1C068C1F3BB
:101B500003119847FEF7ECFFFEF712FE08BD00BF29
:101B6000980D0020AFF30080AFF30080AFF300804A
:101B700008B5FEF7BDFF0A4800220369C4F202025D
:101B80004FF4706C1168C2F804C01BB14069C1F316
:101B900003219847FEF7CCFFFEF7F2FD08BD00BF1A
:101BA000980D0020AFF30080AFF30080AFF300800A
:101BB00008B5FEF79DFF0A4800228369C4F20202BD
:101BC0004FF4704C1168C2F804C01BB1C069C1F376
:101BD00003319847FEF7ACFFFEF7D2FD08BD00BF0A
:101BE000980D0020AFF30080AFF30080AFF30080CA
:101BF00008B5FEF77DFF0A480022036AC4F202021C
:101C00004FF4702C1168C2F804C01BB1406AC1F3D4
:101C100003419847FEF78CFFFEF7B2FD08BD00BFF9
:101C2000980D0020AFF30080AFF30080AFF3008089
:101C300008B5FEF75DFF0A480022836AC4F202027B
:101C40004FF4700C1168C2F804C01BB1C06AC1F334
:101C500003519847FEF76CFFFEF792FD08BD00BFE9
:101C6000980D0020AFF30080AFF30080AFF3008049
:101C700008B5FEF73DFF0A480022036BC4F20202DA
:101C80004FF0706C1168C2F804C01BB1406BC1F317
:101C900003619847FEF74CFFFEF772FD08BD00BFD9
:101CA000980D0020AFF30080AFF30080AFF3008009
:101CB0000C49002310B4DFF830C00C4C0B601A46FE
:101CC0001946E0580C3301604CF802100832542BCE
:101CD000F7D10023C4F202034FF0FF325A6010BC68
:101CE000704700BFD00D0020980D0020D03B0008A9
:101CF0002DE9F041044684B000283BD094F809C097
:101D0000012505FA0CF8204E376818EA070F18BFAE
:101D100028462CD11D4848EA070700EBCC0517F0F0
:101D20007F0F6B6018BF4FF48053376018BFC4F249
:101D3000020340F83C2018BF58694FF00F0C1CBF3D
:101D400040F001005861237A60680CFA03FC2368B4
:101D500000251E6826F001061E60C0F800C01D6048
:101D6000104622B1A07A0901FEF772FD284604B0A0
:101D7000BDE8F0810648039102920193FEF760FFEF
:101D8000019B029A0399B9E7D00D0020980D00201D
:101D9000903B0008AFF30080AFF30080AFF300800A
:101DA00008B54FF48053C4F2020300214FF0FF3016
:101DB000D3F810C04EF2100218611961D3F80CE08C
:101DC000CEF20002D8604BF67F30D9604EF6F05C60
:101DD000506007209160CEF2000C1060DCF80C20FF
:101DE0004FF4805042F08072CCF80C20CEF200000C
:101DF000D0F800C04FF4E0424CF0010CC0F800C035
:101E0000D869C4F2000240F08050D861D86940F02F
:101E10000060D861106840F4807010601A6A02F4A3
:101E20004072B2F5407F1EBF4FF480321A621962D1
:101E30004FF48053C4F202031A6A12F4004F07D120
:101E40001A6A42F440721A621A6A42F400421A6232
:101E5000FFF72EFF08BD00BFAFF30080AFF3008097
:101E60004FF48053C4F202031A68194642F001028B
:101E70001A600A684FF4805312F0020FC4F2020392
:101E8000F7D01A68194602F0F9021A6000225A6067
:101E90004A684FF4805312F00C0FC4F20203F7D1DA
:101EA0001A68194642F480321A600A684FF4805367
:101EB00012F4003FC4F20203F7D05A68194642F404
:101EC000A0225A601A6842F080721A600A684FF4C1
:101ED000805312F0007FC4F20203F7D04FF4C841E0
:101EE000C0F205014FF400525960C4F20202102101
:101EF000116059681A4641F002015960536803F0B5
:101F00000C03082BFAD17047AFF30080AFF30080C9
:101F100011F0080F70B50D46044630D0C36A4FF07B
:101F20000F0E197A1A680EFA01FE01691568D3F8C6
:101F300004C0806ACB6825F0010500211560CCF84B
:101F400000E0816033B10522227020469847237853
:101F5000052B6FD000252561202383F31188FEF720
:101F600087FD606928B14FF0FF3365618362FEF73A
:101F7000F7FEFEF79DFD002383F3118870BD11F07D
:101F8000040F06D003699B681BB1C26881685208C0
:101F9000984715F0020FF1D021690A68002A39D15B
:101FA000E36A0F2593F808C0186805FA0CF506686F
:101FB000D3F804E0D4F828C08B6826F00106066048
:101FC000CEF80050CCF80820002B36D0E268042070
:101FD000012A207038D98988520801FB02F1A068D3
:101FE00000EB4101204698472378042B25D000259B
:101FF0002561202383F31188FEF73AFD606918B14B
:1020000065618562FEF7ACFEFEF752FD002383F3A7
:102010001188B3E78B68002BB0D0E268012A0FD992
:102020008988520801FB02F1A06800EB41012046BB
:102030009847A3E7022323708CE702232370D6E797
:10204000A1682046984799E7A16820469847CBE7C2
:1020500010B51D4C2046FFF783FB42F28A534FF424
:1020600080522363C4F20202906918494FF410535E
:10207000C4F2010340F40070E162A36290610022A7
:102080005A6001229A60092219469A608A684FF4C0
:10209000105312F0080FC4F20103F7D105229A6021
:1020A00019468B684FF4105213F00403C4F2010276
:1020B000F7D14FF480519360C4F202018B6923F48D
:1020C00000738B6110BD00BFD40D0020D03B000811
:1020D00038B503780446012B00D038BD114DA84215
:1020E00004D0A36A00225A609A60F6E7C06A05210C
:1020F0000D4A2346FFF7FCFD78B9EB6A42F24C42E9
:102100001968C4F201024FF480538A60C4F20203DA
:102110009A6942F400729A61E3E70448FEF790FD81
:10212000EBE700BFD40D0020111F0008303C000871
:1021300003692DE9F0051968026B09B142F020022C
:10214000C168C46A01298ABF9D889D884D43D0F823
:1021500008C0216888BF42F00402D3F81480C1F897
:102160000CC04D600A601E690F68826AD3F818A01F
:10217000DD691C6AD3F824C0986A48F4807343F080
:10218000030347F0010746F480760F6056609360C2
:10219000C2F80CA01561D462C2F830C050639360DD
:1021A000BDE8F005704700BFAFF30080AFF30080DB
:1021B000F8B5634CFEF79CFC256B94F834302A8B01
:1021C000AE8A92B2B6B2CBB9022346EA024222F0FC
:1021D0007F42C0F203039A426ED054D80123C0F26A
:1021E00003039A4201D1238C2B8216F00A0F18BFE9
:1021F0002B8BFEF79DFCFEF7C3FAF8BD16F00A0F15
:1022000005D0AE8A00232A8BB6B22364236516F06C
:10221000800F0CD0236DA26C216CD05CE26C01337A
:1022200091422882236502D3454B00221A6516F09D
:10223000400F0BD0226C288AA16B531C8854E26B90
:102240002364934202D33E4B00221A6416F0100F0F
:102250000AD0AE8A2A88636C92B242F00102B6B20A
:102260002A800BB13648984716F4806FC1D0AA8AED
:10227000636D22F480621204120CAA82002BB8D083
:102280002F489847B5E78223C0F207039A422ED021
:102290008423C0F207039A42A7D1A36A1B685F6830
:1022A000002F31D02B88228C9BB242F0010243F4E4
:1022B000A06322842B809CE7AB88A26A23F400737E
:1022C0001B0412681B0CAB80136843F001031360FE
:1022D000AB889BB243F48053AB805368012B84D806
:1022E0002B8823F480631B041B0C2B807DE7AB88B9
:1022F000E26A23F400731B0412681B0CAB801368A2
:1023000043F00103136070E7AA88202322F40072CF
:102310001204120CAA802A8892B242F400722A8017
:1023200083F31188FEF7A4FBE06918B18762E761C7
:10233000FEF716FDFEF7BCFB002383F3118854E77C
:10234000080E0020AFF30080AFF30080AFF30080F1
:1023500070B5594DFEF7CCFB2C6B202383F311880D
:10236000FEF786FBEB6A0F2193F808C01A6801FAA2
:102370000CFCD2F800E058682EF0010EAB6AC2F8EF
:1023800000E0C0F800C0187A1A68814010685B68E5
:1023900020F0010010601960FEF78AFB002383F330
:1023A0001188A68A16F4807606D0A38A012623F423
:1023B00080731B041B0CA382A38A13F4007F07D035
:1023C000A38A46F0020623F400731B041B0CA382AD
:1023D00095F834303848002B32D1A38A13F4806F3B
:1023E00039D1A38A13F4006F07D0A38A46F00806F8
:1023F00023F400631B041B0CA382A38A13F4805FE5
:1024000007D0A38A46F0100623F480531B041B0C4C
:10241000A382A38A13F4804F07D0A38A46F0200634
:1024200023F480431B041B0CA382A38A1BB2002B42
:1024300025DB002E29D1FEF77BFBFEF7A1F970BD4D
:10244000A28A436D22F480621204120CA282002B35
:10245000C7D09847C5E7A38A46F0040623F48063F3
:102460001B041B0CA382A38823F400731B041B0C06
:10247000A38023889BB243F400732380B1E7A38A2F
:1024800046F040065B045B0CA382AE60202383F31E
:102490001188FEF7EDFAE86938B1074B0022DA61DE
:1024A0006FF001038362FEF75BFCFEF701FB002384
:1024B00083F31188BFE700BF080E0020AFF3008050
:1024C00010B540F60864C2F200042046FFF7D8F9C0
:1024D000064B4FF4A842C4F20002A3F10C01002005
:1024E000E0612263A362E16210BD00BF183C0008F6
:1024F0004FF46053C4F201039A8992B242F0800211
:102500009A817047AFF30080AFF30080AFF3008093
:102510004FF48843C4F200039A8992B242F08002D9
:102520009A817047AFF30080AFF30080AFF3008073
:102530002DE9F845D0F850640546B7893488B6F8D7
:102540000480A4B214F00F0FBFB21FFA88F826D08F
:1025500014F0080A18BF4FF0800A14F0010F18BFDA
:102560004AF0200A14F0020F18BF4AF0400A14F093
:10257000040F18BF4AF4807A202383F31188FEF7F2
:1025800077FAAB68281D43EA0A0A0021C5F808A0BB
:10259000FEF7F6FEFEF78CFA002383F3118814F49D
:1025A000807F3AD114F0200F27D117F0800F02D08E
:1025B00014F0800F4AD114F0400F1CD0202383F375
:1025C0001188FEF755FAAB68281D43F01003AB6085
:1025D0000021FEF7D5FEFEF76BFA002383F3118886
:1025E0004FF6BF7307EA0303B381338823F0400338
:1025F0001B041B0C3380BDE8F885202383F311886E
:10260000FEF736FA5FFA88F12846FFF7F9F9FEF788
:102610004FFA002383F31188C7E7202383F311883F
:10262000FEF726FAAB68281D43F40073AB60002167
:10263000FEF7A6FEFEF73CFA002383F311883388E9
:1026400023F480731B041B0C3380ABE7202383F33C
:102650001188FEF70DFA05F13000FEF7C9FF0028DA
:10266000A4BF80B2B08005DBFEF722FA002383F31B
:102670001188A0E7AB68281D43F00803AB60002178
:10268000FEF77EFE27F0C00343F04003B381EBE783
:1026900008B5FEF72DFA40F66060C2F20000FFF7C1
:1026A00047FFFEF745FAFEF76BF808BDAFF3008071
:1026B00008B5FEF71DFA41F2B420C2F20000FFF7A0
:1026C00037FFFEF735FAFEF75BF808BDAFF3008081
:1026D00038B540F66065C2F2000542F2F142C0F63C
:1026E00000022846002141F2B424FFF739F9C2F272
:1026F000000442F211524FF46053C4F20103C0F6D9
:10270000000220460021C5F85034FFF729F94FF4A4
:102710008843C4F20003C4F8503438BDAFF30080DE
:1027200038B5254A037B0C46002908BF1446012B07
:10273000054620D021684FF4D852C0F2B702D5F830
:102740005034B2FBF1F292B21A81A288E08821895A
:1027500042F4045242F02C0292B240F0400041F0A8
:1027600001019A8180B2002289B2188299821A806E
:102770001A889B8838BD114B98420FD0104B984255
:10278000D8D14FF48053C4F20203DA69262042F410
:102790000032DA61C021FEF75BF8CBE74FF48053DB
:1027A000C4F202039A69252042F480429A61C02152
:1027B000FEF74EF8BEE700BF503C0008600E002058
:1027C000B4120020AFF30080AFF30080AFF30080BD
:1027D0004FF48053C4F202039A6942F07D029A6179
:1027E00003684FF40062C4F20102D36081684FF4C1
:1027F000406351604168C4F201031160C2684FF444
:102800008051DA604269C4F201015A60D0F810C008
:102810004FF4A052C3F800C08369C4F20102CB6038
:10282000D0F820C04FF4C053C1F804C0D0F81CC089
:10283000C4F20103C1F800C0416AD160C16A5160AD
:10284000816A1160026BDA60826B5A60426B1A60B7
:10285000704700BFAFF30080AFF30080AFF300809C
:10286000032A70B408BF016102D0042A08BF416185
:10287000DFF858C000231CF8026008259C461A4661
:102880001C4600E04900120124011B0111F0800FD9
:1028900008BF42F00F024FEA0C1C18BF334311F47B
:1028A000004F0CBF44F00F044CEA060C15F1FF3545
:1028B000E8D141680C4044EA0C0CC0F804C001683F
:1028C0000A4042EA0303036070BC7047603C0008A2
:1028D00008B5FFF7C5FA08BDAFF30080AFF300807D
:1028E000704700BFAFF30080AFF30080AFF300800C
:1028F00008B5FEF715FFFDF7FBFF00F059FA00F0F1
:102900000FF800F0DDFA00F0BBFE00F079F900F0FE
:1029100097F900F095F9FAE7AFF30080AFF3008084
:1029200010B54FF40064C4F20104204610210522C2
:10293000FFF796FF202105222046FFF791FF4FF475
:102940008053C4F20203D9694FF4E84241F00051C8
:10295000D961C4F200024FF00113136010BD00BF33
:10296000018842884FF4E843C4F2000399605A6139
:10297000704700BFAFF30080AFF30080AFF300807B
:1029800008B5817843780904027841EA0321C378C5
:1029900041EA020040EA036000F082FB08BD00BF8C
:1029A00008B5817843780904027841EA0321C378A5
:1029B00041EA020040EA036000F06AFB08BD00BF84
:1029C000D0F1010338BF00235C2808BF43F00103A6
:1029D00010B504462BB106485C214FF0FF32FEF7DC
:1029E000CFFD21464FF0FF320148FEF7C9FD10BD73
:1029F000900E0020AFF30080AFF30080AFF30080B3
:102A000008B500214FF0FF320148FEF7B9FD08BDBF
:102A1000900E0020AFF30080AFF30080AFF3008092
:102A200008B500F0FDFAFFF7CBFFFFF7E9FF08BD9F
:102A300030B50A4B83B002AD93E8030045F8080DAA
:102A40006C1EADF80410043514F8010FFFF7B8FF41
:102A5000AC42F9D1FFF7D4FF03B030BD103D000800
:102A600030B50A4B85B0EC460FCBACE807006D469D
:102A70006C1EACF80030654614F8010FFFF7A0FF9C
:102A8000AC42F9D1FFF7BCFF05B030BD183D0008DE
:102A900008B500F0A5FA08BDAFF30080AFF30080E1
:102AA00008B5007800F07CFA08BD00BFAFF30080E5
:102AB00008B500F0CDFA03214FF0FF32FEF760FDBC
:102AC00008BD00BFAFF30080AFF30080AFF300801C
:102AD00008B500F0BDFA02214FF0FF32FEF750FDBD
:102AE00008BD00BFAFF30080AFF30080AFF30080FC
:102AF00008B500F0ADFA01214FF0FF32FEF740FDBE
:102B000008BD00BFAFF30080AFF30080AFF30080DB
:102B100008B500F09DFA00214FF0FF32FEF730FDBE
:102B200008BD00BFAFF30080AFF30080AFF30080BB
:102B300008B5007800F0D4FD08BD00BFAFF30080F9
:102B400008B5007800F0B4FD08BD00BFAFF3008009
:102B500008B5007800F064F908BD00BFAFF300804D
:102B600008B5817843780904027801EB0321C37822
:102B7000881800EB036000F0FBF908BDAFF300809C
:102B800070B52023044683F31188FDF739FFA6684A
:102B9000FDF74EFF26F00106002383F31188602E17
:102BA00028BF602676B11D4600212046FEF760FC56
:102BB000831C012B8CBFC0B200200135FFF700FF42
:102BC000AE42F1D8FFF71CFF70BD00BFAFF300802D
:102BD00008B500F055FAFFF7D3FF08BDAFF300804A
:102BE00008B500F045FAFFF7CBFF08BDAFF3008052
:102BF00008B500F035FAFFF7C3FF08BDAFF300805A
:102C000010B540F660604FF400640021C4F2010486
:102C1000C2F20000FEF7CCFE204610224FF40071F5
:102C2000FFF71EFE20464FF480610222FFF718FED8
:102C300010BD00BFAFF30080AFF30080AFF30080A2
:102C400010B529484FF0FF31FEF712FC831C012B11
:102C50000ED9264AC0B213785BB9C0B92449254CB5
:102C60000B782068012B1ED0022B32D0002323606A
:102C700010BD204C4FF0000C216882F800C04B1CA6
:102C80001B4A202BA8BF202350542360F0E75C2868
:102C900016D0184C16492268531C202BA8BF20239D
:102CA00088542360E4E70128E0DD134A4B1C081830
:102CB00013F8011B834202F8011FF9D10023D6E764
:102CC0000C4C012123681170202BA8BF2023236006
:102CD000CEE74B78094A112BC8BF002352F82330A6
:102CE000074898470023C2E7700E002028170020ED
:102CF000081700202C1700202F170020C03C0008C8
:102D000030170020AFF30080AFF30080AFF30080F6
:102D100041F23070C2F20000704700BFAFF3008094
:102D20001D4B1E4ADB692DE9F0474FF480554FF4E7
:102D300040641B4F1B4E9A61C4F201054FF02009FD
:102D4000C4F201044FF0010A4FF002081648FEF7E2
:102D50008FFA3B68336013F0010F17BFEA68C5F8BC
:102D6000149082F02002EA6013F0020F17BFE268AD
:102D7000C4F814A082F00102E26013F0040F17BF40
:102D8000E368C4F8148083F00203E360FEF780FA7E
:102D90007D20FEF785F9D9E76C0D0020303D000855
:102DA000601700206417002050170020AFF3008048
:102DB00070B54FF480504FF44064C4F201042021F8
:102DC000C4F201000126022582B04161062266613B
:102DD0006561FFF745FD204631460622FFF740FDBD
:102DE000294606222046FFF73BFD41F25070C2F211
:102DF0000000FEF7A5F9002241F2687042F6215367
:102E00000092C0F600034FF4D8714022C2F20000D5
:102E1000FEF70EF902B070BDAFF30080AFF3008093
:102E200041F25073C2F2000310B504461846FEF793
:102E30001FFA41F26073C2F200031C60FEF728FA29
:102E400010BD00BFAFF30080AFF30080AFF3008090
:102E500008B5202383F31188FDF70AFE124B1A7878
:102E6000AAB9124A1278C2B9114A117849B1114966
:102E70001148D1F808C0114980688968614409186F
:102E800061B1FDF715FE002383F3118808BD074AE1
:102E90001278002AF5D11A70F3E7054A012119705A
:102EA00000231370EDE700BF1C0800201D08002060
:102EB000E81A00206C1C0020941C0020241900201B
:102EC00041F6406041F6B44110B504220023C2F23D
:102ED0000000C2F20001FEF743FB41F6241041F668
:102EE00048110023C2F20000C2F200014FF4C07288
:102EF000FEF77EFA41F66C4041F6BC410023C2F277
:102F00000000C2F200014FF4C072FEF771FA41F600
:102F1000944041F6EC210023C2F20000C2F200010D
:102F20004FF4C072FEF764FA40F6D4544FF4805068
:102F30000522C2F20004C4F201004FF4E051FFF791
:102F40008FFC00212046FEF71BFC43F6405141F662
:102F5000CC22C0F60001C2F2000220460223FEF796
:102F60006FFC10BDAFF30080AFF30080AFF30080C3
:102F700010B52023044683F31188FDF741FD40F688
:102F80000803C2F200031C60FDF752FD002383F327
:102F9000118810BDAFF30080AFF30080AFF3008065
:102FA00010B52023044683F31188FDF729FD074B54
:102FB000074A1B78147013B1064B01221A70FDF7F3
:102FC00037FD002383F3118810BD00BFE81A0020ED
:102FD0001D0800201C080020AFF30080AFF3008024
:102FE00008B5202383F31188FDF70AFD064B074936
:102FF0001A7801230B700AB1054A1370FDF718FD0A
:10300000002383F3118808BD1D080020E81A002062
:103010001C080020AFF30080AFF30080AFF3008006
:1030200010B5202383F31188FDF7EAFC40F61C035A
:10303000C2F200031C78FDF7FBFCD4F1010438BF99
:103040000024002383F31188204610BDAFF30080D5
:1030500041F64060C2F20000704700BFAFF300804D
:1030600041F62410C2F20000704700BFAFF30080A9
:1030700041F66C40C2F20000704700BFAFF3008021
:1030800041F69440C2F20000704700BFAFF30080E9
:1030900040F63803C2F2000318607047AFF30080B7
:1030A00008B540F6280241F64063C2F20002C2F2BF
:1030B00000031060042118464FF0FF32FEF760FA5B
:1030C00008BD00BFAFF30080AFF30080AFF3008016
:1030D00070B582B004283FD8DFE800F05C7E68035A
:1030E00040006B4A6B4C6C48136894F90010006800
:1030F000CB188342B4BF002501251360002BCCBF41
:10310000002601261DB91846002E40F0AE802E4341
:1031100002D023785B422370FDF7A4F85F4B604C2C
:103120001968FDF7F5F85F4B05461968FDF7F0F8EB
:10313000FDF73EFA5C4A23881168C3182846ADF8AB
:103140000430FDF7E5F8FDF733FA6388C018ADF8F1
:10315000060001A8FFF704FC02B070BD534B8A883B
:103160001B689A4250DA5248524B01681B6840F67D
:10317000FF725918914201605FDC00297DDB4E4BE4
:103180008AB21B8801A8ADF80420ADF80630FFF71D
:10319000E7FBE1E7464B01A81B88ADF80430464B3E
:1031A0001B88ADF80630FFF7DBFBD5E7434C444AFC
:1031B000236812680133934223605AD0414D2A6834
:1031C0009342C9D34048FFF7CBFB22682B68D31A40
:1031D0002360FFF73DFEBFE73C4A3D49136809689D
:1031E00001338B421360F4D33A4C2046FFF7B8FB0F
:1031F00021882F4B628819602F4B1A60364B0022B2
:103200001A70FFF725FEA7E72ADD2948294B016838
:103210001B6840F6FF72C91A9142016017DC002951
:10322000ADDA25490022D1F800C00260C3EB0C03DF
:1032300093420B6008DB9BB2A4E71F490260086859
:103240001B1893420B60F6DD13460A609AE71A4991
:1032500002600868C31A93420B60F5DC9BB291E7E9
:10326000134B1A88144B1B888CE7FFF7F1FD284697
:103270004DE71A48FFF774FB6EE70F490022D1F8BB
:1032800000C00260634493420B60DDDB9BB279E7D0
:103290001819002004080020340800202C08002001
:1032A000B81C002044190020E41A0020280800203F
:1032B000000800203808002018080020901C00207A
:1032C0002008002024080020DC1A0020D81A002042
:1032D0003008002020190020C81A0020E01A002021
:1032E000F8B503284CD8DFE810F0B8008A004C008D
:1032F0000400FFF70DFD037846785F4A03EB0626CE
:10330000B6B216808178C4785C4B01EB0424A4B279
:1033100054800279477902EB0727BFB21F80827978
:10332000C57902EB0525ADB25D80837A90F809C0BE
:10333000017A1B04C27A03EB0C235B1803EB0263D4
:103340004F4A18461360FCF78DFF01464FF07E5040
:10335000FDF792F84B4B02461A60B81BFCF782FF50
:10336000494B02461A60281BFCF77CFF474B0022A2
:103370001860474B1A60474B01221A70FFF768FD2F
:10338000F8BD454B00221A70FFF7C2FC4178027865
:10339000424B02EB01221A80C178827802EB0122B3
:1033A0005A80827990F805C001791204C37902EB42
:1033B0000C22521802EB0362394B1A6090F809C0D4
:1033C000017A384B01EB0C21198090F80BC0817AFF
:1033D00001EB0C215980837B90F80DE090F80CC034
:1033E0001B04C17B03EB0E23634403EB01639B18B7
:1033F0002D4A13602D4A1360FFF72AFDC0E7FFF73F
:1034000087FC427803782A4D03EB02232B80C27895
:103410008378044603EB022328466B80FFF7A0FA6B
:10342000244A68882449254BB5F800C01588C2F89D
:1034300000C00D801D8818604D80A27960792179C7
:103440001204E37902EB0022521802EB03621C4BD8
:103450001A601C4B00221A6092E7FFF759FC0378B0
:10346000427803EB0222134B1A608378C27803EB95
:103470000222124B1A6083E7B81C00201C1900209E
:10348000340800202C08002044190020E41A0020F1
:103490001819002004080020E91A0020DC1A002076
:1034A00020080020E01A002024080020901C0020A2
:1034B0008C1C002000080020201900201808002083
:1034C00030080020D81A0020AFF30080AFF300804E
:1034D0002DE9F84F5E4D0C462878FFF7F9FD2023C3
:1034E00083F31188DFF86C91FDF7C2FA99F8006058
:1034F000FDF7DEFA002383F31188C6B9202383F396
:103500001188FDF7B5FA5448FEF772F8C61C18BFCB
:10351000012606B12870FDF7CBFA002383F311884A
:103520001EB128782146FFF7DBFEBDE8F88F4B4B34
:103530004B4E18683768D6F804E0B1688028B4BFED
:1035400002468022012AB8BF0122531E49007F0093
:103550004FEA4E0E07FB03370EFB033E01FB03331E
:103560004049B4F800B0B4F802A0B4F804800137C0
:103570000133D1F800C00EF1010E07EB4B170EEB33
:103580004A1E03EB4813B7FBF2F7BEFBF2FE0CF149
:10359000010CB3FBF2F27F0852084FEA5E0E84453D
:1035A000C1F800C03760C6F804E0B260A6DBC0EB2B
:1035B0000C000860202383F311882B4FFDF758FA85
:1035C0003969FB68BA68CB1A9B1A012B36D9DFF828
:1035D0009C80D8F81010D8F80C30D8F80820CB1AF6
:1035E0009B1A012B2AD9DFF888A0DAF81010DAF834
:1035F0000C30DAF80820CB1A9B1A012B1ED9B6F82A
:10360000009038465FFA89F1FDF702FF4FEA192171
:103610003846FDF7FDFEB7884046F9B2FDF7F8FEE3
:10362000390A4046FDF7F4FE36895046F1B2FDF7FF
:10363000EFFE310A5046FDF7EBFE02E0002389F869
:103640000030FDF735FA002383F3118856E700BFF9
:10365000C81A00201C080020401E00200808002076
:103660000C0800203C1E0020241900206C1C0020A7
:10367000941C0020AFF30080AFF30080AFF3008014
:1036800038B54FF44064C4F201044FF400714FF4B4
:1036900080756161204606222561FFF7E1F820462A
:1036A00029460622FFF7DCF838BD00BFAFF30080E3
:1036B00038B94FF44063C4F201034FF400725A6109
:1036C00070474FF44063C4F201034FF400721A6173
:1036D000F6E700BFAFF30080AFF30080AFF30080E8
:1036E00038B94FF44063C4F201034FF480725A6159
:1036F00070474FF44063C4F201034FF480721A61C3
:10370000F6E700BFAFF30080AFF30080AFF30080B7
:1037100069646C65000000006D61696E0000000066
:10372000535623310000000053562332000000009E
:10373000535623330000000053562334000000008A
:103740005356233500000000535623360000000076
:103750005356233700000000535623380000000062
:103760005356233900000000535623313000000027
:10377000535623313100000000000000000000001B
:1037800022636856545365744922282900000000BA
:1037900022636856545265736574492228290000D3
:1037A0006368565452657365744928292C20233167
:1037B0000000000000000000000000000000000009
:1037C000636853636852656164794928292C202312
:1037D00031000000737461636B206F766572666CF4
:1037E0006F770000000000000000000000000000F3
:1037F00022636854686443726561746549222829AC
:103800000000000022636854686453657450726954
:103810006F72697479222829000000006368546877
:1038200064526573756D6528292C202331000000D2
:10383000226368546864536C65657022282900000F
:103840006368546864457869745328292C202331AF
:10385000000000002263685468645761697422287C
:103860002900000063685468645761697428292C32
:1038700020233100000000000000000000000000D4
:103880002263684D7478496E69742228290000000B
:103890002263684D74784C6F636B532228290000B3
:1038A00063684D74784C6F636B5328292C20233147
:1038B0000000000063684D74784C6F636B532829D7
:1038C0002C202332000000002263684D747854726B
:1038D000794C6F636B5322282900000063684D7494
:1038E00078556E6C6F636B28292C20233100000003
:1038F00063684D7478556E6C6F636B28292C202398
:103900003200000063684D7478556E6C6F636B53C2
:1039100028292C202331000063684D7478556E6C83
:103920006F636B5328292C20233200000000000015
:1039300022636845767452656769737465724D6178
:10394000736B222829000000226368457674556E47
:10395000726567697374657222282900226368455D
:1039600076745369676E616C492228290000000053
:103970002263684576745369676E616C222829005A
:1039800022636845767442726F6164636173744D3B
:1039900061736B4922282900226368457674446963
:1039A000737061746368222829000000636845769B
:1039B00074446973706174636828292C2023310072
:1039C00022636849515265616454696D656F75740D
:1039D000222829002263684F51577269746554691F
:1039E0006D656F757422282900000000000000003A
:1039F00022616463537461727422282900000000FC
:103A0000616463537461727428292C20233100008F
:103A10002261646353746F702228290061646353C8
:103A2000746F7028292C2023310000002261646308
:103A30005374617274436F6E76657273696F6E4909
:103A4000222829006164635374617274436F6E7637
:103A5000657273696F6E4928292C2023310000009C
:103A60002261646353746F70436F6E76657273691D
:103A70006F6E22282900000061646353746F7043E5
:103A80006F6E76657273696F6E28292C2023310062
:103A90002261646353746F70436F6E7665727369ED
:103AA0006F6E49222829000061646353746F70436C
:103AB0006F6E76657273696F6E4928292C202331E9
:103AC00000000000616463436F6E7665727428299C
:103AD0002C20233100000000226164634163717572
:103AE00069726542757322282900000022616463AF
:103AF00052656C6561736542757322282900000068
:103B0000227364537461727422282900736453749D
:103B100061727428292C2023310000002273645321
:103B2000746F702228290000736453746F70282901
:103B30002C20233100000000227364496E636F6DF6
:103B4000696E6744617461492228290022736452B6
:103B50006571756573744461746149222829000098
:103B60002119000801190008A1180008B11800085F
:103B7000411900083119000811190008F11800084E
:103B8000C118000800000000000000000000000054
:103B900022646D61416C6C6F636174652228290039
:103BA00022646D6152656C6561736522282900008D
:103BB000646D6152656C6561736528292C20233121
:103BC00000000000000000000000000000000000F5
:103BD000080002400400024000000B001C000240EC
:103BE0000400024004010C003000024004000240C6
:103BF00008020D0044000240040002400C030E00C5
:103C0000580002400400024010040F006C00024003
:103C1000040002401405100080000240040002402D
:103C20001806110000000000000000000000000065
:103C30006164635F6C6C645F737461727428292CB7
:103C40002023310000000000000000000000000000
:103C500000C2010000000040000000000000000061
:103C600004020408080003070808080808080808F0
:103C70000B0F00000000000000000000000000002A
:103C8000FFFFFFFF4444444444444444FFFFFFFF1C
:103C90004444444444444444FFFFFFFF44444444F8
:103CA00044444444FFFFFFFF4444444444444444E8
:103CB000FFFFFFFF888888888888888800000000C8
:103CC000F12B0008E12B0008D12B0008612B000824
:103CD000512B0008412B0008312B0008112B000844
:103CE000F12A0008D12A0008B12A0008612A000838
:103CF000312A0008A12A0008912A0008212A000878
:103D0000A12900088129000800000000000000002F
:103D1000302E302E33000000766F6C74616D702D84
:103D2000312E302E300000000000000000000000A6
:103D30006C640000000000000000000000000000B3
:103D40000100000003000000D13400080000000062
:103D50000000000000000000B601000000000000AC
:0C3D600000002000000000006A3100009C
:103D7000FF07000001000000E8030000FF0700004B
:103D8000FF070000FF070000FF070000010100001F
:103D9000E8030000D0070000FF0700006F12833A1D
:0C3DA000E8030000E80300000100000040
:0400000508000621C8
:00000001FF
