:020000040800F2
:100000000004002011010008E1020008E1020008DC
:10001000E1020008E1020008E1020008E102000834
:10002000E1020008E1020008E102000811030008F3
:10003000E1020008E1020008E1020008E103000813
:10004000E1020008E1020008E1020008E102000804
:10005000E1020008E1020008E1020008E1020008F4
:10006000E1020008E1020008E1020008110E0008A8
:10007000410E0008710E0008B10E0008F10E0008D4
:10008000310F0008710F0008E1020008E1020008CA
:10009000E1020008E1020008E1020008E1020008B4
:1000A000E1020008E1020008E1020008E1020008A4
:1000B000E1020008E1020008E1020008B1110008B5
:1000C00071130008E1020008E1020008E1020008E3
:1000D000E1020008E1020008E1020008E102000874
:0C00E000E1020008E1020008E102000853
:1000F000704700BFAFF30080AFF30080AFF3008024
:10010000FEE700BFAFF30080AFF30080AFF30080E5
:1001100072B6634880F30988022383F31488BFF31F
:100120006F8F604A604CA24217D213464FF0553190
:10013000D64343F8041BA519A342C5F380050CD28E
:1001400025B1196002F10803A34206D21A4642F80B
:10015000041B5960131DA342F8D3544A824217D29C
:1001600013464FF05531D54343F8041B44198342DD
:10017000C4F380040CD224B1196002F10803834255
:1001800006D21E4646F8041B5960331D8342F8D33D
:1001900001F0FEF9464C4749A14222D246480B469F
:1001A000024652F8046BCD4343F8046B04EB050C94
:1001B000A342CCF3800514D23DB1166800F10802C9
:1001C0001E6001F10803A3420BD2104650F8045BF5
:1001D000194641F8045B5668021D5E600B1DA34280
:1001E000F3D3364A3648824217D200211346D4430D
:1001F00043F8041B00EB040E8342CEF380040CD2C0
:1002000024B1196002F10803834206D21A4642F86B
:10021000041B5960131D8342F8D32A4D2A4EFFF761
:1002200067FFB54219D22C4654F8043BE9437718CE
:100230009847B442C7F380070FD22FB1236805F166
:1002400008049847B44208D2254655F8042B904735
:1002500060682C1D8047B442F6D31C4D1C4E01F043
:10026000A7F9B5421AD22C46EF4354F8043B06EBEB
:10027000070CCCF380079847B4420FD22FB1226805
:1002800005F108049047B44208D2254655F8040BFE
:10029000804761682C1D8847B442F6D3FFF730BF12
:1002A00000080020000000200004002000040020BE
:1002B0000008002000080020901800080008002016
:1002C000200E0020EC000008EC000008EC00000804
:1002D000EC000008AFF30080AFF30080AFF30080C4
:1002E000FEE700BFAFF30080AFF30080AFF3008004
:1002F00072B6FEE7AFF30080AFF30080AFF300808B
:1003000000F046F900F0ACFB00F062F900DF00BF3E
:10031000EFF30983203383F30988002383F31188E3
:10032000704700BFAFF30080AFF30080AFF30080F1
:100330000A4B002210B59A60094A07201021DA60A2
:1003400000F07EF80A204FF4007100F079F80B20DD
:100350008021BDE8104000F073B800BF00ED00E060
:100360000000FA05AFF30080AFF30080AFF3008028
:10037000202383F311881648436813F4006316D0D2
:10038000EFF30983203B83F30988124A4FF0807012
:100390009169D86171B11068D2698168926891429F
:1003A00094BF002201227AB10B499961704783F30F
:1003B000118870471068D26981689268914234BF91
:1003C00000220122002AEFD1044A9A61704700BF3F
:1003D00000ED00E02C0D0020010300080C030008D4
:1003E00010B500F055F9202383F3118800F010F9BF
:1003F00000F086F800F02CF9002383F3118800F058
:1004000067F9BDE81040FFF7B3BF00BFAFF300804E
:100410002DE9F04FC1F80CD0D0F80CD0BDE8F08F2A
:1004200008B500F0D5F8002383F311882846A047CB
:1004300000F02EFC08BD00BFAFF30080AFF30080DA
:1004400000F0030210B4FF23D40013FA04F2A14019
:100450008008064C063054F8203023EA020242EAB3
:10046000010344F8203010BC704700BF00ED00E0ED
:100470000248034AC3699A61FEE700BF2C0D0020C1
:10048000D0150008AFF30080AFF30080AFF3008019
:1004900030B583B0FFF74CFF00F012FA00F0A8F976
:1004A00000F01EFC00F064F940210E4800F000FB53
:1004B0000D4D0E490124E86180F82040C16100F033
:1004C0004FF8002383F3118862B6EA691D46084B92
:1004D000C021936107482246074B009500F050FB6E
:1004E00003B030BD000800202C0D002000040020C7
:1004F000D81500084808002071040008AFF30080F8
:1005000070B500F005F9114B9A69002A01DD013A36
:100510009A61DA690E4C516A2368481C5062E1689E
:10052000481CA342E0600FD09D68013D9D605DB90D
:1005300026461968DA681869DD604E6021609047C8
:10054000236898680028F4D070BD00BF2C0D0020EF
:100550001C0D0020AFF30080AFF30080AFF30080EC
:100560000548036813B9054A116821B10448054BD1
:100570001860FFF7BDBE704708090020140D002069
:10058000F0150008180D0020AFF30080AFF30080D5
:10059000084810B5036853B9074C216821B1074AD0
:1005A000074B1A60FFF7A4FE0120206010BD024C2B
:1005B000F5E700BF08090020140D0020F815000819
:1005C000180D0020AFF30080AFF30080AFF3008080
:1005D000094810B5036833B9084C2168002903DDC8
:1005E0000020206010BD054C054A064B1A60FFF73D
:1005F0007FFE0020206010BD08090020140D00209F
:1006000000160008180D0020AFF30080AFF3008043
:10061000084810B50368002B0ADD074C216821B19A
:10062000064A074B1A60FFF763FE0120206010BDE9
:10063000014CF5E708090020140D002008160008F9
:10064000180D0020AFF30080AFF30080AFF30080FF
:100650000A4810B50368002B06DD094C2168002903
:1006600003DD0020206010BD054C064A064B1A60D1
:10067000FFF73EFE0020206010BD00BF08090020EB
:10068000140D002010160008180D0020AFF3008094
:1006900010B5202383F31188094C2368002B02DB5B
:1006A000084802682AB1084B08491960FFF720FE84
:1006B00023685A1C2260002383F3118810BD00BFF9
:1006C00008090020140D0020180D0020181600083D
:1006D00010B5202383F31188094C2368002B02DD19
:1006E000084802682AB1084B08491960FFF700FE64
:1006F00023685A1E2260002383F3118810BD00BFB7
:1007000008090020140D0020180D002020160008F4
:1007100006480368002B04DB054A1168002900DD48
:1007200070470448044B1860FFF7E2BD0809002039
:10073000140D002028160008180D0020AFF30080CB
:100740000648036823B9064A1168002900DD70478E
:100750000448054B1860FFF7CBBD00BF0809002017
:10076000140D002030160008180D0020AFF3008093
:10077000034A4021134643F8081B5360704700BFEB
:100780000C090020AFF30080AFF30080AFF30080CE
:1007900010B40D4A0D4C0E495368E468C9691C60D9
:1007A0005960846A03F110019C6090F8204002F5C2
:1007B000816081421C7328BF02F10803516028BF89
:1007C000536010BC704700BF0C0900201C0D0020B6
:1007D0002C0D0020AFF30080AFF30080AFF300805A
:1007E000014B1860FFF784BD180D0020AFF30080A7
:1007F000044B4FF0FF3000225B601B609860DA60B2
:10080000704700BF1C0D0020AFF30080AFF30080E5
:10081000F8B504460D4616461F46FFF779FFCCB1E2
:10082000C6B1BDB10D4927610B68E6609A68954273
:1008300004D91B68AD1A9A68AA42FAD35A688B4247
:100840002360626014605C60A56002D09868451BFC
:100850009D60F8BD0248FFF7C3FFE3E71C0D0020D1
:1008600040160008AFF30080AFF30080AFF30080C4
:1008700010B50446FFF74CFF84B1E36893B12368D9
:100880000A4A934203D09968A26888189860606801
:10089000002203602368E260586010BD0448FFF73F
:1008A0009FFFEAE70348FFF79BFFE8E71C0D0020E6
:1008B0005016000860160008AFF30080AFF3008008
:1008C000044B002014225B601B6098609A615B619E
:1008D0001B6170472C0D0020AFF30080AFF3008048
:1008E00010B590F8203004468BB10E2B0FD00022AB
:1008F000094BA16884F820201B6898688842FBD2C5
:100900005968236061600C605C60204610BD03483C
:10091000FFF766FFEBE700BF2C0D002080160008F4
:1009200090F820300D2B11D8DFE803F015101007D8
:10093000100B101010101010100B816A8B685A1CCD
:100940008A60416803680B60026851604FF0FF32B3
:100950008262FFF7C5BF7047AFF30080AFF300803E
:1009600070B5114C0646FFF7EBFEE569142085F8DB
:100970002060236801211A6883F82010A061546068
:1009800028462260E361FFF703FFEA69ADF1240323
:100990009A4202D90548FFF723FFE0692946BDE8DE
:1009A0007040FFF735BD00BF2C0D002094160008E5
:1009B00070B50E4686B00546FFF7C2FEB6F1FF3FA2
:1009C00012D00C4C3146E3690B4A01A8FFF720FF17
:1009D0002846FFF7C5FF049B13B101A8FFF748FFA6
:1009E000E069806A06B070BD2846FFF7B9FF014C88
:1009F000F6E700BF2C0D002021090008AFF30080AE
:100A000070B5154D04460E46FFF79AFEE869A268D8
:100A10008368A6629A4215D9FFF762FF0123142268
:100A2000064684F82030AA61EC61FFF7B1FEF06958
:100A3000ADF1240188420AD820463146BDE8704015
:100A4000FFF7E6BC2046BDE87040FFF749BF03480A
:100A5000FFF7C6FEF0E700BF2C0D0020941600083B
:100A600070B5104C01212368E5691A681420A06153
:100A700083F82010546028462260E361FFF730FFBE
:100A80002846FFF785FEEA69ADF124039A4202D9B0
:100A90000548FFF7A5FEE0692946BDE87040FFF76D
:100AA000B7BC00BF2C0D002094160008AFF30080E7
:100AB000F0B400220E4C022580F8205080F821204E
:100AC000656900F1300600F12C0C00F14807046163
:100AD00081604561416460610264C2634262826117
:100AE0002861C0F82CC046630663C761F0BC70473C
:100AF0002C0D0020AFF30080AFF30080AFF3008037
:100B0000F8B504460D4616461F46FFF701FE0CB128
:100B1000AF2D28D81648FFF763FE243D6119E16028
:100B200006986751134F0023134A022548600F624D
:100B300084F8205084F82130506904F1300104F128
:100B40002C0704F1480522616061A6606664546167
:100B500023640461E3636362A361E7626163216309
:100B6000E5612046F8BD7F2ED4D8002FD5D1D1E73E
:100B7000B0160008210400082C0D0020AFF30080FF
:100B8000F0B504460D461F4683B01646483023464E
:100B9000FF211A4602F8011B5970531C8342F8D1F9
:100BA0006019834215D25521DA4303F8011B00EB8B
:100BB000020C83420CF001020BD01AB103F8011BA6
:100BC000834206D01A4602F8011B5970531C834217
:100BD000F8D1202383F31188FFF7DAFC2046089C24
:100BE0003B46324629460094FFF78AFF002104461F
:100BF000FFF706FFFFF7ECFC002383F31188204684
:100C000003B0F0BDAFF30080AFF30080AFF300801E
:100C100010B5044610B90948FFF7E2FD202383F31D
:100C20001188FFF7B5FC21460620FFF7C1FEFFF74C
:100C3000CFFC002383F3118810BD00BFF01600081D
:100C4000114B70B5DC69254655F82C3FA062AB42CC
:100C500007D01A681846E262FFF742FEE36AAB4229
:100C6000F7D194F8210010F0030F04D163692269D1
:100C70001A6121694B610E20FFF772FE0348BDE83F
:100C80007040FFF7ADBD00BF2C0D0020001700081D
:100C900010B52023044683F31188FFF779FC204622
:100CA000BDE81040FFF7CCBFAFF30080AFF300808A
:100CB00010B5044620B1002364602460A36010BD19
:100CC0000348FFF78DFD002364602460A36010BD1E
:100CD00040170008AFF30080AFF30080AFF300804F
:100CE000054B064A064823F00701064B116020F029
:100CF00007021A60704700BF270E0020500D002029
:100D0000002000204C0D0020AFF30080AFF30080E6
:100D100010B500F07DF900F05BF8054800F000FC2C
:100D200000F00EF800F024F8BDE8104000F038BCE8
:100D300050180008AFF30080AFF30080AFF30080DD
:100D400000F0FEB9AFF30080AFF30080AFF3008096
:100D500000230122027043608360C360036143612A
:100D60001830FFF7A5BF00BFAFF30080AFF30080DE
:100D700000F0BEBBAFF30080AFF30080AFF30080A4
:100D800001210023017043600C30FFF791BF00BFC9
:100D900001494B6883607047001000E0AFF30080AA
:100DA000084B09495A6883680968D31AC2685B1AF4
:100DB0009342836004D80269934238BF036170474D
:100DC000C3607047001000E0540D0020AFF30080B6
:100DD00010B50B4A86B00B490B4C002301A80192B9
:100DE0004FF0FF3223600393049302910592FFF7C3
:100DF000CFFF01A802998847039B236006B010BD6E
:100E0000910D0008A10D0008540D0020AFF30080E3
:100E100010B5FFF73DFC0848084A03680F24116825
:100E2000546013B1406821409847FFF751FCBDE87A
:100E30001040FFF79DBA00BF580D0020000002408F
:100E400010B5FFF725FC0848084A8368F0241168AC
:100E500054601BB1C068C1F303119847FFF738FC19
:100E6000BDE81040FFF784BA580D00200000024092
:100E700010B5FFF70DFC0948094A03694FF4706487
:100E8000116854601BB14069C1F303219847FFF713
:100E90001FFCBDE81040FFF76BBA00BF580D0020E3
:100EA00000000240AFF30080AFF30080AFF300809A
:100EB00010B5FFF7EDFB0948094A83694FF4704408
:100EC000116854601BB1C069C1F303319847FFF743
:100ED000FFFBBDE81040FFF74BBA00BF580D0020E4
:100EE00000000240AFF30080AFF30080AFF300805A
:100EF00010B5FFF7CDFB0948094A036A4FF4702487
:100F0000116854601BB1406AC1F303419847FFF771
:100F1000DFFBBDE81040FFF72BBA00BF580D0020E3
:100F200000000240AFF30080AFF30080AFF3008019
:100F300010B5FFF7ADFB0948094A836A4FF4700406
:100F4000116854601BB1C06AC1F303519847FFF7A1
:100F5000BFFBBDE81040FFF70BBA00BF580D0020E3
:100F600000000240AFF30080AFF30080AFF30080D9
:100F700010B5FFF78DFB0948094A036B4FF0706409
:100F8000116854601BB1406BC1F303619847FFF7D0
:100F90009FFBBDE81040FFF7EBB900BF580D0020E4
:100FA00000000240AFF30080AFF30080AFF3008099
:100FB000124BF0B4D3F800C0DF689E695D6A1C6B09
:100FC000D86B996C0023CCF800300D4ADFF838C09C
:100FD0003B601360336093602B6013612360936107
:100FE0000360136293621363CCF800300B60054B0F
:100FF0004FF0FF325A60F0BC704700BFF017000896
:10100000580D002000000240900D0020AFF300803A
:10101000214B00224FF0FF3030B420491C69186189
:101020001A61DD68D8604BF67F30DA601C4C48608E
:1010300007208A600860E1681A4841F08071E16029
:101040000468194944F001040460D86940F08050F4
:10105000D861D86940F00060D861086840F48070B9
:101060000860186A00F44071B1F5407F03D04FF476
:10107000803119621A62084B1A6A12F4004F07D1C4
:10108000186A40F440721A62196A41F4004018620A
:1010900030BCFFF78DBF00BF0010024010E000E041
:1010A000F0ED00E0001000E000700040AFF30080C1
:1010B0001F4B1868194640F001021A600B681C4A61
:1010C00013F0020FFAD01368002003F0F901116049
:1010D000114650604868164A10F00C0FFAD110689B
:1010E000114640F4803313600B68114A13F4003F3B
:1010F000FAD05368114643F4A0205060136843F0BF
:101100008070106008680A4A10F0007FFAD0094821
:10111000094B1021506019605068114640F00203DD
:1011200053604A6802F00C0CBCF1080FF9D170470B
:10113000001002400064050000200240AFF3008070
:1011400010B5144C2046FFF703FE134B1349986962
:1011500040F400729A61124B0020A16201224860A3
:10116000E36242F28A5009238A6020638B608B68B5
:101170000A4A13F0080FFAD105219160906810F027
:101180000403FBD10548044A8360916921F400738C
:10119000936110BD940D0020001002400024014016
:1011A000F0170008AFF30080AFF30080AFF30080CA
:1011B0002DE9F041684CFFF76BFA256B94F8343059
:1011C0002A8BAE8AB6B2C3B946EA0242634B22F01A
:1011D0007F429A4274D05CD8581E824203D1B4F840
:1011E00020C0A5F810C016F00A0F00D02B8BFFF717
:1011F0006FFABDE8F041FFF7BBB816F00A0F05D053
:10120000AE8A00232A8BB6B22364236516F0800FC2
:101210000ED0206DA26C216C12F800E0E26C431C31
:101220009142A5F810E0236502D34B4B00211965CC
:1012300016F0400F0DD0226CB5F810C0A16B531CF6
:1012400001F802C0E06B2364834202D3424B0020CA
:10125000186416F0100F0CD0AE8A2988636C1FFA40
:1012600081FC4CF0010EB6B2A5F800E00BB13A4893
:10127000984716F4806FBAD0B5F814E0636D2EF479
:1012800080610804020CAA82002BB0D03248984733
:10129000ADE7334B9A4232D0991C8A42A3D1A26A5D
:1012A00017687F68002F38D02B88B4F820C098B218
:1012B0004CF0010140F4A06E2184A5F800E096E70F
:1012C000B5F804C0A26A2CF4007003041268190C6B
:1012D000A980106840F001031360A98888B240F427
:1012E000805EA5F804E05368012B3FF67CAFB5F8AB
:1012F00000E02EF480621304190C298073E7B5F81E
:1013000004C0E06A2CF40073190400680A0CAA8077
:10131000036843F00101016065E7B5F804C02023CC
:101320002CF400710A04100CA88029881FFA81FE91
:101330004EF400722A8083F31188FFF769F9E0699F
:1013400018B18762E761FFF7CBFAFFF781F9002355
:1013500083F3118847E700BFC80D00200200030097
:1013600082000700AFF30080AFF30080AFF300808E
:101370002DE9F0415D4DFFF78BF92C6B202383F3B2
:101380001188FFF745F9EA6AAB6A10685668076882
:101390000F2127F001070760107A1A6811FA00F090
:1013A00030601668586826F0010616601B7A99406E
:1013B0000160FFF74DF9002383F31188A68A16F424
:1013C000807607D0B4F814C001262CF48072130480
:1013D000190CA182B4F814E01EF4007F07D0A28A91
:1013E00046F0020622F400731904080CA08295F856
:1013F00034103E4800293AD1B4F814C01CF4806F70
:1014000041D1A08A10F4006F08D0B4F814E046F07F
:1014100008062EF4006211040B0CA382B4F814C069
:101420001CF4805F07D0A28A46F0100622F4805197
:101430000B04180CA082B4F814E01EF4804F08D0FE
:10144000B4F814C046F020062CF480410B04180CAC
:10145000A082B4F814E00FFA8EF2002A2ADB002EE4
:101460002ED1FFF735F9BDE8F041FEF781BFB4F8A2
:1014700014C0436D2CF4806211040A0CA282002B6C
:10148000BFD09847BDE7B4F814E046F004062EF448
:1014900080610A04130CA382B4F804C02CF4007019
:1014A00001040A0CA280238898B240F4007EA4F8BC
:1014B00000E0A6E7A18A46F040064B04580CA08243
:1014C000AE60202383F31188FFF7A2F8E86938B1F2
:1014D000064B6FF0010100228162DA61FFF700FA2A
:1014E000FFF7B6F8002383F31188BAE7C80D002090
:1014F00010B5074C2046FFF743FC064B0649A3F105
:101500000C020020E0612163A362E26210BD00BF13
:10151000C80D00203818000800540040AFF30080C8
:10152000154B30B49A69154D42F07D049C610168F9
:10153000134CE960826813496A604368124A2B6061
:10154000C568124BE5604569656005692560846979
:10155000CC60046A4C60C4690C60416AD160C16AA5
:101560005160816A1160026BDA60816B5960426B75
:101570001A6030BC704700BF0010024000080140F4
:10158000000C01400010014000140140001801400F
:10159000FFF78EBDAFF30080AFF30080AFF30080A4
:1015A000704700BFAFF30080AFF30080AFF300805F
:1015B00008B5FFF7ADFBFEF76BFF7D20FFF728FBBB
:1015C000FBE700BFAFF30080AFF30080AFF3008014
:1015D00069646C65000000006D61696E00000000C8
:1015E0005356233100000000535623320000000000
:1015F00053562333000000005356233400000000EC
:1016000053562335000000005356233600000000D7
:1016100053562337000000005356233800000000C3
:101620005356233900000000535623313000000088
:10163000535623313100000000000000000000007C
:10164000226368565453657449222829000000001B
:101650002263685654526573657449222829000034
:101660006368565452657365744928292C202331C8
:10167000000000000000000000000000000000006A
:10168000636853636852656164794928292C202373
:1016900031000000737461636B206F766572666C55
:1016A0006F77000000000000000000000000000054
:1016B000226368546864437265617465492228290D
:1016C00000000000226368546864536574507269B6
:1016D0006F726974792228290000000063685468D9
:1016E00064526573756D6528292C20233100000034
:1016F000226368546864536C656570222829000071
:101700006368546864457869745328292C20233110
:1017100000000000226368546864576169742228DD
:101720002900000063685468645761697428292C93
:101730002023310000000000000000000000000035
:101740002263684D7478496E69742228290000006C
:101750002263684D74784C6F636B53222829000014
:1017600063684D74784C6F636B5328292C202331A8
:101770000000000063684D74784C6F636B53282938
:101780002C202332000000002263684D74785472CC
:10179000794C6F636B5322282900000063684D74F5
:1017A00078556E6C6F636B28292C20233100000064
:1017B00063684D7478556E6C6F636B28292C2023F9
:1017C0003200000063684D7478556E6C6F636B5324
:1017D00028292C202331000063684D7478556E6CE5
:1017E0006F636B5328292C20233200000000000077
:1017F000080002400400024000000B001C000240F0
:101800000400024004010C003000024004000240C9
:1018100008020D0044000240040002400C030E00C8
:10182000580002400400024010040F006C00024007
:101830000400024014051000800002400400024031
:101840001806110000000000000000000000000069
:10185000FFFFFFFF4444444444444444FFFFFFFF70
:101860004444444444444444FFFFFFFF444444444C
:1018700044444444FFFFFFFF44444444444444443C
:0C188000FFFFFFFF888888888888888820
:0400000508000111DD
:00000001FF
