:020000040800F2
:100000000004002011010008E1020008E1020008DC
:10001000E1020008E1020008E1020008E102000834
:10002000E1020008E1020008E102000811030008F3
:10003000E1020008E1020008E1020008E103000813
:10004000E1020008E1020008E1020008E102000804
:10005000E1020008E1020008E1020008E1020008F4
:10006000E1020008E1020008E10200087116000840
:10007000A1160008D1160008111700085117000832
:1000800091170008D1170008E1020008E1020008FA
:10009000E1020008E1020008E1020008E1020008B4
:1000A000E1020008E1020008E1020008E1020008A4
:1000B000E1020008E1020008E1020008C11C00089A
:1000C000811E0008E1020008E1020008E1020008C8
:1000D000E1020008D1210008F1210008E102000836
:0C00E000E1020008E1020008E102000853
:1000F000704700BFAFF30080AFF30080AFF3008024
:10010000FEE700BFAFF30080AFF30080AFF30080E5
:1001100072B6634880F30988022383F31488BFF31F
:100120006F8F604A604CA24217D213464FF0553190
:10013000D64343F8041BA519A342C5F380050CD28E
:1001400025B1196002F10803A34206D21A4642F80B
:10015000041B5960131DA342F8D3544A824217D29C
:1001600013464FF05531D54343F8041B44198342DD
:10017000C4F380040CD224B1196002F10803834255
:1001800006D21E4646F8041B5960331D8342F8D33D
:1001900002F086F9464C4749A14222D246480B4616
:1001A000024652F8046BCD4343F8046B04EB050C94
:1001B000A342CCF3800514D23DB1166800F10802C9
:1001C0001E6001F10803A3420BD2104650F8045BF5
:1001D000194641F8045B5668021D5E600B1DA34280
:1001E000F3D3364A3648824217D200211346D4430D
:1001F00043F8041B00EB040E8342CEF380040CD2C0
:1002000024B1196002F10803834206D21A4642F86B
:10021000041B5960131D8342F8D32A4D2A4EFFF761
:1002200067FFB54219D22C4654F8043BE9437718CE
:100230009847B442C7F380070FD22FB1236805F166
:1002400008049847B44208D2254655F8042B904735
:1002500060682C1D8047B442F6D31C4D1C4E02F042
:100260002FF9B5421AD22C46EF4354F8043B06EB63
:10027000070CCCF380079847B4420FD22FB1226805
:1002800005F108049047B44208D2254655F8040BFE
:10029000804761682C1D8847B442F6D3FFF730BF12
:1002A00000080020000000200004002000040020BE
:1002B00020080020000800208031000820080020CD
:1002C000EC140020EC000008EC000008EC00000832
:1002D000EC000008AFF30080AFF30080AFF30080C4
:1002E000FEE700BFAFF30080AFF30080AFF3008004
:1002F00072B6FEE7AFF30080AFF30080AFF300808B
:1003000000F06EF900F0D4FB00F08AF900DF00BFC6
:10031000EFF30983203383F30988002383F31188E3
:10032000704700BFAFF30080AFF30080AFF30080F1
:100330000A4B002210B59A60094A07201021DA60A2
:1003400000F0A6F80A204FF4007100F0A1F80B208D
:100350008021BDE8104000F09BB800BF00ED00E038
:100360000000FA05AFF30080AFF30080AFF3008028
:10037000202383F311881648436813F4006316D0D2
:10038000EFF30983203B83F30988124A4FF0807012
:100390009169D86171B11068D2698168926891429F
:1003A00094BF002201227AB10B499961704783F30F
:1003B000118870471068D26981689268914234BF91
:1003C00000220122002AEFD1044A9A61704700BF3F
:1003D00000ED00E04C0D0020010300080C030008B4
:1003E00010B500F07DF9202383F3118800F038F96F
:1003F00000F0AEF800F054F9002383F3118800F008
:100400008FF9BDE81040FFF7B3BF00BFAFF3008026
:100410002DE9F04FC1F80CD0D0F80CD0BDE8F08F2A
:1004200008B500F0FDF8002383F311882846A047A3
:1004300000F056FC08BD00BFAFF30080AFF30080B2
:10044000F0B400F00307FE00FF2313FA06F200F0F9
:100450001F04B1400125A5408608094CC03654F858
:100460002670400927EA020242EA010300F1600710
:1004700044F8263044F8275044F82050F0BC704728
:1004800000E100E0AFF30080AFF30080AFF3008045
:1004900000F0030210B4FF23D40013FA04F2A140C9
:1004A0008008064C063054F8203023EA020242EA63
:1004B000010344F8203010BC704700BF00ED00E09D
:1004C0000248034AC3699A61FEE700BF4C0D002051
:1004D000602B0008AFF30080AFF30080AFF3008023
:1004E00030B583B0FFF724FF00F012FA00F0A8F94E
:1004F00000F0DEFE00F064F940210E4800F000FB41
:100500000D4D0E490124E86180F82040C16100F0E2
:100510004FF8002383F3118862B6EA691D46084B41
:10052000C021936107482246074B009500F050FB1D
:1005300003B030BD200800204C0D00200004002036
:10054000682B000868080020C1040008AFF3008091
:1005500070B500F005F9114B9A69002A01DD013AE6
:100560009A61DA690E4C516A2368481C5062E1684E
:10057000481CA342E0600FD09D68013D9D605DB9BD
:1005800026461968DA681869DD604E602160904778
:10059000236898680028F4D070BD00BF4C0D00207F
:1005A0003C0D0020AFF30080AFF30080AFF300807C
:1005B0000548036813B9054A116821B10448054B81
:1005C0001860FFF795BE704728090020340D002001
:1005D000802B0008380D0020AFF30080AFF30080BF
:1005E000084810B5036853B9074C216821B1074A80
:1005F000074B1A60FFF77CFE0120206010BD024C03
:10060000F5E700BF28090020340D0020882B0008E2
:10061000380D0020AFF30080AFF30080AFF300800F
:10062000094810B5036833B9084C2168002903DD77
:100630000020206010BD054C054A064B1A60FFF7EC
:1006400057FE0020206010BD28090020340D002036
:10065000902B0008380D0020AFF30080AFF300802E
:10066000084810B50368002B0ADD074C216821B14A
:10067000064A074B1A60FFF73BFE0120206010BDC1
:10068000014CF5E728090020340D0020982B0008C4
:10069000380D0020AFF30080AFF30080AFF300808F
:1006A0000A4810B50368002B06DD094C21680029B3
:1006B00003DD0020206010BD054C064A064B1A6081
:1006C000FFF716FE0020206010BD00BF28090020A3
:1006D000340D0020A02B0008380D0020AFF300805F
:1006E00010B5202383F31188094C2368002B02DB0B
:1006F000084802682AB1084B08491960FFF7F8FD5D
:1007000023685A1C2260002383F3118810BD00BFA8
:1007100028090020340D0020380D0020A82B0008E7
:1007200010B5202383F31188094C2368002B02DDC8
:10073000084802682AB1084B08491960FFF7D8FD3C
:1007400023685A1E2260002383F3118810BD00BF66
:1007500028090020340D0020380D0020B02B00089F
:1007600006480368002B04DB054A1168002900DDF8
:1007700070470448044B1860FFF7BABD28090020F1
:10078000340D0020B82B0008380D0020AFF3008096
:100790000648036823B9064A1168002900DD70473E
:1007A0000448054B1860FFF7A3BD00BF28090020CF
:1007B000340D0020C02B0008380D0020AFF300805E
:1007C000034A4021134643F8081B5360704700BF9B
:1007D0002C090020AFF30080AFF30080AFF300805E
:1007E00010B40D4A0D4C0E495368E468C9691C6089
:1007F0005960846A03F110019C6090F8204002F572
:10080000816081421C7328BF02F10803516028BF38
:10081000536010BC704700BF2C0900203C0D002025
:100820004C0D0020AFF30080AFF30080AFF30080E9
:10083000014B1860FFF75CBD380D0020AFF300805E
:10084000044B4FF0FF3000225B601B609860DA6061
:10085000704700BF3C0D0020AFF30080AFF3008075
:10086000F8B504460D4616461F46FFF779FFCCB192
:10087000C6B1BDB10D4927610B68E6609A68954223
:1008800004D91B68AD1A9A68AA42FAD35A688B42F7
:100890002360626014605C60A56002D09868451BAC
:1008A0009D60F8BD0248FFF7C3FFE3E73C0D002061
:1008B000D02B0008AFF30080AFF30080AFF30080CF
:1008C00010B50446FFF74CFF84B1E36893B1236889
:1008D0000A4A934203D09968A268881898606068B1
:1008E000002203602368E260586010BD0448FFF7EF
:1008F0009FFFEAE70348FFF79BFFE8E73C0D002076
:10090000E02B0008F02B0008AFF30080AFF300806D
:10091000044B002014225B601B6098609A615B614D
:100920001B6170474C0D0020AFF30080AFF30080D7
:1009300010B590F8203004468BB10E2B0FD000225A
:10094000094BA16884F820201B6898688842FBD274
:100950005968236061600C605C60204610BD0348EC
:10096000FFF766FFEBE700BF4C0D0020102C0008DE
:1009700090F820300D2B11D8DFE803F01510100788
:10098000100B101010101010100B816A8B685A1C7D
:100990008A60416803680B60026851604FF0FF3263
:1009A0008262FFF7C5BF7047AFF30080AFF30080EE
:1009B00070B5114C0646FFF7EBFEE569142085F88B
:1009C0002060236801211A6883F82010A061546018
:1009D00028462260E361FFF703FFEA69ADF12403D3
:1009E0009A4202D90548FFF723FFE0692946BDE88E
:1009F0007040FFF70DBD00BF4C0D0020242C0008F7
:100A000070B50E4686B00546FFF7C2FEB6F1FF3F51
:100A100012D00C4C3146E3690B4A01A8FFF720FFC6
:100A20002846FFF7C5FF049B13B101A8FFF748FF55
:100A3000E069806A06B070BD2846FFF7B9FF014C37
:100A4000F6E700BF4C0D002071090008AFF30080ED
:100A500070B5154D04460E46FFF79AFEE869A26888
:100A60008368A6629A4215D9FFF762FF0123142218
:100A7000064684F82030AA61EC61FFF7B1FEF06908
:100A8000ADF1240188420AD820463146BDE87040C5
:100A9000FFF7BEBC2046BDE87040FFF749BF0348E2
:100AA000FFF7C6FEF0E700BF4C0D0020242C000825
:100AB00070B5104C01212368E5691A681420A06103
:100AC00083F82010546028462260E361FFF730FF6E
:100AD0002846FFF785FEEA69ADF124039A4202D960
:100AE0000548FFF7A5FEE0692946BDE87040FFF71D
:100AF0008FBC00BF4C0D0020242C0008AFF30080F9
:100B0000F0B400220E4C022580F8205080F82120FD
:100B1000656900F1300600F12C0C00F14807046112
:100B200081604561416460610264C26342628261C6
:100B30002861C0F82CC046630663C761F0BC7047EB
:100B40004C0D0020AFF30080AFF30080AFF30080C6
:100B5000F8B504460D4616461F46FFF701FE0CB1D8
:100B6000AF2D28D81648FFF763FE243D6119E160D8
:100B700006986751134F0023134A022548600F62FD
:100B800084F8205084F82130506904F1300104F1D8
:100B90002C0704F1480522616061A6606664546117
:100BA00023640461E3636362A361E76261632163B9
:100BB000E5612046F8BD7F2ED4D8002FD5D1D1E7EE
:100BC000402C0008210400084C0D0020AFF30080E9
:100BD000F0B504460D461F4683B0164648302346FE
:100BE000FF211A4602F8011B5970531C8342F8D1A9
:100BF0006019834215D25521DA4303F8011B00EB3B
:100C0000020C83420CF001020BD01AB103F8011B55
:100C1000834206D01A4602F8011B5970531C8342C6
:100C2000F8D1202383F31188FFF7DAFC2046089CD3
:100C30003B46324629460094FFF78AFF00210446CE
:100C4000FFF706FFFFF7ECFC002383F31188204633
:100C500003B0F0BDAFF30080AFF30080AFF30080CE
:100C600010B5044610B90948FFF7E2FD202383F3CD
:100C70001188FFF7B5FC21460620FFF7C1FEFFF7FC
:100C8000CFFC002383F3118810BD00BF802C000827
:100C9000114B70B5DC69254655F82C3FA062AB427C
:100CA00007D01A681846E262FFF742FEE36AAB42D9
:100CB000F7D194F8210010F0030F04D16369226981
:100CC0001A6121694B610E20FFF772FE0348BDE8EF
:100CD0007040FFF7ADBD00BF4C0D0020902C000808
:100CE00010B52023044683F31188FFF779FC2046D2
:100CF000BDE81040FFF7CCBFAFF30080AFF300803A
:100D000010B5044620B1002364602460A36010BDC8
:100D10000348FFF78DFD002364602460A36010BDCD
:100D2000D02C0008AFF30080AFF30080AFF3008059
:100D30003B4B2DE9F0410546DC69FFF729FD002D0D
:100D40006AD0A868002836D0A2688168914208D28B
:100D500090F820308260042B46D0052B31D0002B38
:100D60001ED02B461B689D4203D09868A16888421C
:100D7000F8D25A682360626004205C601460A56247
:100D8000FFF716FEAB68A34202D02648FFF750FDDE
:100D9000206CA84213D02448BDE8F041FFF748BDBD
:100DA0004368026801211A60026880F820105360CD
:100DB000FFF7BEFDD5E7216CAC60E9602564BDE8B6
:100DC000F08141680768866A0F600768334679607A
:100DD0001B689E4202D099689142F9D25A6803601A
:100DE000426010605860BCE741680768866A0F601F
:100DF0000768334679601B689E4202D09968914229
:100E0000F9D25A680360426010605860B068A26806
:100E1000836893429CD3A4E70448FFF709FD90E759
:100E20004C0D0020F02C0008042D0008E02C0008D8
:100E300010B52023044683F31188FFF7D1FB204629
:100E4000FFF776FFFFF7ECFB002383F3118810BD5B
:100E5000214A70B52023D56983F31188FFF7C0FBC1
:100E60002C6C002C33D0A368AB4203D01B48FFF797
:100E7000DFFC2C6C2368E268A3422A641ED0686CF5
:100E80004AB11168914203D08968884238BF084648
:100E9000D268002AF5D11A681E6CA8600021226071
:100EA00018465460A360E6601C64FFF7D1FDFFF7AD
:100EB000B7FB002383F31188204670BD0020A0609B
:100EC000FFF7AEFB002383F31188204670BD044872
:100ED000FFF7AEFC2C6CC6E74C0D0020402D00083F
:100EE0002C2D0008AFF30080AFF30080AFF300803B
:100EF00038B504460D46FFF733FCBCB1E26B94F8FD
:100F000020301543082BE5630CD0092B00D038BDE9
:100F1000A06A0540A842FAD12046FFF709FD00214A
:100F2000816238BDA36A1D42F6D138BD0148FFF782
:100F30007FFCE3E7AC2D0008AFF30080AFF3008047
:100F400070B505460E46FFF70BFC65B12C68AC4248
:100F500008D0A168606846EA0101FFF7C9FF24686C
:100F6000AC42F6D170BD0248FFF762FCEEE700BF6D
:100F7000D02D0008AFF30080AFF30080AFF3008006
:100F800010B4034619B94FF0FF3010BC7047064C3F
:100F90000D20E26993625C68136054605A602260BD
:100FA00010BCFFF72DBD00BF4C0D0020AFF300803B
:100FB00010B48A180024406000608460416181613F
:100FC000C1600261C36110BC704700BFAFF3008015
:100FD00038B504460D46FFF7C3FB6369A269934227
:100FE00019D0A268511CA16003F8015B20696361FC
:100FF000834228BFE368206828BF6361A04208D00D
:10100000026822605460FFF793FC00238362184655
:1010100038BD002038BDA268002AE3D06FF003007D
:1010200038BD00BFAFF30080AFF30080AFF30080A6
:10103000F8B504460D46202383F31188FFF7D0FA54
:10104000E3690BB120469847A6682046294656B961
:10105000FFF796FF071EF7DAFFF7E2FA334683F34E
:1010600011883846F8BDA369013EA66013F8017BDC
:101070002269A361934224BFE368A361FFF7D0FA1A
:10108000002383F311883846F8BD00BFAFF300801A
:101090002DE9F0470446904689461D46C769002A57
:1010A00037D0202383F31188FFF79AFA00260FB177
:1010B0002046B847D4F808A020462946BAF1000FC8
:1010C0000BD1FFF75DFF0028F4D0FFF7A9FA5346D4
:1010D00083F311883046BDE8F087A3690AF1FF3138
:1010E000A16013F8010B09F806002269A36193427D
:1010F00024BFE368A361FFF793FA002383F3118809
:1011000001364645E6D0202383F31188FFF768FABD
:10111000CDE70248FFF78CFBC3E700BF102E0008A5
:1011200010B48C1840600060826041618161C160D0
:101130000461C36110BC7047AFF30080AFF300805F
:101140002DE9F041202304460D46164683F311880D
:10115000FFF746FAA7682046314667B9FFF710FF48
:10116000B0F10008F6DAFFF75BFA3B4683F311882B
:101170004046BDE8F0816369013FA76003F8015B69
:1011800022696361934224BFE3686361E3690BB141
:1011900020469847FFF744FA002383F311889846C6
:1011A0004046BDE8F08100BFAFF30080AFF30080A0
:1011B00038B50446FFF7D4FAA36962699A4217D09A
:1011C000A268511CA16013F8015B2069A3618342EE
:1011D00028BFE368206828BFA361A04206D0026848
:1011E00022605460FFF7A4FB00238362284638BDC9
:1011F000A268002AE5D06FF0020038BDAFF300808E
:101200002DE9F047044615460E469946D0F81C8055
:10121000002A40D0202383F31188FFF7E1F900274B
:10122000D4F808A020460AF1FF33BAF1000F24D009
:10123000A3603178636903F8011B226963619342FB
:1012400024BFE3686361B8F1000F00D0C047FFF727
:10125000E7F9002383F311880137013D18D00136E7
:10126000202383F31188FFF7BBF9D4F808A02046A8
:101270000AF1FF33BAF1000FDAD120464946FFF7F1
:101280007FFE0028CCD0FFF7CBF9534683F31188BB
:101290003846BDE8F0870248FFF7CAFABAE700BF50
:1012A000242E0008AFF30080AFF30080AFF300807E
:1012B000054B064A064823F00701064B116020F053
:1012C00007021A60704700BFF3140020700D002061
:1012D000002000206C0D0020AFF30080AFF30080F1
:1012E00010B500F015FB00F0A3F9064800F0F8FF78
:1012F00000F00EF800F094F800F0FAF8BDE81040A5
:1013000001F0D6B8D0300008AFF30080AFF3008012
:1013100000F036BCAFF30080AFF30080AFF3008085
:1013200000230122027043608360C3600361436154
:101330001830FFF7E5BC00BFAFF30080AFF30080CB
:1013400038B504460D46C0B1202383F31188FFF75A
:1013500047F92178481EC3B2012B02D90948FFF78B
:1013600067FA2046656000F043FC02222270FFF716
:1013700057F9002383F3118838BD0348FFF758FA63
:10138000E2E700BF502E0008402E0008AFF30080B7
:101390002DE9F04104460D4616461F46FFF7E0F9D9
:1013A000D4B1CDB1C6B1012F02D017F0010F13D1C6
:1013B0002378022B06D0042B04D0052B02D008483A
:1013C000FFF736FA03232046A660E7602561237005
:1013D000BDE8F04100F03CBC0248FFF729FAE7E71E
:1013E000942E00087C2E0008AFF30080AFF300803D
:1013F000F8B51C4607460E461546202383F3118890
:10140000FFF7EEF82346384631462A46FFF7C0FF7D
:10141000FFF706F9002383F31188F8BDAFF30080CE
:1014200000F0EEBDAFF30080AFF30080AFF30080BB
:1014300001210023017043600C30FFF761BC00BF45
:10144000806BD0F1010038BF00207047AFF30080FF
:101450008069D0F1010038BF00207047AFF30080F1
:1014600070B52023044683F311880026FFF7B8F8EF
:10147000A568A660FFF7D4F8334683F311882846A1
:1014800070BD00BFAFF30080AFF30080AFF300800A
:101490001030FFF7FDBD00BFAFF30080AFF3008059
:1014A00010304FF0FF33FFF7F3BD00BFAFF3008004
:1014B0003030FFF7A5BE00BFAFF30080AFF3008070
:1014C00030304FF0FF33FFF79BBE00BFAFF300801B
:1014D0001030FFF7ADBD00BFAFF30080AFF3008069
:1014E0003030FFF72DBE00BFAFF30080AFF30080B8
:1014F00000F08EBEAFF30080AFF30080AFF300804A
:101500000B460E4970B50646044646F8041B666055
:101510000026A66001261546103004F15001102265
:101520002673FFF745FD04F1300004F1600110223D
:101530002B46BDE87040FFF7F3BD00BFB02F000899
:1015400038B504460D46C0B1202383F31188FFF758
:1015500047F8217B481EC3B2012B02D90948FFF787
:1015600067F92046294600F073FE02222273FFF736
:1015700057F8002383F3118838BD0348FFF758F963
:10158000E2E700BF5C2F0008502F0008AFF3008097
:1015900070B504460D46FFF7E3F8002C21D0A16991
:1015A00039B104F110002946FFF712FD00280EDBC7
:1015B00070BDA268201D42F00403A360FFF7C0FCC9
:1015C00004F110002946FFF703FD0028F0DAA368B4
:1015D000201D43F08001A1600021BDE87040FFF7AD
:1015E000AFBC0248FFF724F9D9E700BF882F0008F5
:1015F00001494B6883607047001000E0AFF3008042
:10160000084B09495A6883680968D31AC2685B1A8B
:101610009342836004D80269934238BF03617047E4
:10162000C3607047001000E0740D0020AFF300802D
:1016300010B50B4A86B00B490B4C002301A8019250
:101640004FF0FF3223600393049302910592FFF75A
:10165000CFFF01A802998847039B236006B010BD05
:10166000F115000801160008740D0020AFF300808A
:1016700010B5FFF735F80848084A03680F241168C9
:10168000546013B1406821409847FFF749F8BDE81E
:101690001040FEF76DBE00BF780D00200000024034
:1016A00010B5FFF71DF80848084A8368F024116850
:1016B00054601BB1C068C1F303119847FFF730F8BD
:1016C000BDE81040FEF754BE780D00200000024037
:1016D00010B5FFF705F80948094A03694FF470642B
:1016E000116854601BB14069C1F303219847FFF7AB
:1016F00017F8BDE81040FEF73BBE00BF780D002094
:1017000000000240AFF30080AFF30080AFF3008031
:1017100010B5FEF7E5FF0948094A83694FF47044A4
:10172000116854601BB1C069C1F303319847FEF7DB
:10173000F7FFBDE81040FEF71BBE00BF780D00208C
:1017400000000240AFF30080AFF30080AFF30080F1
:1017500010B5FEF7C5FF0948094A036A4FF4702423
:10176000116854601BB1406AC1F303419847FEF70A
:10177000D7FFBDE81040FEF7FBBD00BF780D00208D
:1017800000000240AFF30080AFF30080AFF30080B1
:1017900010B5FEF7A5FF0948094A836A4FF47004A3
:1017A000116854601BB1C06AC1F303519847FEF73A
:1017B000B7FFBDE81040FEF7DBBD00BF780D00208D
:1017C00000000240AFF30080AFF30080AFF3008071
:1017D00010B5FEF785FF0948094A036B4FF07064A6
:1017E000116854601BB1406BC1F303619847FEF769
:1017F00097FFBDE81040FEF7BBBD00BF780D00208D
:1018000000000240AFF30080AFF30080AFF3008030
:10181000124BF0B4D3F800C0DF689E695D6A1C6BA0
:10182000D86B996C0023CCF800300D4ADFF838C033
:101830003B601360336093602B601361236093619E
:101840000360136293621363CCF800300B60054BA6
:101850004FF0FF325A60F0BC704700BF20300008E4
:10186000780D002000000240B00D0020AFF3008092
:10187000F0B5044685B0002833D0667A012505FA14
:1018800006FC1D4F38681CEA000F26D11B4D4CEAA0
:10189000000010F07F0F05EBC60C45F83620CCF8A1
:1018A0000430386004D0164B5F6947F001065E6172
:1018B000236860681F6827F001051D60267A0F27DE
:1018C00017FA06F6002506601D6042B1A07A0901EC
:1018D000FEF7B6FD284605B0F0BD2846FBE71046EA
:1018E000F9E70848039102920193FEF7A1FF019BDB
:1018F000029A0399C1E700BFB00D0020780D0020C7
:1019000000100240E02F0008AFF30080AFF300802A
:10191000214B00224FF0FF3030B420491C69186180
:101920001A61DD68D8604BF67F30DA601C4C486085
:1019300007208A600860E1681A4841F08071E16020
:101940000468194944F001040460D86940F08050EB
:10195000D861D86940F00060D861086840F48070B0
:101960000860186A00F44071B1F5407F03D04FF46D
:10197000803119621A62084B1A6A12F4004F07D1BB
:10198000186A40F440721A62196A41F40040186201
:1019900030BCFFF73DBF00BF0010024010E000E088
:1019A000F0ED00E0001000E000700040AFF30080B8
:1019B0001F4B1868194640F001021A600B681C4A58
:1019C00013F0020FFAD01368002003F0F901116040
:1019D000114650604868164A10F00C0FFAD1106892
:1019E000114640F4803313600B68114A13F4003F32
:1019F000FAD05368114643F4A0205060136843F0B6
:101A00008070106008680A4A10F0007FFAD0094818
:101A1000094B1021506019605068114640F00203D4
:101A200053604A6802F00C0CBCF1080FF9D1704702
:101A3000001002400064050000200240AFF3008067
:101A400011F0080FF8B50D4604462CD0C36A0169A1
:101A50001A685D68166826F0010616601B7A0F2664
:101A60009E40826ACB6800212E6091602BB10525D3
:101A700005709847207805286ED000252561202321
:101A800083F31188FEF7ECFD636933B14FF0FF3249
:101A9000656118469A62FEF74BFFFEF701FE0023D0
:101AA00083F31188F8BD11F0040F06D003699B6819
:101AB0001BB1C26881685208984715F0020F39D0EF
:101AC00021690A68002A36D1E36AA56A18685E6847
:101AD000076827F001070760187A0F2717FA00F048
:101AE0008B683060AA60002B39D0E2680425012A97
:101AF00025703BD9B1F804C052080CFB02FEA16866
:101B0000204601EB4E0198472278042A27D0002571
:101B10002561202383F31188FEF7A2FD636923B1B9
:101B2000656118469D62FEF703FFFEF7B9FD0023CD
:101B300083F31188F8BD8B68002BFBD0E268012A83
:101B400010D9B1F804C052080CFB02F5A168204678
:101B500001EB45019847F8BD022121708DE7022372
:101B60002370D4E72046A1689847F8BD2046A168B5
:101B70009847C9E7AFF30080AFF30080AFF3008070
:101B800010B5144C2046FFF7CBFB134B1349986953
:101B900040F400729A61124B0020A1620122486059
:101BA000E36242F28A5009238A6020638B608B686B
:101BB0000A4A13F0080FFAD105219160906810F0DD
:101BC0000403FBD10548044A8360916921F4007342
:101BD000936110BDB40D00200010024000240140AC
:101BE00020300008AFF30080AFF30080AFF3008037
:101BF00038B503780446012B00D038BD0E4DA842FD
:101C000004D0A36A00215960996038BDC06A0521DB
:101C10000A4A2346FFF72CFE48B9E86A084B0268D7
:101C200008489360816941F400728261E9E70648DF
:101C3000FEF7FEFDF1E700BFB40D0020411A0008D9
:101C40004C2401400010024080300008AFF30080B7
:101C500003692DE9F0031968026B09B142F0200213
:101C6000C1689E880129C56A88BF4E438468296877
:101C700088BF42F00402D3F81480CC604E600A6042
:101C80001F69D1F800C0826AD3F81890DE691D6A16
:101C90005C6A986A48F4807343F003034CF0010CCB
:101CA00047F48077C1F800C057609360C2F80C9089
:101CB0001661D562146350639360BDE8F00370470A
:101CC0002DE9F041684CFEF70BFD256B94F834309C
:101CD0002A8BAE8AB6B2C3B946EA0242634B22F0FF
:101CE0007F429A4274D05CD8581E824203D1B4F825
:101CF00020C0A5F810C016F00A0F00D02B8BFEF7FD
:101D00000FFDBDE8F041FEF733BB16F00A0F05D01A
:101D1000AE8A00232A8BB6B22364236516F0800FA7
:101D20000ED0206DA26C216C12F800E0E26C431C16
:101D30009142A5F810E0236502D34B4B00211965B1
:101D400016F0400F0DD0226CB5F810C0A16B531CDB
:101D500001F802C0E06B2364834202D3424B0020AF
:101D6000186416F0100F0CD0AE8A2988636C1FFA25
:101D700081FC4CF0010EB6B2A5F800E00BB13A4878
:101D8000984716F4806FBAD0B5F814E0636D2EF45E
:101D900080610804020CAA82002BB0D03248984718
:101DA000ADE7334B9A4232D0991C8A42A3D1A26A42
:101DB00017687F68002F38D02B88B4F820C098B2FD
:101DC0004CF0010140F4A06E2184A5F800E096E7F4
:101DD000B5F804C0A26A2CF4007003041268190C50
:101DE000A980106840F001031360A98888B240F40C
:101DF000805EA5F804E05368012B3FF67CAFB5F890
:101E000000E02EF480621304190C298073E7B5F802
:101E100004C0E06A2CF40073190400680A0CAA805C
:101E2000036843F00101016065E7B5F804C02023B1
:101E30002CF400710A04100CA88029881FFA81FE76
:101E40004EF400722A8083F31188FEF709FCE069E2
:101E500018B18762E761FEF76BFDFEF721FC0023F6
:101E600083F3118847E700BFE80D0020020003005C
:101E700082000700AFF30080AFF30080AFF3008073
:101E80002DE9F0415D4DFEF72BFC2C6B202383F3F5
:101E90001188FEF7E5FBEA6AAB6A106856680768C6
:101EA0000F2127F001070760107A1A6811FA00F075
:101EB00030601668586826F0010616601B7A994053
:101EC0000160FEF7EDFB002383F31188A68A16F468
:101ED000807607D0B4F814C001262CF48072130465
:101EE000190CA182B4F814E01EF4007F07D0A28A76
:101EF00046F0020622F400731904080CA08295F83B
:101F000034103E4800293AD1B4F814C01CF4806F54
:101F100041D1A08A10F4006F08D0B4F814E046F064
:101F200008062EF4006211040B0CA382B4F814C04E
:101F30001CF4805F07D0A28A46F0100622F480517C
:101F40000B04180CA082B4F814E01EF4804F08D0E3
:101F5000B4F814C046F020062CF480410B04180C91
:101F6000A082B4F814E00FFA8EF2002A2ADB002EC9
:101F70002ED1FEF7D5FBBDE8F041FEF7F9B9B4F874
:101F800014C0436D2CF4806211040A0CA282002B51
:101F9000BFD09847BDE7B4F814E046F004062EF42D
:101FA00080610A04130CA382B4F804C02CF40070FE
:101FB00001040A0CA280238898B240F4007EA4F8A1
:101FC00000E0A6E7A18A46F040064B04580CA08228
:101FD000AE60202383F31188FEF742FBE86938B135
:101FE000064B6FF0010100228162DA61FEF7A0FC6E
:101FF000FEF756FB002383F31188BAE7E80D0020B3
:1020000010B5074C2046FFF713FA064B0649A3F11B
:102010000C020020E0612163A362E26210BD00BFF8
:10202000E80D00206830000800540040AFF3008045
:10203000034B998988B240F080029A81704700BFB3
:1020400000380140AFF30080AFF30080AFF30080B1
:10205000034B998988B240F080029A81704700BF93
:1020600000440040AFF30080AFF30080AFF3008086
:102070002DE9F843066F0546B7893488BFB2A4B28C
:1020800014F00F0FB6F8048025D014F0080918BF1B
:102090004FF0800914F0010F18BF49F0200914F027
:1020A000020F18BF49F0400914F0040F18BF49F49B
:1020B0008079202383F31188FEF7D2FAA968281DBE
:1020C00041EA0903AB600021FEF73AFFFEF7E8FAA8
:1020D000002383F3118814F4807F3BD114F0200F88
:1020E00028D117F0800F02D014F0800F4CD114F0DB
:1020F000400F1DD0202383F31188FEF7B1FAAA68A0
:10210000281D42F01003AB600021FEF719FFFEF717
:10211000C7FA002383F311884FF6BF7007EA000166
:10212000B181B6F800C02CF040021304180C3080C6
:10213000BDE8F883202383F31188FEF791FA28463F
:102140005FFA88F1FFF724FAFEF7AAFA002383F377
:102150001188C6E7202383F31188FEF781FAA96866
:10216000281D41F40072AA600021FEF7E9FEFEF787
:1021700097FA002383F31188B6F800C02CF480731B
:102180001A04100C3080A9E7202383F31188FEF78E
:1021900067FA05F13000FFF70BF8002806DBB08086
:1021A000FEF77EFA002383F31188A0E7A968281DB3
:1021B00041F00802AA600021FEF7C2FE27F0C0032A
:1021C00043F04000B081EBE7AFF30080AFF3008055
:1021D00010B5FEF785FA0448FFF74AFFFEF7A0FAAC
:1021E000BDE81040FEF7C4B8400E0020AFF30080F9
:1021F00010B5FEF775FA0448FFF73AFFFEF790FABC
:10220000BDE81040FEF7B4B8B40E0020AFF3008074
:1022100038B5084D00212846074A084CFFF770F9E9
:10222000074B20460021074A2B67FFF769F9064B49
:10223000236738BD400E002031200008B40E002076
:10224000003801405120000800440040AFF30080F6
:1022500038B5037B1D4C0546002918BF0C46012BE1
:102260001AD020681A4A2B6FB2FBF0F11981A288AC
:10227000B4F806C0218942F4045040F02C024CF01E
:1022800040009A8141F0010C18820020A3F814C08C
:1022900018801A889B8838BD0E4988420CD00E4998
:1022A0008842DED10D4B2620DA69C02142F400328B
:1022B000DA61FEF7C5F8D4E7084B25209A69C021FA
:1022C00042F480429A61FEF7BBF8CAE7A0300008EA
:1022D000001BB700400E0020B40E0020001002408A
:1022E000154B30B49A69154D42F07D049C6101682C
:1022F000134CE960826813496A604368124A2B6094
:10230000C568124BE56045696560056925608469AB
:10231000CC60046A4C60C4690C60416AD160C16AD7
:102320005160816A1160026BDA60816B5960426BA7
:102330001A6030BC704700BF001002400008014026
:10234000000C014000100140001401400018014041
:10235000032AF0B400F09A80042A08BF41614C4B74
:1023600011F080079B5C40F088800F2411F4004539
:1023700040F089800F264A002401360139012D01E1
:1023800012F0800F14BF194344F00F0412F4004FF1
:1023900014BF1D4346F00F06520024013601090107
:1023A0002D0112F0800F14BF194344F00F0412F4F2
:1023B000004F14BF1D4346F00F06520024013601A2
:1023C00009012D0112F0800F14BF194344F00F04CE
:1023D00012F4004F14BF1D4346F00F0652002401B3
:1023E000360109012D0112F0800F14BF194344F08A
:1023F0000F0412F4004F14BF1D4346F00F065200A5
:102400002401360109012D0112F0800F14BF194378
:1024100044F00F0412F4004F14BF1D4346F00F06A2
:1024200052002401360109012D0112F0800F14BF62
:10243000194344F00F0412F4004F14BF1D4346F03B
:102440000F0652002401360109012D0112F0800F00
:1024500014BF194344F00F0412F4004F18BF1D437A
:10246000436808BF46F00F061E40354345600268CA
:10247000144021430160F0BC7047002411F4004572
:102480001F463FF477AF1D46002674E7016166E7FB
:10249000B0300008AFF30080AFF30080AFF30080EE
:1024A000FFF786BAAFF30080AFF30080AFF3008090
:1024B000704700BFAFF30080AFF30080AFF3008040
:1024C00008B5FEF70DFFFEF70BF800F0A1F800F0DD
:1024D0000FF800F0FDFA00F033F800F039F800F0E2
:1024E00037F8FAE7AFF30080AFF30080AFF3008076
:1024F00010B50A4C102105222046FFF729FF20467F
:1025000020210522FFF724FF0549064BCA6942F046
:1025100000504FF00112C8611A6010BD0008014060
:102520000010024000740040AFF30080AFF3008061
:102530000188024B428899605A61704700740040DC
:1025400001480021FEF7FCBF400E0020AFF30080E1
:1025500010B50A4C00210A48FEF76AFD831C012BC6
:10256000C0B2F7D95C28F5D0207000210448FEF7EE
:102570005FFD831C012BC0B2F4D8EBE7280F0020CD
:10258000500E0020AFF30080AFF30080AFF3008067
:1025900000487047480F0020AFF30080AFF3008081
:1025A0001248F8B5124AC369124E134D134C9A6182
:1025B000202708E0E06880F00103E360FEF748FCB4
:1025C0007D20FEF74DFB0E48FEF732FC316811F01E
:1025D000010F17BFEA686F6182F02002EA6011F014
:1025E000020FE7D101216161E8E700BF4C0D002037
:1025F00010310008780F002000100140000C01404D
:10260000680F0020AFF30080AFF30080AFF30080CD
:10261000F0B5134B134C2027012602255F6183B0D0
:1026200018466661062239466561FFF791FE20462D
:1026300031460622FFF78CFE294606222046FFF788
:1026400087FE0948FEF75CFB00244FF4D871402256
:10265000064B07480094FEF7BBFA03B0F0BD00BF7D
:1026600000100140000C0140680F0020A125000867
:10267000800F0020AFF30080AFF30080AFF3008045
:1026800010F0010F04D00B4BD96881F02002DA6002
:1026900010F0020F04D0084BD96881F00102DA6013
:1026A00010F0040F04D0044BDA6882F00200D86006
:1026B000704700BF00100140000C0140AFF30080E4
:1026C000704700BFAFF30080AFF30080AFF300802E
:1026D000704700BFAFF30080AFF30080AFF300801E
:1026E00030B51848184A04781849136865B2096863
:1026F000EB188B4283B0136021D30B466442047005
:102700001348144D0488B5F800C040886D88C4EBA8
:102710000C022D1A02FB03FE05FB03FCBEFBF1F2CB
:10272000BCFBF1F303EB000C02EB040E01A8ADF8C7
:1027300004E0ADF806C0FFF7FBFE03B030BD002B90
:10274000DED1DBE704080020301100201C08002047
:10275000C0130020C4130020AFF30080AFF300804B
:1027600070B50C4C0C482368026801339342236017
:102770000BD00A4D29688B4206D30948FFF7D8FED3
:1027800020682B68C21A226070BD0648BDE8704000
:10279000FFF7CEBE98130020100800201408002078
:1027A0007012002074120020AFF30080AFF300809D
:1027B0000B4A0C4910680968431C8B4210B5136022
:1027C0000CD3094C2046FFF7B3FE2288074B6088E4
:1027D0001A600749074B002208601A7010BD00BF3D
:1027E0006C1200201808002034110020000800207E
:1027F0000C08002058120020AFF30080AFF30080D7
:1028000000B5074B074983B01A880B8801A8ADF8BB
:102810000420ADF80630FFF78BFE03B000BD00BF0B
:10282000000800200C080020AFF30080AFF3008008
:1028300010B5FFF7ADFE417890F800C0174B0A02C3
:1028400002EB0C041C80C17890F802C00A0202EB73
:102850000C045C80417990F804C0114B0A0202EB31
:102860000C041C80C17990F806C00A0202EB0C042B
:102870005C80827A447A017AC37A12042002821838
:1028800002EB010C1806074B0CEB00021A6006491C
:10289000064B0020012208601A7010BDC0130020F2
:1028A000C41300201C080020301100200408002060
:1028B00038B5FFF76DFE447801781D4D23025A1894
:1028C0002A80C47890F802C0230203EB0C016980CF
:1028D000847942790579C1792304120202EB030C51
:1028E0000CEB05020C06134D12192A60437A90F87E
:1028F00008C0114D190201EB0C042C80C37A90F82A
:102900000AC0190201EB0C046C80837B457BC17B00
:10291000047B1B042802C01800EB040C0B060CEB14
:1029200003018B180548064A0360136038BD00BFD9
:1029300070120020100800207412002014080020DB
:1029400098130020AFF30080AFF30080AFF3008056
:1029500070B5FFF71DFE43780678164D19028A19E7
:102960002A80C37890F802C00446180200EB0C06D7
:102970006E802846FFF7DCFD0F4A1049104B68882F
:102980002E88158816600D801D8818604D8060792E
:10299000A2792179E37912040002801800EB010C7E
:1029A0001A060849084B0CEB0200002208601A6066
:1029B00070BD00BF5C120020000800203411002010
:1029C0000C080020180800206C120020AFF30080D3
:1029D00008B5FFF7DDFD417890F800C00A02054B0D
:1029E00002EB0C011960C2788178034B1002421887
:1029F0001A6008BD000800200C080020AFF300801A
:102A0000F8B52A4C04200E46294DFFF739FE94F8FC
:102A100000C005EBCC0043689847264B26491A684E
:102A2000096801328A421A6018DA202383F3118878
:102A3000FDF716FE2148FEF7BBFBC61C18BF01269A
:102A400006B12070FDF72CFE002383F3118826B118
:102A500094F800E055F83E108847F8BD521A1A6005
:102A6000202383F31188FDF7FBFD37881448F9B262
:102A7000FEF7AEFA390A1248FEF7AAFA778811482B
:102A8000F9B2FEF7A5FA390A0E48FEF7A1FAB688A0
:102A90000D48F1B2FEF79CFA310A0B48FEF798FA9E
:102AA000FDF7FEFD002383F31188BEE758120020D6
:102AB00020310008C814002008080020CC14002091
:102AC00038110020781300209C130020AFF3008001
:102AD00010B50422002316481649FEF721FB0023F7
:102AE000154816494FF48072FEF762FA0023144825
:102AF00014494FF48072FEF75BFA134C002313481D
:102B000013494FF48072FEF753FA052211484FF42F
:102B1000E051FFF71DFC00212046FEF711FC0E4995
:102B20000E4A20460223BDE81040FEF761BC00BFFC
:102B3000CC140020BC1300203811002058110020B4
:102B400078130020C8130020B40D00209C1300202F
:102B5000781200200010014050310008601200205F
:102B600069646C65000000006D61696E0000000022
:102B7000535623310000000053562332000000005A
:102B80005356233300000000535623340000000046
:102B90005356233500000000535623360000000032
:102BA000535623370000000053562338000000001E
:102BB00053562339000000005356233130000000E3
:102BC00053562331310000000000000000000000D7
:102BD0002263685654536574492228290000000076
:102BE000226368565452657365744922282900008F
:102BF0006368565452657365744928292C20233123
:102C000000000000000000000000000000000000C4
:102C1000636853636852656164794928292C2023CD
:102C200031000000737461636B206F766572666CAF
:102C30006F770000000000000000000000000000AE
:102C40002263685468644372656174654922282967
:102C50000000000022636854686453657450726910
:102C60006F72697479222829000000006368546833
:102C700064526573756D6528292C2023310000008E
:102C8000226368546864536C6565702228290000CB
:102C90006368546864457869745328292C2023316B
:102CA0000000000022636854686457616974222838
:102CB0002900000063685468645761697428292CEE
:102CC0002023310000000000000000000000000090
:102CD0002263684D7478496E6974222829000000C7
:102CE0002263684D74784C6F636B5322282900006F
:102CF00063684D74784C6F636B5328292C20233103
:102D00000000000063684D74784C6F636B53282992
:102D10002C202332000000002263684D7478547226
:102D2000794C6F636B5322282900000063684D744F
:102D300078556E6C6F636B28292C202331000000BE
:102D400063684D7478556E6C6F636B28292C202353
:102D50003200000063684D7478556E6C6F636B537E
:102D600028292C202331000063684D7478556E6C3F
:102D70006F636B5328292C202332000000000000D1
:102D800022636845767452656769737465724D6134
:102D9000736B222829000000226368457674556E03
:102DA0007265676973746572222829002263684519
:102DB00076745369676E616C49222829000000000F
:102DC0002263684576745369676E616C2228290016
:102DD00022636845767442726F6164636173744DF7
:102DE00061736B492228290022636845767444691F
:102DF0007370617463682228290000006368457657
:102E000074446973706174636828292C202331002D
:102E100022636849515265616454696D656F7574C8
:102E2000222829002263684F5157726974655469DA
:102E30006D656F75742228290000000000000000F5
:102E400022616463537461727422282900000000B7
:102E5000616463537461727428292C20233100004B
:102E60002261646353746F70222829006164635384
:102E7000746F7028292C20233100000022616463C4
:102E80005374617274436F6E76657273696F6E49C5
:102E9000222829006164635374617274436F6E76F3
:102EA000657273696F6E4928292C20233100000058
:102EB0002261646353746F70436F6E7665727369D9
:102EC0006F6E22282900000061646353746F7043A1
:102ED0006F6E76657273696F6E28292C202331001E
:102EE0002261646353746F70436F6E7665727369A9
:102EF0006F6E49222829000061646353746F704328
:102F00006F6E76657273696F6E4928292C202331A4
:102F100000000000616463436F6E76657274282957
:102F20002C2023310000000022616463416371752D
:102F3000697265427573222829000000226164636A
:102F400052656C6561736542757322282900000023
:102F50002273645374617274222829007364537459
:102F600061727428292C20233100000022736453DD
:102F7000746F702228290000736453746F702829BD
:102F80002C20233100000000227364496E636F6DB2
:102F9000696E674461746149222829002273645272
:102FA0006571756573744461746149222829000054
:102FB000C1140008A11400084114000851140008AD
:102FC000E1140008D1140008B1140008911400089D
:102FD0006114000800000000000000000000000074
:102FE00022646D61416C6C6F6361746522282900F5
:102FF00022646D6152656C65617365222829000049
:10300000646D6152656C6561736528292C202331DC
:1030100000000000000000000000000000000000B0
:10302000080002400400024000000B001C000240A7
:103030000400024004010C00300002400400024081
:1030400008020D0044000240040002400C030E0080
:10305000580002400400024010040F006C000240BF
:1030600004000240140510008000024004000240E9
:103070001806110000000000000000000000000021
:103080006164635F6C6C645F737461727428292C73
:1030900020233100000000000000000000000000BC
:1030A000802500000000004000000000000000003B
:1030B00004020408080003070808080808080808AC
:1030C0000B0F0000000000000000000000000000E6
:1030D000FFFFFFFF4444444444444444FFFFFFFFD8
:1030E0004444444444444444FFFFFFFF44444444B4
:1030F00044444444FFFFFFFF4444444444444444A4
:10310000FFFFFFFF88888888888888880000000083
:103110006C640000000000000000000000000000DF
:10312000D12900080128000851290008B12700080A
:10313000B12800086127000831280008E1260008AE
:10314000C1260008D1260008000000000000000091
:103150000100000003000000012A00080000000038
:103160000000000000000000DB0000000000000084
:0C31700000002000000000006A31000098
:10318000FF0700000100000010270000FF070000FB
:10319000E8030000D0070000E8030000E803000097
:0400000508000111DD
:00000001FF
