:020000040800F2
:100000000004002011010008E1010008E1010008DE
:10001000E1010008E1010008E1010008E101000838
:10002000E1010008E1010008E101000811020008F7
:10003000E1010008E1010008E1010008E102000817
:10004000E1010008E1010008E1010008E101000808
:10005000E1010008E1010008E1010008E1010008F8
:10006000E1010008E1010008E1010008E1150008D4
:100070002116000861160008A1160008E116000804
:100080002117000861170008E1010008E1010008DC
:10009000E1010008E1010008E1010008E1010008B8
:1000A000E1010008E1010008E1010008E1010008A8
:1000B000E1010008E1010008E1010008A11C0008BD
:1000C000411E0008E1010008E1010008E10100080B
:1000D000E101000881210008A1210008E1010008D8
:0C00E000E1010008E1010008E101000856
:1000F000704700BFAFF30080AFF30080AFF3008024
:10010000FEE700BFAFF30080AFF30080AFF30080E5
:1001100072B6244A82F30988022383F31488BFF35A
:100120006F8F214B21498B4205D24FF0553043F858
:10013000040B8B42FBD31E4B934205D24FF055313B
:1001400043F8041B9342FBD302F032F9194B1A48CF
:10015000834206D2194A52F8041B43F8041B834217
:10016000F9D3174B174A934204D2002143F8041BDA
:100170009342FBD3144D154CFFF7BAFFAC4204D2A7
:1001800054F8043B9847AC42FAD3114D114C02F09D
:100190001FF9AC4204D254F8043B9847AC42FAD35E
:1001A000FFF7AEFF00080020000000200004002040
:1001B0000004002000080020200800203031000842
:1001C00020080020EC140020EC000008EC000008DF
:1001D000EC000008EC000008AFF30080AFF30080F3
:1001E000FEE700BFAFF30080AFF30080AFF3008005
:1001F00072B6FEE7AFF30080AFF30080AFF300808C
:1002000000F076F900F0ECFB00F08AF900DF00BFA7
:10021000EFF30983203383F30988002383F31188E4
:10022000704700BFAFF30080AFF30080AFF30080F2
:1002300008B500224FF46D43CEF20003C0F2FA522B
:10024000002199600720DA60102100F0A1F80A204F
:100250004FF4007100F09CF80B20802100F098F81A
:1002600008BD00BFAFF30080AFF30080AFF30080A4
:10027000202383F311884FF46D43CEF200035B68B3
:1002800013F4006316D0EFF30983203B83F309884E
:10029000104A4FF080709169D86171B11168D269CC
:1002A00089689268914294BF002201227AB10A4A79
:1002B0009A6101E083F3118870471168D2698968F7
:1002C0009268914234BF00220122002AEFD1034AF2
:1002D0009A61F1E74C0D0020010200080C020008B1
:1002E00008B500F07DF9202383F3118800F038F978
:1002F00000F0B6F800F054F9002383F3118800F001
:100300008FF9FFF7B5FF08BDAFF30080AFF30080B2
:100310002DE9F04FC1F80CD0D0F80CD0BDE8F08F2B
:1003200008B500F0FDF8002383F311882846A047A4
:1003300000F06EFC08BD00BFAFF30080AFF300809B
:1003400000F0030330B4DB00FF259D4000F01F02E6
:1003500011FA03F34FF0010C0CFA02FC84084FF47D
:100360006142CEF20002C03452F82410400921EA62
:10037000050141EA030300F1600142F8243042F82C
:1003800021C042F820C030BC704700BFAFF30080EE
:1003900000F0030310B4DB00FF249C4011FA03F3C8
:1003A00080084FF46D42CEF20002063052F820C0B1
:1003B0002CEA040141EA030342F8203010BC7047E4
:1003C000024B034ADB699A61FEE700BF4C0D002037
:1003D000102B0008AFF30080AFF30080AFF3008074
:1003E00030B583B0FFF724FF00F022FA00F0B0F937
:1003F00000F0F6FE00F064F940F620004021C2F261
:10040000000000F015FB40F64C5440F20043C2F2ED
:100410000003C2F200040125E06180F82050C361AE
:1004200000F04EF8002383F3118862B642F61831CB
:10043000E269C0F60001916140F66800002240F2D6
:10044000C1330092C0F60003C0212A46C2F2000068
:1004500000F066FB03B030BDAFF30080AFF3008067
:1004600070B500F0FDF8114B9A69002A01DD013AE0
:100470009A61DB690E4C596A226801315962E3685E
:100480000133A242E3600FD09568013D95605DB9EC
:1004900026461168D3681069D5604E602160984780
:1004A00022689368002BF4D070BD00BF4C0D002073
:1004B0003C0D0020AFF30080AFF30080AFF300806D
:1004C00008B5064B1B6813B9054B1B6823B1054AD9
:1004D000054B1A60FFF78CFE08BD00BF28090020FD
:1004E000340D0020302B0008380D0020AFF30080C1
:1004F000074B10B51B68074C13B9064C236823B192
:10050000054A064B1A60FFF773FE0123236010BDF6
:1005100028090020340D0020382B0008380D002059
:10052000084B10B51B68084C33B9074C2368002BE7
:1005300002DD0023236010BD044A054B1A60FFF75B
:1005400057FEF6E728090020340D0020402B000854
:10055000380D0020AFF30080AFF30080AFF30080D0
:10056000084B10B51B68002BD8BF074C02DD064CAA
:10057000236823B1054A064B1A60FFF739FE0123B1
:10058000236010BD28090020340D0020482B0008EE
:10059000380D0020AFF30080AFF30080AFF3008090
:1005A000094B10B51B68002BD8BF084C06DD074C63
:1005B0002368002B02DD0023236010BD044A054B95
:1005C0001A60FFF715FEF6E728090020340D002019
:1005D000502B0008380D0020AFF30080AFF30080EF
:1005E00010B5202383F31188094C2368002B02DB0C
:1005F000084A12682AB1084B084A1A60FFF7F8FD4A
:10060000236801332360002383F3118810BD00BFEA
:1006100028090020340D0020380D0020582B000838
:1006200010B5202383F31188094C2368002B02DDC9
:10063000084A12682AB1084B084A1A60FFF7D8FD29
:100640002368013B2360002383F3118810BD00BFA2
:1006500028090020340D0020380D0020602B0008F0
:1006600008B5074B1B68002B04DB064B1B68002BEF
:1006700000DD08BD044A054B1A60FFF7B9FDF8E735
:1006800028090020340D0020682B0008380D0020B8
:1006900008B5074B1B6823B9064B1B68002B00DD10
:1006A00008BD054A054B1A60FFF7A2FDF8E700BF39
:1006B00028090020340D0020702B0008380D002080
:1006C00040F62C13C2F200031A46402142F8081BE0
:1006D0005A607047AFF30080AFF30080AFF3008043
:1006E00070B40D4A0D495368CE680D49846ACD69CE
:1006F00090F820C003F1100102F5816081421E6074
:100700005D609C6083F80CC028BF02F10803516053
:1007100028BF536070BC70472C0900203C0D00209E
:100720004C0D0020AFF30080AFF30080AFF30080EA
:1007300008B540F63853C2F200031860FFF758FDC1
:1007400008BD00BFAFF30080AFF30080AFF30080BF
:1007500040F63C53C2F200034FF0FF329A60002291
:100760005B601B60DA607047AFF30080AFF300801E
:10077000F8B5044615461F460E46FFF771FFD4F143
:10078000010338BF0023002D08BF43F00103002BF5
:1007900019D1002E17D00E4927610B68E5609A68C1
:1007A000964204D91B68B61A9A68B242FAD35A68BC
:1007B0008B422360626014605C60A66002D09A681D
:1007C000961B9E60F8BD0348FFF7B2FFE3E700BF4A
:1007D0003C0D0020802B0008AFF30080AFF30080B9
:1007E00010B50446FFF73CFF84B1E36893B123687A
:1007F0000A4A934203D09968A2688A189A6062688C
:10080000002113602368E1605A6010BD0448FFF7BF
:100810008FFFEAE70348FFF78BFFE8E73C0D002076
:10082000902B0008A02B0008AFF30080AFF30080EE
:1008300040F64C53C2F2000300229A6014225B601F
:100840001B609A615B611B61704700BFAFF3008062
:1008500010B590F820300446D3F1010238BF0022D1
:100860000E2B14BF134642F001037BB90022094B43
:10087000A16884F820201B689A688A42FBD25A68D3
:100880002360626014605C60204610BD0248FFF780
:100890004FFFEBE74C0D0020C02B0008AFF30080AA
:1008A00008B590F820300D2B11D8DFE803F01510B3
:1008B0001007100B101010101010100B836A9A689C
:1008C00001329A60436802681A60026853604FF010
:1008D000FF338362FFF7BCFF08BD00BFAFF30080AA
:1008E00070B5104C0646FFF7D3FEE569142185F874
:1008F0002060236828461A68A1610121546083F8AA
:1009000020102260E361FFF7EBFEEA69ADF12403FA
:100910009A4202D90448FFF70BFFE0692946FFF726
:10092000F7FC70BD4C0D0020D42B0008AFF3008005
:10093000F0B50F4687B00546FFF7AAFEB7F1FF3FB7
:1009400013D00C4C01AEE36939460B4A3046FFF731
:100950000FFF2846FFF7C4FF049B13B13046FFF793
:100960003FFFE369986A07B0F0BD2846FFF7B8FF7C
:10097000004CF6E74C0D0020A1080008AFF3008002
:1009800070B5144D04460E46FFF782FEE869A26872
:100990008368A6629A4214D9FFF75AFF01230646DC
:1009A00084F820301423AB61EC61FFF799FEF26903
:1009B000ADF124039A4208D820463146FFF7A8FC3F
:1009C00070BD2046FFF744FFFAE70348FFF7B0FE8B
:1009D000F2E700BF4C0D0020D42B0008AFF30080DD
:1009E00038B50F4C14212368E5691A68A16101210B
:1009F000546083F8201028462260E361FFF728FF47
:100A00002846FFF76DFEEA69ADF124039A4202D948
:100A10000448FFF78DFEE0692946FFF779FC38BDF1
:100A20004C0D0020D42B0008AFF30080AFF3008002
:100A300000234FF0020C40F64C52C2F2000280F844
:100A400020C080F82130D2F814C070B400F1300416
:100A500000F12C0600F1480502618160C0F814C065
:100A6000416450610364C36343628361CCF8100046
:100A7000C66244630463C56170BC7047AFF3008015
:100A8000F8B504460D461F461646FFF7E9FDD4F1BA
:100A9000010338BF0023AF2D98BF43F0010343B9D2
:100AA0007F2E94BF00230123002F08BF43F00103D2
:100AB00013B11548FFF73CFE243D06986119E1602B
:100AC0004860124800230862114A0221675184F8E5
:100AD000201084F82130506904F1300104F12C0514
:100AE00004F1480C22616061A6606664546123646D
:100AF0000461E3636362A361E56261632163C4F837
:100B00001CC02046F8BD00BFF02B000821030008E0
:100B10004C0D0020AFF30080AFF30080AFF30080F6
:100B2000F0B50D4616461F4683B0044600F1480254
:100B30000346FF2103F8011B9342FBD163199A423C
:100B400004D2552102F8011B9A42FBD1202383F3E2
:100B50001188FFF7CDFCDDF820C03B463246294620
:100B60002046CDF800C0FFF78BFF00210446FFF7B9
:100B700007FFFFF7D5FC002383F31188204603B05D
:100B8000F0BD00BFAFF30080AFF30080AFF3008093
:100B900010B5044610B90948FFF7CAFD202383F3B6
:100BA0001188FFF7A5FC21460620FFF7C1FEFFF7DD
:100BB000B7FC002383F3118810BD00BF302C000860
:100BC000114A38B5D4690346254655F82C0FA3625F
:100BD000A84206D00368E362FFF73AFEE06AA84243
:100BE000F8D194F8213013F0030F01BF2269636933
:100BF0001A61226908BF53610E20FFF771FE034896
:100C0000FFF796FD38BD00BF4C0D0020402C0008BA
:100C100010B52023044683F31188FFF769FC2046B2
:100C2000FFF7CEFF10BD00BFAFF30080AFF3008031
:100C300010B5044620B1002364602460A36010BD99
:100C40000148FFF775FDF6E7802C0008AFF3008040
:100C500038B53D4B0546DC69FFF71AFD002D6FD016
:100C6000A868002867D0A26883689A4208D990F8DB
:100C700020308260042B42D0052B2AD0002B1DD0BF
:100C80002B461B689D4203D09968A2689142F8D216
:100C90005A682360626004205C601460A562FFF7FC
:100CA0001FFEAB68A34202D02848FFF741FD236C2A
:100CB000AB4202D02648FFF73BFD38BD43680268CF
:100CC00001211A60026880F820105360FFF7C0FD10
:100CD000D6E741680368D0F828C00B60D0F800E080
:100CE0006346CEF804101B689C4502D09968914277
:100CF000F9D25A680360426010605860C0E74168EA
:100D00000368D0F828C00B60D0F800E06346CEF846
:100D100004101B689C4502D099688A42F9D95A6828
:100D20000360426010605860DCF80800A2688368C5
:100D300093429CD3A4E7236CAC60EB602564BCE7D2
:100D40000448FFF7F5FC8BE74C0D0020A02C0008B1
:100D5000B42C0008902C0008AFF30080AFF30080A3
:100D600010B52023044683F31188FFF7C1FB20460A
:100D7000FFF76EFFFFF7D4FB002383F3118810BD4C
:100D80001E4A38B5D569202383F31188FFF7B0FBDD
:100D90002C6C002C2CD0A368AB4203D01848FFF772
:100DA000C7FC2C6C2068E368A0422B641DD0696CE2
:100DB0004BB11A689A4203D09268914238BF1146EB
:100DC000DB68002BF5D10368026CA9602360002169
:100DD0005C60A060E2600464FFF7D2FDFFF7A0FB57
:100DE000002383F31188204638BD0023A360F5E774
:100DF0000448FFF79DFC2C6CCDE700BF4C0D002094
:100E0000F02C0008DC2C0008AFF30080AFF300806A
:100E100038B504460D46FFF723FC002C1CD0E26BCE
:100E200094F820301543082BE5630CD0092B00D033
:100E300038BDA36A1D40AB42FAD12046FFF708FD3A
:100E400000238362F4E7A36A1D42F1D02046FFF736
:100E5000FFFC00238362EBE70148FFF769FCDEE754
:100E60005C2D0008AFF30080AFF30080AFF300808B
:100E700070B505460E46FFF7F3FB65B12C68AC4232
:100E800008D0A168606846EA0101FFF7C1FF246845
:100E9000AC42F6D170BD0248FFF74AFCEEE700BF56
:100EA000802D0008AFF30080AFF30080AFF3008027
:100EB00008B503464FF0FF3069B1074AD3F804C0C4
:100EC000D2690D2013609362C2F804C05A60CCF856
:100ED0000020FFF72DFD08BD4C0D0020AFF3008072
:100EE0008A184FF0000C40600060C0F808C04161F3
:100EF0008161C1600261C361704700BFAFF30080D0
:100F000038B504460D46FFF7ABFBA269636993420F
:100F100018BFA26818D00132A26003F8015B2269F1
:100F20006361934228BFE368206828BF6361A042E1
:100F300008D0036823605C60FFF78AFC00238362AB
:100F4000184638BD0020FCE7A268002AE3D06FF005
:100F50000300F6E7AFF30080AFF30080AFF300804B
:100F600070B5202382B004460D4683F31188FFF745
:100F7000BFFAE3690BB120469847A6682046294688
:100F800066B9FFF795FF0028F7DA0190FFF7C8FA76
:100F9000334683F31188019802B070BDA369013E06
:100FA000A66013F8015B2269A361934224BFE36842
:100FB000A361FFF7B5FA002383F311882846EBE716
:100FC0002DE9F047044690468A461D46C769002A27
:100FD00038D0202383F31188FFF78AFA00260FB157
:100FE0002046B847D4F8089020462946B9F1000FAA
:100FF0000BD1FFF75DFF0028F4D0FFF791FA4B46C5
:1010000083F311883046BDE8F087A36909F1FF3901
:10101000C4F8089013F8012B0AF806202269A3618E
:10102000934224BFE368A361FFF77AFA002383F3B6
:1010300011880136B045E5D0202383F31188FFF7EE
:1010400057FACCE70148FFF773FBC2E7C02D000851
:1010500001EB020C40600060826041618161C1600F
:10106000C0F810C0C3617047AFF30080AFF30080D9
:10107000F0B5202383B004460D46164683F311884D
:10108000FFF736FAA7682046314667B9FFF710FF29
:101090000028F7DA0190FFF743FA3B4683F3118803
:1010A000019803B0F0BD6369013FA76003F8015BDD
:1010B00022696361934224BFE3686361E3690BB112
:1010C00020469847FFF72CFA002383F3118818462F
:1010D000E7E700BFAFF30080AFF30080AFF300801D
:1010E00038B50446FFF7BCFA6269A3699A4218BF93
:1010F000A26816D00132A26013F8015B2269A361D5
:10110000934228BFE368206828BFA361A04206D0AD
:10111000036823605C60FFF79BFB00238362284623
:1011200038BDA268002AE5D06FF00200F8E700BFE2
:101130002DE9F047044615460E469A46D0F81C8025
:10114000002A40D0202383F31188FFF7D1F900272C
:10115000D4F8089009F1FF33B9F1000F25D0A3604E
:101160003278636903F8012B22696361934224BFDB
:10117000E3686361B8F1000F01D02046C047FFF774
:10118000CFF9002383F31188013715F1FF3517D00C
:101190000136202383F31188FFF7AAF9D4F80890C9
:1011A00009F1FF33B9F1000FD9D120465146FFF7BD
:1011B0007FFE0028CCD0FFF7B3F94B4683F31188AC
:1011C0003846BDE8F0870248FFF7B2FABAE700BF39
:1011D000D42D0008AFF30080AFF30080AFF30080A0
:1011E00042F20001084840F6705240F66C53C2F2D9
:1011F0000001C2F2000220F00700C2F2000321F059
:101200000701106019607047F3140020AFF30080ED
:1012100008B500F03DFB00F0BBF943F28000C0F6DA
:10122000000001F045F800F00BF800F099F800F02C
:1012300007F901F0C5F808BDAFF30080AFF30080F7
:1012400008B500F07DFC08BDAFF30080AFF300806F
:1012500008B500220346012100F1180019705A60F8
:101260009A60DA601A615A61FFF7E2FC08BD00BFBC
:1012700038B504460D46C0B1202383F31188FFF72B
:1012800037F92378013BDBB2012B02D90948FFF77C
:101290004FFA2046656000F093FC02232370FFF7AD
:1012A0003FF9002383F3118838BD0348FFF740FA64
:1012B000E2E700BF002E0008F02D0008AFF3008029
:1012C000F8B504460D461F461646FFF7C9F9D4F196
:1012D000010338BF0023002D08BF43F00103002B9A
:1012E0001ED1002E1CD0012F02D017F0010F17D1F4
:1012F00023789A1E18BF0122042B0CBF002202F093
:10130000010222B1052B02D00748FFF711FA03238F
:10131000A660E76025612370204600F081FCF8BDDF
:101320000248FFF705FAE3E7442E00082C2E0008D8
:10133000F8B51C4607460E461546202383F3118850
:10134000FFF7D6F82346384631462A46FFF7B8FF5E
:10135000FFF7E6F8002383F31188F8BDAFF30080B0
:1013600008B500F025FE08BDAFF30080AFF30080A4
:1013700008B5012203461A70002200F10C005A60E1
:10138000FFF756FC08BD00BFAFF30080AFF300804D
:10139000806BD0F1010038BF00207047AFF30080B0
:1013A0008069D0F1010038BF00207047AFF30080A2
:1013B00070B52023044683F311880026FFF798F8C0
:1013C000A568A660FFF7ACF8334683F3118828467A
:1013D00070BD00BFAFF30080AFF30080AFF30080BB
:1013E00008B51030FFF7ECFD08BD00BFAFF300807B
:1013F00008B510304FF0FF33FFF7E2FD08BD00BF26
:1014000008B53030FFF794FE08BD00BFAFF3008091
:1014100008B530304FF0FF33FFF78AFE08BD00BF3C
:1014200008B51030FFF79CFD08BD00BFAFF300808A
:1014300008B53030FFF71CFE08BD00BFAFF30080D9
:1014400008B500F0BDFE08BDAFF30080AFF300802B
:1014500038B50B4642F660718446C0F6000104467A
:101460004CF8041BC4F804C04FF0000CC4F808C0CA
:101470004FF0010C04F15001154600F1100010224C
:1014800084F80CC0FFF72CFD04F1600104F130007A
:1014900010222B46FFF7DCFD38BD00BFAFF3008004
:1014A00038B504460D46C0B1202383F31188FFF7F9
:1014B0001FF8237B013BDBB2012B02D90948FFF760
:1014C00037F92046294600F0A3FE02232373FFF7D5
:1014D00027F8002383F3118838BD0348FFF728F964
:1014E000E2E700BF0C2F0008002F0008AFF30080D8
:1014F00038B504460D46FFF7B3F8002C20D0A1699B
:1015000039B104F110002946FFF7FAFC00280EDB80
:1015100038BDA368201D43F00403A360FFF7A8FCB7
:1015200004F110002946FFF7EBFC0028F0DAA3686D
:10153000201D43F08003A3600021FFF799FCE7E73B
:101540000148FFF7F5F8DAE7382F0008AFF300801D
:101550004FF48053CEF200035B688360704700BF96
:101560004FF48053CEF2000308495A688368096833
:10157000D31AC2685B1A9342836088BFC36003D8E2
:101580000269934238BF0361704700BF740D0020A9
:1015900030B541F2515287B0C0F6000240F67454A3
:1015A000002301ADC2F20004019241F26152C0F683
:1015B000000228462360039304934FF0FF33029206
:1015C0000593FFF7C5FF029B28469847039B2360BE
:1015D00007B030BDAFF30080AFF30080AFF3008001
:1015E00008B5FEF7FDFF0A4800220368C4F20202B4
:1015F0004FF00F0C1168C2F804C01BB1406801EA3B
:101600000C019847FFF70CF8FEF732FE08BD00BF4B
:10161000780D0020AFF30080AFF30080AFF30080BF
:1016200008B5FEF7DDFF0A4800228368C4F2020213
:101630004FF0F00C1168C2F804C01BB1C068C1F3D0
:1016400003119847FEF7ECFFFEF712FE08BD00BF3E
:10165000780D0020AFF30080AFF30080AFF300807F
:1016600008B5FEF7BDFF0A4800220369C4F2020272
:101670004FF4706C1168C2F804C01BB14069C1F32B
:1016800003219847FEF7CCFFFEF7F2FD08BD00BF2F
:10169000780D0020AFF30080AFF30080AFF300803F
:1016A00008B5FEF79DFF0A4800228369C4F20202D2
:1016B0004FF4704C1168C2F804C01BB1C069C1F38B
:1016C00003319847FEF7ACFFFEF7D2FD08BD00BF1F
:1016D000780D0020AFF30080AFF30080AFF30080FF
:1016E00008B5FEF77DFF0A480022036AC4F2020231
:1016F0004FF4702C1168C2F804C01BB1406AC1F3EA
:1017000003419847FEF78CFFFEF7B2FD08BD00BF0E
:10171000780D0020AFF30080AFF30080AFF30080BE
:1017200008B5FEF75DFF0A480022836AC4F2020290
:101730004FF4700C1168C2F804C01BB1C06AC1F349
:1017400003519847FEF76CFFFEF792FD08BD00BFFE
:10175000780D0020AFF30080AFF30080AFF300807E
:1017600008B5FEF73DFF0A480022036BC4F20202EF
:101770004FF0706C1168C2F804C01BB1406BC1F32C
:1017800003619847FEF74CFFFEF772FD08BD00BFEE
:10179000780D0020AFF30080AFF30080AFF300803E
:1017A0000C49002310B4DFF830C00C4C0B601A4613
:1017B0001946E0580C3301604CF802100832542BE3
:1017C000F7D10023C4F202034FF0FF325A6010BC7D
:1017D000704700BFB00D0020780D0020D02F00080A
:1017E0002DE9F041044684B000283BD094F809C0AC
:1017F000012505FA0CF8204E376818EA070F18BFC4
:1018000028462CD11D4848EA070700EBCC0517F005
:101810007F0F6B6018BF4FF48053376018BFC4F25E
:10182000020340F83C2018BF58694FF00F0C1CBF52
:1018300040F001005861237A60680CFA03FC2368C9
:1018400000251E6826F001061E60C0F800C01D605D
:10185000104622B1A07A0901FEF772FD284604B0B5
:10186000BDE8F0810648039102920193FEF760FF04
:10187000019B029A0399B9E7B00D0020780D002072
:10188000902F0008AFF30080AFF30080AFF300802B
:1018900008B54FF48053C4F2020300214FF0FF302B
:1018A000D3F810C04EF2100218611961D3F80CE0A1
:1018B000CEF20002D8604BF67F30D9604EF6F05C75
:1018C000506007209160CEF2000C1060DCF80C2014
:1018D0004FF4805042F08072CCF80C20CEF2000021
:1018E000D0F800C04FF4E0424CF0010CC0F800C04A
:1018F000D869C4F2000240F08050D861D86940F045
:101900000060D861106840F4807010601A6A02F4B8
:101910004072B2F5407F1EBF4FF480321A621962E6
:101920004FF48053C4F202031A6A12F4004F07D135
:101930001A6A42F440721A621A6A42F400421A6247
:10194000FFF72EFF08BD00BFAFF30080AFF30080AC
:101950004FF48053C4F202031A68194642F00102A0
:101960001A600A684FF4805312F0020FC4F20203A7
:10197000F7D01A68194602F0F9021A6000225A607C
:101980004A684FF4805312F00C0FC4F20203F7D1EF
:101990001A68194642F480321A600A684FF480537C
:1019A00012F4003FC4F20203F7D05A68194642F419
:1019B000A0225A601A6842F080721A600A684FF4D6
:1019C000805312F0007FC4F20203F7D04FF4C841F5
:1019D000C0F205014FF400525960C4F20202102116
:1019E000116059681A4641F002015960536803F0CA
:1019F0000C03082BFAD17047AFF30080AFF30080DF
:101A000011F0080F70B50D46044630D0C36A4FF090
:101A10000F0E197A1A680EFA01FE01691568D3F8DB
:101A200004C0806ACB6825F0010500211560CCF860
:101A300000E0816033B10522227020469847237868
:101A4000052B6FD000252561202383F31188FEF735
:101A500087FD606928B14FF0FF3365618362FEF74F
:101A6000F7FEFEF79DFD002383F3118870BD11F092
:101A7000040F06D003699B681BB1C26881685208D5
:101A8000984715F0020FF1D021690A68002A39D170
:101A9000E36A0F2593F808C0186805FA0CF5066884
:101AA000D3F804E0D4F828C08B6826F0010606605D
:101AB000CEF80050CCF80820002B36D0E268042085
:101AC000012A207038D98988520801FB02F1A068E8
:101AD00000EB4101204698472378042B25D00025B0
:101AE0002561202383F31188FEF73AFD606918B160
:101AF00065618562FEF7ACFEFEF752FD002383F3BD
:101B00001188B3E78B68002BB0D0E268012A0FD9A7
:101B10008988520801FB02F1A06800EB41012046D0
:101B20009847A3E7022323708CE702232370D6E7AC
:101B3000A1682046984799E7A16820469847CBE7D7
:101B400010B51D4C2046FFF783FB42F28A534FF439
:101B500080522363C4F20202906918494FF4105373
:101B6000C4F2010340F40070E162A36290610022BC
:101B70005A6001229A60092219469A608A684FF4D5
:101B8000105312F0080FC4F20103F7D105229A6036
:101B900019468B684FF4105213F00403C4F201028B
:101BA000F7D14FF480519360C4F202018B6923F4A2
:101BB00000738B6110BD00BFB40D0020D02F000852
:101BC00038B503780446012B00D038BD114DA8422A
:101BD00004D0A36A00225A609A60F6E7C06A052121
:101BE0000D4A2346FFF7FCFD78B9EB6A42F24C42FE
:101BF0001968C4F201024FF480538A60C4F20203F0
:101C00009A6942F400729A61E3E70448FEF790FD96
:101C1000EBE700BFB40D0020011A000830300008C7
:101C200003692DE9F0051968026B09B142F0200241
:101C3000C168C46A01298ABF9D889D884D43D0F838
:101C400008C0216888BF42F00402D3F81480C1F8AC
:101C50000CC04D600A601E690F68826AD3F818A034
:101C6000DD691C6AD3F824C0986A48F4807343F095
:101C7000030347F0010746F480760F6056609360D7
:101C8000C2F80CA01561D462C2F830C050639360F2
:101C9000BDE8F005704700BFAFF30080AFF30080F0
:101CA000F8B5634CFEF79CFC256B94F834302A8B16
:101CB000AE8A92B2B6B2CBB9022346EA024222F011
:101CC0007F42C0F203039A426ED054D80123C0F27F
:101CD00003039A4201D1238C2B8216F00A0F18BFFE
:101CE0002B8BFEF79DFCFEF7C3FAF8BD16F00A0F2A
:101CF00005D0AE8A00232A8BB6B22364236516F082
:101D0000800F0CD0236DA26C216CD05CE26C01338F
:101D100091422882236502D3454B00221A6516F0B2
:101D2000400F0BD0226C288AA16B531C8854E26BA5
:101D30002364934202D33E4B00221A6416F0100F24
:101D40000AD0AE8A2A88636C92B242F00102B6B21F
:101D50002A800BB13648984716F4806FC1D0AA8A02
:101D6000636D22F480621204120CAA82002BB8D098
:101D70002F489847B5E78223C0F207039A422ED036
:101D80008423C0F207039A42A7D1A36A1B685F6845
:101D9000002F31D02B88228C9BB242F0010243F4F9
:101DA000A06322842B809CE7AB88A26A23F4007393
:101DB0001B0412681B0CAB80136843F00103136013
:101DC000AB889BB243F48053AB805368012B84D81B
:101DD0002B8823F480631B041B0C2B807DE7AB88CE
:101DE000E26A23F400731B0412681B0CAB801368B7
:101DF00043F00103136070E7AA88202322F40072E5
:101E00001204120CAA802A8892B242F400722A802C
:101E100083F31188FEF7A4FBE06918B18762E761DC
:101E2000FEF716FDFEF7BCFB002383F3118854E791
:101E3000E80D0020AFF30080AFF30080AFF3008027
:101E400070B5594DFEF7CCFB2C6B202383F3118822
:101E5000FEF786FBEB6A0F2193F808C01A6801FAB7
:101E60000CFCD2F800E058682EF0010EAB6AC2F804
:101E700000E0C0F800C0187A1A68814010685B68FA
:101E800020F0010010601960FEF78AFB002383F345
:101E90001188A68A16F4807606D0A38A012623F438
:101EA00080731B041B0CA382A38A13F4007F07D04A
:101EB000A38A46F0020623F400731B041B0CA382C2
:101EC00095F834303848002B32D1A38A13F4806F50
:101ED00039D1A38A13F4006F07D0A38A46F008060D
:101EE00023F400631B041B0CA382A38A13F4805FFA
:101EF00007D0A38A46F0100623F480531B041B0C62
:101F0000A382A38A13F4804F07D0A38A46F0200649
:101F100023F480431B041B0CA382A38A1BB2002B57
:101F200025DB002E29D1FEF77BFBFEF7A1F970BD62
:101F3000A28A436D22F480621204120CA282002B4A
:101F4000C7D09847C5E7A38A46F0040623F4806308
:101F50001B041B0CA382A38823F400731B041B0C1B
:101F6000A38023889BB243F400732380B1E7A38A44
:101F700046F040065B045B0CA382AE60202383F333
:101F80001188FEF7EDFAE86938B1074B0022DA61F3
:101F90006FF001038362FEF75BFCFEF701FB002399
:101FA00083F31188BFE700BFE80D0020AFF3008086
:101FB00010B540F6E854C2F200042046FFF7D8F905
:101FC000064B4FF4A842C4F20002A3F10C0100201A
:101FD000E0612263A362E16210BD00BF1830000817
:101FE0004FF46053C4F201039A8992B242F0800226
:101FF0009A817047AFF30080AFF30080AFF30080A9
:102000004FF48843C4F200039A8992B242F08002EE
:102010009A817047AFF30080AFF30080AFF3008088
:102020002DE9F845066F0546B7893488B6F804806F
:10203000A4B214F00F0FBFB21FFA88F826D014F024
:10204000080A18BF4FF0800A14F0010F18BF4AF0B9
:10205000200A14F0020F18BF4AF0400A14F0040FCF
:1020600018BF4AF4807A202383F31188FEF778FAA8
:10207000AB68281D43EA0A0A0021C5F808A0FEF74C
:10208000F7FEFEF78DFA002383F3118814F4807FA6
:102090003AD114F0200F27D117F0800F02D014F09E
:1020A000800F4AD114F0400F1CD0202383F31188F5
:1020B000FEF756FAAB68281D43F01003AB60002111
:1020C000FEF7D6FEFEF76CFA002383F311884FF675
:1020D000BF7307EA0303B381338823F040031B0473
:1020E0001B0C3380BDE8F885202383F31188FEF7AD
:1020F00037FA5FFA88F12846FFF7FAF9FEF750FA47
:10210000002383F31188C7E7202383F31188FEF7A8
:1021100027FAAB68281D43F40073AB600021FEF77B
:10212000A7FEFEF73DFA002383F31188338823F4DA
:1021300080731B041B0C3380ABE7202383F31188CF
:10214000FEF70EFA05F13000FEF7CAFF0028A4BF23
:1021500080B2B08005DBFEF723FA002383F31188F9
:10216000A0E7AB68281D43F00803AB600021FEF731
:102170007FFE27F0C00343F04003B381EBE700BFCD
:1021800008B5FEF72DFA40F64060C2F20000FFF7F6
:1021900047FFFEF745FAFEF76BF808BDAFF3008086
:1021A00008B5FEF71DFA40F6B460C2F20000FFF772
:1021B00037FFFEF735FAFEF75BF808BDAFF3008096
:1021C00038B540F64065C2F2000541F6E172C0F64E
:1021D00000022846002140F6B464FFF739F9C2F244
:1021E000000442F201024FF46053C4F20103C0F64E
:1021F0000002204600212B67FFF72AF94FF488439D
:10220000C4F20003236738BDAFF30080AFF3008052
:1022100038B5244A037B0C46002908BF1446012B1D
:1022200005461FD021684FF4D852C0F2B7022B6F79
:10223000B2FBF1F292B21A81A288E088218942F4BD
:10224000045242F02C0292B240F0400041F00101F1
:102250009A8180B2002289B2188299821A801A88E3
:102260009B8838BD104B98420FD0104B9842D9D163
:102270004FF48053C4F20203DA69262042F400329C
:10228000DA61C021FEF75CF8CCE74FF48053C4F26A
:1022900002039A69252042F480429A61C021FEF728
:1022A0004FF8BFE750300008400E0020B40E002069
:1022B0004FF48053C4F202039A6942F07D029A619E
:1022C00003684FF40062C4F20102D36081684FF4E6
:1022D000406351604168C4F201031160C2684FF469
:1022E0008051DA604269C4F201015A60D0F810C02E
:1022F0004FF4A052C3F800C08369C4F20102CB605E
:10230000D0F820C04FF4C053C1F804C0D0F81CC0AE
:10231000C4F20103C1F800C0416AD160C16A5160D2
:10232000816A1160026BDA60826B5A60426B1A60DC
:10233000704700BFAFF30080AFF30080AFF30080C1
:10234000032A70B408BF016102D0042A08BF4161AA
:10235000DFF858C000231CF8026008259C461A4686
:102360001C4600E04900120124011B0111F0800FFE
:1023700008BF42F00F024FEA0C1C18BF334311F4A0
:10238000004F0CBF44F00F044CEA060C15F1FF356A
:10239000E8D141680C4044EA0C0CC0F804C0016864
:1023A0000A4042EA0303036070BC704760300008D3
:1023B00008B5FFF7CDFA08BDAFF30080AFF300809A
:1023C000704700BFAFF30080AFF30080AFF3008031
:1023D00008B5FEF71DFFFEF703F800F0B9F800F0AE
:1023E0000FF800F03DFB00F03BF800F049F800F07A
:1023F00047F8FAE7AFF30080AFF30080AFF3008057
:1024000010B54FF40064C4F20104204610210522E7
:10241000FFF796FF202105222046FFF791FF4FF49A
:102420008053C4F20203D9694FF4E84241F00051ED
:10243000D961C4F200024FF00113136010BD00BF58
:10244000018842884FF4E843C4F2000399605A615E
:10245000704700BFAFF30080AFF30080AFF30080A0
:1024600040F6406008B5C2F200000021FFF718F8FE
:1024700008BD00BFAFF30080AFF30080AFF3008072
:1024800010B50A4C00210A48FEF76AFD831C012B97
:10249000C0B2F7D95C2818BF207000210448FEF7AD
:1024A0005FFD831C012BC0B2F4D8EBE7280F00209E
:1024B000500E0020AFF30080AFF30080AFF3008038
:1024C00040F64870C2F20000704700BFAFF30080D2
:1024D0002DE9F845174B184ADB694FF480554FF446
:1024E0004064164F164E9A61C4F201054FF0200A5F
:1024F000C4F201044FF001081248FEF731FC3B68BA
:10250000336013F0010F17BFEA68C5F814A082F01A
:102510002002EA6013F0020F17BFE368C4F81480CA
:1025200083F00103E360FEF72BFC7D20FEF730FB18
:10253000E2E700BF4C0D0020C0300008780F0020FB
:102540007C0F0020680F0020AFF30080AFF3008005
:1025500070B54FF480504FF44064C4F20104202160
:10256000C4F201000126022582B0416106226661A3
:102570006561FFF7E5FE204631460622FFF7E0FEE3
:10258000294606222046FFF7DBFE40F66870C2F2BD
:102590000000FEF74DFB002240F6807042F2D1436E
:1025A0000092C0F600034FF4D8714022C2F200003E
:1025B000FEF7B6FA02B070BDAFF30080AFF3008053
:1025C00010F0010F1FBF4FF48053C4F20103DA680B
:1025D00082F0200218BFDA6010F0020F1FBF4FF424
:1025E0004063C4F20103DA6882F0010218BFDA60C6
:1025F00010F0040F1FBF4FF44063C4F20103DA6808
:1026000082F0020218BFDA60704700BFAFF30080AB
:10261000704700BFAFF30080AFF30080AFF30080DE
:10262000704700BFAFF30080AFF30080AFF30080CE
:1026300070B5DFF8A4E029489EF80040284B0268F6
:1026400061B21B688A189A4234BF0021012182B00E
:102650000260D2F1010538BF002509B32148224AA2
:10266000B0F800C0168840885288CCEB0606121AD3
:1026700003FB06F603FB02F20D4302D064428EF820
:102680000040B6FBF3F1B2FBF3F3C0188C44ADF895
:10269000060001A8ADF804C0FFF7D2FE02B070BD7D
:1026A00035B110480A46B0F800C00E464088E3E74E
:1026B0000C48DFF834E0B0F800C0BEF80060408895
:1026C000BEF802E0CCEB0606C0EB0E0E02FB06F6EF
:1026D00002FB0EF2D5E700BF0408002030110020F5
:1026E0001C080020C0130020C4130020AFF300809A
:1026F00038B50C4C0C4A23681268013393422360AE
:102700000BD00A4D2A68934206D30948FFF798FE7A
:1027100022682B68D31A236038BD0648FFF790FE65
:10272000FAE700BF981300201008002014080020CA
:102730007012002074120020AFF30080AFF300800D
:102740000B4A0C491368096801338B4210B51360BA
:102750000CD3094C2046FFF773FE084B2188628892
:102760001960074B1A60074B00221A7010BD00BF9A
:102770006C120020180800203411002000080020EE
:102780000C08002058120020AFF30080AFF3008047
:1027900000B540F6000240F60C03C2F20002C2F29D
:1027A000000383B012881B8801A8ADF80420ADF89F
:1027B0000630FFF745FE03B000BD00BFAFF3008059
:1027C00010B5FFF77DFE4178037841F2C032C2F2C6
:1027D000000203EB0123138090F803C0817841F2DB
:1027E000C43301EB0C21518041790279C2F200031C
:1027F00002EB01221A8090F807C0827940F61C0192
:1028000002EB0C225A80827A447A037A120490F8FE
:102810000BC002EB0420C018C2F2000141F23012DA
:1028200000EB0C60C2F2000240F6040308600021D5
:10283000C2F20003116001221A7010BDAFF30080D4
:1028400038B5FFF73DFE4178027841F27023C2F2BD
:10285000000302EB01221A8090F803C0817840F651
:10286000100201EB0C21598090F806C044790379DD
:102870004FEA0C4CC1790CEB042C9C440CEB016C22
:10288000C2F20002C2F800C0417A027A41F2742317
:10289000C2F2000302EB01221A80C47A817A40F668
:1028A000140201EB04215980817B457B047B0904E0
:1028B000C37B01EB0521091901EB036141F2983358
:1028C0006144C2F20002C2F200031160196038BD17
:1028D00038B5FFF7F5FD4278037841F25C25C2F286
:1028E000000503EB02232B80C2788378044603EBB8
:1028F000022328466B80FFF7A3FD40F60002C2F2D8
:1029000000026888B5F800C041F23411158840F61D
:102910000C03C2F20001C2F200030D801D88C2F850
:1029200000C018604D80A179627923790904E079AB
:1029300001EB0221C91840F61802C2F2000241F26E
:102940006C2301EB0061C2F20003116000221A60E7
:1029500038BD00BFAFF30080AFF30080AFF300805D
:1029600008B5FFF7ADFD4178027840F6000302EBB1
:102970000122C2F200031A60C178827840F60C038B
:10298000C2F2000302EB01221A6008BDAFF300801F
:10299000F8B5294C04200E46284DFFF711FE237888
:1029A00005EBC3035B689847254B26491A680968FD
:1029B00001328A421A6017DA202383F31188FDF767
:1029C000CFFD2148FEF78CFBC61C18BF012606B1BF
:1029D0002070FDF7E5FD002383F311881EB12378F5
:1029E00055F833309847F8BD521A1A60202383F304
:1029F0001188FDF7B5FD37881448F9B2FEF780FA63
:102A0000390A1248FEF77CFA77881148F9B2FEF7C6
:102A100077FA390A0E48FEF773FAB6880D48F1B214
:102A2000FEF76EFA310A0B48FEF76AFAFDF7B8FDB9
:102A3000002383F31188BFE758120020D03000082C
:102A4000C814002008080020CC14002038110020F1
:102A5000781300209C130020AFF30080AFF30080B8
:102A600041F2CC4041F2BC3110B504220023C2F245
:102A70000000C2F20001FEF7EBFA41F2381041F219
:102A800058110023C2F20000C2F200014FF480721C
:102A9000FEF726FA41F2783041F2C8310023C2F243
:102AA0000000C2F200014FF48072FEF719FA41F201
:102AB0009C3041F278210023C2F20000C2F20001F2
:102AC0004FF48072FEF70CFA40F6B4544FF4805085
:102AD0000522C2F20004C4F201004FF4E051FFF7F6
:102AE0002FFC00212046FEF7C3FB43F2001141F208
:102AF0006022C0F60001C2F2000220460223FEF767
:102B000017FC10BDAFF30080AFF30080AFF300807F
:102B100069646C65000000006D61696E0000000072
:102B200053562331000000005356233200000000AA
:102B30005356233300000000535623340000000096
:102B40005356233500000000535623360000000082
:102B5000535623370000000053562338000000006E
:102B60005356233900000000535623313000000033
:102B70005356233131000000000000000000000027
:102B800022636856545365744922282900000000C6
:102B900022636856545265736574492228290000DF
:102BA0006368565452657365744928292C20233173
:102BB0000000000000000000000000000000000015
:102BC000636853636852656164794928292C20231E
:102BD00031000000737461636B206F766572666C00
:102BE0006F770000000000000000000000000000FF
:102BF00022636854686443726561746549222829B8
:102C00000000000022636854686453657450726960
:102C10006F72697479222829000000006368546883
:102C200064526573756D6528292C202331000000DE
:102C3000226368546864536C65657022282900001B
:102C40006368546864457869745328292C202331BB
:102C50000000000022636854686457616974222888
:102C60002900000063685468645761697428292C3E
:102C700020233100000000000000000000000000E0
:102C80002263684D7478496E697422282900000017
:102C90002263684D74784C6F636B532228290000BF
:102CA00063684D74784C6F636B5328292C20233153
:102CB0000000000063684D74784C6F636B532829E3
:102CC0002C202332000000002263684D7478547277
:102CD000794C6F636B5322282900000063684D74A0
:102CE00078556E6C6F636B28292C2023310000000F
:102CF00063684D7478556E6C6F636B28292C2023A4
:102D00003200000063684D7478556E6C6F636B53CE
:102D100028292C202331000063684D7478556E6C8F
:102D20006F636B5328292C20233200000000000021
:102D300022636845767452656769737465724D6184
:102D4000736B222829000000226368457674556E53
:102D50007265676973746572222829002263684569
:102D600076745369676E616C49222829000000005F
:102D70002263684576745369676E616C2228290066
:102D800022636845767442726F6164636173744D47
:102D900061736B492228290022636845767444696F
:102DA00073706174636822282900000063684576A7
:102DB00074446973706174636828292C202331007E
:102DC00022636849515265616454696D656F757419
:102DD000222829002263684F51577269746554692B
:102DE0006D656F7574222829000000000000000046
:102DF0002261646353746172742228290000000008
:102E0000616463537461727428292C20233100009B
:102E10002261646353746F702228290061646353D4
:102E2000746F7028292C2023310000002261646314
:102E30005374617274436F6E76657273696F6E4915
:102E4000222829006164635374617274436F6E7643
:102E5000657273696F6E4928292C202331000000A8
:102E60002261646353746F70436F6E766572736929
:102E70006F6E22282900000061646353746F7043F1
:102E80006F6E76657273696F6E28292C202331006E
:102E90002261646353746F70436F6E7665727369F9
:102EA0006F6E49222829000061646353746F704378
:102EB0006F6E76657273696F6E4928292C202331F5
:102EC00000000000616463436F6E766572742829A8
:102ED0002C2023310000000022616463416371757E
:102EE00069726542757322282900000022616463BB
:102EF00052656C6561736542757322282900000074
:102F000022736453746172742228290073645374A9
:102F100061727428292C202331000000227364532D
:102F2000746F702228290000736453746F7028290D
:102F30002C20233100000000227364496E636F6D02
:102F4000696E6744617461492228290022736452C2
:102F500065717565737444617461492228290000A4
:102F600011140008F113000891130008A1130008C0
:102F7000311400082114000801140008E1130008AE
:102F8000B113000800000000000000000000000075
:102F900022646D61416C6C6F636174652228290045
:102FA00022646D6152656C65617365222829000099
:102FB000646D6152656C6561736528292C2023312D
:102FC0000000000000000000000000000000000001
:102FD000080002400400024000000B001C000240F8
:102FE0000400024004010C003000024004000240D2
:102FF00008020D0044000240040002400C030E00D1
:10300000580002400400024010040F006C0002400F
:103010000400024014051000800002400400024039
:103020001806110000000000000000000000000071
:103030006164635F6C6C645F737461727428292CC3
:10304000202331000000000000000000000000000C
:10305000802500000000004000000000000000008B
:1030600004020408080003070808080808080808FC
:103070000B0F000000000000000000000000000036
:10308000FFFFFFFF4444444444444444FFFFFFFF28
:103090004444444444444444FFFFFFFF4444444404
:1030A00044444444FFFFFFFF4444444444444444F4
:1030B000FFFFFFFF888888888888888800000000D4
:1030C0006C64000000000000000000000000000030
:1030D0006129000891270008D1280008412700082D
:1030E00041280008F1260008C12700083126000801
:1030F0001126000821260008000000000000000042
:1031000001000000030000009129000800000000F9
:103110000000000000000000DB00000000000000D4
:0C31200000002000000000006A310000E8
:10313000FF0700000100000010270000FF0700004B
:10314000E8030000D0070000E8030000E8030000E7
:0400000508000111DD
:00000001FF
