:020000040800F2
:100000000004002011010008E1010008E1010008DE
:10001000E1010008E1010008E1010008E101000838
:10002000E1010008E1010008E101000811020008F7
:10003000E1010008E1010008E1010008E102000817
:10004000E1010008E1010008E1010008E101000808
:10005000E1010008E1010008E1010008E1010008F8
:10006000E1010008E1010008E1010008510D00086C
:10007000910D0008D10D0008110E0008510E000866
:10008000910E0008D10E0008E1010008E10100080E
:10009000E1010008E1010008E1010008E1010008B8
:1000A000E1010008E1010008E1010008E1010008A8
:1000B000E1010008E1010008E10100084111000828
:1000C000E1120008E1010008E1010008E101000877
:1000D000E1010008E1010008E1010008E101000878
:0C00E000E1010008E1010008E101000856
:1000F000704700BFAFF30080AFF30080AFF3008024
:10010000FEE700BFAFF30080AFF30080AFF30080E5
:1001100072B6244A82F30988022383F31488BFF35A
:100120006F8F214B21498B4205D24FF0553043F858
:10013000040B8B42FBD31E4B934205D24FF055313B
:1001400043F8041B9342FBD301F0E2F9194B1A4820
:10015000834206D2194A52F8041B43F8041B834217
:10016000F9D3174B174A934204D2002143F8041BDA
:100170009342FBD3144D154CFFF7BAFFAC4204D2A7
:1001800054F8043B9847AC42FAD3114D114C01F09E
:10019000CFF9AC4204D254F8043B9847AC42FAD3AE
:1001A000FFF7AEFF00080020000000200004002040
:1001B000000400200008002000080020101800089B
:1001C00000080020200E0020EC000008EC000008D1
:1001D000EC000008EC000008AFF30080AFF30080F3
:1001E000FEE700BFAFF30080AFF30080AFF3008005
:1001F00072B6FEE7AFF30080AFF30080AFF300808C
:1002000000F04EF900F0C4FB00F062F900DF00BF1F
:10021000EFF30983203383F30988002383F31188E4
:10022000704700BFAFF30080AFF30080AFF30080F2
:1002300008B500224FF46D43CEF20003C0F2FA522B
:10024000002199600720DA60102100F079F80A2077
:100250004FF4007100F074F80B20802100F070F86A
:1002600008BD00BFAFF30080AFF30080AFF30080A4
:10027000202383F311884FF46D43CEF200035B68B3
:1002800013F4006316D0EFF30983203B83F309884E
:10029000104A4FF080709169D86171B11168D269CC
:1002A00089689268914294BF002201227AB10A4A79
:1002B0009A6101E083F3118870471168D2698968F7
:1002C0009268914234BF00220122002AEFD1034AF2
:1002D0009A61F1E72C0D0020010200080C020008D1
:1002E00008B500F055F9202383F3118800F010F9C8
:1002F00000F08EF800F02CF9002383F3118800F051
:1003000067F9FFF7B5FF08BDAFF30080AFF30080DA
:100310002DE9F04FC1F80CD0D0F80CD0BDE8F08F2B
:1003200008B500F0D5F8002383F311882846A047CC
:1003300000F046FC08BD00BFAFF30080AFF30080C3
:1003400000F0030310B4DB00FF249C4011FA03F318
:1003500080084FF46D42CEF20002063052F820C001
:100360002CEA040141EA030342F8203010BC704734
:10037000024B034ADB699A61FEE700BF2C0D0020A7
:1003800050150008AFF30080AFF30080AFF300809A
:1003900030B583B0FFF74CFF00F022FA00F0B0F95F
:1003A00000F02EFC00F064F940F600004021C2F29B
:1003B000000000F015FB40F62C5440F20043C2F25E
:1003C0000003C2F200040125E06180F82050C361FF
:1003D00000F04EF8002383F3118862B641F25851C1
:1003E000E269C0F60001916140F64800002240F247
:1003F00071330092C0F60003C0212A46C2F2000009
:1004000000F066FB03B030BDAFF30080AFF30080B7
:1004100070B500F0FDF8114B9A69002A01DD013A30
:100420009A61DB690E4C596A226801315962E368AE
:100430000133A242E3600FD09568013D95605DB93C
:1004400026461168D3681069D5604E6021609847D0
:1004500022689368002BF4D070BD00BF2C0D0020E3
:100460001C0D0020AFF30080AFF30080AFF30080DD
:1004700008B5064B1B6813B9054B1B6823B1054A29
:10048000054B1A60FFF7B4FE08BD00BF0809002045
:10049000140D002070150008180D0020AFF3008027
:1004A000074B10B51B68074C13B9064C236823B1E2
:1004B000054A064B1A60FFF79BFE0123236010BD1F
:1004C00008090020140D002078150008180D0020E0
:1004D000084B10B51B68084C33B9074C2368002B38
:1004E00002DD0023236010BD044A054B1A60FFF7AC
:1004F0007FFEF6E708090020140D00208015000893
:10050000180D0020AFF30080AFF30080AFF3008040
:10051000084B10B51B68002BD8BF074C02DD064CFA
:10052000236823B1054A064B1A60FFF761FE0123D9
:10053000236010BD08090020140D00208815000854
:10054000180D0020AFF30080AFF30080AFF3008000
:10055000094B10B51B68002BD8BF084C06DD074CB3
:100560002368002B02DD0023236010BD044A054BE5
:100570001A60FFF73DFEF6E708090020140D002081
:1005800090150008180D0020AFF30080AFF3008035
:1005900010B5202383F31188094C2368002B02DB5C
:1005A000084A12682AB1084B084A1A60FFF720FE71
:1005B000236801332360002383F3118810BD00BF3B
:1005C00008090020140D0020180D002098150008BF
:1005D00010B5202383F31188094C2368002B02DD1A
:1005E000084A12682AB1084B084A1A60FFF700FE51
:1005F0002368013B2360002383F3118810BD00BFF3
:1006000008090020140D0020180D0020A015000876
:1006100008B5074B1B68002B04DB064B1B68002B3F
:1006200000DD08BD044A054B1A60FFF7E1FDF8E75D
:1006300008090020140D0020A8150008180D00203E
:1006400008B5074B1B6823B9064B1B68002B00DD60
:1006500008BD054A054B1A60FFF7CAFDF8E700BF61
:1006600008090020140D0020B0150008180D002006
:1006700040F60C13C2F200031A46402142F8081B50
:100680005A607047AFF30080AFF30080AFF3008093
:1006900070B40D4A0D495368CE680D49846ACD691E
:1006A00090F820C003F1100102F5816081421E60C4
:1006B0005D609C6083F80CC028BF02F108035160A4
:1006C00028BF536070BC70470C0900201C0D00202F
:1006D0002C0D0020AFF30080AFF30080AFF300805B
:1006E00008B540F61853C2F200031860FFF780FD0A
:1006F00008BD00BFAFF30080AFF30080AFF3008010
:1007000040F61C53C2F200034FF0FF329A60002201
:100710005B601B60DA607047AFF30080AFF300806E
:10072000F8B5044615461F460E46FFF771FFD4F193
:10073000010338BF0023002D08BF43F00103002B45
:1007400019D1002E17D00E4927610B68E5609A6811
:10075000964204D91B68B61A9A68B242FAD35A680C
:100760008B422360626014605C60A66002D09A686D
:10077000961B9E60F8BD0348FFF7B2FFE3E700BF9A
:100780001C0D0020C0150008AFF30080AFF30080FF
:1007900010B50446FFF73CFF84B1E36893B12368CA
:1007A0000A4A934203D09968A2688A189A606268DC
:1007B000002113602368E1605A6010BD0448FFF710
:1007C0008FFFEAE70348FFF78BFFE8E71C0D0020E7
:1007D000D0150008E0150008AFF30080AFF30080EB
:1007E00040F62C53C2F2000300229A6014225B6090
:1007F0001B609A615B611B61704700BFAFF30080B3
:1008000010B590F820300446D3F1010238BF002221
:100810000E2B14BF134642F001037BB90022094B93
:10082000A16884F820201B689A688A42FBD25A6823
:100830002360626014605C60204610BD0248FFF7D0
:100840004FFFEBE72C0D002000160008AFF30080EF
:1008500008B590F820300D2B11D8DFE803F0151003
:100860001007100B101010101010100B836A9A68EC
:1008700001329A60436802681A60026853604FF060
:10088000FF338362FFF7BCFF08BD00BFAFF30080FA
:1008900070B5104C0646FFF7D3FEE569142185F8C4
:1008A0002060236828461A68A1610121546083F8FA
:1008B00020102260E361FFF7EBFEEA69ADF124034B
:1008C0009A4202D90448FFF70BFFE0692946FFF777
:1008D0001FFD70BD2C0D002014160008AFF3008022
:1008E000F0B50F4687B00546FFF7AAFEB7F1FF3F08
:1008F00013D00C4C01AEE36939460B4A3046FFF782
:100900000FFF2846FFF7C4FF049B13B13046FFF7E3
:100910003FFFE369986A07B0F0BD2846FFF7B8FFCC
:10092000004CF6E72C0D002051080008AFF30080C2
:1009300070B5144D04460E46FFF782FEE869A268C2
:100940008368A6629A4214D9FFF75AFF012306462C
:1009500084F820301423AB61EC61FFF799FEF26953
:10096000ADF124039A4208D820463146FFF7D0FC67
:1009700070BD2046FFF744FFFAE70348FFF7B0FEDB
:10098000F2E700BF2C0D002014160008AFF3008022
:1009900038B50F4C14212368E5691A68A16101215B
:1009A000546083F8201028462260E361FFF728FF97
:1009B0002846FFF76DFEEA69ADF124039A4202D999
:1009C0000448FFF78DFEE0692946FFF7A1FC38BD1A
:1009D0002C0D002014160008AFF30080AFF3008048
:1009E00000234FF0020C40F62C52C2F2000280F8B5
:1009F00020C080F82130D2F814C070B400F1300467
:100A000000F12C0600F1480502618160C0F814C0B5
:100A1000416450610364C36343628361CCF8100096
:100A2000C66244630463C56170BC7047AFF3008065
:100A3000F8B504460D461F461646FFF7E9FDD4F10A
:100A4000010338BF0023AF2D98BF43F0010343B922
:100A50007F2E94BF00230123002F08BF43F0010322
:100A600013B11548FFF73CFE243D06986119E1607B
:100A70004860124800230862114A0221675184F835
:100A8000201084F82130506904F1300104F12C0564
:100A900004F1480C22616061A660666454612364BD
:100AA0000461E3636362A361E56261632163C4F887
:100AB0001CC02046F8BD00BF301600082103000806
:100AC0002C0D0020AFF30080AFF30080AFF3008067
:100AD000F0B50D4616461F4683B0044600F14802A5
:100AE0000346FF2103F8011B9342FBD163199A428D
:100AF00004D2552102F8011B9A42FBD1202383F333
:100B00001188FFF7CDFCDDF820C03B463246294670
:100B10002046CDF800C0FFF78BFF00210446FFF709
:100B200007FFFFF7D5FC002383F31188204603B0AD
:100B3000F0BD00BFAFF30080AFF30080AFF30080E3
:100B400010B5044610B90948FFF7CAFD202383F306
:100B50001188FFF7A5FC21460620FFF7C1FEFFF72D
:100B6000B7FC002383F3118810BD00BF7016000886
:100B7000114A38B5D4690346254655F82C0FA362AF
:100B8000A84206D00368E362FFF73AFEE06AA84293
:100B9000F8D194F8213013F0030F01BF2269636983
:100BA0001A61226908BF53610E20FFF771FE0348E6
:100BB000FFF796FD38BD00BF2C0D00208016000801
:100BC00010B52023044683F31188FFF769FC204603
:100BD000FFF7CEFF10BD00BFAFF30080AFF3008082
:100BE00010B5044620B1002364602460A36010BDEA
:100BF0000148FFF775FDF6E7C0160008AFF3008067
:100C000042F20001084840F6505240F64C53C2F2FE
:100C10000001C2F2000220F00700C2F2000321F03E
:100C20000701106019607047270E0020AFF30080A5
:100C300008B500F08DF900F063F841F2D070C0F60D
:100C4000000000F01DFC00F00BF800F021F800F0AF
:100C500067FC08BDAFF30080AFF30080AFF3008006
:100C600008B500F02DFA08BDAFF30080AFF30080A7
:100C700008B500220346012100F1180019705A60DE
:100C80009A60DA601A615A61FFF7AAFF08BD00BFD7
:100C900008B500F0DDFB08BDAFF30080AFF30080C6
:100CA00008B5012203461A70002200F10C005A60B8
:100CB000FFF796FF08BD00BFAFF30080AFF30080E1
:100CC0004FF48053CEF200035B688360704700BF2F
:100CD0004FF48053CEF2000308495A6883680968CC
:100CE000D31AC2685B1A9342836088BFC36003D87B
:100CF0000269934238BF0361704700BF540D002062
:100D000030B540F6C14287B0C0F6000240F65454F8
:100D1000002301ADC2F20004019240F6D142C0F6B8
:100D2000000228462360039304934FF0FF3302929E
:100D30000593FFF7C5FF029B28469847039B236056
:100D400007B030BDAFF30080AFF30080AFF3008099
:100D500008B5FFF71DFC0A4800220368C4F202022E
:100D60004FF00F0C1168C2F804C01BB1406801EAD3
:100D70000C019847FFF72CFCFFF77AFA08BD00BF7B
:100D8000580D0020AFF30080AFF30080AFF3008078
:100D900008B5FFF7FDFB0A4800228368C4F202028F
:100DA0004FF0F00C1168C2F804C01BB1C068C1F369
:100DB00003119847FFF70CFCFFF75AFA08BD00BF74
:100DC000580D0020AFF30080AFF30080AFF3008038
:100DD00008B5FFF7DDFB0A4800220369C4F20202EE
:100DE0004FF4706C1168C2F804C01BB14069C1F3C4
:100DF00003219847FFF7ECFBFFF73AFA08BD00BF65
:100E0000580D0020AFF30080AFF30080AFF30080F7
:100E100008B5FFF7BDFB0A4800228369C4F202024D
:100E20004FF4704C1168C2F804C01BB1C069C1F323
:100E300003319847FFF7CCFBFFF71AFA08BD00BF54
:100E4000580D0020AFF30080AFF30080AFF30080B7
:100E500008B5FFF79DFB0A480022036AC4F20202AC
:100E60004FF4702C1168C2F804C01BB1406AC1F382
:100E700003419847FFF7ACFBFFF7FAF908BD00BF45
:100E8000580D0020AFF30080AFF30080AFF3008077
:100E900008B5FFF77DFB0A480022836AC4F202020C
:100EA0004FF4700C1168C2F804C01BB1C06AC1F3E2
:100EB00003519847FFF78CFBFFF7DAF908BD00BF35
:100EC000580D0020AFF30080AFF30080AFF3008037
:100ED00008B5FFF75DFB0A480022036BC4F202026B
:100EE0004FF0706C1168C2F804C01BB1406BC1F3C5
:100EF00003619847FFF76CFBFFF7BAF908BD00BF25
:100F0000580D0020AFF30080AFF30080AFF30080F6
:100F10000C49002310B4DFF830C00C4C0B601A46AB
:100F20001946E0580C3301604CF802100832542B7B
:100F3000F7D10023C4F202034FF0FF325A6010BC15
:100F4000704700BF900D0020580D0020701700085A
:100F500008B54FF48053C4F2020300214FF0FF3074
:100F6000D3F810C04EF2100218611961D3F80CE0EA
:100F7000CEF20002D8604BF67F30D9604EF6F05CBE
:100F8000506007209160CEF2000C1060DCF80C205D
:100F90004FF4805042F08072CCF80C20CEF200006A
:100FA000D0F800C04FF4E0424CF0010CC0F800C093
:100FB000D869C4F2000240F08050D861D86940F08E
:100FC0000060D861106840F4807010601A6A02F402
:100FD0004072B2F5407F1EBF4FF480321A62196230
:100FE0004FF48053C4F202031A6A12F4004F07D17F
:100FF0001A6A42F440721A621A6A42F400421A6291
:10100000FFF786FF08BD00BFAFF30080AFF300809D
:101010004FF48053C4F202031A68194642F00102E9
:101020001A600A684FF4805312F0020FC4F20203F0
:10103000F7D01A68194602F0F9021A6000225A60C5
:101040004A684FF4805312F00C0FC4F20203F7D138
:101050001A68194642F480321A600A684FF48053C5
:1010600012F4003FC4F20203F7D05A68194642F462
:10107000A0225A601A6842F080721A600A684FF41F
:10108000805312F0007FC4F20203F7D04FF4C8413E
:10109000C0F205014FF400525960C4F2020210215F
:1010A000116059681A4641F002015960536803F013
:1010B0000C03082BFAD17047AFF30080AFF3008028
:1010C00010B51D4C2046FFF7D3FD42F28A534FF472
:1010D00080522363C4F20202906918494FF41053FE
:1010E000C4F2010340F40070E162A3629061002247
:1010F0005A6001229A60092219469A608A684FF460
:10110000105312F0080FC4F20103F7D105229A60C0
:1011100019468B684FF4105213F00403C4F2010215
:10112000F7D14FF480519360C4F202018B6923F42C
:1011300000738B6110BD00BF940D00207017000874
:10114000F8B5634CFFF724FA256B94F834302A8BFA
:10115000AE8A92B2B6B2CBB9022346EA024222F07C
:101160007F42C0F203039A426ED054D80123C0F2EA
:1011700003039A4201D1238C2B8216F00A0F18BF69
:101180002B8BFFF725FAFFF773F8F8BD16F00A0F5F
:1011900005D0AE8A00232A8BB6B22364236516F0ED
:1011A000800F0CD0236DA26C216CD05CE26C0133FB
:1011B00091422882236502D3454B00221A6516F01E
:1011C000400F0BD0226C288AA16B531C8854E26B11
:1011D0002364934202D33E4B00221A6416F0100F90
:1011E0000AD0AE8A2A88636C92B242F00102B6B28B
:1011F0002A800BB13648984716F4806FC1D0AA8A6E
:10120000636D22F480621204120CAA82002BB8D003
:101210002F489847B5E78223C0F207039A422ED0A1
:101220008423C0F207039A42A7D1A36A1B685F68B0
:10123000002F31D02B88228C9BB242F0010243F464
:10124000A06322842B809CE7AB88A26A23F40073FE
:101250001B0412681B0CAB80136843F0010313607E
:10126000AB889BB243F48053AB805368012B84D886
:101270002B8823F480631B041B0C2B807DE7AB8839
:10128000E26A23F400731B0412681B0CAB80136822
:1012900043F00103136070E7AA88202322F4007250
:1012A0001204120CAA802A8892B242F400722A8098
:1012B00083F31188FFF72CF9E06918B18762E761C1
:1012C000FFF79EFAFFF744F9002383F3118854E7F0
:1012D000C80D0020AFF30080AFF30080AFF30080B3
:1012E00070B5594DFFF754F92C6B202383F3118807
:1012F000FFF70EF9EB6A0F2193F808C01A6801FA9C
:101300000CFCD2F800E058682EF0010EAB6AC2F86F
:1013100000E0C0F800C0187A1A68814010685B6865
:1013200020F0010010601960FFF712F9002383F329
:101330001188A68A16F4807606D0A38A012623F4A3
:1013400080731B041B0CA382A38A13F4007F07D0B5
:10135000A38A46F0020623F400731B041B0CA3822D
:1013600095F834303848002B32D1A38A13F4806FBB
:1013700039D1A38A13F4006F07D0A38A46F0080678
:1013800023F400631B041B0CA382A38A13F4805F65
:1013900007D0A38A46F0100623F480531B041B0CCD
:1013A000A382A38A13F4804F07D0A38A46F02006B5
:1013B00023F480431B041B0CA382A38A1BB2002BC3
:1013C00025DB002E29D1FFF703F9FEF751FF70BD91
:1013D000A28A436D22F480621204120CA282002BB6
:1013E000C7D09847C5E7A38A46F0040623F4806374
:1013F0001B041B0CA382A38823F400731B041B0C87
:10140000A38023889BB243F400732380B1E7A38AAF
:1014100046F040065B045B0CA382AE60202383F39E
:101420001188FFF775F8E86938B1074B0022DA61D7
:101430006FF001038362FFF7E3F9FFF789F80023F8
:1014400083F31188BFE700BFC80D0020AFF3008011
:1014500010B540F6C854C2F200042046FFF720FC45
:10146000064B4FF4A842C4F20002A3F10C01002085
:10147000E0612263A362E16210BD00BFB8170008FB
:101480004FF48053C4F202039A6942F07D029A61DC
:1014900003684FF40062C4F20102D36081684FF424
:1014A000406351604168C4F201031160C2684FF4A7
:1014B0008051DA604269C4F201015A60D0F810C06C
:1014C0004FF4A052C3F800C08369C4F20102CB609C
:1014D000D0F820C04FF4C053C1F804C0D0F81CC0ED
:1014E000C4F20103C1F800C0416AD160C16A516011
:1014F000816A1160026BDA60826B5A60426B1A601B
:10150000704700BFAFF30080AFF30080AFF30080FF
:1015100008B5FFF77DFD08BDAFF30080AFF3008095
:10152000704700BFAFF30080AFF30080AFF30080DF
:1015300008B5FFF77DFBFEF72BFF7D20FFF700FBD3
:10154000FBE700BFAFF30080AFF30080AFF3008094
:1015500069646C65000000006D61696E0000000048
:101560005356233100000000535623320000000080
:10157000535623330000000053562334000000006C
:101580005356233500000000535623360000000058
:101590005356233700000000535623380000000044
:1015A0005356233900000000535623313000000009
:1015B00053562331310000000000000000000000FD
:1015C000226368565453657449222829000000009C
:1015D00022636856545265736574492228290000B5
:1015E0006368565452657365744928292C20233149
:1015F00000000000000000000000000000000000EB
:10160000636853636852656164794928292C2023F3
:1016100031000000737461636B206F766572666CD5
:101620006F770000000000000000000000000000D4
:10163000226368546864437265617465492228298D
:101640000000000022636854686453657450726936
:101650006F72697479222829000000006368546859
:1016600064526573756D6528292C202331000000B4
:10167000226368546864536C6565702228290000F1
:101680006368546864457869745328292C20233191
:10169000000000002263685468645761697422285E
:1016A0002900000063685468645761697428292C14
:1016B00020233100000000000000000000000000B6
:1016C0002263684D7478496E6974222829000000ED
:1016D0002263684D74784C6F636B53222829000095
:1016E00063684D74784C6F636B5328292C20233129
:1016F0000000000063684D74784C6F636B532829B9
:101700002C202332000000002263684D747854724C
:10171000794C6F636B5322282900000063684D7475
:1017200078556E6C6F636B28292C202331000000E4
:1017300063684D7478556E6C6F636B28292C202379
:101740003200000063684D7478556E6C6F636B53A4
:1017500028292C202331000063684D7478556E6C65
:101760006F636B5328292C202332000000000000F7
:10177000080002400400024000000B001C00024070
:101780000400024004010C0030000240040002404A
:1017900008020D0044000240040002400C030E0049
:1017A000580002400400024010040F006C00024088
:1017B00004000240140510008000024004000240B2
:1017C00018061100000000000000000000000000EA
:1017D000FFFFFFFF4444444444444444FFFFFFFFF1
:1017E0004444444444444444FFFFFFFF44444444CD
:1017F00044444444FFFFFFFF4444444444444444BD
:0C180000FFFFFFFF8888888888888888A0
:0400000508000111DD
:00000001FF
