:020000040800F2
:10000000000400202106000811070008110700085D
:100010001107000811070008110700081107000860
:100020001107000811070008110700086107000800
:100030001107000811070008110700083107000820
:100040001107000811070008110700081107000830
:100050001107000811070008110700081107000820
:10006000110700081107000811070008E126000821
:1000700041270008A127000801280008612800087E
:10008000C1280008212900081107000811070008ED
:1000900011070008110700081107000811070008E0
:1000A00011070008110700081107000811070008D0
:1000B0001107000811070008110700082137000880
:1000C0004137000811070008110700081107000850
:1000D00011070008F13A0008113B00081107000859
:0C00E000110700081107000811070008B4
:1000F00080F0004002E000BF81F0004142001FBFDD
:100100005FEA410392EA030F7FEA226C7FEA236CE5
:100110006AD04FEA1262D2EB1363C1BFD2184140DA
:1001200048404140B8BF5B42192B88BF704710F070
:10013000004F40F4000020F07F4018BF404211F013
:10014000004F41F4000121F07F4118BF494292EA7B
:10015000030F3FD0A2F1010241FA03FC10EB0C00A7
:10016000C3F1200301FA03F100F0004302D5494234
:1001700060EB4000B0F5000F13D3B0F1807F06D3E1
:1001800040084FEA310102F10102FE2A51D2B1F1D9
:10019000004F40EBC25008BF20F0010040EA0300CE
:1001A0007047490040EB000010F4000FA2F101027B
:1001B000EDD1B0FA80FCACF1080CB2EB0C0200FA05
:1001C0000CF0AABF00EBC25052421843BCBFD04053
:1001D0001843704792F0000F81F4000106BF80F4CD
:1001E00000000132013BB5E74FEA41037FEA226C90
:1001F00018BF7FEA236C21D092EA030F04D092F05B
:10020000000F08BF0846704790EA010F1CBF00208E
:10021000704712F07F4F04D1400028BF40F00040EB
:10022000704712F100723CBF00F50000704700F00B
:10023000004343F0FE4040F4000070477FEA226232
:1002400016BF08467FEA23630146420206BF5FEA03
:10025000412390EA010F40F4800070474FF0000303
:1002600004E000BF10F0004348BF40425FEA000CCA
:1002700008BF704743F0964301464FF000001CE072
:1002800050EA010208BF70474FF000030AE000BFC8
:1002900050EA010208BF704711F0004302D5404206
:1002A00061EB41015FEA010C02BF84460146002078
:1002B00043F0B64308BFA3F18053A3F50003BCFA93
:1002C0008CF2083AA3EBC25310DB01FA02FC634440
:1002D00000FA02FCC2F12002BCF1004F20FA02F247
:1002E00043EB020008BF20F00100704702F120023A
:1002F00001FA02FCC2F1200250EA4C0021FA02F29B
:1003000043EB020008BF20EADC70704700000000E9
:100310004FF0FF0C1CEAD0521EBF1CEAD15392EAE8
:100320000C0F93EA0C0F6FD01A4480EA010C4002C4
:1003300018BF5FEA41211ED04FF0006343EA50101E
:1003400043EA5111A0FB01310CF00040B1F5000F60
:100350003EBF490041EAD3715B0040EA010062F10F
:100360007F02FD2A1DD8B3F1004F40EBC25008BFF9
:1003700020F00100704790F0000F0CF0004C08BF17
:1003800049024CEA502040EA51207F3AC2BFD2F1E4
:10039000FF0340EAC250704740F400004FF00003F2
:1003A000013A5DDC12F1190FDCBF00F0004070472C
:1003B000C2F10002410021FA02F1C2F1200200FA6A
:1003C00002FC5FEA310040F1000053EA4C0308BF31
:1003D00020EADC70704792F0000F00F0004C02BF82
:1003E000400010F4000F013AF9D040EA0C0093F0FD
:1003F000000F01F0004C02BF490011F4000F013B57
:10040000F9D041EA0C018FE70CEAD15392EA0C0FC4
:1004100018BF93EA0C0F0AD030F0004C18BF31F02F
:10042000004CD8D180EA010000F00040704790F005
:10043000000F17BF90F0004F084691F0000F91F0A9
:10044000004F14D092EA0C0F01D142020FD193EA6F
:100450000C0F03D14B0218BF084608D180EA0100F7
:1004600000F0004040F0FE4040F40000704740F0D3
:10047000FE4040F4400070474FF0FF0C1CEAD052A1
:100480001EBF1CEAD15392EA0C0F93EA0C0F69D0FD
:10049000A2EB030280EA010C49024FEA402037D068
:1004A0004FF0805343EA111143EA10130CF000405F
:1004B0008B4238BF5B0042F17D024FF4000C8B424F
:1004C00024BF5B1A40EA0C00B3EB510F24BFA3EB2F
:1004D000510340EA5C00B3EB910F24BFA3EB9103FF
:1004E00040EA9C00B3EBD10F24BFA3EBD10340EA59
:1004F000DC001B0118BF5FEA1C1CE0D1FD2A3FF69F
:1005000050AF8B4240EBC25008BF20F00100704753
:100510000CF0004C4CEA50207F32C2BFD2F1FF03F6
:1005200040EAC250704740F400004FF00003013A27
:1005300037E792F0000F00F0004C02BF400010F4CB
:10054000000F013AF9D040EA0C0093F0000F01F0DF
:10055000004C02BF490011F4000F013BF9D041EA01
:100560000C0195E70CEAD15392EA0C0F08D1420234
:100570007FF47DAF93EA0C0F7FF470AF084676E707
:1005800093EA0C0F04D14B023FF44CAF08466EE7E0
:1005900030F0004C18BF31F0004CCAD130F00042AE
:1005A0007FF45CAF31F000437FF43CAF5FE700BF06
:1005B0004FEA4002B2F1FE4F0FD34FF09E03B3EB70
:1005C00012620DD94FEA002343F0004310F0004FB0
:1005D00023FA02F018BF404270474FF00000704706
:1005E00012F1610F01D1420205D110F0004008BFA5
:1005F0006FF0004070474FF00000704700000000AF
:10060000704700BFAFF30080AFF30080AFF300800E
:10061000FEE700BFAFF30080AFF30080AFF30080D0
:1006200072B640F60004C2F2000484F309884FF069
:10063000020484F31488BFF36F8F40F20004C2F207
:10064000000440F20045C2F2000504E04FF05533CB
:10065000236004F10404AC42F8D340F20044C2F237
:10066000000440F60005C2F2000504E04FF05533E7
:10067000236004F10404AC42F8D303F0C9FB45F64F
:10068000E045C0F6000540F60004C2F2000405E0B3
:100690002B68236004F1040405F1040540F6780397
:1006A000C2F200039C42F3D340F67804C2F2000485
:1006B00041F6C065C2F2000504E04FF0000323607C
:1006C00004F10404AC42F8D3FFF79AFF40F2EC04C3
:1006D000C0F6000403E02368984704F1040440F2E4
:1006E000EC03C0F600039C42F5D303F0A1FB40F2FB
:1006F000EC04C0F6000403E02368984704F1040406
:1007000040F2EC03C0F600039C42F5D3FFF780FFF4
:10071000FEE700BFAFF30080AFF30080AFF30080CF
:1007200072B6FEE7AFF30080AFF30080AFF3008056
:1007300008B500F0D5FA4FF0200383F3118800F0DC
:100740008FFA00F0CDF900F0ABFA4FF0000383F31D
:10075000118800F0F5FA00F043F808BDAFF300800F
:1007600010B483B0EFF309840194019B03F12003DB
:100770000193019B83F309884FF0000383F31188F1
:1007800003B010BC704700BFAFF30080AFF3008030
:1007900008B54FF46D43CEF200034FF000029A60AB
:1007A0004FF46D43CEF200034FF00002C0F2FA5254
:1007B000DA604FF007004FF0100100F0F1F84FF051
:1007C0000A004FF4007100F0EBF84FF00B004FF00F
:1007D000800100F0E5F808BDAFF30080AFF30080C2
:1007E00010B483B04FF0200383F311884FF46D43AE
:1007F000CEF200035B6803F40063002B47D0EFF3F5
:1008000009840194019BA3F120030193019B83F3CD
:100810000988019B4FF08072DA6140F6A453C2F25E
:1008200000039B69002B11D040F6A453C2F20003D1
:100830001B689A6840F6A453C2F20003DB699B6808
:100840009A4294BF00230123DBB210E040F6A45388
:10085000C2F200031B689A6840F6A453C2F2000378
:10086000DB699B689A4234BF00230123DBB2002B73
:1008700006D0019A40F6A103C0F6000393610AE096
:10088000019A40F6AC03C0F60003936103E04FF019
:10089000000383F3118803B010BC7047AFF30080EE
:1008A00000F09EF900F094FD00F0BAF900DF00BFFF
:1008B00003460A462DE9F04FC2F80CD0D3F80CD00D
:1008C000BDE8F08FAFF30080AFF30080AFF300809E
:1008D00008B500F0A5F94FF0000383F3118828460E
:1008E000A04700F0DDFE08BDAFF30080AFF300804D
:1008F00084B001900091019B03F003034FEAC3030E
:1009000003934FF46143CEF20003019A4FEA920041
:100910004FF46142CEF2000201994FEA910101F1D8
:10092000C00152F82110039A4FF0FF0C0CFA02F2AA
:100930006FEA020201EA0201039ADDF800C00CFA34
:1009400002F241EA020100F1C00243F822104FF422
:100950006143CEF20003019A4FEA5212019901F06D
:100960001F014FF0010000FA01F102F1600243F8AB
:1009700022104FF46143CEF20003019A4FEA521263
:10098000019901F01F014FF0010000FA01F143F855
:10099000221004B0704700BFAFF30080AFF30080B7
:1009A00084B001900091019B03F003034FEAC3035D
:1009B00003934FF46D43CEF20003019A4FEA920085
:1009C0004FF46D42CEF2000201994FEA910101F11C
:1009D000060152F82110039A4FF0FF0C0CFA02F2B4
:1009E0006FEA020201EA0201039ADDF800C00CFA84
:1009F00002F241EA020100F1060243F8221004B0BB
:100A0000704700BFAFF30080AFF30080AFF300800A
:100A100082B0019040F6A453C2F20003DA6945F2B5
:100A2000D063C0F600039361FEE700BFAFF3008020
:100A300000B583B0FFF7ACFE00F03AFB00F050FACF
:100A400001F026FB00F0DCF940F63810C2F200009D
:100A50004FF0400100F014FD024640F6A453C2F2EC
:100A60000003DA6140F6A453C2F20003DB694FF0E1
:100A7000010283F8202040F6A453C2F20003DA6991
:100A800040F20043C2F20003D36100F091F84FF04E
:100A9000000383F3118862B640F6A453C2F2000348
:100AA000DA6945F2D863C0F60003936140F611237A
:100AB000C0F600034FF00002009240F67800C2F248
:100AC00000004FF0C0014FF0010200F089FD03B0BB
:100AD00000BD00BFAFF30080AFF30080AFF3008034
:100AE00000B583B000F05CF940F6A453C2F20003F5
:100AF0009B69002B0BDD40F6A453C2F200039B69F7
:100B000003F1FF3240F6A453C2F200039A6140F6AB
:100B1000A453C2F20003DB695A6A02F101025A626D
:100B200040F69453C2F20003DB6803F1010240F681
:100B30009453C2F20003DA6040F69453C2F2000309
:100B40001B681A4640F69453C2F200039A422DD015
:100B500040F69453C2F200031B689A6802F1FF3218
:100B60009A6019E0019BDB680093019B4FF0000243
:100B7000DA60019B1A6840F69453C2F20003536096
:100B8000019B1A6840F69453C2F200031A60019B5D
:100B90001A69009B1046984740F69453C2F200032E
:100BA0001B680193019B9B68002BDBD003B000BD49
:100BB00008B540F68013C2F200031B68002B06D173
:100BC00040F68413C2F200031B68002B05D045F2E7
:100BD000F060C0F6000000F073F908BDAFF30080CC
:100BE00008B540F68013C2F200031B68002B06D143
:100BF00040F68413C2F200031B68002B05D045F2B7
:100C0000F860C0F6000000F05BF940F68413C2F211
:100C100000034FF001021A6008BD00BFAFF300806F
:100C200008B540F68013C2F200031B68002B06D102
:100C300040F68413C2F200031B68002B05DC45F26A
:100C40000070C0F6000000F03BF940F68413C2F2D9
:100C500000034FF000021A6008BD00BFAFF3008030
:100C600008B540F68013C2F200031B68002B06DDB6
:100C700040F68413C2F200031B68002B05D045F236
:100C80000870C0F6000000F01BF940F68413C2F2B1
:100C900000034FF001021A6008BD00BFAFF30080EF
:100CA00008B540F68013C2F200031B68002B06DD76
:100CB00040F68413C2F200031B68002B05DC45F2EA
:100CC0001070C0F6000000F0FBF840F68413C2F28A
:100CD00000034FF000021A6008BD00BFAFF30080B0
:100CE00008B54FF0200383F3118840F68013C2F259
:100CF00000031B68002B06DB40F68413C2F20003DE
:100D00001B68002B05D045F21870C0F6000000F0FB
:100D1000D7F840F68013C2F200031B6803F101020A
:100D200040F68013C2F200031A604FF0000383F311
:100D3000118808BDAFF30080AFF30080AFF30080EF
:100D400008B54FF0200383F3118840F68013C2F2F8
:100D500000031B68002B06DD40F68413C2F200037B
:100D60001B68002B05D045F22070C0F6000000F093
:100D7000A7F840F68013C2F200031B6803F1FF32AC
:100D800040F68013C2F200031A604FF0000383F3B1
:100D9000118808BDAFF30080AFF30080AFF300808F
:100DA00008B540F68013C2F200031B68002B06DB77
:100DB00040F68413C2F200031B68002B05DC45F2E9
:100DC0002870C0F6000000F07BF808BDAFF300808B
:100DD00008B540F68013C2F200031B68002B06D151
:100DE00040F68413C2F200031B68002B05DC45F2B9
:100DF0003070C0F6000000F063F808BDAFF300806B
:100E000040F68813C2F200034FF040021A6040F629
:100E10008813C2F20003014A5A607047900900200B
:100E200082B0019040F68813C2F200035A6840F67F
:100E30009453C2F20003DB68136040F68813C2F2D9
:100E400000035A6840F6A453C2F20003DB69536002
:100E500040F68813C2F200035B68019A926A9A60B6
:100E600040F68813C2F200035B68019A92F82020D2
:100E70001A7340F68813C2F200035B6803F1100294
:100E800040F68813C2F200035A6040F68813C2F29B
:100E900000035A68054B9A4205D340F68813C2F204
:100EA0000003034A5A6002B0704700BF900D002053
:100EB00090090020AFF30080AFF30080AFF3008013
:100EC00000B583B0019040F69053C2F20003019A3E
:100ED0001A60FFF725FC03B000BD00BFAFF3008030
:100EE00040F69452C2F2000240F69453C2F200035C
:100EF0005A6040F69453C2F200035A6840F6945385
:100F0000C2F200031A6040F69453C2F200034FF09D
:100F1000FF329A6040F69453C2F200034FF0000291
:100F2000DA607047AFF30080AFF30080AFF300806A
:100F300000B587B00390029101920093FFF730FF54
:100F4000039B002B05D0019B002B02D0029B002BA2
:100F500005D145F24070C0F60000FFF7B1FF039BDA
:100F6000009A1A61039B019ADA6040F69453C2F228
:100F700000031B68059308E0059B9B68029AC3EB7E
:100F800002030293059B1B680593059B9A68029BCD
:100F90009A42F1D3039B059A1A60039B1B685A6817
:100FA000039B5A60039B5B68059A03995160059AFD
:100FB00052681A60039B029A9A60059A40F694530D
:100FC000C2F200039A4206D0059B9A68029BC3EBCB
:100FD0000202059B9A6007B000BD00BFAFF300801E
:100FE00000B583B00190FFF7DBFE019B002B05D11C
:100FF00045F25070C0F60000FFF762FF019BDB680E
:10100000002B05D145F26070C0F60000FFF758FFD5
:10101000019B1A6840F69453C2F200039A4208D02A
:10102000019B1B68019A12689168019A92680A44B0
:101030009A60019B5B68019A12681A60019B1B68A9
:10104000019A52685A60019B4FF00002DA6003B0C7
:1010500000BD00BFAFF30080AFF30080AFF30080AE
:1010600084B00190019B1B680393039B1A68019B4A
:101070001A60019B1B68019A5A60039B184604B0D2
:10108000704700BFAFF30080AFF30080AFF3008084
:1010900082B00190019B5B68019A12681A60019B03
:1010A0001B68019A52685A60019B184602B070474B
:1010B00040F6A452C2F2000240F6A453C2F200036A
:1010C0005A6040F6A453C2F200035A6840F6A45393
:1010D000C2F200031A6040F6A453C2F200034FF0BC
:1010E00000029A6040F6A453C2F200034FF01402CB
:1010F0009A6140F6A452C2F2000240F6A453C2F232
:1011000000035A6140F6A453C2F200035A6940F644
:10111000A453C2F200031A61704700BFAFF300800E
:1011200000B585B00190019B93F82030002B04D0CE
:10113000019B93F820300E2B05D145F28070C0F64C
:101140000000FFF7BDFE019B4FF0000283F8202056
:1011500040F6A453C2F200030393039B1B6803935E
:10116000039B9A68019B9B689A42F6D2019B039A63
:101170001A60039B5A68019B5A60019B5B68039A43
:1011800001995160039A52681A60019B184605B094
:1011900000BD00BFAFF30080AFF30080AFF300806D
:1011A00000B585B003468DF80730FFF711FE40F615
:1011B000A453C2F20003DB690393039B9DF807204D
:1011C00083F8202040F6A453C2F200034FF014022B
:1011D0009A6140F6A450C2F20000FFF741FF0246B8
:1011E00040F6A453C2F20003DA6140F6A453C2F2FF
:1011F0000003DB694FF0010283F820200398FFF71A
:101200000FFE6B46A3F12402039BDB699A4205D2D1
:1012100045F29470C0F60000FFF752FE40F6A4536A
:10122000C2F20003DB6918460399FFF741FB05B0E2
:1012300000BD00BFAFF30080AFF30080AFF30080CC
:1012400000B585B00190019B0393039B93F8203078
:101250000D2B28D801A252F823F000BFB7120008C6
:10126000A7120008A712000895120008A71200088C
:10127000A1120008A7120008A7120008A712000870
:10128000A7120008A7120008A7120008A71200085A
:10129000A1120008039B9B6A9A6802F101029A60FE
:1012A0000398FFF7F5FE039B4FF0FF329A62039815
:1012B000FFF736FF00E000BF05B000BDAFF30080D0
:1012C00000B589B0034600918DF80730FFF780FD27
:1012D000009BB3F1FF3F1AD040F6A453C2F20003C3
:1012E000DB6903AA1046009941F24122C0F60002D0
:1012F000FFF71EFE9DF807301846FFF751FF069BCB
:10130000002B0AD003AB1846FFF76AFE06E09DF8F3
:1013100007301846FFF744FF00E000BF40F6A45333
:10132000C2F20003DB699B6A184609B000BD00BF2A
:1013300000B585B001900091FFF74AFD019B009A2E
:101340009A62019B9A6840F6A453C2F20003DB69DB
:101350009B689A4203D80198FFF7E2FE2FE040F61F
:10136000A453C2F20003DB691846FFF7D9FE034617
:10137000039340F6A453C2F200034FF014029A61A3
:1013800040F6A453C2F20003019ADA61019B4FF0C8
:10139000010283F820200398FFF742FD6B46A3F17A
:1013A0002402039BDB699A4205D245F29470C0F691
:1013B0000000FFF785FD01980399FFF779FA05B062
:1013C00000BD00BFAFF30080AFF30080AFF300803B
:1013D00000B583B040F6A453C2F200034FF01402EC
:1013E0009A6140F6A453C2F20003DB69019340F610
:1013F000A450C2F20000FFF733FE024640F6A453A9
:10140000C2F20003DA6140F6A453C2F20003DB69C2
:101410004FF0010283F820200198FFF781FE019828
:10142000FFF7FEFC6B46A3F12402019BDB699A42A5
:1014300005D245F29470C0F60000FFF741FD40F67A
:10144000A453C2F20003DB6918460199FFF730FA92
:1014500003B000BDAFF30080AFF30080AFF30080B6
:1014600084B00190019B1B680393039B1A68019B46
:101470001A60039B184604B0704700BFAFF30080AA
:1014800082B001900091019B009A9A60019B4FF0FD
:10149000020283F82020019B4FF0000283F82120F4
:1014A000019B009A5A64019B4FF000021A64019B51
:1014B0004FF00002DA63019B4FF000025A62019B79
:1014C0004FF000029A6140F6A453C2F20003019A61
:1014D000136140F6A453C2F200035A69019B5A619A
:1014E000019B5A6940F6A453C2F200030199596165
:1014F00040F6A453C2F200035B691361019B03F140
:101500002C031A46019BDA62019B03F130031A4651
:10151000019B5A63019B5A6B019B1A63019B03F168
:101520004802019BDA61019B184602B0704700BF78
:1015300084B00390029113468DF8073007E0039BB7
:101540009DF807201A70039B03F101030393039A8C
:10155000029B9A42F3D304B0704700BFAFF3008000
:1015600000B587B00390029101920093039B05930D
:10157000FFF716FC039B002B08D0029BAF2B05D96D
:10158000019B7F2B02D8009B002B05D145F2B07048
:10159000C0F60000FFF794FC039A029BA3F124031A
:1015A0001A44059BDA60059BDB68009A1A60059B6C
:1015B000DB68089A5A60059BDA6840F6D103C0F6EA
:1015C0000003136205980199FFF75AFF0346184676
:1015D00007B000BDAFF30080AFF30080AFF3008031
:1015E00000B589B00590049103920293059A059B7A
:1015F00003F14803104619464FF0FF02FFF798FF2A
:10160000059B03F148020599049B0B4410461946BB
:101610004FF05502FFF78CFF4FF0200383F3118842
:10162000FFF7DEFA0A9B009305980499039A029B40
:10163000FFF796FF0346079307984FF00001FFF767
:1016400077FEFFF7EDFA4FF0000383F31188079B55
:10165000184609B000BD00BFAFF30080AFF30080B3
:1016600000B583B00190019B002B05D145F2F070CD
:10167000C0F60000FFF724FC4FF0200383F311882D
:10168000FFF7AEFA4FF006000199FFF719FEFFF7DA
:10169000C7FA4FF0000383F3118803B000BD00BF09
:1016A00000B583B001904FF0200383F31188FFF75A
:1016B00097FA019800F004F803B000BDAFF3008082
:1016C00000B585B0019040F6A453C2F20003DB6977
:1016D0000393039B019A9A6209E0039B03F12C0395
:1016E0001846FFF7BDFE03461846FFF719FD039B9A
:1016F000DA6A039B03F12C039A42EED1039B93F821
:10170000213003F00303002B09D1039B5B69039A8B
:1017100012691A61039B1B69039A52695A614FF05F
:101720000E00FFF73DFD45F60000C0F60000FFF794
:10173000C7FB05B000BD00BFAFF30080AFF3008072
:1017400084B001900091009B0393039B1B6803935B
:10175000009B039A9A4205D0039B9A68019B9B6861
:101760009A42F2D2019B039A1A60039B5A68019B2A
:101770005A60019B5B68039A01995160039A526811
:101780001A6004B0704700BFAFF30080AFF3008071
:1017900084B00190019B1B680393039B1A68019B13
:1017A0001A60019B1B68019A5A60039B184604B09B
:1017B000704700BFAFF30080AFF30080AFF300804D
:1017C00082B00190019B5B68019A12681A60019BCC
:1017D0001B68019A52685A60019B184602B0704714
:1017E00000B583B00190019B002B05D145F6400068
:1017F000C0F60000FFF764FB019B1A46019B5A608C
:10180000019B5A68019B1A60019B4FF000029A608D
:1018100003B000BDAFF30080AFF30080AFF30080F2
:1018200000B583B001904FF0200383F31188FFF7D8
:10183000D7F9019800F00CF8FFF7F2F94FF0000328
:1018400083F3118803B000BDAFF30080AFF30080D5
:1018500000B585B0019040F6A453C2F20003DB69E5
:101860000293FFF7B5FA019B002B05D145F6500016
:10187000C0F60000FFF724FB019B9B68002B62D0A1
:10188000019B9B68039335E0029B9A68039B9A60D7
:10189000039B93F82030042B04D0052B11D0002B90
:1018A0001AD02DE00398FFF78BFF0246039B9B6A3B
:1018B00010461946FFF744FF039B9B6A9B680393FE
:1018C00018E00398FFF77CFF0246039B9B6A1046D3
:1018D0001946FFF735FF0CE0039B4FF0010283F838
:1018E00020200398FFF76CFF03461846FFF718FC0B
:1018F00000BF05E0039B9A68029B9B689A42C3D392
:10190000019B02981946FFF71BFF029B019A9A62FE
:101910004FF00400FFF744FC019B9A68029B9A4237
:1019200005D045F66000C0F60000FFF7C9FA029B3B
:101930001A6C019B9A4210D045F67400C0F6000064
:10194000FFF7BEFA09E0019B029A9A60029B1A6CAB
:10195000019BDA60029B019A1A6405B000BD00BFCA
:1019600000B587B040F6A453C2F20003DB690393CD
:101970004FF0200383F31188FFF732F9039B1B6CB0
:10198000002B05D145F69C00C0F60000FFF798FA41
:10199000039B1B6C9A68039B9A4205D045F6B000E6
:1019A000C0F60000FFF78CFA039B1B6C0293029BAE
:1019B000DA68039B1A64029B1A68029B9A4234D02D
:1019C000039B5B6C0493039B1B6C059311E0059BCD
:1019D0001A68059B9A4209D0059B1B689A68049B6C
:1019E0009A4203D9059B1B689B680493059BDB689F
:1019F0000593059B002BEAD1039B049A9A60029BF6
:101A00001846FFF7C5FE03460193029B019A9A60B0
:101A1000019B1A6C029BDA60019B029A1A6401987E
:101A20004FF00001FFF784FC03E0029B4FF000023F
:101A30009A60FFF7F5F84FF0000383F31188029BDB
:101A4000184607B000BD00BFAFF30080AFF30080C1
:101A500000B583B001900091FFF7A2F9019B002B24
:101A600005D145F62C10C0F60000FFF729FA019BBE
:101A7000DA6B009B42EA0302019BDA63019B93F855
:101A80002030082B07D1019BDA6B019B9B6A02EA8D
:101A90000303002B0ED1019B93F82030092B10D1AA
:101AA000019BDA6B019B9B6A02EA0302019B9B6A22
:101AB0009A4206D10198FFF733FB03464FF000022C
:101AC0009A6203B000BD00BFAFF30080AFF30080A7
:101AD00000B585B001900091FFF762F9019B002BE2
:101AE00005D145F64010C0F60000FFF7E9F9019B6B
:101AF0001B6803930DE0039B5A68039B9968009B46
:101B000041EA030310461946FFF7A2FF039B1B6837
:101B10000393019B039A9A42EDD105B000BD00BF2B
:101B200082B001900091009A019B1A60009B5A6854
:101B3000019B5A60019B5B68009A01995160009A71
:101B400052681A6002B07047AFF30080AFF30080B4
:101B500084B00190019B1B680393039B1A68019B4F
:101B60001A60019B1B68019A5A60039B184604B0D7
:101B7000704700BFAFF30080AFF30080AFF3008089
:101B800000B583B001900091009B002B02D14FF073
:101B9000FF3316E040F6A453C2F20003DB69019A5A
:101BA0009A6240F6A453C2F20003DA69019B104620
:101BB0001946FFF7B5FF4FF00D000099FFF780FBC6
:101BC0000346184603B000BDAFF30080AFF30080BA
:101BD00084B00390029101920093039B1A46039BE9
:101BE0005A60039B5A68039B1A60039B4FF00002E4
:101BF0009A60039B029A5A61039B5A69039B9A61FC
:101C0000039B9A69039BDA60029A019B1A44039B27
:101C10001A61039B009ADA6104B07047AFF3008049
:101C200000B583B001900B468DF80330FFF7B8F88C
:101C3000019B5A69019B9B699A4206D1019B9B6853
:101C4000002B02D06FF003032BE0019B9B6803F194
:101C50000102019B9A60019B5B699DF803201A7049
:101C600003F10102019B5A61019B5A69019B1B69A7
:101C70009A4203D3019BDA68019B5A61019B1A685F
:101C8000019B9A420BD0019B1846FFF761FF034668
:101C90001846FFF745FA03464FF000029A624FF0EC
:101CA0000003184603B000BDAFF30080AFF300801F
:101CB00000B585B0019000914FF0200383F31188A7
:101CC000FEF78EFF019BDB69002B15D0019BDB69C2
:101CD0000198984711E001980099FFF751FF0346DA
:101CE0000393039B002B08DAFEF79AFF4FF00003E3
:101CF00083F31188039B25E000BF019B9B68002BA9
:101D0000E9D0019B9B6803F1FF32019B9A60019B24
:101D10009B691A788DF80B2003F10102019B9A61EF
:101D2000019B9A69019B1B699A4203D3019BDA6864
:101D3000019B9A61FEF774FF4FF0000383F3118853
:101D40009DF80B30184605B000BD00BFAFF3008012
:101D500000B587B00390029101920093039BDB6969
:101D600004934FF000030593019B002B05D145F62A
:101D70008010C0F60000FFF7A3F84FF0200383F3B4
:101D80001188FEF72DFF049B002B12D0049B0398B3
:101D900098470FE003980099FFF7F2FE0346002BE7
:101DA00008D0FEF73DFF4FF0000383F31188059B39
:101DB0003BE000BF039B9B68002BEBD0039B9B6821
:101DC00003F1FF32039B9A60039B9B691978029A87
:101DD0001170029A02F10102029203F10102039BC7
:101DE0009A61039B9A69039B1B699A4203D3039BE5
:101DF000DA68039B9A61FEF713FF4FF0000383F349
:101E00001188059B03F101030593019B03F1FF3347
:101E10000193019B002B01D1059B06E04FF02003AD
:101E200083F31188FEF7DCFEADE7184607B000BD6E
:101E300084B00390029101920093039B1A46039B86
:101E40005A60039B5A68039B1A60039B019A9A602D
:101E5000039B029A5A61039B5A69039B9A61039BF5
:101E60009A69039BDA60029A019B1A44039B1A61E8
:101E7000039B009ADA6104B0704700BFAFF30080A3
:101E800000B587B003900B4601928DF80B304FF0F0
:101E9000200383F31188FEF7A3FE10E00398019955
:101EA000FFF76EFE03460593059B002B07DAFEF74E
:101EB000B7FE4FF0000383F31188059B2CE0039BD2
:101EC0009B68002BEAD0039B9B6803F1FF32039BC6
:101ED0009A60039B5B699DF80B201A7003F1010265
:101EE000039B5A61039B5A69039B1B699A4203D364
:101EF000039BDA68039B5A61039BDB69002B03D0C9
:101F0000039BDB6903989847FEF78AFE4FF00003B6
:101F100083F311884FF00003184607B000BD00BFDF
:101F200000B585B00190FEF73BFF019B5A69019B0C
:101F30009B699A4206D1019B9B68002B02D06FF0EF
:101F400002032BE0019B9B6803F10102019B9A6055
:101F5000019B9B691A788DF80F2003F10102019B08
:101F60009A61019B9A69019B1B699A4203D3019B69
:101F7000DA68019B9A61019B1A68019B9A420BD017
:101F8000019B1846FFF7E4FD03461846FFF7C8F823
:101F900003464FF000029A629DF80F30184605B0D4
:101FA00000BD00BFAFF30080AFF30080AFF300804F
:101FB00000B587B00390029101920093039BDB6907
:101FC00004934FF000030593019B002B05D145F6C8
:101FD0009410C0F60000FEF773FF4FF0200383F368
:101FE0001188FEF7FDFD0EE003980099FFF7C8FD8C
:101FF0000346002B07D0FEF713FE4FF0000383F3D8
:102000001188059B41E0039B9B68002BECD0039B50
:102010009B6803F1FF32039B9A60039B5B69029A02
:1020200012781A7003F10102039B5A61029B03F1BB
:1020300001030293039B5A69039B1B699A4203D3D2
:10204000039BDA68039B5A61049B002B02D0049B1C
:1020500003989847FEF7E4FD4FF0000383F31188DF
:10206000059B03F101030593019B03F1FF330193EA
:10207000019B002B01D1059B07E04FF0200383F368
:102080001188FEF7ADFD00BFBDE7184607B000BDE3
:1020900041F6C063C2F2000303F1070323F0070314
:1020A0001A4640F6C453C2F200031A6042F200031B
:1020B000C2F2000323F007031A4640F6C853C2F2E7
:1020C00000031A60704700BFAFF30080AFF30080D9
:1020D00008B500F05DFD00F0C3FA45F67040C0F6AB
:1020E000000001F09DFD00F00BF800F0D9F800F0C1
:1020F000BFF901F095FE08BDAFF30080AFF300809B
:1021000008B500F055FF08BDAFF30080AFF30080C5
:1021100000B583B00190019B4FF001021A70019B42
:102120004FF000025A60019B4FF000029A60019B41
:102130004FF00002DA60019B4FF000021A61019B30
:102140004FF000025A61019B03F118031846FFF794
:1021500047FB03B000BD00BFAFF30080AFF30080CA
:1021600000B583B001900091019B002B05D145F68D
:10217000B010C0F60000FEF7A3FE4FF0200383F37B
:102180001188FEF72DFD019B1B78012B09D0019BC7
:102190001B78022B05D045F6C010C0F60000FEF7F4
:1021A0008FFE019B009A5A60019800F071FF019B1D
:1021B0004FF002021A70FEF733FD4FF0000383F375
:1021C000118803B000BD00BFAFF30080AFF3008003
:1021D00000B585B003900291019200934FF0200367
:1021E00083F31188FEF7FCFC03980299019A009B87
:1021F00000F00EF8FEF714FD4FF0000383F3118892
:1022000005B000BDAFF30080AFF30080AFF30080F6
:1022100000B585B00390029101920093FEF7C0FDD6
:10222000039B002B0ED0029B002B0BD0019B002B9D
:1022300008D0009B012B0BD0009B03F00103DBB205
:10224000002B05D045F6EC10C0F60000FEF738FE76
:10225000039B1B78022B0DD0039B1B78042B09D00A
:10226000039B1B78052B05D045F60420C0F6000023
:10227000FEF726FE039B019A9A60039B009ADA60A0
:10228000039B029A1A61039B4FF003021A70039892
:1022900000F046FF05B000BDAFF30080AFF3008053
:1022A00008B501F05DFA08BDAFF30080AFF3008020
:1022B00000B583B00190019B4FF001021A70019BA1
:1022C0004FF000025A60019B03F10C031846FFF720
:1022D00087FA03B000BD00BFAFF30080AFF300800A
:1022E00000B585B0039002910192039B03F1300386
:1022F00018460299019A4FF0FF33FFF759FE034643
:10230000184605B000BD00BFAFF30080AFF30080FA
:1023100000B585B0039002910192039B03F1100375
:1023200018460299019A4FF0FF33FFF711FD03465B
:10233000184605B000BD00BFAFF30080AFF30080CA
:1023400082B00190019B9B6B002B14BF00230123E3
:10235000184602B0704700BFAFF30080AFF30080B3
:1023600082B00190019B9B69002B14BF00230123C5
:10237000184602B0704700BFAFF30080AFF3008093
:1023800000B585B003900B4601928DF80B30039B8E
:1023900003F130029DF80B3010461946019AFFF701
:1023A0006FFD0346184605B000BD00BFAFF30080C7
:1023B00000B583B001900091019B03F11003184612
:1023C0000099FFF775FC0346184603B000BD00BF37
:1023D00000B585B00390029101920093039B03F135
:1023E000300318460299019A009BFFF7E1FD03466E
:1023F000184605B000BD00BFAFF30080AFF300800A
:1024000000B585B00390029101920093039B03F104
:10241000100318460299019A009BFFF799FC0346A6
:10242000184605B000BD00BFAFF30080AFF30080D9
:1024300000B585B001904FF0200383F31188FEF7BB
:10244000CFFB019B9B680393019B4FF000029A60B6
:10245000FEF7E6FB4FF0000383F31188039B184659
:1024600005B000BDAFF30080AFF30080AFF3008094
:1024700008B501F05DFB08BDAFF30080AFF300804D
:1024800000B585B0039002910192039A45F6B033EE
:10249000C0F600031360039B03F104031A46039B79
:1024A0005A60039B4FF000029A60039B4FF00102B9
:1024B0001A73039B03F11002039B03F150031046B0
:1024C00019464FF40072029BFFF782FB039B03F156
:1024D0003002039B03F51473104619464FF4007243
:1024E000019BFFF7A5FC05B000BD00BFAFF3008066
:1024F00000B583B001900091019B002B05D145F6FA
:10250000C020C0F60000FEF7DBFC4FF0200383F391
:102510001188FEF765FB019B1B7B012B09D0019BFA
:102520001B7B022B05D045F6CC20C0F60000FEF741
:10253000C7FC0198009901F02BFB019B4FF00202B0
:102540001A73FEF76DFB4FF0000383F3118803B09D
:1025500000BD00BFAFF30080AFF30080AFF3008099
:1025600000B583B001900B468DF80330FEF718FCE0
:10257000019B002B05D145F6F820C0F60000FEF7C0
:102580009FFC019B9B69002B0DD1019B9B6843F035
:102590000402019B9A60019B03F1040318464FF06B
:1025A0000001FFF795FA019B03F110029DF803303B
:1025B00010461946FFF734FB0346002B0DDA019B4A
:1025C0009B6843F08002019B9A60019B03F1040326
:1025D00018464FF00001FFF77BFA03B000BD00BFC3
:1025E00082B001904FF48053CEF200035A68019BF1
:1025F0009A6002B0704700BFAFF30080AFF3008075
:1026000084B001904FF48053CEF200035B680393D3
:10261000019B9B68039AC3EB020240F6CC53C2F2C3
:1026200000031B68C3EB0202019B9A60019B9A683E
:10263000019BDB689A4204D9019B9A68019BDA608E
:1026400009E0019B9A68019B1B699A4203D2019B96
:102650009A68019B1A6104B0704700BFAFF3008015
:1026600000B587B040F6CC53C2F200034FF0000231
:102670001A6001AB184600F013F8019B01AA10463E
:102680009847029B01AA10469847039A40F6CC53FC
:10269000C2F200031A6007B000BD00BFAFF30080B4
:1026A00082B00190019A42F2E153C0F60003136038
:1026B000019A42F20163C0F600035360019B4FF0A0
:1026C00000029A60019B4FF00002DA60019B4FF01C
:1026D000FF321A6102B07047AFF30080AFF30080A1
:1026E00000B583B0FEF7FCFA4FF00003C4F202031A
:1026F0001B6803F00F0301934FF00003C4F20203C1
:102700004FF00F025A6040F6D453C2F200031B6828
:10271000002B0CD040F6D453C2F200031A6840F6E6
:10272000D453C2F200035B68184601999047FEF744
:1027300007FBFEF755F803B000BD00BFAFF3008004
:1027400000B583B0FEF7CCFA4FF00003C4F20203E9
:102750001B684FEA131303F00F0301934FF00003BC
:10276000C4F202034FF0F0025A6040F6D453C2F2B2
:1027700000039B68002B0CD040F6D453C2F2000338
:102780009A6840F6D453C2F20003DB6818460199F8
:102790009047FEF7D5FAFEF723F803B000BD00BF5F
:1027A00000B583B0FEF79CFA4FF00003C4F20203B9
:1027B0001B684FEA132303F00F0301934FF000034C
:1027C000C4F202034FF470625A6040F6D453C2F26E
:1027D00000031B69002B0CD040F6D453C2F2000357
:1027E0001A6940F6D453C2F200035B691846019996
:1027F0009047FEF7A5FAFDF7F3FF03B000BD00BF59
:1028000000B583B0FEF76CFA4FF00003C4F2020388
:102810001B684FEA133303F00F0301934FF00003DB
:10282000C4F202034FF470425A6040F6D453C2F22D
:1028300000039B69002B0CD040F6D453C2F2000376
:102840009A6940F6D453C2F20003DB691846019935
:102850009047FEF775FAFDF7C3FF03B000BD00BF58
:1028600000B583B0FEF73CFA4FF00003C4F2020358
:102870001B684FEA134303F00F0301934FF000036B
:10288000C4F202034FF470225A6040F6D453C2F2ED
:1028900000031B6A002B0CD040F6D453C2F2000395
:1028A0001A6A40F6D453C2F200035B6A18460199D3
:1028B0009047FEF745FAFDF793FF03B000BD00BF58
:1028C00000B583B0FEF70CFA4FF00003C4F2020328
:1028D0001B684FEA135303F00F0301934FF00003FB
:1028E000C4F202034FF470025A6040F6D453C2F2AD
:1028F00000039B6A002B0CD040F6D453C2F20003B5
:102900009A6A40F6D453C2F20003DB6A1846019972
:102910009047FEF715FAFDF763FF03B000BD00BF57
:1029200000B583B0FEF7DCF94FF00003C4F20203F8
:102930001B684FEA136303F00F0301934FF000038A
:10294000C4F202034FF070625A6040F6D453C2F2F0
:1029500000031B6B002B0CD040F6D453C2F20003D3
:102960001A6B40F6D453C2F200035B6B1846019910
:102970009047FEF7E5F9FDF733FF03B000BD00BF58
:1029800082B040F6D053C2F200034FF000021A604A
:102990004FF0000301931CE045F6E032C0F6000260
:1029A00001990B464FEA43030B444FEA8303134458
:1029B0001B684FF000021A6040F6D453C2F20003C5
:1029C000019A4FF0000143F83210019B03F101031B
:1029D0000193019B062BDFDD4FF00003C4F20203DD
:1029E0004FF0FF325A6002B0704700BFAFF3008073
:1029F00000B585B00390029101920093039B002BD8
:102A000005D145F62030C0F60000FEF759FA039BC9
:102A10005B7A4FF0010202FA03F31A4640F6D053F4
:102A2000C2F200031B6802EA0303002B02D04FF03E
:102A3000010361E0039B5B7A1A4640F6D453C2F26D
:102A40000003019943F83210039B5B7A40F6D4529D
:102A5000C2F200024FEAC3031344009A5A60039B78
:102A60005B7A4FF0010202FA03F31A4640F6D053A4
:102A7000C2F200031B6842EA030240F6D053C2F2DE
:102A800000031A6040F6D053C2F200031B6803F043
:102A90007F03002B0BD04FF48053C4F202034FF49A
:102AA0008052C4F20202526942F001025A61039B51
:102AB0001B68039A1268126822F001021A60039BD5
:102AC0005B68039A127A4FF00F0101FA02F21A6062
:102AD000039B1B684FF000021A60019B002B09D07A
:102AE000039B9B7A1A46029B4FEA03131046194632
:102AF000FDF7FEFE4FF00003184605B000BD00BF15
:102B00004FF4E043C4F200034FF4E042C4F2000289
:102B1000126842F480721A604FF48053C4F20203C8
:102B20001B6A03F44073B3F5407F0DD04FF480531C
:102B3000C4F202034FF480321A624FF48053C4F29D
:102B400002034FF000021A624FF48053C4F20203F2
:102B50001B6A03F40043002B17D14FF48053C4F2D7
:102B600002034FF48052C4F20202126A42F440722D
:102B70001A624FF48053C4F202034FF48052C4F23D
:102B80000202126A42F400421A627047AFF30080F8
:102B900008B54FF48053C4F202031B694FF480530D
:102BA000C4F202034FF0FF321A614FF48053C4F2B3
:102BB00002034FF000021A614FF48053C4F2020383
:102BC000DB684FF48053C4F202034FF0FF32DA6047
:102BD0004FF48053C4F202034FF00002DA604EF269
:102BE0001003CEF200034BF67F325A604EF2100310
:102BF000CEF200034FF000029A604EF21003CEF2C4
:102C000000034FF007021A604EF6F053CEF20003B5
:102C10004EF6F052CEF20002D26842F08072DA60D4
:102C20004FF48053CEF200034FF48052CEF20002F4
:102C3000126842F001021A604FF48053C4F202039A
:102C40004FF48052C4F20202D26942F08052DA613B
:102C50004FF48053C4F202034FF48052C4F20202D4
:102C6000D26942F00062DA61FFF74AFFFFF788FE9F
:102C700008BD00BFAFF30080AFF30080AFF300806A
:102C80004FF48053C4F202034FF48052C4F20202A4
:102C9000126842F001021A6000BF4FF48053C4F280
:102CA00002031B6803F00203002BF6D04FF480539D
:102CB000C4F202034FF48052C4F20202126802F01E
:102CC000F9021A604FF48053C4F202034FF000027D
:102CD0005A6000BF4FF48053C4F202035B6803F0F4
:102CE0000C03002BF6D14FF48053C4F202034FF4CF
:102CF0008052C4F20202126842F480321A6000BFAD
:102D00004FF48053C4F202031B6803F40033002B1A
:102D1000F6D04FF48053C4F202034FF48052C4F251
:102D20000202526842F4A0225A604FF48053C4F267
:102D300002034FF48052C4F20202126842F0807221
:102D40001A6000BF4FF48053C4F202031B6803F003
:102D50000073002BF6D04FF48053C4F202034FF4FB
:102D6000C842C0F205025A604FF40053C4F2020395
:102D70004FF010021A604FF48053C4F202034FF474
:102D80008052C4F20202526842F002025A6000BF4E
:102D90004FF48053C4F202035B6803F00C03082B6A
:102DA000F6D17047AFF30080AFF30080AFF300803F
:102DB00000B589B001900091009B03F00803002B3F
:102DC0003DD0019800F024FA019B1B69DB68002BC1
:102DD00012D0019B4FF005021A70019B1B69DB6842
:102DE00001984FF000019847019B1B78052B03D1F8
:102DF000019B4FF002021A70019B4FF000021A6112
:102E00004FF0200383F31188FDF72AFF019B5B69D4
:102E1000002B0DD0019B5B690793019B4FF00002D3
:102E20005A61079B4FF0FF329A620798FEF778F9D4
:102E3000FDF736FF4FF0000383F31188AFE0009BEE
:102E400003F00403002B0FD0019B1B699B68002B30
:102E50000AD0019B1B699B68019A9168019AD2680C
:102E60004FEA520201989847009B03F00203002B9F
:102E700000F09580019B1B691B68002B2DD0019BE6
:102E80001B699B68002B00F08A80019BDB68012B8B
:102E900019D9019BDB684FEA53030693019B1B6919
:102EA0009B88069A02FB03F30593019B1B699B68B1
:102EB000019A9168059A4FEA42020A440198114624
:102EC000069A98476BE0019B1B699B68019A916881
:102ED000019AD2680198984761E0019800F098F94A
:102EE000019B1B699B68002B33D0019B4FF00402B0
:102EF0001A70019BDB68012B19D9019BDB684FEA33
:102F000053030493019B1B699B88049A02FB03F300
:102F10000393019B1B699B68019A9168039A4FEA8E
:102F200042020A4401981146049A984708E0019B1E
:102F30001B699B68019A9168019AD2680198984729
:102F4000019B1B78042B08D1019B4FF002021A70E1
:102F500003E0019B4FF002021A70019B4FF0000248
:102F60001A614FF0200383F31188FDF779FE019B6E
:102F70005B69002B0DD0019B5B690293019B4FF0B5
:102F800000025A61029B4FF000029A620298FEF71B
:102F9000C7F8FDF785FE4FF0000383F3118809B0F1
:102FA00000BD00BFAFF30080AFF30080AFF300803F
:102FB00008B540F60C60C2F20000FFF7A9F840F631
:102FC0000C63C2F200034FF41052C4F201029A6281
:102FD00040F60C63C2F2000345F6E032C0F6000290
:102FE000DA6240F60C63C2F2000342F28A521A63BC
:102FF0004FF48053C4F202034FF48052C4F2020231
:10300000926942F400729A614FF41053C4F20103C2
:103010004FF000025A604FF41053C4F201034FF016
:1030200001029A604FF41053C4F201034FF00902F9
:103030009A6000BF4FF41053C4F201039B6803F081
:103040000803002BF6D14FF41053C4F201034FF0E4
:1030500005029A6000BF4FF41053C4F201039B684D
:1030600003F00403002BF6D14FF41053C4F2010314
:103070004FF000029A604FF48053C4F202034FF401
:103080008052C4F20202926922F400729A6108BD71
:1030900000B585B00190019B1B78012B3CD1019AB2
:1030A00040F60C63C2F200039A422BD1019BDA6A0C
:1030B00042F6B153C0F6000310464FF005011A4620
:1030C000019BFFF795FC03460393039B002B05D060
:1030D00045F66030C0F60000FDF7F2FE019BDB6AAA
:1030E0001A6842F24C43C4F2010393604FF48053D8
:1030F000C4F202034FF48052C4F20202926942F415
:1031000000729A61019B9B6A4FF000025A60019B1A
:103110009B6A4FF000029A6005B000BDAFF30080DB
:1031200086B00190019B1B690393019B1B6B059368
:10313000039B1B68002B03D0059B43F020030593E2
:10314000019BDB68012B0BD9059B43F0040305931E
:10315000039B9B88019AD26802FB03F3049302E06D
:10316000039B9B880493019BDB6A1B68019A92680E
:10317000DA60019BDB6A1B68049A5A60019BDB6A78
:103180001B68059A1A60019BDB6A1B68019AD26A68
:103190001268126842F001021A60019B9B6A039A4E
:1031A000126942F480725A60019B9A6A039B5B69C0
:1031B00043F4807343F003039360019B9B6A039A7B
:1031C0009269DA60019B9B6A039AD2691A61019B3A
:1031D0009B6A039A126ADA62019B9B6A039A526A9B
:1031E0001A63019B9B6A039A926A5A63019B9A6ACB
:1031F000039B5B6943F4807343F00303936006B061
:10320000704700BFAFF30080AFF30080AFF30080E2
:1032100082B00190019BDB6A1B68019AD26A126836
:10322000126822F001021A60019BDB6A5B68019A56
:10323000D26A127A4FF00F0101FA02F21A60019B72
:103240009B6A4FF000029A6002B07047AFF30080B3
:1032500000B587B00190019B1B6B0493049B1B8BF3
:103260009BB20393049B9B8A9BB20593019B93F8AB
:103270003430002B40F0B780039B4FEA0342059B9C
:1032800042EA030323F07F434FF00202C0F203023D
:1032900093421ED04FF00202C0F20302934206D8BE
:1032A0004FF00102C0F2030293420DD093E04FF0C1
:1032B0008202C0F20702934234D04FF08402C0F27F
:1032C0000702934241D086E0019B1A8C049B1A822C
:1032D00081E0049B9B889BB223F400739AB2049B09
:1032E0009A80019B9B6A1B68019A926A1268126815
:1032F00042F001021A60049B9B889BB243F4805306
:103300009AB2049B9A80019B9B6A1B685B68012BA5
:1033100060D8049B1B889BB223F480639AB2049B01
:103320001A8058E0049B9B889BB223F400739AB2E6
:10333000049B9A80019BDB6A1B68019AD26A12681F
:10334000126842F001021A6045E0019B9B6A1B680B
:103350005B68002B0FD0019B1B8C43F001039AB2DA
:10336000019B1A84049B1B889BB243F4A0639AB20E
:10337000049B1A80B5E0049B9B889BB223F40073E6
:103380009AB2049B9A80049B1B889BB243F40073FF
:103390009AB2049B1A804FF0200383F31188FDF743
:1033A0005FFC019BDB69002B0DD0019BDB69029365
:1033B000019B4FF00002DA61029B4FF000029A621B
:1033C0000298FDF7ADFEFDF76BFC4FF0000383F3B1
:1033D000118800E000BF059B03F00A03002B7FD09B
:1033E000049B1B8B7DE0059B03F00A03002B0FD091
:1033F000019B4FF000021A64019B4FF000021A6516
:10340000049B9B8A9BB20593049B1B8B9BB20393EB
:10341000059B03F08003002B16D0019B9A6C019B47
:103420001B6D1A4412781146049A118203F10102AD
:10343000019B1A65019B1A6C019BDB6C9A4203D3BA
:10344000019B4FF000021A65059B03F04003002B1F
:1034500017D0019B9A6B019B1B6C1A440499098A33
:1034600089B2C9B2117003F10102019B1A64019B78
:103470001A6C019BDB6B9A4203D3019B4FF0000255
:103480001A64059B03F01003002B13D0049B9B8A46
:103490009BB20593049B1B889BB243F001039AB235
:1034A000049B1A80019B5B6C002B03D0019B5B6C1F
:1034B00001989847059B03F48063002B11D0049B6F
:1034C0009B8A9BB223F480639AB2049B9A82019BED
:1034D0005B6D002B05D0019B5B6D0198984700E068
:1034E00000BF07B000BD00BFAFF30080AFF30080A6
:1034F00000B587B00190019B1B6B04934FF0200334
:1035000083F31188FDF7ACFB019BDB6A1B68019A12
:10351000D26A1268126822F001021A60019BDB6A0B
:103520005B68019AD26A127A4FF00F0101FA02F237
:103530001A60019B9B6A1B68019A926A1268126862
:1035400022F001021A60019B9B6A5B68019A926AF1
:10355000127A4FF00F0101FA02F21A60FDF7A0FB98
:103560004FF0000383F311884FF000030593049B91
:103570009B8A9BB203F48073002B0BD0049B9B8A25
:103580009BB223F480739AB2049B9A82059B43F00A
:1035900001030593049B9B8A9BB203F40073002BE9
:1035A0000BD0049B9B8A9BB223F400739AB2049BBA
:1035B0009A82059B43F002030593019B93F83430F4
:1035C000002B23D1049B9B8A9BB203F48063002BC6
:1035D0002DD0049B9B8A9BB223F480639AB2049BF8
:1035E0009A82049B9B889BB223F400739AB2049B3B
:1035F0009A80049B1B889BB243F400739AB2049B8D
:103600001A80059B43F00403059311E0049B9B8AF9
:103610009BB223F480639AB2049B9A82019B5B6DF8
:10362000002B05D0019B5B6D0198984700E000BF1F
:10363000049B9B8A9BB203F40063002B0BD0049B7A
:103640009B8A9BB223F400639AB2049B9A82059BE7
:1036500043F008030593049B9B8A9BB203F48053B9
:10366000002B0BD0049B9B8A9BB223F480539AB20D
:10367000049B9A82059B43F010030593049B9B8A4D
:103680009BB203F48043002B0BD0049B9B8A9BB21C
:1036900023F480439AB2049B9A82059B43F0200353
:1036A0000593049B9B8A9BB29BB21BB2002B0DDA45
:1036B000049B9B8A9BB24FEA43434FEA53439AB21F
:1036C000049B9A82059B43F040030593059B002BC6
:1036D00020D0019B059A9A604FF0200383F3118854
:1036E000FDF7BEFA019BDB69002B0DD0019BDB6966
:1036F0000393019B4FF00002DA61039B6FF001021C
:103700009A620398FDF70CFDFDF7CAFA4FF000032B
:1037100083F3118807B000BDAFF30080AFF30080E2
:1037200008B5FDF7DDFA40F64060C2F20000FFF791
:103730008FFDFDF705FBFDF753F808BDAFF30080E3
:1037400008B5FDF7CDFA40F64060C2F20000FFF781
:10375000CFFEFDF7F5FAFDF743F808BDAFF30080A3
:1037600008B540F64060C2F20000FEF7A1FD40F649
:103770004063C2F200034FF00002DA6140F640639A
:10378000C2F200034FF4A842C4F200021A6340F6EA
:103790004063C2F20003044A9A6240F64063C2F2F8
:1037A0000003024ADA6208BD285C00081C5C0008BD
:1037B00084B001900091019BD3F850340393019B96
:1037C000D3F850244FF46053C4F201039A420BD152
:1037D000009B1A684FF4D853C0F2B703B3FBF2F35F
:1037E0009AB2039B1A810AE0009B1A684FF4D853DF
:1037F000C0F2B703B3FBF2F39AB2039B1A81009BAA
:103800009B8843F4045343F02C039AB2039B9A81A0
:10381000009BDB8843F040039AB2039B1A82009B13
:103820001B8943F001039AB2039B9A82039B4FF0DA
:1038300000021A80039B1B88039B9B8804B070477F
:1038400000B585B001900B46ADF802304FF0000393
:103850000393BDF8023003F00803002B03D0039B51
:1038600043F080030393BDF8023003F00103DBB2A1
:10387000002B03D0039B43F020030393BDF80230D9
:1038800003F00203002B03D0039B43F04003039398
:10389000BDF8023003F00403002B03D0039B43F474
:1038A000807303934FF0200383F31188FDF7D8F959
:1038B000019B9A68039B42EA0302019B9A60019B69
:1038C00003F1040318464FF00001FEF701F9FDF77C
:1038D000E7F94FF0000383F3118805B000BD00BF86
:1038E00000B587B00190019BD3F850340593059B38
:1038F0009B89ADF81230059B1B88ADF81030059BF5
:103900009B88ADF80E30BDF8103003F00F03002B8C
:1039100005D0BDF8103001981946FFF791FFBDF8AA
:10392000103003F48073002B21D04FF0200383F379
:103930001188FDF795F9019B9B6843F40072019B88
:103940009A60019B03F1040318464FF00001FEF753
:10395000BFF8FDF7A5F94FF0000383F31188059B2D
:103960001B889BB223F480739AB2059B1A80BDF822
:10397000103003F02003002B12D04FF0200383F30C
:103980001188FDF76DF9BDF80E30DBB201981946CC
:10399000FEF7E6FDFDF784F94FF0000383F311888D
:1039A000BDF8123003F08003002B3AD0BDF8103080
:1039B00003F08003002B34D04FF0200383F31188F1
:1039C000FDF74EF9019B03F130031846FEF7A8FA04
:1039D00003460293029B002B19DA019B9B6843F07C
:1039E0000802019B9A60019B03F1040318464FF003
:1039F0000001FEF76DF8BDF8123023F0C0039BB252
:103A000043F040039BB29AB2059B9A8103E0029B6C
:103A10009AB2059B9A80FDF743F94FF0000383F3B8
:103A20001188BDF8103003F04003002B28D04FF070
:103A3000200383F31188FDF713F9019B9B6843F082
:103A40001002019B9A60019B03F1040318464FF09A
:103A50000001FEF73DF8FDF723F94FF0000383F373
:103A60001188BDF8123023F040039AB2059B9A8169
:103A7000059B1B889BB223F040039AB2059B1A80DA
:103A800007B000BDAFF30080AFF30080AFF300805C
:103A900082B001904FF46053C4F201034FF46052BE
:103AA000C4F20102928992B242F0800292B29A81EB
:103AB00002B07047AFF30080AFF30080AFF3008037
:103AC00082B001904FF48843C4F200034FF488425F
:103AD000C4F20002928992B242F0800292B29A81BC
:103AE00002B07047AFF30080AFF30080AFF3008007
:103AF00008B5FDF7F5F840F69860C2F20000FFF750
:103B0000EFFEFDF71DF9FCF76BFE08BDAFF300807B
:103B100008B5FDF7E5F841F2EC20C2F20000FFF72E
:103B2000DFFEFDF70DF9FCF75BFE08BDAFF300808B
:103B300008B540F69860C2F200004FF0000143F66D
:103B40009122C0F60002FEF79BFC40F69863C2F299
:103B500000034FF46052C4F20102C3F8502441F252
:103B6000EC20C2F200004FF0000143F6C122C0F683
:103B70000002FEF785FC41F2EC23C2F200034FF491
:103B80008842C4F20002C3F8502408BDAFF300809D
:103B900000B583B001900091009B002B04D145F645
:103BA0004043C0F600030093019B1B7B012B31D1E6
:103BB000019A40F69863C2F200039A4211D14FF481
:103BC0008053C4F202034FF48052C4F2020292699D
:103BD00042F480429A614FF025004FF0C001FCF79B
:103BE00087FE019A41F2EC23C2F200039A4211D1FE
:103BF0004FF48053C4F202034FF48052C4F2020225
:103C0000D26942F40032DA614FF026004FF0C00171
:103C1000FCF76EFE01980099FFF7CAFD03B000BDE6
:103C200082B001904FF48053C4F202034FF48052EB
:103C3000C4F20202926942F07D029A614FF400637D
:103C4000C4F20103019A1268DA604FF40063C4F20F
:103C50000103019A92685A604FF40063C4F20103B1
:103C6000019A52681A604FF44063C4F20103019A4A
:103C7000D268DA604FF44063C4F20103019A5269DA
:103C80005A604FF44063C4F20103019A12691A604A
:103C90004FF48053C4F20103019A9269DA604FF441
:103CA0008053C4F20103019A126A5A604FF48053A0
:103CB000C4F20103019AD2691A604FF4A053C4F20E
:103CC0000103019A526ADA604FF4A053C4F201036F
:103CD000019AD26A5A604FF4A053C4F20103019AC8
:103CE000926A1A604FF4C053C4F20103019A126B36
:103CF000DA604FF4C053C4F20103019A926B5A6028
:103D00004FF4C053C4F20103019A526B1A6002B01F
:103D1000704700BFAFF30080AFF30080AFF30080C7
:103D20008AB0039002910192019B032B03D1039B64
:103D3000029A1A6105E0019B042B02D1039B029AAF
:103D40005A6145F65043C0F60003019A13441B78AC
:103D500004934FF000030693069B0793079B089379
:103D6000089B09934FF00003059335E0089B4FEA49
:103D700003130893099B4FEA03130993069B4FEA29
:103D800003130693079B4FEA03130793029B03F069
:103D90008003002B04D1089B43F00F03089304E039
:103DA000069A049B42EA03030693029B03F4004332
:103DB000002B04D1099B43F00F03099304E0079AF9
:103DC000049B42EA03030793029B4FEA43030293D7
:103DD000059B03F101030593059B072BC6D9039BA4
:103DE0005A68099B02EA0302079B42EA0302039B0B
:103DF0005A60039B1A68089B02EA0302069B42EA88
:103E00000302039B1A600AB0704700BFAFF3008043
:103E100008B5FEF735FF08BDAFF30080AFF30080B3
:103E2000704700BFAFF30080AFF30080AFF30080B6
:103E300008B5FEF74DF9FCF7FBFD00F0D9FB00F0EB
:103E40000FF800F085FC01F0DBFB00F051F800F00A
:103E50006FF8FCE7AFF30080AFF30080AFF30080B2
:103E600008B54FF40060C4F201004FF010014FF0AC
:103E70000502FFF755FF4FF40060C4F201004FF058
:103E800020014FF00502FFF74BFF4FF48053C4F2BF
:103E900002034FF48052C4F20202D26942F000528F
:103EA000DA614FF4E843C4F200034FF001121A60E4
:103EB00008BD00BFAFF30080AFF30080AFF3008018
:103EC00082B001904FF4E843C4F20003019A1288D3
:103ED0009A604FF4E843C4F20003019A52885A6191
:103EE00002B07047AFF30080AFF30080AFF3008003
:103EF00008B540F69860C2F200004FF00001FEF7EE
:103F0000F7FA4FF40060C4F201004FF400714FF073
:103F10001002FFF705FF4FF40060C4F201004FF4F8
:103F200080614FF00202FFF7FBFE08BDAFF3008097
:103F300000B583B042484FF0FF31FDF7B9FE0346AC
:103F40000193019BB3F1FF3F03D0019B13F1020FDB
:103F500002D14FF0010301E04FF000038DF8033070
:103F60009DF80330002B69D1019B8DF8023041F29E
:103F70008073C2F200031B78002B37D19DF802300A
:103F8000002B13D141F28473C2F200031B6841F28B
:103F90004070C2F20000194600F062F841F28473EA
:103FA000C2F200034FF000021A6039E09DF80230BF
:103FB0005C2B13D041F28473C2F200031A6841F201
:103FC0004073C2F200039DF80210995402F10102FD
:103FD00041F28473C2F200031A6021E041F280735F
:103FE000C2F200034FF001021A7019E041F280732F
:103FF000C2F200034FF000021A7041F28473C2F261
:1040000000031A6841F24073C2F200039DF80210E7
:10401000995402F1010241F28473C2F200031A6062
:1040200041F28473C2F200031B68202BB4BF1A460E
:10403000202241F28473C2F200031A6003B000BD73
:10404000A80E0020AFF30080AFF30080AFF3008034
:1040500041F26073C2F2000318467047AFF300806C
:1040600000B587B001900091019B1B788DF813304B
:10407000019B03F1010303939DF81330012B02D040
:10408000022B1AD01CE04FF0000305930EE0059BB5
:10409000039A13441A7841F26073C2F2000305993F
:1040A0000B441A70059B03F101030593009B03F178
:1040B000FF32059B9A42EADC02E000F009F800BFFB
:1040C00007B000BDAFF30080AFF30080AFF3008016
:1040D00000B583B041F24073C2F200035B780193F4
:1040E0004FF010030093019A009B9A4201DA019B62
:1040F00001E04FF00003019340F60003C2F2000319
:10410000019A53F8223041F26070C2F200009847E1
:1041100003B000BDAFF30080AFF30080AFF30080C9
:1041200000B587B001904FF0200383F31188FCF7AE
:1041300057FD019B9B684FEA53034FEA43030493E7
:10414000FCF76EFD4FF0000383F31188049BB3F579
:10415000C07F28BF4FF4C07304934FF00003059352
:1041600029E001984FF00001FDF7A2FD03460393FB
:10417000039BB3F1FF3F03D0039B13F1020F02D166
:104180004FF0010301E04FF000038DF80B309DF874
:104190000B30002B02D1039BDBB201E04FF0000398
:1041A0008DF80A309DF80A30184600F071F9059B29
:1041B00003F101030593059A049B9A42D1D300F0C1
:1041C00087F907B000BD00BFAFF30080AFF30080F8
:1041D00000B585B0019000F063FB0346039303989C
:1041E000FFF79EFF05B000BDAFF30080AFF3008086
:1041F00000B585B0019000F05BFB03460393039884
:10420000FFF78EFF05B000BDAFF30080AFF3008075
:1042100000B585B0019000F053FB0346039303986B
:10422000FFF77EFF05B000BDAFF30080AFF3008065
:1042300000B585B00190019B1B781A46019B03F1E4
:1042400001031B784FEA03231A44019B03F1020385
:104250001B784FEA03431A44019B03F103031B78C5
:104260004FEA036313440393039800F0E1FA05B0A7
:1042700000BD00BFAFF30080AFF30080AFF300805C
:1042800000B583B00190019B1B78184600F000FA3E
:1042900003B000BDAFF30080AFF30080AFF3008048
:1042A00000B583B00190019B1B78184601F0D0F94E
:1042B00003B000BDAFF30080AFF30080AFF3008028
:1042C00000B583B00190019B1B78184601F0E0F91E
:1042D00003B000BDAFF30080AFF30080AFF3008008
:1042E00000B585B0019000F0D3FA0346039303981C
:1042F0004FF000014FF0FF32FDF7C2FD05B000BDE9
:1043000000B585B0019000F0C3FA0346039303980B
:104310004FF001014FF0FF32FDF7B2FD05B000BDD7
:1043200000B585B0019000F0B3FA034603930398FB
:104330004FF002014FF0FF32FDF7A2FD05B000BDC6
:1043400000B585B0019000F0A3FA034603930398EB
:104350004FF003014FF0FF32FDF792FD05B000BDB5
:1043600000B589B0019045F68033C0F600030DF129
:10437000080C0FCBACE80700ACF800304FF00D0391
:1043800006934FF0000307930AE002AA079B134429
:104390001B78184600F07CF8079B03F10103079394
:1043A000079A069B9A42F0DB00F092F809B000BD34
:1043B00000B587B0019045F69032C0F6000202AB1E
:1043C00092E80300186003F1040319804FF005031D
:1043D00004934FF0000305930AE002AA059B1344DF
:1043E0001B78184600F054F8059B03F10103059370
:1043F000059A049B9A42F0DB00F06AF807B000BD12
:1044000000B585B00190019B1B781A46019B03F112
:1044100001031B784FEA03231A44019B03F10203B3
:104420001B784FEA03431A44019B03F103031B78F3
:104430004FEA036313440393039800F009FA05B0AD
:1044400000BD00BFAFF30080AFF30080AFF300808A
:1044500000B585B00190019B1B788DF80F309DF859
:104460000F30184600F004FA05B000BDAFF300802D
:1044700000B585B0019000F02BFA03460393039832
:10448000FFF74EFE05B000BDAFF30080AFF3008034
:1044900000B583B003468DF807309DF80730002B38
:1044A00003D09DF807305C2B06D108484FF05C0123
:1044B0004FF0FF32FDF7E4FC9DF807300348194642
:1044C0004FF0FF32FDF7DCFC03B000BDC80E00204A
:1044D00008B504484FF000014FF0FF32FDF7D0FC63
:1044E00008BD00BFC80E0020AFF30080AFF300800E
:1044F00000B583B0019040F6A453C2F20003DA691C
:1045000045F6A033C0F60003936141F28870C2F211
:104510000000FDF785F941F29873C2F200031A68B2
:1045200041F65013C2F200031A6041F65013C2F272
:1045300000031B6803F00103DBB2002B0CD04FF427
:104540008053C4F201034FF48052C4F20102D268D6
:1045500082F02002DA6006E04FF48053C4F20103D7
:104560004FF020025A6141F65013C2F200031B685B
:1045700003F00203002B0CD04FF44063C4F201039C
:104580004FF44062C4F20102D26882F00102DA60A4
:1045900006E04FF44063C4F201034FF001025A6198
:1045A00041F65013C2F200031B6803F00403002B12
:1045B0000CD04FF44063C4F201034FF44062C4F2E4
:1045C0000102D26882F00202DA6006E04FF4406332
:1045D000C4F201034FF002025A61FDF7C1F94FF036
:1045E0007D00FDF73DF890E7AFF30080AFF300806A
:1045F00000B583B04FF48053C4F201034FF02002A2
:104600005A614FF44063C4F201034FF001025A6152
:104610004FF44063C4F201034FF002025A614FF4B9
:104620008050C4F201004FF020014FF00602FFF766
:1046300077FB4FF44060C4F201004FF001014FF0EE
:104640000602FFF76DFB4FF44060C4F201004FF02B
:1046500002014FF00602FFF763FB41F28870C2F2DD
:104660000000FDF7BDF84FF00003009341F2A07089
:10467000C2F200004FF4D8714FF0400244F2F1430F
:10468000C0F60003FCF7ACFF03B000BDAFF3008041
:1046900000B583B0019041F28870C2F20000FDF7CE
:1046A000BFF841F29873C2F20003019A1A60FDF755
:1046B00057F903B000BD00BFAFF30080AFF3008037
:1046C00000B587B003900291019241F68463C2F273
:1046D00000031B78184600F003F9029800F0D8FC9C
:1046E000029800F05DFE4FF0200383F31188FCF781
:1046F000B7FA41F6B440C2F20000FDF711FC0346E0
:104700000593059B13F1030F0CBF002301238DF8C4
:1047100013309DF81330002B06D0059BDAB241F61A
:104720008463C2F200031A70FCF7BAFA4FF0000378
:1047300083F311889DF81330002B07D041F6846372
:10474000C2F200031B78184600F0F2F807B000BD73
:1047500008B541F6B440C2F2000041F6D441C2F2BD
:1047600000014FF004024FF00003FDF761FB41F63A
:104770005410C2F2000041F6B411C2F200014FF42D
:1047800080724FF00003FDF723FA41F67410C2F275
:10479000000041F6B421C2F200014FF480724FF0E4
:1047A0000003FDF715FA41F69410C2F2000041F63D
:1047B000B431C2F200014FF480724FF00003FDF7F4
:1047C00007FA41F6E440C2F2000041F60451C2F299
:1047D00000014FF4C0724FF00003FDF7F9F94FF4F8
:1047E0008050C4F201004FF4E0514FF00502FFF792
:1047F00097FA40F60C60C2F200004FF00001FDF79E
:10480000AFFC40F60C60C2F2000045F6B041C0F6C5
:10481000000141F68862C2F200024FF00203FDF788
:10482000D7FC08BDAFF30080AFF30080AFF300808A
:1048300082B00190019A40F64803C2F200031A6068
:1048400002B07047AFF30080AFF30080AFF3008099
:1048500082B00190019A40F64C03C2F200031A6044
:1048600002B07047AFF30080AFF30080AFF3008079
:1048700082B003468DF8073040F65003C2F20003C1
:104880009DF807201A7002B0704700BFAFF3008098
:1048900041F6B443C2F2000318467047AFF30080FC
:1048A00041F65413C2F2000318467047AFF300807C
:1048B00041F67413C2F2000318467047AFF300804C
:1048C00041F69413C2F2000318467047AFF300801C
:1048D00041F6E443C2F2000318467047AFF300808C
:1048E00000B583B00190019B042B1CD801A252F8A3
:1048F00023F000BF094900080F49000815490008C6
:104900001B4900082149000800F062F80BE000F0A4
:10491000FFF808E000F0ECF905E000F0F9FA02E039
:1049200000F0AEFB00BF03B000BD00BFAFF30080DE
:1049300000B583B00190019B042B1CD801A252F852
:1049400023F000BF594900085F4900086549000885
:104950006B4900087149000800F012F80BE000F004
:104960004FF808E000F014F905E000F009FA02E061
:1049700000F07EFB00BF03B000BD00BFAFF30080BE
:1049800000B583B0FFF764FB03460193019B1B78DE
:104990001A46019B03F101031B784FEA03231A44D3
:1049A00040F64403C2F200031A60019B03F10203C4
:1049B0001B781A46019B03F103031B784FEA03237C
:1049C0001A4440F64003C2F200031A6003B000BD6F
:1049D00000B583B040F64403C2F200031B689BB2EB
:1049E000ADF8043040F64003C2F200031B689BB2EE
:1049F000ADF8063001AB1846FFF762FA03B000BD10
:104A000000B583B0FFF724FB03460193019B1B789D
:104A10001A46019B03F101031B784FEA03239BB263
:104A200013449AB241F69863C2F200031A80019BC4
:104A300003F102031B781A46019B03F103031B7861
:104A40004FEA03239BB213449AB241F69863C2F231
:104A500000035A8041F69860C2F20000FFF730FA76
:104A600040F64403C2F200031B689AB241F69C630D
:104A7000C2F200031A8040F64003C2F200031B6832
:104A80009AB241F69C63C2F200035A8041F69863E1
:104A9000C2F200031B881A4640F64403C2F2000328
:104AA0001A6041F69863C2F200035B881A4640F62A
:104AB0004003C2F200031A60019B03F104031B7858
:104AC0001A46019B03F105031B784FEA03231A449E
:104AD000019B03F106031B784FEA03431A44019B31
:104AE00003F107031B784FEA03631A4440F65403AB
:104AF000C2F200031A6041F69463C2F200034FF061
:104B000000021A6000F05CFD03B000BDAFF300804E
:104B100008B541F69463C2F200031B6803F1010279
:104B200041F69463C2F200031A6041F69463C2F244
:104B300000031A6840F65403C2F200031B689A424D
:104B400022D341F69C60C2F20000FFF7B9F941F6AA
:104B50009C63C2F200031B881A4640F64403C2F26B
:104B600000031A6041F69C63C2F200035B881A4698
:104B700040F64003C2F200031A6041F68463C2F2B9
:104B800000034FF000021A7008BD00BFAFF30080B1
:104B900000B583B0FFF75CFA03460193019B1B78D5
:104BA0001A46019B03F101031B784FEA03239BB2D2
:104BB00013449AB241F6A463C2F200031A80019B27
:104BC00003F102031B781A46019B03F103031B78D0
:104BD0004FEA03239BB213449AB241F6A463C2F294
:104BE00000035A80019B03F104031B781A46019BC2
:104BF00003F105031B784FEA03231A44019B03F1D9
:104C000006031B784FEA03431A44019B03F1070391
:104C10001B784FEA03631A4440F65803C2F20003BC
:104C20001A60019B03F108031B781A46019B03F1EC
:104C300009031B784FEA03239BB213449AB241F64F
:104C4000A863C2F200031A80019B03F10A031B78D8
:104C50001A46019B03F10B031B784FEA03239BB217
:104C600013449AB241F6A863C2F200035A80019B32
:104C700003F10C031B781A46019B03F10D031B780B
:104C80004FEA03231A44019B03F10E031B784FEAFA
:104C900003431A44019B03F10F031B784FEA03639C
:104CA0001A4440F65C03C2F200031A6040F65C034B
:104CB000C2F200031A6840F65803C2F200031B68F0
:104CC0001A4440F65C03C2F200031A6040F65C032B
:104CD000C2F200031A6841F6A063C2F200031A6030
:104CE00000F06EFC03B000BDAFF30080AFF30080B6
:104CF00008B541F6A063C2F200031B6803F101028C
:104D000041F6A063C2F200031A6041F6A063C2F24A
:104D100000031A6840F65803C2F200031B689A4267
:104D200006D141F6A860C2F20000FFF7C9F824E0FE
:104D300041F6A063C2F200031A6840F65C03C2F2B7
:104D400000031B689A4218D341F6A460C2F2000027
:104D5000FFF7B6F841F6A063C2F200031A6840F606
:104D60005C03C2F200031B68C3EB020241F6A063BE
:104D7000C2F200031A6000F023FC08BDAFF300800C
:104D800000B583B0FFF764F903460193019B1B78DC
:104D90001A46019B03F101031B784FEA03239BB2E0
:104DA00013449AB241F6B063C2F200031A80019B29
:104DB00003F102031B781A46019B03F103031B78DE
:104DC0004FEA03239BB213449AB241F6B063C2F296
:104DD00000035A80019B03F104031B781A46019BD0
:104DE00003F105031B784FEA03239BB213449AB2E5
:104DF00041F6B463C2F200031A80019B03F106037B
:104E00001B781A46019B03F107031B784FEA032323
:104E10009BB213449AB241F6B463C2F200035A80C3
:104E2000019B03F108031B781A46019B03F1090358
:104E30001B784FEA03231A44019B03F10A031B78F2
:104E40004FEA03431A44019B03F10B031B784FEA1B
:104E5000036313441A4640F66003C2F200031A606B
:104E600040F66003C2F200031B681846FBF7FAF92C
:104E7000034624481946FBF7FFFA03461A4640F654
:104E80006403C2F200031A6041F6B463C2F2000385
:104E90001B881A4641F6B063C2F200031B88C3EBBD
:104EA00002031846FBF7DEF9024641F6B863C2F288
:104EB00000031A6041F6B463C2F200035B881A462D
:104EC00041F6B063C2F200035B88C3EB02031846ED
:104ED000FBF7C8F9024641F6BC63C2F200031A6050
:104EE00041F6AC63C2F200034FF000021A6040F6D4
:104EF0006803C2F200034FF001021A7000F060FB79
:104F000003B000BD0000803FAFF30080AFF300802E
:104F100000B587B040F66803C2F200031B785AB2AE
:104F200041F6AC63C2F200031B681A4441F6AC635D
:104F3000C2F200031A6041F6AC63C2F200031A68C1
:104F400040F66003C2F200031B689A42B4BF00231C
:104F500001238DF8133041F6AC63C2F200031B68E5
:104F6000002BCCBF002301238DF812309DF81330A5
:104F7000002B06D040F66003C2F200031B680593C5
:104F80000FE09DF81230002B05D04FF00003059381
:104F900000F016FB05E041F6AC63C2F200031B68AB
:104FA00005939DF81330002B03D19DF81230002B90
:104FB0000CD040F66803C2F200031B78C3F1000373
:104FC000DAB240F66803C2F200031A700598FBF7E4
:104FD00049F9024640F66403C2F200031B6810461A
:104FE0001946FBF795F90346039341F6B063C2F205
:104FF00000031B88029341F6B863C2F200031B68EA
:1050000018460399FBF784F903461846FBF7D0FAD4
:105010000246029B13440193019B9BB2ADF8003002
:1050200041F6B063C2F200035B88029341F6BC63B1
:10503000C2F200031B6818460399FBF769F903469F
:105040001846FBF7B5FA0246029B13440193019BF5
:105050009BB2ADF802306B461846FEF731FF07B041
:1050600000BD00BFAFF30080AFF30080AFF300805E
:10507000704700BFAFF30080AFF30080AFF3008054
:10508000704700BFAFF30080AFF30080AFF3008044
:1050900000B587B0019041F6D843C2F200031B6807
:1050A00003F1010241F6D843C2F200031A6040F650
:1050B0004803C2F200031B684FEAA3030593059A55
:1050C00047F6FF739A42B8BF13460493049B012B23
:1050D000B8BF0123049340F66C03C2F200031B68BF
:1050E0004FEA430303F10103049A02F1FF3202FB8A
:1050F00003F2019B1B884FEA4313134403F101029F
:10510000049BB2FBF3F240F66C03C2F200031A6098
:1051100040F66C03C2F200031B684FEA530240F6EC
:105120006C03C2F200031A6040F66C03C2F2000383
:105130005B684FEA430303F10103049A02F1FF3273
:1051400002FB03F2019B03F102031B884FEA4313A6
:10515000134403F10102049BB2FBF3F240F66C032B
:10516000C2F200035A6040F66C03C2F200035B68AF
:105170004FEA530240F66C03C2F200035A6040F655
:105180006C03C2F200039B684FEA430303F101037F
:10519000049A02F1FF3202FB03F2019B03F10403C4
:1051A0001B884FEA4313134403F10102049BB2FB33
:1051B000F3F240F66C03C2F200039A6040F66C030F
:1051C000C2F200039B684FEA530240F66C03C2F23E
:1051D00000039A6041F6D843C2F200031A6840F611
:1051E0004803C2F200031B689A42C0F2D08041F625
:1051F000D843C2F200031A6840F64803C2F2000323
:105200001B68C3EB020241F6D843C2F200031A60E6
:105210004FF0200383F31188FBF722FD41F654136E
:10522000C2F200031B691A4641F65413C2F200038E
:10523000DB68C3EB02031A4641F65413C2F20003C3
:105240009B68C3EB0203012B40F29B8041F6741371
:10525000C2F200031B691A4641F67413C2F200033E
:10526000DB68C3EB02031A4641F67413C2F2000373
:105270009B68C3EB0203012B40F2838041F6941339
:10528000C2F200031B691A4641F69413C2F20003EE
:10529000DB68C3EB02031A4641F69413C2F2000323
:1052A0009B68C3EB0203012B6BD940F66C03C2F27F
:1052B00000031B68ADF80E30BDF80E308DF80D30D0
:1052C000BDF80E304FEA13239BB28DF80C309DF8D9
:1052D0000D3041F65410C2F200001946FCF7A0FC54
:1052E0009DF80C3041F65410C2F200001946FCF74C
:1052F00097FC40F66C03C2F200035B68ADF80E3019
:10530000BDF80E308DF80D30BDF80E304FEA132386
:105310009BB28DF80C309DF80D3041F67410C2F23E
:1053200000001946FCF77CFC9DF80C3041F6741027
:10533000C2F200001946FCF773FC40F66C03C2F29F
:1053400000039B68ADF80E30BDF80E308DF80D30BF
:10535000BDF80E304FEA13239BB28DF80C309DF848
:105360000D3041F69410C2F200001946FCF758FCCB
:105370009DF80C3041F69410C2F200001946FCF77B
:105380004FFCFBF78DFC4FF0000383F3118807B04F
:1053900000BD00BFAFF30080AFF30080AFF300802B
:1053A00000B587B0019041F6E043C2F200031B78DC
:1053B000002B00F0FF804FF0200383F31188FBF7F0
:1053C0004FFC40F65003C2F200031B788DF81730F3
:1053D000FBF766FC4FF0000383F311889DF817304C
:1053E00003F00103DBB2002B02D04FF0020301E017
:1053F0004FF000039DF8172002F002021A449DF8B6
:10540000173003F00403002B02D04FF0020301E039
:105410004FF00003134404934FF0200383F31188EB
:10542000FBF71EFC41F65413C2F200031B691A4637
:1054300041F65413C2F20003DB68C3EB02031A46C1
:1054400041F65413C2F200039B68C3EB02030393BB
:10545000FBF726FC4FF0000383F31188039A049BAB
:105460009A4207DA41F6E043C2F200034FF000022D
:105470001A70A2E041F6DC43C2F200031B6803F19C
:10548000010241F6DC43C2F200031A6041F6DC433C
:10549000C2F200031A6840F64C03C2F200031B6814
:1054A0009A42C0F289804FF0200383F31188FBF702
:1054B000D7FB9DF8173003F00103DBB2002B20D09F
:1054C000019B1B88ADF80A30BDF80A308DF8093011
:1054D000BDF80A304FEA13239BB28DF808309DF8CF
:1054E000093041F65410C2F200001946FCF798FB4F
:1054F0009DF8083041F65410C2F200001946FCF73E
:105500008FFB9DF8173003F00203002B22D0019B84
:1055100003F102031B88ADF80A30BDF80A308DF89C
:105520000930BDF80A304FEA13239BB28DF80830DA
:105530009DF8093041F65410C2F200001946FCF7FC
:105540006FFB9DF8083041F65410C2F20000194676
:10555000FCF766FB9DF8173003F00403002B22D004
:10556000019B03F104031B88ADF80A30BDF80A3033
:105570008DF80930BDF80A304FEA13239BB28DF83D
:1055800008309DF8093041F65410C2F20000194667
:10559000FCF746FB9DF8083041F65410C2F20000BB
:1055A0001946FCF73DFBFBF77BFB4FF0000383F351
:1055B000118802E000BF00E000BF07B000BD00BFDF
:1055C00041F6E443C2F200039B68002B14BF0023A2
:1055D0000123DAB241F6E043C2F200031A7041F649
:1055E000E043C2F200031B78002B06D041F6DC43F7
:1055F000C2F200034FF000021A607047AFF3008060
:1056000008B54FF44063C4F201034FF400725A61CD
:105610004FF44063C4F201034FF480725A614FF4B7
:105620004060C4F201004FF400714FF00602FEF733
:1056300077FB4FF44060C4F201004FF480714FF0EB
:105640000602FEF76DFB08BDAFF30080AFF30080EC
:1056500082B003468DF807309DF80730002B07D045
:105660004FF44063C4F201034FF400721A6106E084
:105670004FF44063C4F201034FF400725A6102B068
:10568000704700BFAFF30080AFF30080AFF300803E
:1056900082B003468DF807309DF80730002B07D005
:1056A0004FF44063C4F201034FF480721A6106E0C4
:1056B0004FF44063C4F201034FF480725A6102B0A8
:1056C000704700BFAFF30080AFF30080AFF30080FE
:1056D00069646C65000000006D61696E0000000087
:1056E00053562331000000005356233200000000BF
:1056F00053562333000000005356233400000000AB
:105700005356233500000000535623360000000096
:105710005356233700000000535623380000000082
:105720005356233900000000535623313000000047
:10573000535623313100000000000000000000003B
:1057400022636856545365744922282900000000DA
:1057500022636856545265736574492228290000F3
:105760006368565452657365744928292C20233187
:105770000000000000000000000000000000000029
:10578000636853636852656164794928292C202332
:1057900031000000737461636B206F766572666C14
:1057A0006F77000000000000000000000000000013
:1057B00022636854686443726561746549222829CC
:1057C0000000000022636854686453657450726975
:1057D0006F72697479222829000000006368546898
:1057E00064526573756D6528292C202331000000F3
:1057F000226368546864536C656570222829000030
:105800006368546864457869745328292C202331CF
:10581000000000002263685468645761697422289C
:105820002900000063685468645761697428292C52
:1058300020233100000000000000000000000000F4
:105840002263684D7478496E69742228290000002B
:105850002263684D74784C6F636B532228290000D3
:1058600063684D74784C6F636B5328292C20233167
:105870000000000063684D74784C6F636B532829F7
:105880002C202332000000002263684D747854728B
:10589000794C6F636B5322282900000063684D74B4
:1058A00078556E6C6F636B28292C20233100000023
:1058B00063684D7478556E6C6F636B28292C2023B8
:1058C0003200000063684D7478556E6C6F636B53E3
:1058D00028292C202331000063684D7478556E6CA4
:1058E0006F636B5328292C20233200000000000036
:1058F00022636845767452656769737465724D6199
:10590000736B222829000000226368457674556E67
:10591000726567697374657222282900226368457D
:1059200076745369676E616C22282900226368458A
:1059300076745369676E616C492228290000000063
:1059400022636845767442726F6164636173744D5B
:1059500061736B4922282900226368457674446983
:1059600073706174636822282900000063684576BB
:1059700074446973706174636828292C2023310092
:1059800022636849515265616454696D656F75742D
:10599000222829002263684F51577269746554693F
:1059A0006D656F757422282900000000000000005A
:1059B000226164635374617274222829000000001C
:1059C000616463537461727428292C2023310000B0
:1059D0002261646353746F702228290061646353E9
:1059E000746F7028292C2023310000002261646329
:1059F0005374617274436F6E76657273696F6E492A
:105A0000222829006164635374617274436F6E7657
:105A1000657273696F6E4928292C202331000000BC
:105A20002261646353746F70436F6E76657273693D
:105A30006F6E22282900000061646353746F704305
:105A40006F6E76657273696F6E28292C2023310082
:105A50002261646353746F70436F6E76657273690D
:105A60006F6E49222829000061646353746F70438C
:105A70006F6E76657273696F6E4928292C20233109
:105A800000000000616463436F6E766572742829BC
:105A90002C20233100000000226164634163717592
:105AA00069726542757322282900000022616463CF
:105AB00052656C6561736542757322282900000088
:105AC00022736453746172742228290073645374BE
:105AD00061727428292C2023310000002273645342
