:020000040800F2
:100000000004002021060008F1070008F10700089D
:10001000F1070008F1070008F1070008F1070008E0
:10002000F1070008F1070008F1070008210800089F
:10003000F1070008F1070008F1070008F1080008BF
:10004000F1070008F1070008F1070008F1070008B0
:10005000F1070008F1070008F1070008F1070008A0
:10006000F1070008F1070008F1070008911B0008DC
:10007000C11B0008F11B0008311C0008711C00089E
:10008000B11C0008F11C0008F1070008F107000886
:10009000F1070008F1070008F1070008F107000860
:1000A000F1070008F1070008F1070008F107000850
:1000B000F1070008F1070008F1070008E121000836
:1000C000A1230008F1070008F1070008F107000864
:1000D000F1070008F126000811270008F1070008C1
:0C00E000F1070008F1070008F107000814
:1000F00080F0004002E000BF81F0004142001FBFDD
:100100005FEA410392EA030F7FEA226C7FEA236CE5
:100110006AD04FEA1262D2EB1363C1BFD2184140DA
:1001200048404140B8BF5B42192B88BF704710F070
:10013000004F40F4000020F07F4018BF404211F013
:10014000004F41F4000121F07F4118BF494292EA7B
:10015000030F3FD0A2F1010241FA03FC10EB0C00A7
:10016000C3F1200301FA03F100F0004302D5494234
:1001700060EB4000B0F5000F13D3B0F1807F06D3E1
:1001800040084FEA310102F10102FE2A51D2B1F1D9
:10019000004F40EBC25008BF20F0010040EA0300CE
:1001A0007047490040EB000010F4000FA2F101027B
:1001B000EDD1B0FA80FCACF1080CB2EB0C0200FA05
:1001C0000CF0AABF00EBC25052421843BCBFD04053
:1001D0001843704792F0000F81F4000106BF80F4CD
:1001E00000000132013BB5E74FEA41037FEA226C90
:1001F00018BF7FEA236C21D092EA030F04D092F05B
:10020000000F08BF0846704790EA010F1CBF00208E
:10021000704712F07F4F04D1400028BF40F00040EB
:10022000704712F100723CBF00F50000704700F00B
:10023000004343F0FE4040F4000070477FEA226232
:1002400016BF08467FEA23630146420206BF5FEA03
:10025000412390EA010F40F4800070474FF0000303
:1002600004E000BF10F0004348BF40425FEA000CCA
:1002700008BF704743F0964301464FF000001CE072
:1002800050EA010208BF70474FF000030AE000BFC8
:1002900050EA010208BF704711F0004302D5404206
:1002A00061EB41015FEA010C02BF84460146002078
:1002B00043F0B64308BFA3F18053A3F50003BCFA93
:1002C0008CF2083AA3EBC25310DB01FA02FC634440
:1002D00000FA02FCC2F12002BCF1004F20FA02F247
:1002E00043EB020008BF20F00100704702F120023A
:1002F00001FA02FCC2F1200250EA4C0021FA02F29B
:1003000043EB020008BF20EADC70704700000000E9
:100310004FF0FF0C1CEAD0521EBF1CEAD15392EAE8
:100320000C0F93EA0C0F6FD01A4480EA010C4002C4
:1003300018BF5FEA41211ED04FF0006343EA50101E
:1003400043EA5111A0FB01310CF00040B1F5000F60
:100350003EBF490041EAD3715B0040EA010062F10F
:100360007F02FD2A1DD8B3F1004F40EBC25008BFF9
:1003700020F00100704790F0000F0CF0004C08BF17
:1003800049024CEA502040EA51207F3AC2BFD2F1E4
:10039000FF0340EAC250704740F400004FF00003F2
:1003A000013A5DDC12F1190FDCBF00F0004070472C
:1003B000C2F10002410021FA02F1C2F1200200FA6A
:1003C00002FC5FEA310040F1000053EA4C0308BF31
:1003D00020EADC70704792F0000F00F0004C02BF82
:1003E000400010F4000F013AF9D040EA0C0093F0FD
:1003F000000F01F0004C02BF490011F4000F013B57
:10040000F9D041EA0C018FE70CEAD15392EA0C0FC4
:1004100018BF93EA0C0F0AD030F0004C18BF31F02F
:10042000004CD8D180EA010000F00040704790F005
:10043000000F17BF90F0004F084691F0000F91F0A9
:10044000004F14D092EA0C0F01D142020FD193EA6F
:100450000C0F03D14B0218BF084608D180EA0100F7
:1004600000F0004040F0FE4040F40000704740F0D3
:10047000FE4040F4400070474FF0FF0C1CEAD052A1
:100480001EBF1CEAD15392EA0C0F93EA0C0F69D0FD
:10049000A2EB030280EA010C49024FEA402037D068
:1004A0004FF0805343EA111143EA10130CF000405F
:1004B0008B4238BF5B0042F17D024FF4000C8B424F
:1004C00024BF5B1A40EA0C00B3EB510F24BFA3EB2F
:1004D000510340EA5C00B3EB910F24BFA3EB9103FF
:1004E00040EA9C00B3EBD10F24BFA3EBD10340EA59
:1004F000DC001B0118BF5FEA1C1CE0D1FD2A3FF69F
:1005000050AF8B4240EBC25008BF20F00100704753
:100510000CF0004C4CEA50207F32C2BFD2F1FF03F6
:1005200040EAC250704740F400004FF00003013A27
:1005300037E792F0000F00F0004C02BF400010F4CB
:10054000000F013AF9D040EA0C0093F0000F01F0DF
:10055000004C02BF490011F4000F013BF9D041EA01
:100560000C0195E70CEAD15392EA0C0F08D1420234
:100570007FF47DAF93EA0C0F7FF470AF084676E707
:1005800093EA0C0F04D14B023FF44CAF08466EE7E0
:1005900030F0004C18BF31F0004CCAD130F00042AE
:1005A0007FF45CAF31F000437FF43CAF5FE700BF06
:1005B0004FEA4002B2F1FE4F0FD34FF09E03B3EB70
:1005C00012620DD94FEA002343F0004310F0004FB0
:1005D00023FA02F018BF404270474FF00000704706
:1005E00012F1610F01D1420205D110F0004008BFA5
:1005F0006FF0004070474FF00000704700000000AF
:10060000704700BFAFF30080AFF30080AFF300800E
:10061000FEE700BFAFF30080AFF30080AFF30080D0
:1006200072B6634880F30988022383F31488BFF30A
:100630006F8F604A604CA24217D213464FF055317B
:10064000D64343F8041BA519A342C5F380050CD279
:1006500025B1196002F10803A34206D21A4642F8F6
:10066000041B5960131DA342F8D3544A824217D287
:1006700013464FF05531D54343F8041B44198342C8
:10068000C4F380040CD224B1196002F10803834240
:1006900006D21E4646F8041B5960331D8342F8D328
:1006A00002F096F9464C4749A14222D246480B46F1
:1006B000024652F8046BCD4343F8046B04EB050C7F
:1006C000A342CCF3800514D23DB1166800F10802B4
:1006D0001E6001F10803A3420BD2104650F8045BE0
:1006E000194641F8045B5668021D5E600B1DA3426B
:1006F000F3D3364A3648824217D200211346D443F8
:1007000043F8041B00EB040E8342CEF380040CD2AA
:1007100024B1196002F10803834206D21A4642F856
:10072000041B5960131D8342F8D32A4D2A4EFFF74C
:1007300067FFB54219D22C4654F8043BE9437718B9
:100740009847B442C7F380070FD22FB1236805F151
:1007500008049847B44208D2254655F8042B904720
:1007600060682C1D8047B442F6D31C4D1C4E02F02D
:100770003FF9B5421AD22C46EF4354F8043B06EB3E
:10078000070CCCF380079847B4420FD22FB12268F0
:1007900005F108049047B44208D2254655F8040BE9
:1007A000804761682C1D8847B442F6D3FFF730BFFD
:1007B00000080020000000200004002000040020A9
:1007C0002408002000080020703B000828080020B2
:1007D000C41C0020EC000008EC000008EC0000083D
:1007E000EC000008AFF30080AFF30080AFF30080AF
:1007F000FEE700BFAFF30080AFF30080AFF30080EF
:1008000072B6FEE7AFF30080AFF30080AFF3008075
:1008100000F06EF900F0D4FB00F08AF900DF00BFB1
:10082000EFF30983203383F30988002383F31188CE
:10083000704700BFAFF30080AFF30080AFF30080DC
:100840000A4B002210B59A60094A07201021DA608D
:1008500000F0A6F80A204FF4007100F0A1F80B2078
:100860008021BDE8104000F09BB800BF00ED00E023
:100870000000FA05AFF30080AFF30080AFF3008013
:10088000202383F311881648436813F4006316D0BD
:10089000EFF30983203B83F30988124A4FF08070FD
:1008A0009169D86171B11068D2698168926891428A
:1008B00094BF002201227AB10B499961704783F3FA
:1008C000118870471068D26981689268914234BF7C
:1008D00000220122002AEFD1044A9A61704700BF2A
:1008E00000ED00E0540D0020110800081C0800086D
:1008F00010B500F07DF9202383F3118800F038F95A
:1009000000F0AEF800F054F9002383F3118800F0F2
:100910008FF9BDE81040FFF7B3BF00BFAFF3008011
:100920002DE9F04FC1F80CD0D0F80CD0BDE8F08F15
:1009300008B500F0FDF8002383F311882846A0478E
:1009400000F056FC08BD00BFAFF30080AFF300809D
:10095000F0B400F00307FE00FF2313FA06F200F0E4
:100960001F04B1400125A5408608094CC03654F843
:100970002670400927EA020242EA010300F16007FB
:1009800044F8263044F8275044F82050F0BC704713
:1009900000E100E0AFF30080AFF30080AFF3008030
:1009A00000F0030210B4FF23D40013FA04F2A140B4
:1009B0008008064C063054F8203023EA020242EA4E
:1009C000010344F8203010BC704700BF00ED00E088
:1009D0000248034AC3699A61FEE700BF540D002034
:1009E00020350008AFF30080AFF30080AFF3008044
:1009F00030B583B0FFF724FF00F012FA00F0A8F939
:100A000000F0DEFE00F064F940210E4800F000FB2B
:100A10000D4D0E490124E86180F82040C16100F0CD
:100A20004FF8002383F3118862B6EA691D46084B2C
:100A3000C021936107482246074B009500F050FB08
:100A400003B030BD28080020540D00200004002011
:100A50002835000870080020D1090008AFF3008095
:100A600070B500F005F9114B9A69002A01DD013AD1
:100A70009A61DA690E4C516A2368481C5062E16839
:100A8000481CA342E0600FD09D68013D9D605DB9A8
:100A900026461968DA681869DD604E602160904763
:100AA000236898680028F4D070BD00BF540D002062
:100AB000440D0020AFF30080AFF30080AFF300805F
:100AC0000548036813B9054A116821B10448054B6C
:100AD0001860FFF795BE7047300900203C0D0020DC
:100AE00040350008400D0020AFF30080AFF30080D8
:100AF000084810B5036853B9074C216821B1074A6B
:100B0000074B1A60FFF77CFE0120206010BD024CED
:100B1000F5E700BF300900203C0D002048350008F3
:100B2000400D0020AFF30080AFF30080AFF30080F2
:100B3000094810B5036833B9084C2168002903DD62
:100B40000020206010BD054C054A064B1A60FFF7D7
:100B500057FE0020206010BD300900203C0D002011
:100B600050350008400D0020AFF30080AFF3008047
:100B7000084810B50368002B0ADD074C216821B135
:100B8000064A074B1A60FFF73BFE0120206010BDAC
:100B9000014CF5E7300900203C0D002058350008D5
:100BA000400D0020AFF30080AFF30080AFF3008072
:100BB0000A4810B50368002B06DD094C216800299E
:100BC00003DD0020206010BD054C064A064B1A606C
:100BD000FFF716FE0020206010BD00BF3009002086
:100BE0003C0D002060350008400D0020AFF3008070
:100BF00010B5202383F31188094C2368002B02DBF6
:100C0000084802682AB1084B08491960FFF7F8FD47
:100C100023685A1C2260002383F3118810BD00BF93
:100C2000300900203C0D0020400D002068350008F0
:100C300010B5202383F31188094C2368002B02DDB3
:100C4000084802682AB1084B08491960FFF7D8FD27
:100C500023685A1E2260002383F3118810BD00BF51
:100C6000300900203C0D0020400D002070350008A8
:100C700006480368002B04DB054A1168002900DDE3
:100C800070470448044B1860FFF7BABD30090020D4
:100C90003C0D002078350008400D0020AFF30080A7
:100CA0000648036823B9064A1168002900DD704729
:100CB0000448054B1860FFF7A3BD00BF30090020B2
:100CC0003C0D002080350008400D0020AFF300806F
:100CD000034A4021134643F8081B5360704700BF86
:100CE00034090020AFF30080AFF30080AFF3008041
:100CF00010B40D4A0D4C0E495368E468C9691C6074
:100D00005960846A03F110019C6090F8204002F55C
:100D1000816081421C7328BF02F10803516028BF23
:100D2000536010BC704700BF34090020440D002000
:100D3000540D0020AFF30080AFF30080AFF30080CC
:100D4000014B1860FFF75CBD400D0020AFF3008041
:100D5000044B4FF0FF3000225B601B609860DA604C
:100D6000704700BF440D0020AFF30080AFF3008058
:100D7000F8B504460D4616461F46FFF779FFCCB17D
:100D8000C6B1BDB10D4927610B68E6609A6895420E
:100D900004D91B68AD1A9A68AA42FAD35A688B42E2
:100DA0002360626014605C60A56002D09868451B97
:100DB0009D60F8BD0248FFF7C3FFE3E7440D002044
:100DC00090350008AFF30080AFF30080AFF30080F0
:100DD00010B50446FFF74CFF84B1E36893B1236874
:100DE0000A4A934203D09968A2688818986060689C
:100DF000002203602368E260586010BD0448FFF7DA
:100E00009FFFEAE70348FFF79BFFE8E7440D002058
:100E1000A0350008B0350008AFF30080AFF30080C4
:100E2000044B002014225B601B6098609A615B6138
:100E30001B617047540D0020AFF30080AFF30080BA
:100E400010B590F8203004468BB10E2B0FD0002245
:100E5000094BA16884F820201B6898688842FBD25F
:100E60005968236061600C605C60204610BD0348D7
:100E7000FFF766FFEBE700BF540D0020D0350008F8
:100E800090F820300D2B11D8DFE803F01510100773
:100E9000100B101010101010100B816A8B685A1C68
:100EA0008A60416803680B60026851604FF0FF324E
:100EB0008262FFF7C5BF7047AFF30080AFF30080D9
:100EC00070B5114C0646FFF7EBFEE569142085F876
:100ED0002060236801211A6883F82010A061546003
:100EE00028462260E361FFF703FFEA69ADF12403BE
:100EF0009A4202D90548FFF723FFE0692946BDE879
:100F00007040FFF70DBD00BF540D0020E435000810
:100F100070B50E4686B00546FFF7C2FEB6F1FF3F3C
:100F200012D00C4C3146E3690B4A01A8FFF720FFB1
:100F30002846FFF7C5FF049B13B101A8FFF748FF40
:100F4000E069806A06B070BD2846FFF7B9FF014C22
:100F5000F6E700BF540D0020810E0008AFF30080BB
:100F600070B5154D04460E46FFF79AFEE869A26873
:100F70008368A6629A4215D9FFF762FF0123142203
:100F8000064684F82030AA61EC61FFF7B1FEF069F3
:100F9000ADF1240188420AD820463146BDE87040B0
:100FA000FFF7BEBC2046BDE87040FFF749BF0348CD
:100FB000FFF7C6FEF0E700BF540D0020E43500083F
:100FC00070B5104C01212368E5691A681420A061EE
:100FD00083F82010546028462260E361FFF730FF59
:100FE0002846FFF785FEEA69ADF124039A4202D94B
:100FF0000548FFF7A5FEE0692946BDE87040FFF708
:101000008FBC00BF540D0020E4350008AFF3008012
:10101000F0B400220E4C022580F8205080F82120E8
:10102000656900F1300600F12C0C00F148070461FD
:1010300081604561416460610264C26342628261B1
:101040002861C0F82CC046630663C761F0BC7047D6
:10105000540D0020AFF30080AFF30080AFF30080A9
:10106000F8B504460D4616461F46FFF701FE0CB1C3
:10107000AF2D28D81648FFF763FE243D6119E160C3
:1010800006986751134F0023134A022548600F62E8
:1010900084F8205084F82130506904F1300104F1C3
:1010A0002C0704F1480522616061A6606664546102
:1010B00023640461E3636362A361E76261632163A4
:1010C000E5612046F8BD7F2ED4D8002FD5D1D1E7D9
:1010D0000036000831090008540D0020AFF30080ED
:1010E000F0B504460D461F4683B0164648302346E9
:1010F000FF211A4602F8011B5970531C8342F8D194
:101100006019834215D25521DA4303F8011B00EB25
:10111000020C83420CF001020BD01AB103F8011B40
:10112000834206D01A4602F8011B5970531C8342B1
:10113000F8D1202383F31188FFF7DAFC2046089CBE
:101140003B46324629460094FFF78AFF00210446B9
:10115000FFF706FFFFF7ECFC002383F3118820461E
:1011600003B0F0BDAFF30080AFF30080AFF30080B9
:1011700010B5044610B90948FFF7E2FD202383F3B8
:101180001188FFF7B5FC21460620FFF7C1FEFFF7E7
:10119000CFFC002383F3118810BD00BF4036000848
:1011A000114B70B5DC69254655F82C3FA062AB4267
:1011B00007D01A681846E262FFF742FEE36AAB42C4
:1011C000F7D194F8210010F0030F04D1636922696C
:1011D0001A6121694B610E20FFF772FE0348BDE8DA
:1011E0007040FFF7ADBD00BF540D00205036000821
:1011F00010B52023044683F31188FFF779FC2046BD
:10120000BDE81040FFF7CCBFAFF30080AFF3008024
:1012100010B5044620B1002364602460A36010BDB3
:101220000348FFF78DFD002364602460A36010BDB8
:1012300090360008AFF30080AFF30080AFF300807A
:101240003B4B2DE9F0410546DC69FFF729FD002DF8
:101250006AD0A868002836D0A2688168914208D276
:1012600090F820308260042B46D0052B31D0002B23
:101270001ED02B461B689D4203D09868A168884207
:10128000F8D25A682360626004205C601460A56232
:10129000FFF716FEAB68A34202D02648FFF750FDC9
:1012A000206CA84213D02448BDE8F041FFF748BDA8
:1012B0004368026801211A60026880F820105360B8
:1012C000FFF7BEFDD5E7216CAC60E9602564BDE8A1
:1012D000F08141680768866A0F6007683346796065
:1012E0001B689E4202D099689142F9D25A68036005
:1012F000426010605860BCE741680768866A0F600A
:101300000768334679601B689E4202D09968914213
:10131000F9D25A680360426010605860B068A268F1
:10132000836893429CD3A4E70448FFF709FD90E744
:10133000540D0020B0360008C4360008A03600085E
:1013400010B52023044683F31188FFF7D1FB204614
:10135000FFF776FFFFF7ECFB002383F3118810BD46
:10136000214A70B52023D56983F31188FFF7C0FBAC
:101370002C6C002C33D0A368AB4203D01B48FFF782
:10138000DFFC2C6C2368E268A3422A641ED0686CE0
:101390004AB11168914203D08968884238BF084633
:1013A000D268002AF5D11A681E6CA860002122605C
:1013B00018465460A360E6601C64FFF7D1FDFFF798
:1013C000B7FB002383F31188204670BD0020A06086
:1013D000FFF7AEFB002383F31188204670BD04485D
:1013E000FFF7AEFC2C6CC6E7540D00200037000858
:1013F000EC360008AFF30080AFF30080AFF300805D
:1014000038B504460D46FFF733FCBCB1E26B94F8E7
:1014100020301543082BE5630CD0092B00D038BDD4
:10142000A06A0540A842FAD12046FFF709FD002135
:10143000816238BDA36A1D42F6D138BD0148FFF76D
:101440007FFCE3E76C370008AFF30080AFF3008068
:1014500070B505460E46FFF70BFC65B12C68AC4233
:1014600008D0A168606846EA0101FFF7C9FF246857
:10147000AC42F6D170BD0248FFF762FCEEE700BF58
:1014800090370008AFF30080AFF30080AFF3008027
:1014900010B4034619B94FF0FF3010BC7047064C2A
:1014A0000D20E26993625C68136054605A602260A8
:1014B00010BCFFF72DBD00BF540D0020AFF300801E
:1014C00010B48A180024406000608460416181612A
:1014D000C1600261C36110BC704700BFAFF3008000
:1014E00038B504460D46FFF7C3FB6369A269934212
:1014F00019D0A268511CA16003F8015B20696361E7
:10150000834228BFE368206828BF6361A04208D0F7
:10151000026822605460FFF793FC00238362184640
:1015200038BD002038BDA268002AE3D06FF0030068
:1015300038BD00BFAFF30080AFF30080AFF3008091
:10154000F8B504460D46202383F31188FFF7D0FA3F
:10155000E3690BB120469847A6682046294656B94C
:10156000FFF796FF071EF7DAFFF7E2FA334683F339
:1015700011883846F8BDA369013EA66013F8017BC7
:101580002269A361934224BFE368A361FFF7D0FA05
:10159000002383F311883846F8BD00BFAFF3008005
:1015A0002DE9F0470446904689461D46C769002A42
:1015B00037D0202383F31188FFF79AFA00260FB162
:1015C0002046B847D4F808A020462946BAF1000FB3
:1015D0000BD1FFF75DFF0028F4D0FFF7A9FA5346BF
:1015E00083F311883046BDE8F087A3690AF1FF3123
:1015F000A16013F8010B09F806002269A361934268
:1016000024BFE368A361FFF793FA002383F31188F3
:1016100001364645E6D0202383F31188FFF768FAA8
:10162000CDE70248FFF78CFBC3E700BFD0370008C7
:1016300010B48C1840600060826041618161C160BB
:101640000461C36110BC7047AFF30080AFF300804A
:101650002DE9F041202304460D46164683F31188F8
:10166000FFF746FAA7682046314667B9FFF710FF33
:10167000B0F10008F6DAFFF75BFA3B4683F3118816
:101680004046BDE8F0816369013FA76003F8015B54
:1016900022696361934224BFE3686361E3690BB12C
:1016A00020469847FFF744FA002383F311889846B1
:1016B0004046BDE8F08100BFAFF30080AFF300808B
:1016C00038B50446FFF7D4FAA36962699A4217D085
:1016D000A268511CA16013F8015B2069A3618342D9
:1016E00028BFE368206828BFA361A04206D0026833
:1016F00022605460FFF7A4FB00238362284638BDB4
:10170000A268002AE5D06FF0020038BDAFF3008078
:101710002DE9F047044615460E469946D0F81C8040
:10172000002A40D0202383F31188FFF7E1F9002736
:10173000D4F808A020460AF1FF33BAF1000F24D0F4
:10174000A3603178636903F8011B226963619342E6
:1017500024BFE3686361B8F1000F00D0C047FFF712
:10176000E7F9002383F311880137013D18D00136D2
:10177000202383F31188FFF7BBF9D4F808A0204693
:101780000AF1FF33BAF1000FDAD120464946FFF7DC
:101790007FFE0028CCD0FFF7CBF9534683F31188A6
:1017A0003846BDE8F0870248FFF7CAFABAE700BF3B
:1017B000E4370008AFF30080AFF30080AFF30080A0
:1017C000054B064A064823F00701064B116020F03E
:1017D00007021A60704700BFCB1C0020780D002064
:1017E00000200020740D0020AFF30080AFF30080D4
:1017F00010B500F01DFB00F0ABF9064801F008F849
:1018000000F00EF800F094F800F0FAF8BDE810408F
:1018100001F0E6B8903A0008AFF30080AFF3008023
:1018200000F03EBCAFF30080AFF30080AFF3008068
:1018300000230122027043608360C360036143613F
:101840001830FFF7E5BC00BFAFF30080AFF30080B6
:1018500038B504460D46C0B1202383F31188FFF745
:1018600047F92178481EC3B2012B02D90948FFF776
:1018700067FA2046656000F04BFC02222270FFF7F9
:1018800057F9002383F3118838BD0348FFF758FA4E
:10189000E2E700BF1038000800380008AFF300800E
:1018A0002DE9F04104460D4616461F46FFF7E0F9C4
:1018B000D4B1CDB1C6B1012F02D017F0010F13D1B1
:1018C0002378022B06D0042B04D0052B02D0084825
:1018D000FFF736FA03232046A660E76025612370F0
:1018E000BDE8F04100F044BC0248FFF729FAE7E701
:1018F000543800083C380008AFF30080AFF3008094
:10190000F8B51C4607460E461546202383F311887A
:10191000FFF7EEF82346384631462A46FFF7C0FF68
:10192000FFF706F9002383F31188F8BDAFF30080B9
:1019300000F0F6BDAFF30080AFF30080AFF300809E
:1019400001210023017043600C30FFF761BC00BF30
:10195000806BD0F1010038BF00207047AFF30080EA
:101960008069D0F1010038BF00207047AFF30080DC
:1019700070B52023044683F311880026FFF7B8F8DA
:10198000A568A660FFF7D4F8334683F3118828468C
:1019900070BD00BFAFF30080AFF30080AFF30080F5
:1019A0001030FFF7FDBD00BFAFF30080AFF3008044
:1019B00010304FF0FF33FFF7F3BD00BFAFF30080EF
:1019C0003030FFF7A5BE00BFAFF30080AFF300805B
:1019D00030304FF0FF33FFF79BBE00BFAFF3008006
:1019E0001030FFF7ADBD00BFAFF30080AFF3008054
:1019F0003030FFF72DBE00BFAFF30080AFF30080A3
:101A000000F096BEAFF30080AFF30080AFF300802C
:101A10000B460F4970B50646044646F8041B66603F
:101A20000026A66001261546103004F150014FF43F
:101A300000722673FFF744FD04F1300004F51471C1
:101A40004FF400722B46BDE87040FFF7F1BD00BFB8
:101A500070390008AFF30080AFF30080AFF300806F
:101A600038B504460D46C0B1202383F31188FFF733
:101A70003FF8217B481EC3B2012B02D90948FFF76A
:101A80005FF92046294600F073FE02222273FFF719
:101A90004FF8002383F3118838BD0348FFF750F94E
:101AA000E2E700BF1C39000810390008AFF30080DE
:101AB00070B504460D46FFF7DBF8002C21D0A16974
:101AC00039B104F110002946FFF70AFD00280EDBAA
:101AD00070BDA268201D42F00403A360FFF7B8FCAC
:101AE00004F110002946FFF7FBFC0028F0DAA36898
:101AF000201D43F08001A1600021BDE87040FFF788
:101B0000A7BC0248FFF71CF9D9E700BF4839000815
:101B100001494B6883607047001000E0AFF300801C
:101B2000084B09495A6883680968D31AC2685B1A66
:101B30009342836004D80269934238BF03617047BF
:101B4000C3607047001000E07C0D0020AFF3008000
:101B500010B50B4A86B00B490B4C002301A801922B
:101B60004FF0FF3223600393049302910592FFF735
:101B7000CFFF01A802998847039B236006B010BDE0
:101B8000111B0008211B00087C0D0020AFF3008012
:101B900010B5FFF72DF80848084A03680F241168AC
:101BA000546013B1406821409847FFF741F8BDE801
:101BB0001040FEF765BE00BF800D0020000002400F
:101BC00010B5FFF715F80848084A8368F024116833
:101BD00054601BB1C068C1F303119847FFF728F8A0
:101BE000BDE81040FEF74CBE800D00200000024012
:101BF00010B5FEF7FDFF0948094A03694FF4706408
:101C0000116854601BB14069C1F303219847FFF785
:101C10000FF8BDE81040FEF733BE00BF800D002076
:101C200000000240AFF30080AFF30080AFF300800C
:101C300010B5FEF7DDFF0948094A83694FF4704487
:101C4000116854601BB1C069C1F303319847FEF7B6
:101C5000EFFFBDE81040FEF713BE00BF800D00206F
:101C600000000240AFF30080AFF30080AFF30080CC
:101C700010B5FEF7BDFF0948094A036A4FF4702406
:101C8000116854601BB1406AC1F303419847FEF7E5
:101C9000CFFFBDE81040FEF7F3BD00BF800D002070
:101CA00000000240AFF30080AFF30080AFF300808C
:101CB00010B5FEF79DFF0948094A836A4FF4700486
:101CC000116854601BB1C06AC1F303519847FEF715
:101CD000AFFFBDE81040FEF7D3BD00BF800D002070
:101CE00000000240AFF30080AFF30080AFF300804C
:101CF00010B5FEF77DFF0948094A036B4FF0706489
:101D0000116854601BB1406BC1F303619847FEF743
:101D10008FFFBDE81040FEF7B3BD00BF800D00206F
:101D200000000240AFF30080AFF30080AFF300800B
:101D3000124BF0B4D3F800C0DF689E695D6A1C6B7B
:101D4000D86B996C0023CCF800300D4ADFF838C00E
:101D50003B601360336093602B6013612360936179
:101D60000360136293621363CCF800300B60054B81
:101D70004FF0FF325A60F0BC704700BFE0390008F6
:101D8000800D002000000240B80D0020AFF300805D
:101D9000F0B5044685B0002833D0667A012505FAEF
:101DA00006FC1D4F38681CEA000F26D11B4D4CEA7B
:101DB000000010F07F0F05EBC60C45F83620CCF87C
:101DC0000430386004D0164B5F6947F001065E614D
:101DD000236860681F6827F001051D60267A0F27B9
:101DE00017FA06F6002506601D6042B1A07A0901C7
:101DF000FEF7AEFD284605B0F0BD2846FBE71046CD
:101E0000F9E70848039102920193FEF799FF019BBD
:101E1000029A0399C1E700BFB80D0020800D002091
:101E200000100240A0390008AFF30080AFF300803B
:101E3000214B00224FF0FF3030B420491C6918615B
:101E40001A61DD68D8604BF67F30DA601C4C486060
:101E500007208A600860E1681A4841F08071E160FB
:101E60000468194944F001040460D86940F08050C6
:101E7000D861D86940F00060D861086840F480708B
:101E80000860186A00F44071B1F5407F03D04FF448
:101E9000803119621A62084B1A6A12F4004F07D196
:101EA000186A40F440721A62196A41F400401862DC
:101EB00030BCFFF73DBF00BF0010024010E000E063
:101EC000F0ED00E0001000E000700040AFF3008093
:101ED0001F4B1868194640F001021A600B681C4A33
:101EE00013F0020FFAD01368002003F0F90111601B
:101EF000114650604868164A10F00C0FFAD110686D
:101F0000114640F4803313600B68114A13F4003F0C
:101F1000FAD05368114643F4A0205060136843F090
:101F20008070106008680A4A10F0007FFAD00948F3
:101F3000094B1021506019605068114640F00203AF
:101F400053604A6802F00C0CBCF1080FF9D17047DD
:101F5000001002400064050000200240AFF3008042
:101F600011F0080FF8B50D4604462CD0C36A01697C
:101F70001A685D68166826F0010616601B7A0F263F
:101F80009E40826ACB6800212E6091602BB10525AE
:101F900005709847207805286ED0002525612023FC
:101FA00083F31188FEF7E4FD636933B14FF0FF322C
:101FB000656118469A62FEF743FFFEF7F9FD0023BC
:101FC00083F31188F8BD11F0040F06D003699B68F4
:101FD0001BB1C26881685208984715F0020F39D0CA
:101FE00021690A68002A36D1E36AA56A18685E6822
:101FF000076827F001070760187A0F2717FA00F023
:102000008B683060AA60002B39D0E2680425012A71
:1020100025703BD9B1F804C052080CFB02FEA16840
:10202000204601EB4E0198472278042A27D000254C
:102030002561202383F31188FEF79AFD636923B19C
:10204000656118469D62FEF7FBFEFEF7B1FD0023B9
:1020500083F31188F8BD8B68002BFBD0E268012A5E
:1020600010D9B1F804C052080CFB02F5A168204653
:1020700001EB45019847F8BD022121708DE702234D
:102080002370D4E72046A1689847F8BD2046A16890
:102090009847C9E7AFF30080AFF30080AFF300804B
:1020A00010B5144C2046FFF7C3FB134B1349986936
:1020B00040F400729A61124B0020A1620122486034
:1020C000E36242F28A5009238A6020638B608B6846
:1020D0000A4A13F0080FFAD105219160906810F0B8
:1020E0000403FBD10548044A8360916921F400731D
:1020F000936110BDBC0D002000100240002401407F
:10210000E0390008AFF30080AFF30080AFF3008048
:1021100038B503780446012B00D038BD0E4DA842D7
:1021200004D0A36A00215960996038BDC06A0521B6
:102130000A4A2346FFF72CFE48B9E86A084B0268B2
:1021400008489360816941F400728261E9E70648BA
:10215000FEF7F6FDF1E700BFBC0D0020611F00088F
:102160004C24014000100240403A0008AFF30080C8
:1021700003692DE9F0031968026B09B142F02002EE
:10218000C1689E880129C56A88BF4E438468296852
:1021900088BF42F00402D3F81480CC604E600A601D
:1021A0001F69D1F800C0826AD3F81890DE691D6AF1
:1021B0005C6A986A48F4807343F003034CF0010CA6
:1021C00047F48077C1F800C057609360C2F80C9064
:1021D0001661D562146350639360BDE8F0037047E5
:1021E0002DE9F041684CFEF703FD256B94F834307F
:1021F0002A8BAE8AB6B2C3B946EA0242634B22F0DA
:102200007F429A4274D05CD8581E824203D1B4F8FF
:1022100020C0A5F810C016F00A0F00D02B8BFEF7D7
:1022200007FDBDE8F041FEF72BBB16F00A0F05D005
:10223000AE8A00232A8BB6B22364236516F0800F82
:102240000ED0206DA26C216C12F800E0E26C431CF1
:102250009142A5F810E0236502D34B4B002119658C
:1022600016F0400F0DD0226CB5F810C0A16B531CB6
:1022700001F802C0E06B2364834202D3424B00208A
:10228000186416F0100F0CD0AE8A2988636C1FFA00
:1022900081FC4CF0010EB6B2A5F800E00BB13A4853
:1022A000984716F4806FBAD0B5F814E0636D2EF439
:1022B00080610804020CAA82002BB0D032489847F3
:1022C000ADE7334B9A4232D0991C8A42A3D1A26A1D
:1022D00017687F68002F38D02B88B4F820C098B2D8
:1022E0004CF0010140F4A06E2184A5F800E096E7CF
:1022F000B5F804C0A26A2CF4007003041268190C2B
:10230000A980106840F001031360A98888B240F4E6
:10231000805EA5F804E05368012B3FF67CAFB5F86A
:1023200000E02EF480621304190C298073E7B5F8DD
:1023300004C0E06A2CF40073190400680A0CAA8037
:10234000036843F00101016065E7B5F804C020238C
:102350002CF400710A04100CA88029881FFA81FE51
:102360004EF400722A8083F31188FEF701FCE069C5
:1023700018B18762E761FEF763FDFEF719FC0023E1
:1023800083F3118847E700BFF00D0020020003002F
:1023900082000700AFF30080AFF30080AFF300804E
:1023A0002DE9F0415D4DFEF723FC2C6B202383F3D8
:1023B0001188FEF7DDFBEA6AAB6A106856680768A9
:1023C0000F2127F001070760107A1A6811FA00F050
:1023D00030601668586826F0010616601B7A99402E
:1023E0000160FEF7E5FB002383F31188A68A16F44B
:1023F000807607D0B4F814C001262CF48072130440
:10240000190CA182B4F814E01EF4007F07D0A28A50
:1024100046F0020622F400731904080CA08295F815
:1024200034103E4800293AD1B4F814C01CF4806F2F
:1024300041D1A08A10F4006F08D0B4F814E046F03F
:1024400008062EF4006211040B0CA382B4F814C029
:102450001CF4805F07D0A28A46F0100622F4805157
:102460000B04180CA082B4F814E01EF4804F08D0BE
:10247000B4F814C046F020062CF480410B04180C6C
:10248000A082B4F814E00FFA8EF2002A2ADB002EA4
:102490002ED1FEF7CDFBBDE8F041FEF7F1B9B4F85F
:1024A00014C0436D2CF4806211040A0CA282002B2C
:1024B000BFD09847BDE7B4F814E046F004062EF408
:1024C00080610A04130CA382B4F804C02CF40070D9
:1024D00001040A0CA280238898B240F4007EA4F87C
:1024E00000E0A6E7A18A46F040064B04580CA08203
:1024F000AE60202383F31188FEF73AFBE86938B118
:10250000064B6FF0010100228162DA61FEF798FC50
:10251000FEF74EFB002383F31188BAE7F00D00208D
:1025200010B5074C2046FFF70BFA064B0649A3F1FE
:102530000C020020E0612163A362E26210BD00BFD3
:10254000F00D0020283A000800540040AFF300804E
:10255000034B998988B240F080029A81704700BF8E
:1025600000380140AFF30080AFF30080AFF300808C
:10257000034B998988B240F080029A81704700BF6E
:1025800000440040AFF30080AFF30080AFF3008061
:102590002DE9F843D0F850640546B7893488BFB2B6
:1025A000A4B214F00F0FB6F8048025D014F0080977
:1025B00018BF4FF0800914F0010F18BF49F020092F
:1025C00014F0020F18BF49F0400914F0040F18BFAF
:1025D00049F48079202383F31188FEF7C9FAA968AA
:1025E000281D41EA0903AB600021FEF731FFFEF729
:1025F000DFFA002383F3118814F4807F3BD114F0B9
:10260000200F28D117F0800F02D014F0800F4CD18A
:1026100014F0400F1DD0202383F31188FEF7A8FA91
:10262000AA68281D42F01003AB600021FEF710FFDE
:10263000FEF7BEFA002383F311884FF6BF7007EA56
:102640000001B181B6F800C02CF040021304180C50
:102650003080BDE8F883202383F31188FEF788FAE1
:1026600028465FFA88F1FFF723FAFEF7A1FA002364
:1026700083F31188C6E7202383F31188FEF778FAE5
:10268000A968281D41F40072AA600021FEF7E0FE4F
:10269000FEF78EFA002383F31188B6F800C02CF4FD
:1026A00080731A04100C3080A9E7202383F311886B
:1026B000FEF75EFA05F13000FFF702F8002806DBAE
:1026C000B080FEF775FA002383F31188A0E7A968AC
:1026D000281D41F00802AA600021FEF7B9FE27F08C
:1026E000C00343F04000B081EBE700BFAFF30080D0
:1026F00010B5FEF77DFA0448FFF74AFFFEF798FA97
:10270000BDE81040FEF7BCB8480E0020AFF30080D3
:1027100010B5FEF76DFA0448FFF73AFFFEF788FAA6
:10272000BDE81040FEF7ACB89C120020AFF300806B
:1027300038B5094D00212846084A094CFFF768F9C9
:10274000084B20460021084AC5F85034FFF760F9CD
:10275000064BC4F8503438BD480E002051250008FF
:102760009C12002000380140712500080044004000
:1027700038B5037B1E4C0546002918BF0C46012BBB
:102780001BD020681B4AD5F85034B2FBF0F11981F8
:10279000A288B4F806C0218942F4045040F02C020B
:1027A0004CF040009A8141F0010C18820020A3F8FF
:1027B00014C018801A889B8838BD0F4988420CD0F5
:1027C0000E498842DDD10E4B2620DA69C02142F441
:1027D0000032DA61FEF7BCF8D3E7094B25209A698D
:1027E000C02142F480429A61FEF7B2F8C9E700BF07
:1027F000603A0008001BB700480E00209C12002021
:1028000000100240AFF30080AFF30080AFF3008010
:10281000154B30B49A69154D42F07D049C610168F6
:10282000134CE960826813496A604368124A2B605E
:10283000C568124BE5604569656005692560846976
:10284000CC60046A4C60C4690C60416AD160C16AA2
:102850005160816A1160026BDA60816B5960426B72
:102860001A6030BC704700BF0010024000080140F1
:10287000000C01400010014000140140001801400C
:10288000032AF0B400F09A80042A08BF41614C4B3F
:1028900011F080079B5C40F088800F2411F4004504
:1028A00040F089800F264A002401360139012D01AC
:1028B00012F0800F14BF194344F00F0412F4004FBC
:1028C00014BF1D4346F00F065200240136010901D2
:1028D0002D0112F0800F14BF194344F00F0412F4BD
:1028E000004F14BF1D4346F00F065200240136016D
:1028F00009012D0112F0800F14BF194344F00F0499
:1029000012F4004F14BF1D4346F00F06520024017D
:10291000360109012D0112F0800F14BF194344F054
:102920000F0412F4004F14BF1D4346F00F0652006F
:102930002401360109012D0112F0800F14BF194343
:1029400044F00F0412F4004F14BF1D4346F00F066D
:1029500052002401360109012D0112F0800F14BF2D
:10296000194344F00F0412F4004F14BF1D4346F006
:102970000F0652002401360109012D0112F0800FCB
:1029800014BF194344F00F0412F4004F18BF1D4345
:10299000436808BF46F00F061E4035434560026895
:1029A000144021430160F0BC7047002411F400453D
:1029B0001F463FF477AF1D46002674E7016166E7C6
:1029C000703A0008AFF30080AFF30080AFF30080EF
:1029D000FFF77EBAAFF30080AFF30080AFF3008063
:1029E000704700BFAFF30080AFF30080AFF300800B
:1029F00008B5FEF7FDFEFDF7FBFF00F079FA00F0E9
:102A00000FF800F0BDFA00F053FD00F091F900F06E
:102A1000A7F900F0A5F9FAE7AFF30080AFF3008063
:102A200010B50A4C102105222046FFF729FF204649
:102A300020210522FFF724FF0549064BCA6942F011
:102A400000504FF00112C8611A6010BD000801402B
:102A50000010024000740040AFF30080AFF300802C
:102A60000188024B428899605A61704700740040A7
:102A700010B5044648B15C2807D0074821464FF0FE
:102A8000FF32BDE81040FEF7E3BD5C214FF0FF329E
:102A90000148FEF7DDFDF0E7780E0020AFF300807F
:102AA000024800214FF0FF32FEF7D2BD780E002021
:102AB00000B50F4B83B093E803000090C0B2ADF8AF
:102AC0000410FFF7D5FF9DF80100FFF7D1FF9DF837
:102AD0000200FFF7CDFF9DF80300FFF7C9FF9DF847
:102AE0000400FFF7C5FF03B05DF804EBFFF7D8BFA4
:102AF000103B0008AFF30080AFF30080AFF300801D
:102B000010B51F4B84B06C460FCB07C49DF8000076
:102B10002380FFF7ADFF9DF80100FFF7A9FF9DF8A7
:102B20000200FFF7A5FF9DF80300FFF7A1FF9DF846
:102B30000400FFF79DFF9DF80500FFF799FF9DF842
:102B40000600FFF795FF9DF80700FFF791FF9DF83E
:102B50000800FFF78DFF9DF80900FFF789FF9DF83A
:102B60000A00FFF785FF9DF80B00FFF781FF9DF836
:102B70000C00FFF77DFF04B0BDE81040FFF790BFE9
:102B8000183B0008AFF30080AFF30080AFF3008084
:102B900010B500F045FA03214FF0FF32BDE81040B8
:102BA000FEF756BDAFF30080AFF30080AFF30080B7
:102BB00010B500F035FA02214FF0FF32BDE81040A9
:102BC000FEF746BDAFF30080AFF30080AFF30080A7
:102BD00010B500F025FA01214FF0FF32BDE810409A
:102BE000FEF736BDAFF30080AFF30080AFF3008097
:102BF00010B500F015FA00214FF0FF32BDE810408B
:102C0000FEF726BDAFF30080AFF30080AFF3008086
:102C1000007800F075BC00BFAFF30080AFF3008018
:102C2000007800F05DBC00BFAFF30080AFF3008020
:102C3000007800F095B900BFAFF30080AFF30080DB
:102C400010B48378447819042402C3780278611898
:102C500088181B06C01810BC00F0DAB9AFF300806A
:102C600070B52023044683F31188FDF741FFA56862
:102C7000FDF75EFF25F00105002383F31188002D89
:102C800035D0194620461E46FEF75AFC831C012B00
:102C900031D9C0B20136FFF7EBFEAE4227D001209A
:102CA00060B100212046FEF74BFC831C012B18D994
:102CB000C0B20136FFF7DCFEAE4218D0002120463C
:102CC000FEF73EFC821C012A8CBFC0B20020FFF739
:102CD000CFFE00212046FEF733FC811C013601297E
:102CE000E6D800200136FFF7C3FEAE42E6D1BDE8CC
:102CF0007040FFF7D5BE3046CCE700BFAFF3008091
:102D000010B500F0A5F9BDE81040FFF7A9BF00BF5E
:102D100010B500F095F9BDE81040FFF7A1BF00BF66
:102D200010B500F085F9BDE81040FFF799BF00BF6E
:102D300010B5094C00210948FEF792FE10222046EA
:102D40004FF40071FFF79CFD20464FF48061022292
:102D5000BDE81040FFF794BD00080140480E002078
:102D600070B537484FF0FF31FEF7EAFB831C012BAB
:102D70000ED9344BC0B21A785AB9B8B9324A334C6A
:102D800013782668012B1DD0022B4AD00023236024
:102D900070BD2E4C002522681D702B4B511C985481
:102DA0002029B4BF0B4620232360F1E75C282ED0F6
:102DB000264C25492268531C202BA8BF2023885469
:102DC0002360E5E7012EE1DD511CCB4396199819EC
:102DD00055781F49931CB3420D7000F00100D5D007
:102DE00030B193F800C0D31CB34201F801CFCDD06D
:102DF0001A4612F8015B481C4D7093F801C0531C31
:102E0000411CB34280F801C0F2D10023BFE70F4C50
:102E10000121206819702028B4BF034620232360B5
:102E2000B6E792F801E00B49BEF10C0FC8BF4FF0B6
:102E3000000E51F82E30064898470023A7E700BF40
:102E4000580E002010170020F01600203417002024
:102E500014170020D03A0008AFF30080AFF30080D1
:102E60000048704714170020AFF30080AFF30080D4
:102E70001848F8B5184AC369184E194D194C9A618B
:102E800020270FE0E06813F0040F80F00102E260F9
:102E90001CD0E26882F00203E360FEF761FA7D2055
:102EA000FEF766F91048FEF74BFA336813F0010F8E
:102EB00017BFE9686F6181F02001E96013F0020F2C
:102EC000E0D1012113F0040F6161E2D102206061C1
:102ED000E3E700BF540D0020303B000848170020F6
:102EE00000100140000C014038170020AFF30080B3
:102EF000F0B5134B134C2027012602255F6183B0E8
:102F000018466661062239466561FFF7B9FC20461E
:102F100031460622FFF7B4FC294606222046FFF779
:102F2000AFFC0948FEF774F900244FF4D871402231
:102F3000064B07480094FEF7D3F803B0F0BD00BF7E
:102F400000100140000C014038170020712E0008CD
:102F500050170020AFF30080AFF30080AFF3008084
:102F600010B504460448FEF7EBF9044B1C60BDE8BD
:102F70001040FEF7F5B900BF3817002048170020B1
:102F800010B50422002316481649FEF751FB002312
:102F9000154816494FF48072FEF792FA0023144840
:102FA00014494FF48072FEF78BFA134C0023134838
:102FB00013494FF48072FEF783FA052211484FF44B
:102FC000E051FFF75DFC00212046FEF741FC0E4971
:102FD0000E4A20460223BDE81040FEF791BC00BF18
:102FE000A41C0020981B00200C1900203019002080
:102FF000541B0020A01B0020BC0D0020781B0020CB
:10300000541A002000100140403B0008381A0020EC
:10301000014B1860704700BF08080020AFF3008024
:1030200000487047A41C0020AFF30080AFF300807D
:10303000004870470C190020AFF30080AFF3008008
:1030400000487047541B0020AFF30080AFF30080AE
:1030500000487047781B0020AFF30080AFF300807A
:1030600030B583B0032836D8DFE800F0614B370273
:103070003849394A0C783948136865B20068EB184A
:103080008342136002DA002B5DDC002064420C7086
:10309000334DFDF7E7F82968FDF73AF93149054660
:1030A0000968FDF735F9FDF783FA2F4C2F4AB4F87C
:1030B00000C0116800EB0C032846ADF80430FDF7A2
:1030C00027F9FDF775FA618800EB010C01A8ADF84E
:1030D00006C0FFF7C5FC03B030BD254C2549236869
:1030E00008680133834223602FD0234D2A6893421E
:1030F000F1D32248FFF7B4FC21682B68C81A20607E
:10310000E9E71F4A1F4813680068591C8142116093
:10311000E1D31D4C2046FFF7A3FC21881B4A6088A1
:1031200011601B4B1B4A002118601170D3E7174B2D
:1031300017491A880B8801A8ADF80420ADF80630AD
:10314000FFF78EFCC7E71846A2E71348FFF788FC95
:10315000C1E700BF0408002000190020200800205B
:10316000180800202C1900209C1B0020501A002059
:10317000741B00201008002014080020481A0020AA
:10318000441A00201C080020081900200008002014
:103190000C080020301A00204C1A0020AFF30080E9
:1031A000F8B5032850D8DFE810F0C20092005000B4
:1031B0000400FFF755FE437890F800C01D0205EBB0
:1031C0000C06634DB6B22E80C17882780F02BC180F
:1031D000A4B26C80437990F804C0190201EB0C078B
:1031E0005C49BFB20F80C57982792B029D18ADB2C0
:1031F0004D8090F809C0837A017AC27A4FEA0C2E8A
:103200001B040EEB030C0CEB010E1006524A0EEBE6
:10321000000313601846FDF725F801464FF07E5075
:10322000FDF72AF94D490860B81BFDF71BF84C4A19
:103230001060281BFDF716F84A4B4B4918604B4BA2
:10324000002201200A601870F8BDFFF709FE4178DE
:1032500090F800C0464B0C0204EB0C051D80C278B0
:103260008178140204EB010CA3F802C0457982793D
:103270000179C3792C02150404EB050C0CEB010257
:103280001C063C4D12192A60437A90F808C03A4D4A
:10329000190201EB0C042C80C37A90F80AC01902C1
:1032A00001EB0C046C80837B457BC17B047B1B049E
:1032B000280200EB030C0CEB0403080603EB000CE4
:1032C0000CEB02012D482E4A01601160F8BDFFF79A
:1032D000C7FD437806782B4D19028A192A80C378D6
:1032E00090F802C00446180200EB0C066E802846D7
:1032F000FFF7B6FB244A68882449254B2E88158899
:1033000016600D801D8818604D806079A279217942
:10331000E37900021204821802EB010C18061D4921
:103320001D4B0CEB000200200A601860F8BDFFF78F
:1033300097FD417890F800C00A02134B02EB0C0194
:103340001960C2788178124B100242181A60F8BDD9
:103350009C1B0020041900202008002018080020D1
:103360002C190020501A0020001900200408002009
:10337000481A0020100800204C1A0020741B00205E
:1033800014080020341A002000080020081900202A
:103390000C0800201C080020441A0020AFF3008015
:1033A0002DE9F047394C0D462078FFF759FE384B90
:1033B00038491A68096801328A421A6015DA2023EE
:1033C00083F31188FDF7D4FB3348FEF779F9C51C68
:1033D00018BF012505B12070FDF7EAFB002383F338
:1033E0001188002D4DD1BDE8F087561A1E602023AC
:1033F00083F31188294EFDF7BBFBF3683169B2688E
:10340000C81A831A012B36D9254F3B69FA68B86868
:10341000C2EB030EC0EB0E0CBCF1010F2BD9DFF891
:103420008480D8F81030D8F80C20D8F80800C2EB07
:10343000030CC0EB0C0101291DD9B5F800903046F2
:103440005FFA89F1FEF74CF830464FEA1921FEF792
:1034500047F86E883846F1B2FEF742F8310A38462E
:10346000FEF73EF8AD884046E9B2FEF739F840462F
:10347000290AFEF735F8FDF79BFB002383F311883B
:103480009DE72078BDE8F047FFF78ABE301A00209C
:10349000A01C002008080020A41C00200C190020FB
:1034A000541B0020781B0020AFF30080AFF3008096
:1034B00070B5094C4FF400734FF480750622204616
:1034C000194663616561FFF7DBF92046294606224C
:1034D000BDE87040FFF7D4B9000C0140AFF30080A5
:1034E00020B905494FF4007048617047024B4FF412
:1034F00000721A61704700BF000C0140AFF30080FA
:1035000020B905494FF4807048617047024B4FF471
:1035100080721A61704700BF000C0140AFF3008059
:1035200069646C65000000006D61696E0000000058
:103530005356233100000000535623320000000090
:10354000535623330000000053562334000000007C
:103550005356233500000000535623360000000068
:103560005356233700000000535623380000000054
:103570005356233900000000535623313000000019
:10358000535623313100000000000000000000000D
:1035900022636856545365744922282900000000AC
:1035A00022636856545265736574492228290000C5
:1035B0006368565452657365744928292C20233159
:1035C00000000000000000000000000000000000FB
:1035D000636853636852656164794928292C202304
:1035E00031000000737461636B206F766572666CE6
:1035F0006F770000000000000000000000000000E5
:10360000226368546864437265617465492228299D
:103610000000000022636854686453657450726946
:103620006F72697479222829000000006368546869
:1036300064526573756D6528292C202331000000C4
:10364000226368546864536C656570222829000001
:103650006368546864457869745328292C202331A1
:10366000000000002263685468645761697422286E
:103670002900000063685468645761697428292C24
:1036800020233100000000000000000000000000C6
:103690002263684D7478496E6974222829000000FD
:1036A0002263684D74784C6F636B532228290000A5
:1036B00063684D74784C6F636B5328292C20233139
:1036C0000000000063684D74784C6F636B532829C9
:1036D0002C202332000000002263684D747854725D
:1036E000794C6F636B5322282900000063684D7486
:1036F00078556E6C6F636B28292C202331000000F5
:1037000063684D7478556E6C6F636B28292C202389
:103710003200000063684D7478556E6C6F636B53B4
:1037200028292C202331000063684D7478556E6C75
:103730006F636B5328292C20233200000000000007
:1037400022636845767452656769737465724D616A
:10375000736B222829000000226368457674556E39
:10376000726567697374657222282900226368454F
:1037700076745369676E616C492228290000000045
:103780002263684576745369676E616C222829004C
:1037900022636845767442726F6164636173744D2D
:1037A00061736B4922282900226368457674446955
:1037B000737061746368222829000000636845768D
:1037C00074446973706174636828292C2023310064
:1037D00022636849515265616454696D656F7574FF
:1037E000222829002263684F515772697465546911
:1037F0006D656F757422282900000000000000002C
:1038000022616463537461727422282900000000ED
:10381000616463537461727428292C202331000081
:103820002261646353746F702228290061646353BA
:10383000746F7028292C20233100000022616463FA
:103840005374617274436F6E76657273696F6E49FB
:10385000222829006164635374617274436F6E7629
:10386000657273696F6E4928292C2023310000008E
:103870002261646353746F70436F6E76657273690F
:103880006F6E22282900000061646353746F7043D7
:103890006F6E76657273696F6E28292C2023310054
:1038A0002261646353746F70436F6E7665727369DF
:1038B0006F6E49222829000061646353746F70435E
:1038C0006F6E76657273696F6E4928292C202331DB
:1038D00000000000616463436F6E7665727428298E
:1038E0002C20233100000000226164634163717564
:1038F00069726542757322282900000022616463A1
:1039000052656C6561736542757322282900000059
:10391000227364537461727422282900736453748F
:1039200061727428292C2023310000002273645313
:10393000746F702228290000736453746F702829F3
:103940002C20233100000000227364496E636F6DE8
:10395000696E6744617461492228290022736452A8
:10396000657175657374446174614922282900008A
:10397000D1190008B119000851190008611900088F
:10398000F1190008E1190008C1190008A11900087F
:103990007119000800000000000000000000000095
:1039A00022646D61416C6C6F63617465222829002B
:1039B00022646D6152656C6561736522282900007F
:1039C000646D6152656C6561736528292C20233113
:1039D00000000000000000000000000000000000E7
:1039E000080002400400024000000B001C000240DE
:1039F0000400024004010C003000024004000240B8
:103A000008020D0044000240040002400C030E00B6
:103A1000580002400400024010040F006C000240F5
:103A2000040002401405100080000240040002401F
:103A30001806110000000000000000000000000057
:103A40006164635F6C6C645F737461727428292CA9
:103A500020233100000000000000000000000000F2
:103A600000C2010000000040000000000000000053
:103A700004020408080003070808080808080808E2
:103A80000B0F00000000000000000000000000001C
:103A9000FFFFFFFF4444444444444444FFFFFFFF0E
:103AA0004444444444444444FFFFFFFF44444444EA
:103AB00044444444FFFFFFFF4444444444444444DA
:103AC000FFFFFFFF888888888888888800000000BA
:103AD000212D0008112D0008012D0008412C00089F
:103AE000312C0008212C0008112C0008F12B0008B3
:103AF000D12B0008B12B0008912B0008012B0008E6
:103B0000B12A0008000000000000000000000000D2
:103B1000302E302E31000000766F6C74616D702D88
:103B2000312E302E300000000000000000000000A8
:103B30006C640000000000000000000000000000B5
:103B40000100000003000000A13300080000000095
:103B50000000000000000000FF0100000000000065
:0C3B600000002000000000006A3100009E
:103B7000FF0700000100000010270000FF07000001
:103B8000E8030000D00700006F12833AE80300004A
:043B9000E803000046
:0400000508000621C8
:00000001FF
