:020000040800F2
:100000000004002011010008E1020008E1020008DC
:10001000E1020008E1020008E1020008E102000834
:10002000E1020008E1020008E102000811030008F3
:10003000E1020008E1020008E1020008E103000813
:10004000E1020008E1020008E1020008E102000804
:10005000E1020008E1020008E1020008E1020008F4
:10006000E1020008E1020008E1020008F1140008C2
:10007000211500085115000891150008D115000838
:100080001116000851160008E1020008E1020008FC
:10009000E1020008E1020008E1020008E1020008B4
:1000A000E1020008E1020008E1020008E1020008A4
:1000B000E1020008E1020008E102000891180008CE
:1000C000511A0008E1020008E1020008E1020008FC
:1000D000E1020008A11D0008C11D0008E10200089E
:0C00E000E1020008E1020008E102000853
:1000F000704700BFAFF30080AFF30080AFF3008024
:10010000FEE700BFAFF30080AFF30080AFF30080E5
:1001100072B6634880F30988022383F31488BFF31F
:100120006F8F604A604CA24217D213464FF0553190
:10013000D64343F8041BA519A342C5F380050CD28E
:1001400025B1196002F10803A34206D21A4642F80B
:10015000041B5960131DA342F8D3544A824217D29C
:1001600013464FF05531D54343F8041B44198342DD
:10017000C4F380040CD224B1196002F10803834255
:1001800006D21E4646F8041B5960331D8342F8D33D
:1001900001F026FF464C4749A14222D246480B4671
:1001A000024652F8046BCD4343F8046B04EB050C94
:1001B000A342CCF3800514D23DB1166800F10802C9
:1001C0001E6001F10803A3420BD2104650F8045BF5
:1001D000194641F8045B5668021D5E600B1DA34280
:1001E000F3D3364A3648824217D200211346D4430D
:1001F00043F8041B00EB040E8342CEF380040CD2C0
:1002000024B1196002F10803834206D21A4642F86B
:10021000041B5960131D8342F8D32A4D2A4EFFF761
:1002200067FFB54219D22C4654F8043BE9437718CE
:100230009847B442C7F380070FD22FB1236805F166
:1002400008049847B44208D2254655F8042B904735
:1002500060682C1D8047B442F6D31C4D1C4E01F043
:10026000CFFEB5421AD22C46EF4354F8043B06EBBE
:10027000070CCCF380079847B4420FD22FB1226805
:1002800005F108049047B44208D2254655F8040BFE
:10029000804761682C1D8847B442F6D3FFF730BF12
:1002A00000080020000000200004002000040020BE
:1002B0000008002000080020482500080008002051
:1002C000D0100020EC000008EC000008EC00000852
:1002D000EC000008AFF30080AFF30080AFF30080C4
:1002E000FEE700BFAFF30080AFF30080AFF3008004
:1002F00072B6FEE7AFF30080AFF30080AFF300808B
:1003000000F046F900F0ACFB00F062F900DF00BF3E
:10031000EFF30983203383F30988002383F31188E3
:10032000704700BFAFF30080AFF30080AFF30080F1
:100330000A4B002210B59A60094A07201021DA60A2
:1003400000F07EF80A204FF4007100F079F80B20DD
:100350008021BDE8104000F073B800BF00ED00E060
:100360000000FA05AFF30080AFF30080AFF3008028
:10037000202383F311881648436813F4006316D0D2
:10038000EFF30983203B83F30988124A4FF0807012
:100390009169D86171B11068D2698168926891429F
:1003A00094BF002201227AB10B499961704783F30F
:1003B000118870471068D26981689268914234BF91
:1003C00000220122002AEFD1044A9A61704700BF3F
:1003D00000ED00E02C0D0020010300080C030008D4
:1003E00010B500F055F9202383F3118800F010F9BF
:1003F00000F086F800F02CF9002383F3118800F058
:1004000067F9BDE81040FFF7B3BF00BFAFF300804E
:100410002DE9F04FC1F80CD0D0F80CD0BDE8F08F2A
:1004200008B500F0D5F8002383F311882846A047CB
:1004300000F02EFC08BD00BFAFF30080AFF30080DA
:1004400000F0030210B4FF23D40013FA04F2A14019
:100450008008064C063054F8203023EA020242EAB3
:10046000010344F8203010BC704700BF00ED00E0ED
:100470000248034AC3699A61FEE700BF2C0D0020C1
:1004800010210008AFF30080AFF30080AFF30080CD
:1004900030B583B0FFF74CFF00F012FA00F0A8F976
:1004A00000F0DEFE00F064F940210E4800F000FB91
:1004B0000D4D0E490124E86180F82040C16100F033
:1004C0004FF8002383F3118862B6EA691D46084B92
:1004D000C021936107482246074B009500F050FB6E
:1004E00003B030BD000800202C0D002000040020C7
:1004F000182100084808002071040008AFF30080AC
:1005000070B500F005F9114B9A69002A01DD013A36
:100510009A61DA690E4C516A2368481C5062E1689E
:10052000481CA342E0600FD09D68013D9D605DB90D
:1005300026461968DA681869DD604E6021609047C8
:10054000236898680028F4D070BD00BF2C0D0020EF
:100550001C0D0020AFF30080AFF30080AFF30080EC
:100560000548036813B9054A116821B10448054BD1
:100570001860FFF7BDBE704708090020140D002069
:1005800030210008180D0020AFF30080AFF3008089
:10059000084810B5036853B9074C216821B1074AD0
:1005A000074B1A60FFF7A4FE0120206010BD024C2B
:1005B000F5E700BF08090020140D002038210008CD
:1005C000180D0020AFF30080AFF30080AFF3008080
:1005D000094810B5036833B9084C2168002903DDC8
:1005E0000020206010BD054C054A064B1A60FFF73D
:1005F0007FFE0020206010BD08090020140D00209F
:1006000040210008180D0020AFF30080AFF30080F8
:10061000084810B50368002B0ADD074C216821B19A
:10062000064A074B1A60FFF763FE0120206010BDE9
:10063000014CF5E708090020140D002048210008AE
:10064000180D0020AFF30080AFF30080AFF30080FF
:100650000A4810B50368002B06DD094C2168002903
:1006600003DD0020206010BD054C064A064B1A60D1
:10067000FFF73EFE0020206010BD00BF08090020EB
:10068000140D002050210008180D0020AFF3008049
:1006900010B5202383F31188094C2368002B02DB5B
:1006A000084802682AB1084B08491960FFF720FE84
:1006B00023685A1C2260002383F3118810BD00BFF9
:1006C00008090020140D0020180D002058210008F2
:1006D00010B5202383F31188094C2368002B02DD19
:1006E000084802682AB1084B08491960FFF700FE64
:1006F00023685A1E2260002383F3118810BD00BFB7
:1007000008090020140D0020180D002060210008A9
:1007100006480368002B04DB054A1168002900DD48
:1007200070470448044B1860FFF7E2BD0809002039
:10073000140D002068210008180D0020AFF3008080
:100740000648036823B9064A1168002900DD70478E
:100750000448054B1860FFF7CBBD00BF0809002017
:10076000140D002070210008180D0020AFF3008048
:10077000034A4021134643F8081B5360704700BFEB
:100780000C090020AFF30080AFF30080AFF30080CE
:1007900010B40D4A0D4C0E495368E468C9691C60D9
:1007A0005960846A03F110019C6090F8204002F5C2
:1007B000816081421C7328BF02F10803516028BF89
:1007C000536010BC704700BF0C0900201C0D0020B6
:1007D0002C0D0020AFF30080AFF30080AFF300805A
:1007E000014B1860FFF784BD180D0020AFF30080A7
:1007F000044B4FF0FF3000225B601B609860DA60B2
:10080000704700BF1C0D0020AFF30080AFF30080E5
:10081000F8B504460D4616461F46FFF779FFCCB1E2
:10082000C6B1BDB10D4927610B68E6609A68954273
:1008300004D91B68AD1A9A68AA42FAD35A688B4247
:100840002360626014605C60A56002D09868451BFC
:100850009D60F8BD0248FFF7C3FFE3E71C0D0020D1
:1008600080210008AFF30080AFF30080AFF3008079
:1008700010B50446FFF74CFF84B1E36893B12368D9
:100880000A4A934203D09968A26888189860606801
:10089000002203602368E260586010BD0448FFF73F
:1008A0009FFFEAE70348FFF79BFFE8E71C0D0020E6
:1008B00090210008A0210008AFF30080AFF3008072
:1008C000044B002014225B601B6098609A615B619E
:1008D0001B6170472C0D0020AFF30080AFF3008048
:1008E00010B590F8203004468BB10E2B0FD00022AB
:1008F000094BA16884F820201B6898688842FBD2C5
:100900005968236061600C605C60204610BD03483C
:10091000FFF766FFEBE700BF2C0D0020C0210008A9
:1009200090F820300D2B11D8DFE803F015101007D8
:10093000100B101010101010100B816A8B685A1CCD
:100940008A60416803680B60026851604FF0FF32B3
:100950008262FFF7C5BF7047AFF30080AFF300803E
:1009600070B5114C0646FFF7EBFEE569142085F8DB
:100970002060236801211A6883F82010A061546068
:1009800028462260E361FFF703FFEA69ADF1240323
:100990009A4202D90548FFF723FFE0692946BDE8DE
:1009A0007040FFF735BD00BF2C0D0020D42100089A
:1009B00070B50E4686B00546FFF7C2FEB6F1FF3FA2
:1009C00012D00C4C3146E3690B4A01A8FFF720FF17
:1009D0002846FFF7C5FF049B13B101A8FFF748FFA6
:1009E000E069806A06B070BD2846FFF7B9FF014C88
:1009F000F6E700BF2C0D002021090008AFF30080AE
:100A000070B5154D04460E46FFF79AFEE869A268D8
:100A10008368A6629A4215D9FFF762FF0123142268
:100A2000064684F82030AA61EC61FFF7B1FEF06958
:100A3000ADF1240188420AD820463146BDE8704015
:100A4000FFF7E6BC2046BDE87040FFF749BF03480A
:100A5000FFF7C6FEF0E700BF2C0D0020D4210008F0
:100A600070B5104C01212368E5691A681420A06153
:100A700083F82010546028462260E361FFF730FFBE
:100A80002846FFF785FEEA69ADF124039A4202D9B0
:100A90000548FFF7A5FEE0692946BDE87040FFF76D
:100AA000B7BC00BF2C0D0020D4210008AFF300809C
:100AB000F0B400220E4C022580F8205080F821204E
:100AC000656900F1300600F12C0C00F14807046163
:100AD00081604561416460610264C2634262826117
:100AE0002861C0F82CC046630663C761F0BC70473C
:100AF0002C0D0020AFF30080AFF30080AFF3008037
:100B0000F8B504460D4616461F46FFF701FE0CB128
:100B1000AF2D28D81648FFF763FE243D6119E16028
:100B200006986751134F0023134A022548600F624D
:100B300084F8205084F82130506904F1300104F128
:100B40002C0704F1480522616061A6606664546167
:100B500023640461E3636362A361E7626163216309
:100B6000E5612046F8BD7F2ED4D8002FD5D1D1E73E
:100B7000F0210008210400082C0D0020AFF30080B4
:100B8000F0B504460D461F4683B01646483023464E
:100B9000FF211A4602F8011B5970531C8342F8D1F9
:100BA0006019834215D25521DA4303F8011B00EB8B
:100BB000020C83420CF001020BD01AB103F8011BA6
:100BC000834206D01A4602F8011B5970531C834217
:100BD000F8D1202383F31188FFF7DAFC2046089C24
:100BE0003B46324629460094FFF78AFF002104461F
:100BF000FFF706FFFFF7ECFC002383F31188204684
:100C000003B0F0BDAFF30080AFF30080AFF300801E
:100C100010B5044610B90948FFF7E2FD202383F31D
:100C20001188FFF7B5FC21460620FFF7C1FEFFF74C
:100C3000CFFC002383F3118810BD00BF30220008D1
:100C4000114B70B5DC69254655F82C3FA062AB42CC
:100C500007D01A681846E262FFF742FEE36AAB4229
:100C6000F7D194F8210010F0030F04D163692269D1
:100C70001A6121694B610E20FFF772FE0348BDE83F
:100C80007040FFF7ADBD00BF2C0D002040220008D2
:100C900010B52023044683F31188FFF779FC204622
:100CA000BDE81040FFF7CCBFAFF30080AFF300808A
:100CB00010B5044620B1002364602460A36010BD19
:100CC0000348FFF78DFD002364602460A36010BD1E
:100CD00080220008AFF30080AFF30080AFF3008004
:100CE0003B4B2DE9F0410546DC69FFF729FD002D5E
:100CF0006AD0A868002836D0A2688168914208D2DC
:100D000090F820308260042B46D0052B31D0002B88
:100D10001ED02B461B689D4203D09868A16888426C
:100D2000F8D25A682360626004205C601460A56297
:100D3000FFF716FEAB68A34202D02648FFF750FD2E
:100D4000206CA84213D02448BDE8F041FFF748BD0D
:100D50004368026801211A60026880F8201053601D
:100D6000FFF7BEFDD5E7216CAC60E9602564BDE806
:100D7000F08141680768866A0F60076833467960CA
:100D80001B689E4202D099689142F9D25A6803606A
:100D9000426010605860BCE741680768866A0F606F
:100DA0000768334679601B689E4202D09968914279
:100DB000F9D25A680360426010605860B068A26857
:100DC000836893429CD3A4E70448FFF709FD90E7AA
:100DD0002C0D0020A0220008B42200089022000858
:100DE00010B52023044683F31188FFF7D1FB20467A
:100DF000FFF776FFFFF7ECFB002383F3118810BDAC
:100E0000214A70B52023D56983F31188FFF7C0FB11
:100E10002C6C002C33D0A368AB4203D01B48FFF7E7
:100E2000DFFC2C6C2368E268A3422A641ED0686C45
:100E30004AB11168914203D08968884238BF084698
:100E4000D268002AF5D11A681E6CA86000212260C1
:100E500018465460A360E6601C64FFF7D1FDFFF7FD
:100E6000B7FB002383F31188204670BD0020A060EB
:100E7000FFF7AEFB002383F31188204670BD0448C2
:100E8000FFF7AEFC2C6CC6E72C0D0020F02200080A
:100E9000DC220008AFF30080AFF30080AFF30080E6
:100EA00038B504460D46FFF733FCBCB1E26B94F84D
:100EB00020301543082BE5630CD0092B00D038BD3A
:100EC000A06A0540A842FAD12046FFF709FD00219B
:100ED000816238BDA36A1D42F6D138BD0148FFF7D3
:100EE0007FFCE3E75C230008AFF30080AFF30080F2
:100EF00070B505460E46FFF70BFC65B12C68AC4299
:100F000008D0A168606846EA0101FFF7C9FF2468BC
:100F1000AC42F6D170BD0248FFF762FCEEE700BFBD
:100F200080230008AFF30080AFF30080AFF30080B0
:100F300010B4034619B94FF0FF3010BC7047064C8F
:100F40000D20E26993625C68136054605A6022600D
:100F500010BCFFF72DBD00BF2C0D0020AFF30080AB
:100F600010B48A180024406000608460416181618F
:100F7000C1600261C36110BC704700BFAFF3008065
:100F800038B504460D46FFF7C3FB6369A269934277
:100F900019D0A268511CA16003F8015B206963614C
:100FA000834228BFE368206828BF6361A04208D05D
:100FB000026822605460FFF793FC002383621846A6
:100FC00038BD002038BDA268002AE3D06FF00300CE
:100FD00038BD00BFAFF30080AFF30080AFF30080F7
:100FE000F8B504460D46202383F31188FFF7D0FAA5
:100FF000E3690BB120469847A6682046294656B9B2
:10100000FFF796FF071EF7DAFFF7E2FA334683F39E
:1010100011883846F8BDA369013EA66013F8017B2C
:101020002269A361934224BFE368A361FFF7D0FA6A
:10103000002383F311883846F8BD00BFAFF300806A
:101040002DE9F0470446904689461D46C769002AA7
:1010500037D0202383F31188FFF79AFA00260FB1C7
:101060002046B847D4F808A020462946BAF1000F18
:101070000BD1FFF75DFF0028F4D0FFF7A9FA534624
:1010800083F311883046BDE8F087A3690AF1FF3188
:10109000A16013F8010B09F806002269A3619342CD
:1010A00024BFE368A361FFF793FA002383F3118859
:1010B00001364645E6D0202383F31188FFF768FA0E
:1010C000CDE70248FFF78CFBC3E700BFC023000851
:1010D00010B48C1840600060826041618161C16021
:1010E0000461C36110BC7047AFF30080AFF30080B0
:1010F0002DE9F041202304460D46164683F311885E
:10110000FFF746FAA7682046314667B9FFF710FF98
:10111000B0F10008F6DAFFF75BFA3B4683F311887B
:101120004046BDE8F0816369013FA76003F8015BB9
:1011300022696361934224BFE3686361E3690BB191
:1011400020469847FFF744FA002383F31188984616
:101150004046BDE8F08100BFAFF30080AFF30080F0
:1011600038B50446FFF7D4FAA36962699A4217D0EA
:10117000A268511CA16013F8015B2069A36183423E
:1011800028BFE368206828BFA361A04206D0026898
:1011900022605460FFF7A4FB00238362284638BD19
:1011A000A268002AE5D06FF0020038BDAFF30080DE
:1011B0002DE9F047044615460E469946D0F81C80A6
:1011C000002A40D0202383F31188FFF7E1F900279C
:1011D000D4F808A020460AF1FF33BAF1000F24D05A
:1011E000A3603178636903F8011B2269636193424C
:1011F00024BFE3686361B8F1000F00D0C047FFF778
:10120000E7F9002383F311880137013D18D0013637
:10121000202383F31188FFF7BBF9D4F808A02046F8
:101220000AF1FF33BAF1000FDAD120464946FFF741
:101230007FFE0028CCD0FFF7CBF9534683F311880B
:101240003846BDE8F0870248FFF7CAFABAE700BFA0
:10125000D4230008AFF30080AFF30080AFF3008029
:10126000054B064A064823F00701064B116020F0A3
:1012700007021A60704700BFD7100020500D0020F1
:10128000002000204C0D0020AFF30080AFF3008061
:1012900010B500F02DFA00F00BF9064800F0C0FD83
:1012A00000F00EF800F024F800F08AF8BDE81040D5
:1012B00000F09EBE00250008AFF30080AFF3008071
:1012C00000F0AEBAAFF30080AFF30080AFF3008060
:1012D00000230122027043608360C36003614361A5
:1012E0001830FFF7E5BC00BFAFF30080AFF300801C
:1012F00000F06EBCAFF30080AFF30080AFF300806E
:1013000001210023017043600C30FFF7D1BC00BF06
:10131000806BD0F1010038BF00207047AFF3008030
:101320008069D0F1010038BF00207047AFF3008022
:1013300070B52023044683F311880026FFF728F9AF
:10134000A568A660FFF744F9334683F31188284661
:1013500070BD00BFAFF30080AFF30080AFF300803B
:101360001030FFF76DBE00BFAFF30080AFF3008019
:1013700010304FF0FF33FFF763BE00BFAFF30080C4
:101380003030FFF715BF00BFAFF30080AFF3008030
:1013900030304FF0FF33FFF70BBF00BFAFF30080DB
:1013A0001030FFF71DBE00BFAFF30080AFF3008029
:1013B0003030FFF79DBE00BFAFF30080AFF3008079
:1013C00000F00EBDAFF30080AFF30080AFF30080FC
:1013D0000B460E4970B50646044646F8041B666087
:1013E0000026A66001261546103004F15001102297
:1013F0002673FFF7B5FD04F1300004F160011022FF
:101400002B46BDE87040FFF763BE00BF50240008C4
:1014100070B504460D46FFF77BF9002C21D0A16979
:1014200039B104F110002946FFF7AAFD00280EDBB0
:1014300070BDA268201D42F00403A360FFF758FDB1
:1014400004F110002946FFF79BFD0028F0DAA3689D
:10145000201D43F08001A1600021BDE87040FFF72E
:1014600047BD0248FFF7BCF9D9E700BF28240008B0
:1014700001494B6883607047001000E0AFF30080C3
:10148000084B09495A6883680968D31AC2685B1A0D
:101490009342836004D80269934238BF0361704766
:1014A000C3607047001000E0540D0020AFF30080CF
:1014B00010B50B4A86B00B490B4C002301A80192D2
:1014C0004FF0FF3223600393049302910592FFF7DC
:1014D000CFFF01A802998847039B236006B010BD87
:1014E0007114000881140008540D0020AFF300802F
:1014F00010B5FFF7CDF80848084A03680F241168B3
:10150000546013B1406821409847FFF7E1F8BDE807
:101510001040FEF72DBF00BF580D00200000024014
:1015200010B5FFF7B5F80848084A8368F024116839
:1015300054601BB1C068C1F303119847FFF7C8F8A6
:10154000BDE81040FEF714BF580D00200000024017
:1015500010B5FFF79DF80948094A03694FF4706414
:10156000116854601BB14069C1F303219847FFF72C
:10157000AFF8BDE81040FEF7FBBE00BF580D0020DD
:1015800000000240AFF30080AFF30080AFF30080B3
:1015900010B5FFF77DF80948094A83694FF4704494
:1015A000116854601BB1C069C1F303319847FFF75C
:1015B0008FF8BDE81040FEF7DBBE00BF580D0020DD
:1015C00000000240AFF30080AFF30080AFF3008073
:1015D00010B5FFF75DF80948094A036A4FF4702413
:1015E000116854601BB1406AC1F303419847FFF78B
:1015F0006FF8BDE81040FEF7BBBE00BF580D0020DD
:1016000000000240AFF30080AFF30080AFF3008032
:1016100010B5FFF73DF80948094A836A4FF4700492
:10162000116854601BB1C06AC1F303519847FFF7BA
:101630004FF8BDE81040FEF79BBE00BF580D0020DC
:1016400000000240AFF30080AFF30080AFF30080F2
:1016500010B5FFF71DF80948094A036B4FF0706495
:10166000116854601BB1406BC1F303619847FFF7E9
:101670002FF8BDE81040FEF77BBE00BF580D0020DC
:1016800000000240AFF30080AFF30080AFF30080B2
:10169000124BF0B4D3F800C0DF689E695D6A1C6B22
:1016A000D86B996C0023CCF800300D4ADFF838C0B5
:1016B0003B601360336093602B6013612360936120
:1016C0000360136293621363CCF800300B60054B28
:1016D0004FF0FF325A60F0BC704700BF8024000812
:1016E000580D002000000240900D0020AFF3008054
:1016F000214B00224FF0FF3030B420491C691861A3
:101700001A61DD68D8604BF67F30DA601C4C4860A7
:1017100007208A600860E1681A4841F08071E16042
:101720000468194944F001040460D86940F080500D
:10173000D861D86940F00060D861086840F48070D2
:101740000860186A00F44071B1F5407F03D04FF48F
:10175000803119621A62084B1A6A12F4004F07D1DD
:10176000186A40F440721A62196A41F40040186223
:1017700030BCFFF78DBF00BF0010024010E000E05A
:10178000F0ED00E0001000E000700040AFF30080DA
:101790001F4B1868194640F001021A600B681C4A7A
:1017A00013F0020FFAD01368002003F0F901116062
:1017B000114650604868164A10F00C0FFAD11068B4
:1017C000114640F4803313600B68114A13F4003F54
:1017D000FAD05368114643F4A0205060136843F0D8
:1017E0008070106008680A4A10F0007FFAD009483B
:1017F000094B1021506019605068114640F00203F7
:1018000053604A6802F00C0CBCF1080FF9D1704724
:10181000001002400064050000200240AFF3008089
:1018200010B5144C2046FFF753FD134B134998692C
:1018300040F400729A61124B0020A16201224860BC
:10184000E36242F28A5009238A6020638B608B68CE
:101850000A4A13F0080FFAD105219160906810F040
:101860000403FBD10548044A8360916921F40073A5
:10187000936110BD940D002000100240002401402F
:1018800080240008AFF30080AFF30080AFF3008046
:101890002DE9F041684CFEF7FBFE256B94F83430DF
:1018A0002A8BAE8AB6B2C3B946EA0242634B22F033
:1018B0007F429A4274D05CD8581E824203D1B4F859
:1018C00020C0A5F810C016F00A0F00D02B8BFEF731
:1018D000FFFEBDE8F041FEF74BBD16F00A0F05D044
:1018E000AE8A00232A8BB6B22364236516F0800FDC
:1018F0000ED0206DA26C216C12F800E0E26C431C4B
:101900009142A5F810E0236502D34B4B00211965E5
:1019100016F0400F0DD0226CB5F810C0A16B531C0F
:1019200001F802C0E06B2364834202D3424B0020E3
:10193000186416F0100F0CD0AE8A2988636C1FFA59
:1019400081FC4CF0010EB6B2A5F800E00BB13A48AC
:10195000984716F4806FBAD0B5F814E0636D2EF492
:1019600080610804020CAA82002BB0D0324898474C
:10197000ADE7334B9A4232D0991C8A42A3D1A26A76
:1019800017687F68002F38D02B88B4F820C098B231
:101990004CF0010140F4A06E2184A5F800E096E728
:1019A000B5F804C0A26A2CF4007003041268190C84
:1019B000A980106840F001031360A98888B240F440
:1019C000805EA5F804E05368012B3FF67CAFB5F8C4
:1019D00000E02EF480621304190C298073E7B5F837
:1019E00004C0E06A2CF40073190400680A0CAA8091
:1019F000036843F00101016065E7B5F804C02023E6
:101A00002CF400710A04100CA88029881FFA81FEAA
:101A10004EF400722A8083F31188FEF7F9FDE06925
:101A200018B18762E761FEF75BFFFEF711FE002346
:101A300083F3118847E700BFC80D002002000300B0
:101A400082000700AFF30080AFF30080AFF30080A7
:101A50002DE9F0415D4DFEF71BFE2C6B202383F337
:101A60001188FEF7D5FDEA6AAB6A10685668076808
:101A70000F2127F001070760107A1A6811FA00F0A9
:101A800030601668586826F0010616601B7A994087
:101A90000160FEF7DDFD002383F31188A68A16F4AA
:101AA000807607D0B4F814C001262CF48072130499
:101AB000190CA182B4F814E01EF4007F07D0A28AAA
:101AC00046F0020622F400731904080CA08295F86F
:101AD00034103E4800293AD1B4F814C01CF4806F89
:101AE00041D1A08A10F4006F08D0B4F814E046F099
:101AF00008062EF4006211040B0CA382B4F814C083
:101B00001CF4805F07D0A28A46F0100622F48051B0
:101B10000B04180CA082B4F814E01EF4804F08D017
:101B2000B4F814C046F020062CF480410B04180CC5
:101B3000A082B4F814E00FFA8EF2002A2ADB002EFD
:101B40002ED1FEF7C5FDBDE8F041FEF711BCB4F89B
:101B500014C0436D2CF4806211040A0CA282002B85
:101B6000BFD09847BDE7B4F814E046F004062EF461
:101B700080610A04130CA382B4F804C02CF4007032
:101B800001040A0CA280238898B240F4007EA4F8D5
:101B900000E0A6E7A18A46F040064B04580CA0825C
:101BA000AE60202383F31188FEF732FDE86938B177
:101BB000064B6FF0010100228162DA61FEF790FEB0
:101BC000FEF746FD002383F31188BAE7C80D002015
:101BD00010B5074C2046FFF793FB064B0649A3F1CF
:101BE0000C020020E0612163A362E26210BD00BF2D
:101BF000C80D0020C824000800540040AFF3008046
:101C0000034B998988B240F080029A81704700BFE7
:101C100000380140AFF30080AFF30080AFF30080E5
:101C2000034B998988B240F080029A81704700BFC7
:101C300000440040AFF30080AFF30080AFF30080BA
:101C40002DE9F843066F0546B7893488BFB2A4B2C0
:101C500014F00F0FB6F8048025D014F0080918BF4F
:101C60004FF0800914F0010F18BF49F0200914F05B
:101C7000020F18BF49F0400914F0040F18BF49F4CF
:101C80008079202383F31188FEF7C2FCA968281D00
:101C900041EA0903AB600021FFF72AF9FEF7D8FCFF
:101CA000002383F3118814F4807F3BD114F0200FBC
:101CB00028D117F0800F02D014F0800F4CD114F00F
:101CC000400F1DD0202383F31188FEF7A1FCAA68E2
:101CD000281D42F01003AB600021FFF709F9FEF761
:101CE000B7FC002383F311884FF6BF7007EA0001A9
:101CF000B181B6F800C02CF040021304180C3080FB
:101D0000BDE8F883202383F31188FEF781FC284681
:101D10005FFA88F1FFF77CFBFEF79AFC002383F360
:101D20001188C6E7202383F31188FEF771FCA968A8
:101D3000281D41F40072AA600021FFF7D9F8FEF7D0
:101D400087FC002383F31188B6F800C02CF480735D
:101D50001A04100C3080A9E7202383F31188FEF7C2
:101D600057FC05F13000FFF7FBF9002806DBB080D7
:101D7000FEF76EFC002383F31188A0E7A968281DF5
:101D800041F00802AA600021FFF7B2F827F0C00373
:101D900043F04000B081EBE7AFF30080AFF3008089
:101DA00010B5FEF775FC0448FFF74AFFFEF790FCFC
:101DB000BDE81040FEF7DCBA200E0020AFF3008033
:101DC00010B5FEF765FC0448FFF73AFFFEF780FC0C
:101DD000BDE81040FEF7CCBA940E0020AFF30080AF
:101DE00038B5084D00212846074A084CFFF7F0FA9D
:101DF000074B20460021074A2B67FFF7E9FA064BFD
:101E0000236738BD200E0020011C0008940E00201E
:101E100000380140211C000800440040AFF300805E
:101E2000154B30B49A69154D42F07D049C610168F0
:101E3000134CE960826813496A604368124A2B6058
:101E4000C568124BE5604569656005692560846970
:101E5000CC60046A4C60C4690C60416AD160C16A9C
:101E60005160816A1160026BDA60816B5960426B6C
:101E70001A6030BC704700BF0010024000080140EB
:101E8000000C014000100140001401400018014006
:101E9000032AF0B400F09A80042A08BF41614C4B39
:101EA00011F080079B5C40F088800F2411F40045FE
:101EB00040F089800F264A002401360139012D01A6
:101EC00012F0800F14BF194344F00F0412F4004FB6
:101ED00014BF1D4346F00F065200240136010901CC
:101EE0002D0112F0800F14BF194344F00F0412F4B7
:101EF000004F14BF1D4346F00F0652002401360167
:101F000009012D0112F0800F14BF194344F00F0492
:101F100012F4004F14BF1D4346F00F065200240177
:101F2000360109012D0112F0800F14BF194344F04E
:101F30000F0412F4004F14BF1D4346F00F06520069
:101F40002401360109012D0112F0800F14BF19433D
:101F500044F00F0412F4004F14BF1D4346F00F0667
:101F600052002401360109012D0112F0800F14BF27
:101F7000194344F00F0412F4004F14BF1D4346F000
:101F80000F0652002401360109012D0112F0800FC5
:101F900014BF194344F00F0412F4004F18BF1D433F
:101FA000436808BF46F00F061E403543456002688F
:101FB000144021430160F0BC7047002411F4004537
:101FC0001F463FF477AF1D46002674E7016166E7C0
:101FD000E0240008AFF30080AFF30080AFF300808F
:101FE000FFF7D6BBAFF30080AFF30080AFF3008004
:101FF000704700BFAFF30080AFF30080AFF3008005
:1020000008B5FFF745F9FEF743FA00F049F87D20DF
:10201000FEF7FEFDFBE700BFAFF30080AFF30080EB
:102020001848F8B5184AC369184E194D194C9A61E9
:1020300020270FE0E06813F0040F80F00102E26057
:102040001CD0E26882F00203E360FEF7D9FE7D2037
:10205000FEF7DEFD1048FEF7C3FE336813F0010FF4
:1020600017BFE9686F6181F02001E96013F0020F8A
:10207000E0D1012113F0040F6161E2D1022060611F
:10208000E3E700BF2C0D002040250008180F0020BA
:1020900000100140000C0140080F0020AFF3008049
:1020A000F0B5134B134C2027012602251F6183B086
:1020B00018462661062239462561FFF7E9FE2046CB
:1020C00031460622FFF7E4FE294606222046FFF7A6
:1020D000DFFE0948FEF7ECFD00244FF4D8714022E2
:1020E000064B07480094FEF74BFD03B0F0BD00BF60
:1020F00000100140000C0140080F002021200008C2
:10210000200F0020AFF30080AFF30080AFF300801A
:1021100069646C65000000006D61696E000000007C
:1021200053562331000000005356233200000000B4
:1021300053562333000000005356233400000000A0
:10214000535623350000000053562336000000008C
:102150005356233700000000535623380000000078
:10216000535623390000000053562331300000003D
:102170005356233131000000000000000000000031
:1021800022636856545365744922282900000000D0
:1021900022636856545265736574492228290000E9
:1021A0006368565452657365744928292C2023317D
:1021B000000000000000000000000000000000001F
:1021C000636853636852656164794928292C202328
:1021D00031000000737461636B206F766572666C0A
:1021E0006F77000000000000000000000000000009
:1021F00022636854686443726561746549222829C2
:10220000000000002263685468645365745072696A
:102210006F7269747922282900000000636854688D
:1022200064526573756D6528292C202331000000E8
:10223000226368546864536C656570222829000025
:102240006368546864457869745328292C202331C5
:102250000000000022636854686457616974222892
:102260002900000063685468645761697428292C48
:1022700020233100000000000000000000000000EA
:102280002263684D7478496E697422282900000021
:102290002263684D74784C6F636B532228290000C9
:1022A00063684D74784C6F636B5328292C2023315D
:1022B0000000000063684D74784C6F636B532829ED
:1022C0002C202332000000002263684D7478547281
:1022D000794C6F636B5322282900000063684D74AA
:1022E00078556E6C6F636B28292C20233100000019
:1022F00063684D7478556E6C6F636B28292C2023AE
:102300003200000063684D7478556E6C6F636B53D8
:1023100028292C202331000063684D7478556E6C99
:102320006F636B5328292C2023320000000000002B
:1023300022636845767452656769737465724D618E
:10234000736B222829000000226368457674556E5D
:102350007265676973746572222829002263684573
:1023600076745369676E616C492228290000000069
:102370002263684576745369676E616C2228290070
:1023800022636845767442726F6164636173744D51
:1023900061736B4922282900226368457674446979
:1023A00073706174636822282900000063684576B1
:1023B00074446973706174636828292C2023310088
:1023C00022636849515265616454696D656F757423
:1023D000222829002263684F515772697465546935
:1023E0006D656F7574222829000000000000000050
:1023F00022736453746172742228290073645374C5
:1024000061727428292C2023310000002273645348
:10241000746F702228290000736453746F70282928
:102420002C20233100000000227364496E636F6D1D
:10243000696E6744617461492228290022736452DD
:1024400065717565737444617461492228290000BF
:1024500091130008711300081113000821130008DC
:10246000B1130008A11300088113000861130008CC
:102470003113000800000000000000000000000010
:10248000080002400400024000000B001C00024053
:102490000400024004010C0030000240040002402D
:1024A00008020D0044000240040002400C030E002C
:1024B000580002400400024010040F006C0002406B
:1024C0000400024014051000800002400400024095
:1024D00018061100000000000000000000000000CD
:1024E0000402040808000307080808080808080888
:1024F0000B0F0000000000000000000000000000C2
:10250000FFFFFFFF4444444444444444FFFFFFFFB3
:102510004444444444444444FFFFFFFF444444448F
:1025200044444444FFFFFFFF44444444444444447F
:10253000FFFFFFFF8888888888888888000000005F
:042540006C640000C7
:0400000508000111DD
:00000001FF
