:020000040800F2
:100000000004002021060008F1060008F10600089F
:10001000F1060008F1060008F1060008F1060008E4
:10002000F1060008F1060008F10600084107000883
:10003000F1060008F1060008F106000811070008A3
:10004000F1060008F1060008F1060008F1060008B4
:10005000F1060008F1060008F1060008F1060008A4
:10006000F1060008F1060008F10600081124000856
:1000700061240008B124000801250008512500086A
:10008000A1250008F1250008F1060008F106000886
:10009000F1060008F1060008F1060008F106000864
:1000A000F1060008F1060008F1060008F106000854
:1000B000F1060008F1060008F106000851320008B8
:1000C00071320008F1060008F1060008F106000888
:1000D000F1060008F135000811360008F1060008A5
:0C00E000F1060008F1060008F106000817
:1000F00080F0004002E000BF81F0004142001FBFDD
:100100005FEA410392EA030F7FEA226C7FEA236CE5
:100110006AD04FEA1262D2EB1363C1BFD2184140DA
:1001200048404140B8BF5B42192B88BF704710F070
:10013000004F40F4000020F07F4018BF404211F013
:10014000004F41F4000121F07F4118BF494292EA7B
:10015000030F3FD0A2F1010241FA03FC10EB0C00A7
:10016000C3F1200301FA03F100F0004302D5494234
:1001700060EB4000B0F5000F13D3B0F1807F06D3E1
:1001800040084FEA310102F10102FE2A51D2B1F1D9
:10019000004F40EBC25008BF20F0010040EA0300CE
:1001A0007047490040EB000010F4000FA2F101027B
:1001B000EDD1B0FA80FCACF1080CB2EB0C0200FA05
:1001C0000CF0AABF00EBC25052421843BCBFD04053
:1001D0001843704792F0000F81F4000106BF80F4CD
:1001E00000000132013BB5E74FEA41037FEA226C90
:1001F00018BF7FEA236C21D092EA030F04D092F05B
:10020000000F08BF0846704790EA010F1CBF00208E
:10021000704712F07F4F04D1400028BF40F00040EB
:10022000704712F100723CBF00F50000704700F00B
:10023000004343F0FE4040F4000070477FEA226232
:1002400016BF08467FEA23630146420206BF5FEA03
:10025000412390EA010F40F4800070474FF0000303
:1002600004E000BF10F0004348BF40425FEA000CCA
:1002700008BF704743F0964301464FF000001CE072
:1002800050EA010208BF70474FF000030AE000BFC8
:1002900050EA010208BF704711F0004302D5404206
:1002A00061EB41015FEA010C02BF84460146002078
:1002B00043F0B64308BFA3F18053A3F50003BCFA93
:1002C0008CF2083AA3EBC25310DB01FA02FC634440
:1002D00000FA02FCC2F12002BCF1004F20FA02F247
:1002E00043EB020008BF20F00100704702F120023A
:1002F00001FA02FCC2F1200250EA4C0021FA02F29B
:1003000043EB020008BF20EADC70704700000000E9
:100310004FF0FF0C1CEAD0521EBF1CEAD15392EAE8
:100320000C0F93EA0C0F6FD01A4480EA010C4002C4
:1003300018BF5FEA41211ED04FF0006343EA50101E
:1003400043EA5111A0FB01310CF00040B1F5000F60
:100350003EBF490041EAD3715B0040EA010062F10F
:100360007F02FD2A1DD8B3F1004F40EBC25008BFF9
:1003700020F00100704790F0000F0CF0004C08BF17
:1003800049024CEA502040EA51207F3AC2BFD2F1E4
:10039000FF0340EAC250704740F400004FF00003F2
:1003A000013A5DDC12F1190FDCBF00F0004070472C
:1003B000C2F10002410021FA02F1C2F1200200FA6A
:1003C00002FC5FEA310040F1000053EA4C0308BF31
:1003D00020EADC70704792F0000F00F0004C02BF82
:1003E000400010F4000F013AF9D040EA0C0093F0FD
:1003F000000F01F0004C02BF490011F4000F013B57
:10040000F9D041EA0C018FE70CEAD15392EA0C0FC4
:1004100018BF93EA0C0F0AD030F0004C18BF31F02F
:10042000004CD8D180EA010000F00040704790F005
:10043000000F17BF90F0004F084691F0000F91F0A9
:10044000004F14D092EA0C0F01D142020FD193EA6F
:100450000C0F03D14B0218BF084608D180EA0100F7
:1004600000F0004040F0FE4040F40000704740F0D3
:10047000FE4040F4400070474FF0FF0C1CEAD052A1
:100480001EBF1CEAD15392EA0C0F93EA0C0F69D0FD
:10049000A2EB030280EA010C49024FEA402037D068
:1004A0004FF0805343EA111143EA10130CF000405F
:1004B0008B4238BF5B0042F17D024FF4000C8B424F
:1004C00024BF5B1A40EA0C00B3EB510F24BFA3EB2F
:1004D000510340EA5C00B3EB910F24BFA3EB9103FF
:1004E00040EA9C00B3EBD10F24BFA3EBD10340EA59
:1004F000DC001B0118BF5FEA1C1CE0D1FD2A3FF69F
:1005000050AF8B4240EBC25008BF20F00100704753
:100510000CF0004C4CEA50207F32C2BFD2F1FF03F6
:1005200040EAC250704740F400004FF00003013A27
:1005300037E792F0000F00F0004C02BF400010F4CB
:10054000000F013AF9D040EA0C0093F0000F01F0DF
:10055000004C02BF490011F4000F013BF9D041EA01
:100560000C0195E70CEAD15392EA0C0F08D1420234
:100570007FF47DAF93EA0C0F7FF470AF084676E707
:1005800093EA0C0F04D14B023FF44CAF08466EE7E0
:1005900030F0004C18BF31F0004CCAD130F00042AE
:1005A0007FF45CAF31F000437FF43CAF5FE700BF06
:1005B0004FEA4002B2F1FE4F0FD34FF09E03B3EB70
:1005C00012620DD94FEA002343F0004310F0004FB0
:1005D00023FA02F018BF404270474FF00000704706
:1005E00012F1610F01D1420205D110F0004008BFA5
:1005F0006FF0004070474FF00000704700000000AF
:10060000704700BFAFF30080AFF30080AFF300800E
:10061000FEE700BFAFF30080AFF30080AFF30080D0
:1006200072B6264C84F309884FF0020484F31488D0
:10063000BFF36F8F224C234D04E04FF055332360FE
:1006400004F10404AC42F8D31F4C1C4D04E04FF0FD
:100650005533236004F10404AC42F8D303F018F9D5
:100660001A4D1B4C05E02B68236004F1040405F1CE
:100670000405184B9C42F6D3174C184D04E04FF07C
:100680000003236004F10404AC42F8D3FFF7B8FF81
:10069000134C03E02368984704F10404114B9C4277
:1006A000F8D303F005F9104C03E02368984704F1F0
:1006B00004040E4B9C42F8D3FFF7AAFF0008002069
:1006C000000000200004002000040020A0510008C9
:1006D000000800206C08002070080020901E0020F8
:1006E000EC000008EC000008EC000008EC0000083A
:1006F000FEE700BFAFF30080AFF30080AFF30080F0
:1007000072B6FEE7AFF30080AFF30080AFF3008076
:1007100008B500F05DFA4FF0200383F3118800F074
:1007200027FA00F095F900F03BFA4FF0000383F34D
:10073000118800F075FA00F03BF808BDAFF30080B7
:1007400010B483B0EFF309840194019B03F12003FB
:100750000193019B83F309884FF0000383F3118811
:1007600003B010BC704700BFAFF30080AFF3008050
:1007700008B50D4B4FF000029A600B4B0B4ADA6044
:100780004FF007004FF0100100F0DAF84FF00A00C8
:100790004FF4007100F0D4F84FF00B004FF08001DF
:1007A00000F0CEF808BD00BF00ED00E00000FA0543
:1007B00010B483B04FF0200383F311881F4B5B68A4
:1007C00003F40063002B32D0EFF309840194019B02
:1007D000A3F120030193019B83F30988019B4FF050
:1007E0008072DA61164B9B69002B0BD0144B1B688F
:1007F0009A68134BDB699B689A4294BF00230123DC
:10080000DBB20AE00E4B1B689A680D4BDB699B68F4
:100810009A4234BF00230123DBB2002B03D0019B9B
:10082000084A9A6107E0019B074A9A6103E04FF08A
:10083000000383F3118803B010BC704700ED00E0A3
:100840009C0D0020510800085C080008AFF30080F0
:1008500000F05EF900F09CFC00F072F900DF00BFD0
:1008600003460A462DE9F04FC2F80CD0D3F80CD05D
:10087000BDE8F08FAFF30080AFF30080AFF30080EE
:1008800008B500F05DF94FF0000383F311882846A6
:10089000A04700F0C5FD08BDAFF30080AFF30080B6
:1008A00010B485B001900091019B03F003034FEA5F
:1008B000C30303931E4B019A4FEA92021C4901980D
:1008C0004FEA900000F1C00051F8200003994FF06A
:1008D000FF0404FA01F16FEA010108400399009C4A
:1008E00004FA01F140EA010102F1C00243F82210CA
:1008F0000F4B019A4FEA5212019901F01F014FF07C
:10090000010000FA01F102F1600243F82210084BE5
:10091000019A4FEA5212019901F01F014FF00100B4
:1009200000FA01F143F8221005B010BC704700BF77
:1009300000E100E0AFF30080AFF30080AFF3008090
:1009400010B485B001900091019B03F003034FEABE
:10095000C3030393104B019A4FEA92020E49019888
:100960004FEA900000F1060051F8200003994FF083
:10097000FF0404FA01F16FEA010108400399009CA9
:1009800004FA01F140EA010102F1060243F82210E3
:1009900005B010BC704700BF00ED00E0AFF3008071
:1009A00082B00190024BDB69024A9A61FEE700BF08
:1009B0009C0D0020904B0008AFF30080AFF3008047
:1009C00000B583B0FFF7D4FE00F0A2FA00F0D8F92A
:1009D00001F006FA00F07CF914484FF0400100F0F5
:1009E0001FFC0246124BDA61114BDB694FF001022A
:1009F00083F820200E4BDB690E4ADA6100F070F8B4
:100A00004FF0000383F3118862B6094BDB690A4A91
:100A10009A610A4B4FF00002009209484FF0C00162
:100A20004FF0010200F09CFC03B000BD3009002033
:100A30009C0D002000040020984B0008A10900082C
:100A400070080020AFF30080AFF30080AFF30080A8
:100A500000B583B000F00CF91F4B9B69002B05DD3E
:100A60001D4B9B6903F1FF321B4B9A611A4BDB69EB
:100A70005A6A02F101025A62184BDB6803F1010263
:100A8000164BDA60154B1B681A46144B9A4221D05C
:100A9000124B1B689A6802F1FF329A6013E0019BC7
:100AA000DB680093019B4FF00002DA60019B1B683A
:100AB0000A4A5A60019B1A68084B1A60019B1A691E
:100AC000009B10469847054B1B680193019B9B6850
:100AD000002BE4D003B000BD9C0D00208C0D002045
:100AE00008B5064B1B68002B03D1054B1B68002B78
:100AF00002D0044800F034F908BD00BF7809002096
:100B00007C090020B04B0008AFF30080AFF30080F9
:100B100008B5084B1B68002B03D1074B1B68002B43
:100B200002D0064800F01CF9034B4FF001021A6096
:100B300008BD00BF780900207C090020B84B0008E0
:100B400008B5084B1B68002B03D1074B1B68002B13
:100B500002DC064800F004F9034B4FF000021A6073
:100B600008BD00BF780900207C090020C04B0008A8
:100B700008B5084B1B68002B03DD074B1B68002BD7
:100B800002D0064800F0ECF8034B4FF001021A6067
:100B900008BD00BF780900207C090020C84B000870
:100BA00008B5084B1B68002B03DD074B1B68002BA7
:100BB00002DC064800F0D4F8034B4FF000021A6044
:100BC00008BD00BF780900207C090020D04B000838
:100BD00008B54FF0200383F311880B4B1B68002BE3
:100BE00003DB0A4B1B68002B02D0094800F0B8F861
:100BF000054B1B6803F10102034B1A604FF0000321
:100C000083F3118808BD00BF780900207C0900200B
:100C1000D84B0008AFF30080AFF30080AFF3008043
:100C200008B54FF0200383F311880B4B1B68002B92
:100C300003DD0A4B1B68002B02D0094800F090F836
:100C4000054B1B6803F1FF32034B1A604FF00003A2
:100C500083F3118808BD00BF780900207C090020BB
:100C6000E04B0008AFF30080AFF30080AFF30080EB
:100C700008B5064B1B68002B03DB054B1B68002BDC
:100C800002DC044800F06CF808BD00BF78090020C1
:100C90007C090020E84B0008AFF30080AFF3008030
:100CA00008B5064B1B68002B03D1054B1B68002BB6
:100CB00002DC044800F054F808BD00BF78090020A9
:100CC0007C090020F04B0008AFF30080AFF30080F8
:100CD000034B4FF040021A60014B024A5A607047C2
:100CE0008009002088090020AFF30080AFF3008066
:100CF00082B00190124B5B68124AD2681A60104BA6
:100D00005B68114AD2695A600D4B5B68019A926A1E
:100D10009A600B4B5B68019A92F820201A73084B7B
:100D20005B6803F11002064B5A60054B5A68074B8B
:100D30009A4202D3024B064A5A6002B0704700BF83
:100D4000800900208C0D00209C0D0020880D0020C3
:100D500088090020AFF30080AFF30080AFF300807C
:100D600000B583B00190034B019A1A60FFF7C8FCED
:100D700003B000BD880D0020AFF30080AFF300800A
:100D8000074A074B5A60064B5A68054B1A60044BDA
:100D90004FF0FF329A60024B4FF00002DA6070476A
:100DA0008C0D0020AFF30080AFF30080AFF3008024
:100DB00000B587B00390029101920093FFF758FFAE
:100DC000039B002B05D0019B002B02D0029B002B24
:100DD00002D11C48FFF7C4FF039B009A1A61039BD2
:100DE000019ADA60184B1B68059307E0059B9B6826
:100DF000029AD31A0293059B1B680593059B9A6878
:100E0000029B9A42F2D3039B059A1A60039B1B68CC
:100E10005A68039B5A60039B5B68059A039951606B
:100E2000059A52681A60039B029A9A60059A064BCB
:100E30009A4205D0059B9A68029BD21A059B9A603C
:100E400007B000BD004C00088C0D0020AFF30080FF
:100E500000B583B00190FFF70BFF019B002B02D17F
:100E60001348FFF77DFF019BDB68002B02D111487F
:100E7000FFF776FF019B1A680F4B9A4208D0019B3F
:100E80001B68019A12689168019A92688A189A60A0
:100E9000019B5B68019A12681A60019B1B68019AAA
:100EA00052685A60019B4FF00002DA6003B000BD47
:100EB000104C0008204C00088C0D0020AFF300807F
:100EC00084B00190019B1B680393039B1A68019BEC
:100ED0001A60019B1B68019A5A60039B184604B074
:100EE000704700BFAFF30080AFF30080AFF3008026
:100EF00082B00190019B5B68019A12681A60019BA5
:100F00001B68019A52685A60019B184602B07047EC
:100F10000B4A0B4B5A600A4B5A68094B1A60084B34
:100F20004FF000029A60064B4FF014029A61044A97
:100F3000034B5A61024B5A69014B1A61704700BF5B
:100F40009C0D0020AFF30080AFF30080AFF3008072
:100F500000B585B00190019B93F82030002B04D0A0
:100F6000019B93F820300E2B02D11348FFF7F8FEB7
:100F7000019B4FF0000283F82020104B0393039B4A
:100F80001B680393039B9A68019B9B689A42F6D265
:100F9000019B039A1A60039B5A68019B5A60019B4C
:100FA0005B68039A01995160039A52681A60019B29
:100FB000184605B000BD00BF404C00089C0D002045
:100FC00000B585B003468DF80730FFF769FE164B74
:100FD000DB690393039B9DF8072083F82020124BC5
:100FE0004FF014029A611048FFF76AFF02460E4B59
:100FF000DA610D4BDB694FF0010283F82020039882
:10100000FFF776FE6B46A3F12402039BDB699A424D
:1010100002D20648FFF7A4FE034BDB69184603998A
:10102000FFF71EFC05B000BD9C0D0020544C0008CD
:1010300000B585B00190019B0393039B93F820308A
:101040000D2B28D801A252F823F000BFA7100008EA
:1010500097100008971000088510000897100008E6
:1010600091100008971000089710000897100008CA
:1010700097100008971000089710000897100008B4
:1010800091100008039B9B6A9A6802F101029A6022
:101090000398FFF72DFF039B4FF0FF329A620398EE
:1010A000FFF756FF00E000BF05B000BDAFF30080C2
:1010B00000B589B0034600918DF80730FFF7F0FDC9
:1010C000009BB3F1FF3F14D00F4BDB6903AA10461E
:1010D00000990E4AFFF76CFE9DF807301846FFF79F
:1010E0006FFF069B002B09D003AB1846FFF7B0FE3D
:1010F00004E09DF807301846FFF762FF024BDB69FA
:101100009B6A184609B000BD9C0D002031100008F4
:1011100000B585B001900091FFF7C2FD019B009AD8
:101120009A62019B9A68174BDB699B689A4203D8C5
:101130000198FFF70DFF22E0124BDB691846FFF71D
:1011400007FF03900F4B4FF014029A610D4B019A69
:10115000DA61019B4FF0010283F820200398FFF72A
:10116000C7FD6B46A3F12402039BDB699A4202D2BE
:101170000548FFF7F5FD01980399FFF771FB05B0EE
:1011800000BD00BF9C0D0020544C0008AFF3008050
:1011900000B583B0154B4FF014029A61134BDB6915
:1011A00001931248FFF78CFE0246104BDA610F4B99
:1011B000DB694FF0010283F820200198FFF7C8FE99
:1011C0000198FFF795FD6B46A3F12402019BDB69B3
:1011D0009A4202D20648FFF7C3FD044BDB6918466A
:1011E0000199FFF73DFB03B000BD00BF9C0D00203F
:1011F000544C0008AFF30080AFF30080AFF30080E1
:1012000084B00190019B1B680393039B1A68019BA8
:101210001A60039B184604B0704700BFAFF300800C
:1012200082B001900091019B009A9A60019B4FF05F
:10123000020283F82020019B4FF0000283F8212056
:10124000019B009A5A64019B4FF000021A64019BB3
:101250004FF00002DA63019B4FF000025A62019BDB
:101260004FF000029A61144A019B1A61124B5A69AD
:10127000019B5A61019B5B690F4A019951610E4ABA
:1012800052691A61019B03F12C031A46019BDA6231
:10129000019B03F130031A46019B5A63019B5A6B71
:1012A000019B1A63019B03F14802019BDA61019BD8
:1012B000184602B0704700BF9C0D0020AFF30080BD
:1012C00084B00390029113468DF8073007E0039B2A
:1012D0009DF807201A70039B03F101030393039AFF
:1012E000029B9A42F3D304B0704700BFAFF3008073
:1012F00000B587B00390029101920093039B059380
:10130000FFF7B6FC039B002B08D0029BAF2B05D93F
:10131000019B7F2B02D8009B002B02D10E48FFF7C8
:101320001FFD039A029BA3F12403D218059BDA60E8
:10133000059BDB68009A1A60059BDB68089A5A6077
:10134000059BDB68054A1A6205980199FFF768FF5B
:101350000346184607B000BD704C0008810800081D
:1013600000B589B00590049103920293059A059BFC
:1013700003F14803104619464FF0FF02FFF7A0FFA4
:10138000059B03F148020599049BCB1810461946AA
:101390004FF05502FFF794FF4FF0200383F31188BD
:1013A000FFF7B6FB0A9B009305980499039A029BEA
:1013B000FFF79EFF079007984FF00001FFF7A8FE88
:1013C000FFF7BEFB4FF0000383F31188079B18461D
:1013D00009B000BDAFF30080AFF30080AFF3008031
:1013E00000B583B00190019B002B02D10A48FFF7A2
:1013F000B7FC4FF0200383F31188FFF789FB4FF010
:1014000006000199FFF754FEFFF79AFB4FF0000327
:1014100083F3118803B000BDB04C0008AFF3008027
:1014200000B583B001904FF0200383F31188FFF7DC
:101430006FFB019800F004F803B000BDAFF300802B
:1014400000B585B00190194BDB690393039B019AAA
:101450009A6209E0039B03F12C031846FFF7D0FEC4
:1014600003461846FFF774FD039BDA6A039B03F1FA
:101470002C039A42EED1039B93F8213003F003032F
:10148000002B09D1039B5B69039A12691A61039BC4
:101490001B69039A52695A614FF00E00FFF790FDE5
:1014A0000348FFF75DFC05B000BD00BF9C0D0020A8
:1014B000C04C0008AFF30080AFF30080AFF30080B2
:1014C00084B001900091009B0393039B1B680393DE
:1014D000009B039A9A4205D0039B9A68019B9B68E4
:1014E0009A42F2D2019B039A1A60039B5A68019BAD
:1014F0005A60019B5B68039A01995160039A526894
:101500001A6004B0704700BFAFF30080AFF30080F3
:1015100084B00190019B1B680393039B1A68019B95
:101520001A60019B1B68019A5A60039B184604B01D
:10153000704700BFAFF30080AFF30080AFF30080CF
:1015400082B00190019B5B68019A12681A60019B4E
:101550001B68019A52685A60019B184602B0704796
:1015600000B583B00190019B002B02D10848FFF722
:10157000F7FB019B1A46019B5A60019B5A68019B2D
:101580001A60019B4FF000029A6003B000BD00BFDB
:10159000004D0008AFF30080AFF30080AFF3008090
:1015A00000B583B001904FF0200383F31188FFF75B
:1015B000AFFA019800F00CF8FFF7C2FA4FF0000301
:1015C00083F3118803B000BDAFF30080AFF3008058
:1015D00000B585B001903C4BDB690293FFF760FBDF
:1015E000019B002B02D13948FFF7BAFB019B9B6896
:1015F000002B5CD0019B9B68039335E0029B9A68AB
:10160000039B9A60039B93F82030042B04D0052B96
:1016100011D0002B1AD02DE00398FFF791FF02465E
:10162000039B9B6A10461946FFF74AFF039B9B6A80
:101630009B68039318E00398FFF782FF0246039B21
:101640009B6A10461946FFF73BFF0CE0039B4FF0E7
:10165000010283F820200398FFF772FF0346184623
:10166000FFF776FC00BF05E0039B9A68029B9B682E
:101670009A42C3D3019B02981946FFF721FF029BB0
:10168000019A9A624FF00400FFF79AFC019B9A6856
:10169000029B9A4202D00E48FFF762FB029B1A6C33
:1016A000019B9A420DD00B48FFF75AFB09E0019BC2
:1016B000029A9A60029B1A6C019BDA60029B019A63
:1016C0001A6405B000BD00BF9C0D0020104D00083D
:1016D000204D0008344D0008AFF30080AFF30080C8
:1016E00000B587B0334BDB6903934FF0200383F3DE
:1016F0001188FFF70DFA039B1B6C002B02D12E48BB
:10170000FFF72EFB039B1B6C9A68039B9A4202D047
:101710002A48FFF725FB039B1B6C0293029BDA68A8
:10172000039B1A64029B1A68029B9A4233D0039B64
:101730005B6C0493039B1B6C059311E0059B1A687B
:10174000059B9A4209D0059B1B689A68049B9A42A4
:1017500003D9059B1B689B680493059BDB68059375
:10176000059B002BEAD1039B049A9A60029B1846C2
:10177000FFF7CEFE0190029B019A9A60019B1A6CC2
:10178000029BDA60019B029A1A6401984FF00001F3
:10179000FFF7BEFC03E0029B4FF000029A60FFF7E8
:1017A000CFF94FF0000383F31188029B184607B06E
:1017B00000BD00BF9C0D00205C4D0008704D00086E
:1017C00000B583B001900091FFF752FA019B002B06
:1017D00002D11648FFF7C4FA019BDA6B009B1A434B
:1017E000019BDA63019B93F82030082B07D1019B02
:1017F000DA6B019B9B6A02EA0303002B0DD1019B6C
:1018000093F82030092B0FD1019BDA6B019B9B6A67
:101810001A40019B9B6A9A4206D10198FFF798FBF8
:1018200003464FF000029A6203B000BDEC4D000881
:1018300000B585B001900091FFF71AFA019B002BCB
:1018400002D10D48FFF78CFA019B1B6803930DE052
:10185000039B5A68039B9968009B41EA0303104667
:101860001946FFF7ADFF039B1B680393019B039A87
:101870009A42EDD105B000BD004E0008AFF30080E4
:1018800082B001900091009A019B1A60009B5A68F7
:10189000019B5A60019B5B68009A01995160009A14
:1018A00052681A6002B07047AFF30080AFF3008057
:1018B00084B00190019B1B680393039B1A68019BF2
:1018C0001A60019B1B68019A5A60039B184604B07A
:1018D000704700BFAFF30080AFF30080AFF300802C
:1018E00000B583B001900091009B002B02D14FF016
:1018F000FF3310E0094BDB69019A9A62074BDA6902
:10190000019B10461946FFF7BBFF4FF00D000099F1
:10191000FFF7CEFB0346184603B000BD9C0D002028
:1019200084B00390029101920093039B1A46039B9B
:101930005A60039B5A68039B1A60039B4FF0000296
:101940009A60039B029A5A61039B5A69039B9A61AE
:10195000039B9A69039BDA60029A019BD218039B4E
:101960001A61039B009ADA6104B07047AFF30080FC
:1019700000B583B001900B468DF80330FFF778F97E
:10198000019B5A69019B9B699A4206D1019B9B6806
:10199000002B02D06FF003032BE0019B9B6803F147
:1019A0000102019B9A60019B5B699DF803201A70FC
:1019B00003F10102019B5A61019B5A69019B1B695A
:1019C0009A4203D3019BDA68019B5A61019B1A6812
:1019D000019B9A420BD0019B1846FFF769FF034613
:1019E0001846FFF7B5FA03464FF000029A624FF02F
:1019F0000003184603B000BDAFF30080AFF30080D2
:101A000000B585B0019000914FF0200383F3118859
:101A1000FFF77EF8019BDB69002B14D0019BDB698B
:101A20000198984710E001980099FFF759FF03903B
:101A3000039B002B08DAFFF783F84FF0000383F3D2
:101A40001188039B25E000BF019B9B68002BEAD017
:101A5000019B9B6803F1FF32019B9A60019B9B698C
:101A60001A788DF80B2003F10102019B9A61019B0A
:101A70009A69019B1B699A4203D3019BDA68019B17
:101A80009A61FFF75DF84FF0000383F311889DF82A
:101A90000B30184605B000BDAFF30080AFF30080F7
:101AA00000B587B00390029101920093039BDB691C
:101AB00004934FF000030593019B002B02D12F48A4
:101AC000FFF74EF94FF0200383F31188FFF720F85A
:101AD000049B002B12D0049B039898470FE00398B7
:101AE0000099FFF7FDFE0346002B08D0FFF728F80A
:101AF0004FF0000383F31188059B3BE000BF039B7D
:101B00009B68002BEBD0039B9B6803F1FF32039B88
:101B10009A60039B9B691978029A1170029A02F1EC
:101B20000102029203F10102039B9A61039B9A69ED
:101B3000039B1B699A4203D3039BDA68039B9A6158
:101B4000FEF7FEFF4FF0000383F31188059B03F1BE
:101B500001030593019B03F1FF330193019B002BCC
:101B600001D1059B06E04FF0200383F31188FEF7B7
:101B7000CFFFADE7184607B000BD00BF404E0008DC
:101B800084B00390029101920093039B1A46039B39
:101B90005A60039B5A68039B1A60039B019A9A60E0
:101BA000039B029A5A61039B5A69039B9A61039BA8
:101BB0009A69039BDA60029A019BD218039B1A610F
:101BC000039B009ADA6104B0704700BFAFF3008056
:101BD00000B587B003900B4601928DF80B304FF0A3
:101BE000200383F31188FEF793FF0FE00398019918
:101BF000FFF776FE0590059B002B07DAFEF7A0FFA6
:101C00004FF0000383F31188059B2CE0039B9B6836
:101C1000002BEBD0039B9B6803F1FF32039B9A6080
:101C2000039B5B699DF80B201A7003F10102039B73
:101C30005A61039B5A69039B1B699A4203D3039B16
:101C4000DA68039B5A61039BDB69002B03D0039B7B
:101C5000DB6903989847FEF773FF4FF0000383F3A7
:101C600011884FF00003184607B000BDAFF30080A5
:101C700000B585B00190FEF7FBFF019B5A69019BFF
:101C80009B699A4206D1019B9B68002B02D06FF0A2
:101C900002032BE0019B9B6803F10102019B9A6008
:101CA000019B9B691A788DF80F2003F10102019BBB
:101CB0009A61019B9A69019B1B699A4203D3019B1C
:101CC000DA68019B9A61019B1A68019B9A420BD0CA
:101CD000019B1846FFF7ECFD03461846FFF738F95D
:101CE00003464FF000029A629DF80F30184605B087
:101CF00000BD00BFAFF30080AFF30080AFF3008002
:101D000000B587B00390029101920093039BDB69B9
:101D100004934FF000030593019B002B02D12F4841
:101D2000FFF71EF84FF0200383F31188FEF7F0FE53
:101D30000EE003980099FFF7D3FD0346002B07D070
:101D4000FEF7FEFE4FF0000383F31188059B41E090
:101D5000039B9B68002BECD0039B9B6803F1FF3235
:101D6000039B9A60039B5B69029A12781A7003F1D5
:101D70000102039B5A61029B03F101030293039B3F
:101D80005A69039B1B699A4203D3039BDA68039B3E
:101D90005A61049B002B02D0049B03989847FEF7DE
:101DA000CFFE4FF0000383F31188059B03F101037D
:101DB0000593019B03F1FF330193019B002B01D19C
:101DC000059B07E04FF0200383F31188FEF7A0FE88
:101DD00000BFBDE7184607B000BD00BF544E000865
:101DE000074B03F1070323F007031A46054B1A605C
:101DF000054B23F007031A46044B1A60704700BFD7
:101E0000901E0020BC0D002000200020C00D0020EE
:101E100008B500F0F5FC00F0BBFA064801F070FCD4
:101E200000F00EF800F0DCF800F0C2F901F038FD27
:101E300008BD00BF30510008AFF30080AFF3008051
:101E400008B500F085FE08BDAFF30080AFF3008059
:101E500000B583B00190019B4FF001021A70019B05
:101E60004FF000025A60019B4FF000029A60019B04
:101E70004FF00002DA60019B4FF000021A61019BF3
:101E80004FF000025A61019B03F118031846FFF757
:101E900067FB03B000BD00BFAFF30080AFF300806D
:101EA00000B583B001900091019B002B02D1134833
:101EB000FEF756FF4FF0200383F31188FEF728FE4C
:101EC000019B1B78012B06D0019B1B78022B02D0B3
:101ED0000B48FEF745FF019B009A5A60019800F0FD
:101EE0007FFE019B4FF002021A70FEF729FE4FF0B1
:101EF000000383F3118803B000BD00BF704E0008DB
:101F0000804E0008AFF30080AFF30080AFF3008095
:101F100000B585B003900291019200934FF0200329
:101F200083F31188FEF7F4FD03980299019A009B50
:101F300000F00EF8FEF704FE4FF0000383F3118863
:101F400005B000BDAFF30080AFF30080AFF30080B9
:101F500000B585B00390029101920093FEF788FED0
:101F6000039B002B0ED0029B002B0BD0019B002B60
:101F700008D0009B012B08D0009B03F00103DBB2CB
:101F8000002B02D01148FEF7EBFE039B1B78022BBF
:101F90000AD0039B1B78042B06D0039B1B78052BD0
:101FA00002D00B48FEF7DCFE039B019A9A60039B6C
:101FB000009ADA60039B029A1A61039B4FF00302B6
:101FC0001A70039800F04CFE05B000BDAC4E00083E
:101FD000C44E0008AFF30080AFF30080AFF3008081
:101FE00008B501F055F908BDAFF30080AFF30080EC
:101FF00000B583B00190019B4FF001021A70019B64
:102000004FF000025A60019B03F10C031846FFF7E2
:10201000A7FA03B000BD00BFAFF30080AFF30080AC
:1020200000B585B0039002910192039B03F1300348
:1020300018460299019A4FF0FF33FFF761FE0346FD
:10204000184605B000BD00BFAFF30080AFF30080BD
:1020500000B585B0039002910192039B03F1100338
:1020600018460299019A4FF0FF33FFF719FD034616
:10207000184605B000BD00BFAFF30080AFF300808D
:1020800082B00190019B9B6B002B14BF00230123A6
:10209000184602B0704700BFAFF30080AFF3008076
:1020A00082B00190019B9B69002B14BF0023012388
:1020B000184602B0704700BFAFF30080AFF3008056
:1020C00000B585B003900B4601928DF80B30039B51
:1020D00003F130029DF80B3010461946019AFFF7C4
:1020E00077FD0346184605B000BD00BFAFF3008082
:1020F00000B583B001900091019B03F110031846D5
:102100000099FFF77DFC0346184603B000BD00BFF1
:1021100000B585B00390029101920093039B03F1F7
:10212000300318460299019A009BFFF7E9FD034628
:10213000184605B000BD00BFAFF30080AFF30080CC
:1021400000B585B00390029101920093039B03F1C7
:10215000100318460299019A009BFFF7A1FC034661
:10216000184605B000BD00BFAFF30080AFF300809C
:1021700000B585B001904FF0200383F31188FEF77E
:10218000C7FC019B9B680393019B4FF000029A6080
:10219000FEF7D6FC4FF0000383F31188039B18462B
:1021A00005B000BDAFF30080AFF30080AFF3008057
:1021B00008B501F03DFA08BDAFF30080AFF3008031
:1021C00000B585B0039002910192039B154A1A60F5
:1021D000039B03F104031A46039B5A60039B4FF0D1
:1021E00000029A60039B4FF001021A73039B03F1F4
:1021F0001002039B03F15003104619464FF400727E
:10220000029BFFF78DFB039B03F13002039B03F559
:102210001473104619464FF40072019BFFF7B0FC8F
:1022200005B000BD70500008AFF30080AFF3008030
:1022300000B583B001900091019B002B02D11248A0
:10224000FEF78EFD4FF0200383F31188FEF760FC4C
:10225000019B1B7B012B06D0019B1B7B022B02D019
:102260000A48FEF77DFD0198009901F009FA019BEB
:102270004FF002021A73FEF763FC4FF0000383F382
:10228000118803B000BD00BF804F00088C4F0008CC
:1022900000B583B001900B468DF80330FEF7E8FCE3
:1022A000019B002B02D11848FEF75AFD019B9B6948
:1022B000002B0DD1019B9B6843F00402019B9A60A7
:1022C000019B03F1040318464FF00001FFF7B0FA39
:1022D000019B03F110029DF8033010461946FFF7E9
:1022E00047FB0346002B0DDA019B9B6843F08002FD
:1022F000019B9A60019B03F1040318464FF0000113
:10230000FFF796FA03B000BDB84F0008AFF30080A6
:1023100082B00190024B5A68019B9A6002B07047EC
:10232000001000E0AFF30080AFF30080AFF3008057
:1023300084B00190114B5B680393019B9B68039AE7
:10234000D21A0F4B1B68D21A019B9A60019B9A68A4
:10235000019BDB689A4204D9019B9A68019BDA6071
:1023600009E0019B9A68019B1B699A4203D2019B79
:102370009A68019B1A6104B0704700BF001000E02A
:10238000C40D0020AFF30080AFF30080AFF30080F6
:1023900000B587B00A4B4FF000021A6001AB184637
:1023A00000F016F8019B01AA10469847029B01AA6B
:1023B00010469847039A024B1A6007B000BD00BF51
:1023C000C40D0020AFF30080AFF30080AFF30080B6
:1023D00082B00190019B094A1A60019B084A5A6029
:1023E000019B4FF000029A60019B4FF00002DA60FF
:1023F000019B4FF0FF321A6102B0704711230008B1
:1024000031230008AFF30080AFF30080AFF300800A
:1024100000B583B0FEF7DCFB0C4B1B6803F00F0329
:1024200001930A4B4FF00F025A60094B1B68002BB7
:1024300006D0074B1B68064A526810460199984718
:10244000FEF7EEFBFEF7B4F903B000BD000002405A
:10245000CC0D0020AFF30080AFF30080AFF300801D
:1024600000B583B0FEF7B4FB0D4B1B684FEA1313A6
:1024700003F00F0301930A4B4FF0F0025A60094B2F
:102480009B68002B06D0074B9B68064AD268104613
:1024900001999847FEF7C4FBFEF78AF903B000BD27
:1024A00000000240CC0D0020AFF30080AFF30080AD
:1024B00000B583B0FEF78CFB0D4B1B684FEA13236E
:1024C00003F00F0301930A4B4FF470625A60094BFB
:1024D0001B69002B06D0074B1B69064A5269104640
:1024E00001999847FEF79CFBFEF762F903B000BD27
:1024F00000000240CC0D0020AFF30080AFF300805D
:1025000000B583B0FEF764FB0D4B1B684FEA133335
:1025100003F00F0301930A4B4FF470425A60094BCA
:102520009B69002B06D0074B9B69064AD26910466F
:1025300001999847FEF774FBFEF73AF903B000BD26
:1025400000000240CC0D0020AFF30080AFF300800C
:1025500000B583B0FEF73CFB0D4B1B684FEA1343FD
:1025600003F00F0301930A4B4FF470225A60094B9A
:102570001B6A002B06D0074B1B6A064A526A10469C
:1025800001999847FEF74CFBFEF712F903B000BD26
:1025900000000240CC0D0020AFF30080AFF30080BC
:1025A00000B583B0FEF714FB0D4B1B684FEA1353C5
:1025B00003F00F0301930A4B4FF470025A60094B6A
:1025C0009B6A002B06D0074B9B6A064AD26A1046CC
:1025D00001999847FEF724FBFEF7EAF803B000BD27
:1025E00000000240CC0D0020AFF30080AFF300806C
:1025F00000B583B0FEF7ECFA0D4B1B684FEA13638E
:1026000003F00F0301930A4B4FF070625A60094BBD
:102610001B6B002B06D0074B1B6B064A526B1046F8
:1026200001999847FEF7FCFAFEF7C2F803B000BD27
:1026300000000240CC0D0020AFF30080AFF300801B
:1026400082B0144B4FF000021A604FF00003019368
:1026500016E01149019A13464FEA43039B184FEACB
:102660008303CB181B684FF000021A600B4B019AD2
:102670004FF0000143F83210019B03F10103019375
:10268000019B062BE5DD064B4FF0FF325A6002B08E
:10269000704700BFC80D0020A0500008CC0D0020DE
:1026A00000000240AFF30080AFF30080AFF3008082
:1026B00000B585B00390029101920093039B002B1B
:1026C00002D13148FEF74CFB039B5B7A4FF00102CD
:1026D00002FA03F31A462D4B1B6802EA0303002B90
:1026E00002D04FF001034BE0039B5B7A1A46284B64
:1026F000019943F83210039B5B7A254A4FEAC303E2
:10270000D318009A5A60039B5B7A4FF0010202FAD9
:1027100003F31A461D4B1B681A431C4B1A601B4BD4
:102720001B6803F07F03002B05D01A4B194A52692E
:1027300042F001025A61039B1B68039A12681268F7
:1027400022F001021A60039B5B68039A127A4FF031
:102750000F0101FA02F21A60039B1B684FF000029E
:102760001A60019B002B09D0039B9B7A1A46029B9F
:102770004FEA031310461946FEF792F84FF0000394
:10278000184605B000BD00BFE04F0008C80D00208E
:10279000CC0D002000100240AFF30080AFF30080AA
:1027A000134B134A126842F480721A60114B1B6A71
:1027B00003F44073B3F5407F07D00E4B4FF48032E3
:1027C0001A620C4B4FF000021A620A4B1B6A03F4A8
:1027D0000043002B0BD1074B064A126A42F44072A9
:1027E0001A62044B034A126A42F400421A627047AA
:1027F0000070004000100240AFF30080AFF3008093
:1028000008B51E4B1B691D4B4FF0FF321A611B4B65
:102810004FF000021A61194BDB68184B4FF0FF3282
:10282000DA60164B4FF00002DA60154B4BF67F3240
:102830005A60134B4FF000029A60114B4FF00702A1
:102840001A60104B0F4AD26842F08072DA600E4B69
:102850000D4A126842F001021A60084B074AD26919
:1028600042F08052DA61054B044AD26942F00062BC
:10287000DA61FFF795FFFFF7E3FE08BD00100240A5
:1028800010E000E0F0ED00E0001000E0AFF30080A9
:10289000294B294A126842F001021A6000BF264BF8
:1028A0001B6803F00203002BF9D0234B224A126865
:1028B00002F0F9021A60204B4FF000025A6000BF8C
:1028C0001D4B5B6803F00C03002BF9D11A4B1A4A1D
:1028D000126842F480321A6000BF174B1B6803F481
:1028E0000033002BF9D0144B134A526842F4A02253
:1028F0005A60114B104A126842F080721A6000BF91
:102900000D4B1B6803F00073002BF9D00A4B0B4AE8
:102910005A600B4B4FF010021A60074B064A526880
:1029200042F002025A6000BF034B5B6803F00C03E5
:10293000082BF9D1704700BF001002400064050069
:1029400000200240AFF30080AFF30080AFF30080BF
:1029500000B589B001900091009B03F00803002BA3
:102960003DD0019800F0F4F9019B1B69DB68002B56
:1029700012D0019B4FF005021A70019B1B69DB68A6
:1029800001984FF000019847019B1B78052B03D15C
:10299000019B4FF002021A70019B4FF000021A6176
:1029A0004FF0200383F31188FEF7E2F8019B5B6987
:1029B000002B0DD0019B5B690793019B4FF0000238
:1029C0005A61079B4FF0FF329A620798FEF7C0FAF0
:1029D000FEF7E6F84FF0000383F31188AFE0009BA9
:1029E00003F00403002B0FD0019B1B699B68002B95
:1029F0000AD0019B1B699B68019A9168019AD26871
:102A00004FEA520201989847009B03F00203002B03
:102A100000F09580019B1B691B68002B2DD0019B4A
:102A20001B699B68002B00F08A80019BDB68012BEF
:102A300019D9019BDB684FEA53030693019B1B697D
:102A40009B88069A02FB03F30593019B1B699B6815
:102A5000019A9168059A4FEA42028A180198114634
:102A6000069A98476BE0019B1B699B68019A9168E5
:102A7000019AD2680198984761E0019800F068F9DE
:102A8000019B1B699B68002B33D0019B4FF0040214
:102A90001A70019BDB68012B19D9019BDB684FEA97
:102AA00053030493019B1B699B88049A02FB03F365
:102AB0000393019B1B699B68019A9168039A4FEAF3
:102AC00042028A1801981146049A984708E0019B2F
:102AD0001B699B68019A9168019AD268019898478E
:102AE000019B1B78042B08D1019B4FF002021A7046
:102AF00003E0019B4FF002021A70019B4FF00002AD
:102B00001A614FF0200383F31188FEF731F8019B1F
:102B10005B69002B0DD0019B5B690293019B4FF019
:102B200000025A61029B4FF000029A620298FEF77F
:102B30000FFAFEF735F84FF0000383F3118809B060
:102B400000BD00BFAFF30080AFF30080AFF30080A3
:102B500008B51E48FFF77CF91C4B1D4A9A621B4BB7
:102B60001C4ADA62194B42F28A521A631A4B1A4A09
:102B7000926942F400729A61154B4FF000025A605C
:102B8000134B4FF001029A60114B4FF009029A600B
:102B900000BF0F4B9B6803F00803002BF9D10C4BCF
:102BA0004FF005029A6000BF094B9B6803F00403D5
:102BB000002BF9D1064B4FF000029A60064B064AF3
:102BC000926922F400729A6108BD00BF040E0020D1
:102BD00000240140A050000800100240AFF3008024
:102BE00000B585B00190019B1B78012B29D1019A7A
:102BF000154B9A421BD1019BDA6A144B10464FF0D9
:102C000005011A46019BFFF753FD0390039B002B20
:102C100002D00F48FEF7A4F8019BDB6A1B680D4A3F
:102C20009A600D4B0C4A926942F400729A61019BC2
:102C30009B6A4FF000025A60019B9B6A4FF00002B2
:102C40009A6005B000BD00BF040E002051290008A5
:102C5000205000084C24014000100240AFF30080D7
:102C600086B00190019B1B690393019B1B6B05932D
:102C7000039B1B68002B03D0059B43F020030593A7
:102C8000019BDB68012B0BD9059B43F004030593E3
:102C9000039B9B88019AD26802FB03F3049302E032
:102CA000039B9B880493019BDB6A1B68019A9268D3
:102CB000DA60019BDB6A1B68049A5A60019BDB6A3D
:102CC0001B68059A1A60019BDB6A1B68019AD26A2D
:102CD0001268126842F001021A60019B9B6A039A13
:102CE000126942F480725A60019B9A6A039B5B6985
:102CF00043F4807343F003039360019B9B6A039A40
:102D00009269DA60019B9B6A039AD2691A61019BFE
:102D10009B6A039A126ADA62019B9B6A039A526A5F
:102D20001A63019B9B6A039A926A5A63019B9A6A8F
:102D3000039B5B6943F4807343F00303936006B025
:102D4000704700BFAFF30080AFF30080AFF30080A7
:102D500082B00190019BDB6A1B68019AD26A1268FB
:102D6000126822F001021A60019BDB6A5B68019A1B
:102D7000D26A127A4FF00F0101FA02F21A60019B37
:102D80009B6A4FF000029A6002B07047AFF3008078
:102D900000B587B00190019B1B6B0493049B1B8BB8
:102DA0009BB20393049B9B8A9BB20593019B93F870
:102DB0003430002B40F0B280039B4FEA0342059B66
:102DC00042EA030323F07F43504A934212D04F4A12
:102DD000934203D84E4A934207D08DE04D4A934226
:102DE00031D04D4A934241D086E0019B1A8C049B1E
:102DF0001A8281E0049B9B889BB223F400739AB2F1
:102E0000049B9A80019B9B6A1B68019A926A1268D4
:102E1000126842F001021A60049B9B889BB243F443
:102E200080539AB2049B9A80019B9B6A1B685B68E3
:102E3000012B60D8049B1B889BB223F480639AB259
:102E4000049B1A8058E0049B9B889BB223F4007378
:102E50009AB2049B9A80019BDB6A1B68019AD26A32
:102E60001268126842F001021A6045E0019B9B6AF9
:102E70001B685B68002B0FD0019B1B8C43F0010388
:102E80009AB2019B1A84049B1B889BB243F4A063F3
:102E90009AB2049B1A80BDE0049B9B889BB223F4EA
:102EA00000739AB2049B9A80049B1B889BB243F4E4
:102EB00000739AB2049B1A804FF0200383F31188A9
:102EC000FDF756FE019BDB69002B0DD0019BDB69F2
:102ED0000293019B4FF00002DA61029B4FF0000267
:102EE0009A620298FEF734F8FDF75AFE4FF000039D
:102EF00083F3118800E000BF059B03F00A03002B59
:102F000000F08880049B1B8B84E000BF020003005C
:102F1000010003008200070084000700059B03F006
:102F20000A03002B0FD0019B4FF000021A64019B93
:102F30004FF000021A65049B9B8A9BB20593049B89
:102F40001B8B9BB20393059B03F08003002B16D0D1
:102F5000019B9A6C019B1B6DD21812781146049A42
:102F6000118203F10102019B1A65019B1A6C019BFE
:102F7000DB6C9A4203D3019B4FF000021A65059B5C
:102F800003F04003002B17D0019B9A6B019B1B6C35
:102F9000D2180499098A89B2C9B2117003F10102E9
:102FA000019B1A64019B1A6C019BDB6B9A4203D351
:102FB000019B4FF000021A64059B03F01003002BE5
:102FC00013D0049B9B8A9BB20593049B1B889BB2E6
:102FD00043F001039AB2049B1A80019B5B6C002BA7
:102FE00003D0019B5B6C01989847059B03F48063B9
:102FF000002B0FD0049B9B8A9BB223F480639AB270
:10300000049B9A82019B5B6D002B03D0019B5B6D3F
:103010000198984707B000BDAFF30080AFF3008080
:1030200000B587B00190019B1B6B04934FF0200308
:1030300083F31188FDF79CFD019BDB6A1B68019AF5
:10304000D26A1268126822F001021A60019BDB6AE0
:103050005B68019AD26A127A4FF00F0101FA02F20C
:103060001A60019B9B6A1B68019A926A1268126837
:1030700022F001021A60019B9B6A5B68019A926AC6
:10308000127A4FF00F0101FA02F21A60FDF788FD83
:103090004FF0000383F311884FF000030593049B66
:1030A0009B8A9BB203F48073002B0BD0049B9B8AFA
:1030B0009BB223F480739AB2049B9A82059B43F0DF
:1030C00001030593049B9B8A9BB203F40073002BBE
:1030D0000BD0049B9B8A9BB223F400739AB2049B8F
:1030E0009A82059B43F002030593019B93F83430C9
:1030F000002B23D1049B9B8A9BB203F48063002B9B
:103100002CD0049B9B8A9BB223F480639AB2049BCD
:103110009A82049B9B889BB223F400739AB2049B0F
:103120009A80049B1B889BB243F400739AB2049B61
:103130001A80059B43F0040305930FE0049B9B8AD0
:103140009BB223F480639AB2049B9A82019B5B6DCD
:10315000002B03D0019B5B6D01989847049B9B8AD1
:103160009BB203F40063002B0BD0049B9B8A9BB2A1
:1031700023F400639AB2049B9A82059B43F00803F0
:103180000593049B9B8A9BB203F48053002B0BD0C6
:10319000049B9B8A9BB223F480539AB2049B9A822D
:1031A000059B43F010030593049B9B8A9BB203F499
:1031B0008043002B0BD0049B9B8A9BB223F480435B
:1031C0009AB2049B9A82059B43F020030593049BCB
:1031D0009B8A9BB29BB21BB2002B0DDA049B9B8A8D
:1031E0009BB24FEA43434FEA53439AB2049B9A82FD
:1031F000059B43F040030593059B002B20D0019BCA
:10320000059A9A604FF0200383F31188FDF7B0FC14
:10321000019BDB69002B0DD0019BDB690393019BB4
:103220004FF00002DA61039B6FF001029A6203988B
:10323000FDF78EFEFDF7B4FC4FF0000383F3118819
:1032400007B000BDAFF30080AFF30080AFF30080A4
:1032500008B5FDF7BDFC0448FFF79AFDFDF7E0FC5B
:10326000FDF7A6FA08BD00BF380E0020AFF30080BE
:1032700008B5FDF7ADFC0448FFF7D2FEFDF7D0FC22
:10328000FDF796FA08BD00BF380E0020AFF30080AE
:1032900008B50848FEF7ACFE064B4FF00002DA61B5
:1032A000044B054A1A63034B044A9A62014B044AD1
:1032B000DA6208BD380E002000540040E8500008D3
:1032C000DC500008AFF30080AFF30080AFF3008064
:1032D00084B001900091019BD3F850340393019B7B
:1032E000D3F850241A4B9A4208D1009B1B68194A04
:1032F000B2FBF3F39AB2039B1A8107E0009B1B68B1
:10330000144AB2FBF3F39AB2039B1A81009B9B8889
:1033100043F4045343F02C039AB2039B9A81009B1D
:10332000DB8843F040039AB2039B1A82009B1B89FF
:1033300043F001039AB2039B9A82039B4FF0000271
:103340001A80039B1B88039B9B8804B0704700BFB7
:1033500000380140001BB700AFF30080AFF30080DE
:1033600000B585B001900B46ADF802304FF0000378
:103370000393BDF8023003F00803002B03D0039B36
:1033800043F080030393BDF8023003F00103DBB286
:10339000002B03D0039B43F020030393BDF80230BE
:1033A00003F00203002B03D0039B43F0400303937D
:1033B000BDF8023003F00403002B03D0039B43F459
:1033C000807303934FF0200383F31188FDF7D0FB44
:1033D000019B9A68039B1A43019B9A60019B03F12E
:1033E000040318464FF00001FEF722FAFDF7D8FB60
:1033F0004FF0000383F3118805B000BDAFF30080E8
:1034000000B587B00190019BD3F850340593059B1C
:103410009B89ADF81230059B1B88ADF81030059BD9
:103420009B88ADF80E30BDF8103003F00F03002B71
:1034300005D0BDF8103001981946FFF791FFBDF88F
:10344000103003F48073002B21D04FF0200383F35E
:103450001188FDF78DFB019B9B6843F40072019B73
:103460009A60019B03F1040318464FF00001FEF738
:10347000DFF9FDF795FB4FF0000383F31188059BFF
:103480001B889BB223F480739AB2059B1A80BDF807
:10349000103003F02003002B12D04FF0200383F3F1
:1034A0001188FDF765FBBDF80E30DBB201981946B7
:1034B000FEF7EEFEFDF774FB4FF0000383F3118877
:1034C000BDF8123003F08003002B39D0BDF8103066
:1034D00003F08003002B33D04FF0200383F31188D7
:1034E000FDF746FB019B03F130031846FEF7C0FBD6
:1034F0000290029B002B19DA019B9B6843F00802A3
:10350000019B9A60019B03F1040318464FF00001F0
:10351000FEF78EF9BDF8123023F0C0039BB243F0E2
:1035200040039BB29AB2059B9A8103E0029B9AB238
:10353000059B9A80FDF734FB4FF0000383F311885D
:10354000BDF8103003F04003002B28D04FF02003CB
:1035500083F31188FDF70CFB019B9B6843F010027D
:10356000019B9A60019B03F1040318464FF0000190
:10357000FEF75EF9FDF714FB4FF0000383F31188AB
:10358000BDF8123023F040039AB2059B9A81059B47
:103590001B889BB223F040039AB2059B1A8007B0A8
:1035A00000BD00BFAFF30080AFF30080AFF3008039
:1035B00082B00190044B044A928992B242F0800298
:1035C00092B29A8102B0704700380140AFF3008098
:1035D00082B00190044B044A928992B242F0800278
:1035E00092B29A8102B0704700440040AFF300806D
:1035F00008B5FDF7EDFA0448FFF702FFFDF710FBF1
:10360000FDF7D6F808BD00BF900E0020AFF3008094
:1036100008B5FDF7DDFA0448FFF7F2FEFDF700FB01
:10362000FDF7C6F808BD00BFE4120020AFF300802C
:1036300008B50A484FF00001094AFEF7C1FD074BE3
:10364000084AC3F8502408484FF00001074AFEF723
:10365000B7FD054B064AC3F8502408BD900E002064
:10366000B135000800380140E4120020D1350008CF
:1036700000440040AFF30080AFF30080AFF3008060
:1036800000B583B001900091009B002B01D1164B37
:103690000093019B1B7B012B1FD1019A134B9A4274
:1036A0000BD1134B124A926942F480429A614FF057
:1036B00025004FF0C001FDF7F3F8019A0D4B9A4237
:1036C0000BD10B4B0A4AD26942F40032DA614FF057
:1036D00026004FF0C001FDF7E3F801980099FFF7CD
:1036E000F7FD03B000BD00BF00510008900E0020A0
:1036F00000100240E4120020AFF30080AFF300801E
:1037000082B00190214B214A926942F07D029A6178
:103710001F4B019A1268DA601D4B019A92685A6039
:103720001B4B019A52681A601A4B019AD268DA60F0
:10373000184B019A52695A60164B019A12691A6025
:10374000154B019A9269DA60134B019A126A5A601A
:10375000114B019AD2691A60104B019A526ADA60D1
:103760000E4B019AD26A5A600C4B019A926A1A6007
:103770000B4B019A126BDA60094B019A926B5A60FB
:10378000074B019A526B1A6002B07047001002405A
:1037900000080140000C01400010014000140140ED
:1037A00000180140AFF30080AFF30080AFF300805A
:1037B0008AB0039002910192019B032B03D1039BDA
:1037C000029A1A6105E0019B042B02D1039B029A25
:1037D0005A612E4A019BD3181B7804934FF00003C3
:1037E0000693069B0793079B0893089B09934FF04A
:1037F0000003059335E0089B4FEA03130893099BE8
:103800004FEA03130993069B4FEA03130693079BA2
:103810004FEA03130793029B03F08003002B04D1AC
:10382000089B43F00F03089304E0069A049B42EAC6
:1038300003030693029B03F40043002B04D1099B6E
:1038400043F00F03099304E0079A049B42EA030341
:103850000793029B4FEA43030293059B03F1010385
:103860000593059B072BC6D9039B5A68099B1A40F1
:10387000079B1A43039B5A60039B1A68089B1A40D4
:10388000069B1A43039B1A600AB070471051000848
:1038900008B5FEF7FDFF08BDAFF30080AFF3008071
:1038A000704700BFAFF30080AFF30080AFF300803C
:1038B00008B5FEF7ADFAFDF783F800F031FB00F034
:1038C0000FF800F0E5FB01F013F900F039F800F013
:1038D00057F8FCE7AFF30080AFF30080AFF3008050
:1038E00008B50C484FF010014FF00502FFF760FFDC
:1038F00008484FF020014FF00502FFF759FF064B33
:10390000054AD26942F00052DA61044B4FF00112CD
:103910001A6008BD00080140001002400074004019
:1039200082B00190044B019A12889A60024B019A6E
:1039300052885A6102B0704700740040AFF30080B3
:1039400008B50A484FF00001FEF772FC08484FF432
:1039500000714FF01002FFF72BFF05484FF4806114
:103960004FF00202FFF724FF08BD00BF900E0020B9
:1039700000080140AFF30080AFF30080AFF3008098
:1039800000B583B02D484FF0FF31FEF739F80190B4
:10399000019BB3F1FF3F03D0019B13F1020F02D152
:1039A0004FF0010301E04FF000038DF803309DF864
:1039B0000330002B3FD1019B8DF80230204B1B7848
:1039C000002B22D19DF80230002B0AD11D4B1B6821
:1039D0001D48194600F044F81A4B4FF000021A60D7
:1039E00021E09DF802305C2B0AD0164B1B68164A6A
:1039F0009DF80210D15403F10102124B1A6012E03B
:103A00000F4B4FF001021A700DE00D4B4FF000020A
:103A10001A700C4B1B680C4A9DF80210D15403F12C
:103A20000102084B1A60074B1B68202BB4BF1A46D3
:103A30002022044B1A6003B000BD00BFA00E00207E
:103A4000781700207C17002038170020AFF3008083
:103A5000014B1846704700BF58170020AFF3008095
:103A600000B587B001900091019B1B788DF8133051
:103A7000019B03F1010303939DF81330012B02D046
:103A8000022B17D019E04FF0000305930BE0059BC4
:103A9000039AD3181A780A49059BCB181A70059B0C
:103AA00003F101030593009B03F1FF32059B9A424A
:103AB000EDDC02E000F00CF800BF07B000BD00BF75
:103AC00058170020AFF30080AFF30080AFF3008001
:103AD00000B583B00B4B5B7801934FF00E0300935E
:103AE000019A009B9A4201DA019B01E04FF000032A
:103AF0000193054B019A53F822300448984703B0CC
:103B000000BD00BF38170020000800205817002013
:103B100000B587B001904FF0200383F31188FCF7C4
:103B2000F7FF019B9B684FEA53034FEA430304935B
:103B3000FDF706F84FF0000383F31188049BB3F5FB
:103B4000C07F28BF4FF4C07304934FF00003059368
:103B500028E001984FF00001FDF752FF0390039B0E
:103B6000B3F1FF3F03D0039B13F1020F02D14FF0DB
:103B7000010301E04FF000038DF80B309DF80B308E
:103B8000002B02D1039BDBB201E04FF000038DF864
:103B90000A309DF80A30184600F03AF9059B03F107
:103BA00001030593059A049B9A42D2D300F050F981
:103BB00007B000BDAFF30080AFF30080AFF300802B
:103BC00000B585B0019000F0F3FA03900398FFF779
:103BD0009FFF05B000BD00BFAFF30080AFF30080D2
:103BE00000B585B0019000F0EBFA03900398FFF761
:103BF0008FFF05B000BD00BFAFF30080AFF30080C2
:103C000000B585B0019000F0E3FA03900398FFF748
:103C10007FFF05B000BD00BFAFF30080AFF30080B1
:103C200000B585B00190019B1B781A46019B03F1FA
:103C300001031B784FEA0323D218019B03F102030F
:103C40001B784FEA0343D218019B03F103031B784F
:103C50004FEA0363D3180393039800F069FA05B0A1
:103C600000BD00BFAFF30080AFF30080AFF3008072
:103C700000B583B00190019B1B78184600F090F9C5
:103C800003B000BDAFF30080AFF30080AFF300805E
:103C900000B583B00190019B1B78184600F048FFE7
:103CA00003B000BDAFF30080AFF30080AFF300803E
:103CB00000B583B00190019B1B78184600F050FFBF
:103CC00003B000BDAFF30080AFF30080AFF300801E
:103CD00000B585B0019000F063FA039003984FF0AF
:103CE00000014FF0FF32FDF773FF05B000BD00BFCC
:103CF00000B585B0019000F053FA039003984FF09F
:103D000001014FF0FF32FDF763FF05B000BD00BFBA
:103D100000B585B0019000F043FA039003984FF08E
:103D200002014FF0FF32FDF753FF05B000BD00BFA9
:103D300000B585B0019000F033FA039003984FF07E
:103D400003014FF0FF32FDF743FF05B000BD00BF98
:103D500010B588B001900F4B02AC0FCB07C4238085
:103D60004FF00D0306934FF0000307930AE002AAF9
:103D7000079BD3181B78184600F04AF8079B03F1FD
:103D800001030793079A069B9A42F0DB00F060F864
:103D900008B010BD40500008AFF30080AFF30080C2
:103DA00000B587B00190114A02AB92E80300186099
:103DB00003F1040319804FF0050304934FF000034F
:103DC00005930AE002AA059BD3181B78184600F059
:103DD0001FF8059B03F101030593059A049B9A4282
:103DE000F0DB00F035F807B000BD00BF5050000810
:103DF00000B583B00190019B1B78184600F0B0F924
:103E000003B000BDAFF30080AFF30080AFF30080DC
:103E100000B583B003468DF807309DF80730002BBE
:103E200003D09DF807305C2B06D108484FF05C01A9
:103E30004FF0FF32FDF7CCFE9DF8073003481946DE
:103E40004FF0FF32FDF7C4FE03B000BDC00E0020EE
:103E500008B504484FF000014FF0FF32FDF7B8FEFF
:103E600008BD00BFC00E0020AFF30080AFF300809C
:103E700000B583B00190234BDB69234A9A61234844
:103E8000FDF78EFB224B1A68224B1A60214B1B68F0
:103E900003F00103DBB2002B06D01F4B1E4AD26891
:103EA00082F02002DA6003E01B4B4FF020025A61DF
:103EB000184B1B6803F00203002B06D0174B174A60
:103EC000D26882F00102DA6003E0144B4FF0010285
:103ED0005A61104B1B6803F00403002B06D00F4BF4
:103EE0000E4AD26882F00202DA6003E00B4B4FF018
:103EF00002025A61FDF7F4FB4FF07D00FDF770FA06
:103F0000BDE700BF9C0D0020605000088017002016
:103F1000901700204819002000100140000C0140BB
:103F200000B583B0184B4FF020025A61174B4FF089
:103F300001025A61154B4FF002025A6112484FF0CC
:103F400020014FF00602FFF733FC10484FF001014B
:103F50004FF00602FFF72CFC0C484FF002014FF027
:103F60000602FFF725FC0A48FDF7FAFA4FF00003B6
:103F7000009308484FF4D8714FF04002064BFDF70C
:103F8000EFF903B000BD00BF00100140000C01407C
:103F90008017002098170020713E0008AFF30080C2
:103FA00000B583B001900548FDF7FAFA044B019A79
:103FB0001A60FDF795FB03B000BD00BF801700201D
:103FC00090170020AFF30080AFF30080AFF30080C4
:103FD00000B589B0039002910192294B1B781846D5
:103FE00000F0FEF84FF0200383F31188FCF7C0FDCA
:103FF000244B1B788DF81F30234B1B788DF81E3017
:10400000FCF7CEFD4FF0000383F311889DF81F30BD
:10401000002B03D0029800F01BFC05E09DF81E3039
:10402000002B01D000F034FD4FF0200383F3118802
:10403000FCF79EFD1548FDF71BFE0690069B13F14D
:10404000030F0CBF002301238DF817309DF81730A4
:10405000002B03D0069BDAB2094B1A70FCF7A0FDC7
:104060004FF0000383F311889DF81730002B04D024
:10407000034B1B78184600F0DBF809B000BD00BF09
:10408000551E0020541E0020440800202C1E002035
:1040900008B51A481A494FF004024FF00003FDF723
:1040A0006FFD184818494FF4C0724FF00003FDF738
:1040B00037FC164816494FF4C0724FF00003FDF765
:1040C0002FFC144814494FF4C0724FF00003FDF761
:1040D00027FC12484FF4E0514FF00502FFF768FB50
:1040E0000F484FF00001FDF7DBFE0D480D490E4A69
:1040F0004FF00203FDF70CFF08BD00BF2C1E00208F
:104100004C1E00204C190020AC1900206C19002016
:104110002C1B00208C190020AC1C0020001001403A
:10412000040E002070510008581E0020AFF30080DC
:1041300000B583B001904FF0200383F31188FCF7A2
:10414000E7FC019A044B1A60FCF7FAFC4FF00003FD
:1041500083F3118803B000BD40080020AFF3008056
:1041600000B583B003468DF807304FF0200383F38A
:104170001188FCF7CDFC064B9DF807201A70FCF760
:10418000DFFC4FF0000383F3118803B000BD00BFD4
:1041900044080020AFF30080AFF30080AFF300804D
:1041A000014B1846704700BF2C1E0020AFF3008063
:1041B000014B1846704700BF4C190020AFF3008038
:1041C000014B1846704700BF6C190020AFF3008008
:1041D000014B1846704700BF8C190020AFF30080D8
:1041E00000B583B00190019B042B1CD801A252F8AA
:1041F00023F000BF094200080F42000815420008E2
:104200001B4200082142000800F062F80BE000F0B9
:10421000DFF808E000F0A4F905E000F079FA02E028
:1042200000F00EFB00BF03B000BD00BFAFF3008085
:1042300000B583B00190019B042B1CD801A252F859
:1042400023F000BF594200085F42000865420008A1
:104250006B4200087142000800F012F80BE000F019
:104260004FF808E000F0E4F805E000F0A9F902E0FA
:1042700000F0DEFA00BF03B000BD00BFAFF3008066
:1042800000B583B0FFF7E4FB0190019B1B781A4651
:10429000019B03F101031B784FEA0323D218094B5A
:1042A0001A60019B03F102031B781A46019B03F17C
:1042B00003031B784FEA0323D218034B1A6003B0A1
:1042C00000BD00BF3C08002038080020AFF300808C
:1042D00000B583B0074B1B689BB2ADF80430064BAA
:1042E0001B689BB2ADF8063001AB1846FFF718FB10
:1042F00003B000BD3C08002038080020AFF3008068
:1043000000B583B0FFF7A4FB0190019B1B781A4610
:10431000019B03F101031B784FEA03239BB2D318DF
:104320009AB2254B1A80019B03F102031B781A46AF
:10433000019B03F103031B784FEA03239BB2D318BD
:104340009AB21D4B5A801C48FFF7EAFA1B4B1B68B8
:104350009AB21B4B1A801B4B1B689AB2184B5A809F
:10436000154B1B881A46154B1A60134B5B881A466F
:10437000144B1A60019B03F104031B781A46019B3E
:1043800003F105031B784FEA0323D218019B03F1C5
:1043900006031B784FEA0343D218019B03F107037E
:1043A0001B784FEA0363D218074B1A60074B4FF094
:1043B00000021A6003B000BD681E00203C08002007
:1043C0006C1E00203808002048080020641E0020D1
:1043D00008B5104B1B6803F101020E4B1A600D4B20
:1043E0001A680D4B1B689A4210D30C48FFF798FAD5
:1043F0000A4B1B881A460A4B1A60084B5B881A4600
:10440000084B1A60084B4FF000021A7000F040FB96
:1044100008BD00BF641E0020480800206C1E00205C
:104420003C08002038080020551E0020AFF3008013
:1044300000B583B0FFF70CFB0190019B1B781A4677
:10444000019B03F101031B784FEA03239BB2D318AE
:104450009AB23C4B1A80019B03F102031B781A4667
:10446000019B03F103031B784FEA03239BB2D3188C
:104470009AB2344B5A80019B03F104031B781A460D
:10448000019B03F105031B784FEA0323D218019B1C
:1044900003F106031B784FEA0343D218019B03F193
:1044A00007031B784FEA0363D218274B1A60019B5E
:1044B00003F108031B781A46019B03F109031B78DB
:1044C0004FEA03239BB2D3189AB2204B1A80019B68
:1044D00003F10A031B781A46019B03F10B031B78B7
:1044E0004FEA03239BB2D3189AB2184B5A80019B10
:1044F00003F10C031B781A46019B03F10D031B7893
:104500004FEA0323D218019B03F10E031B784FEAF5
:104510000343D218019B03F10F031B784FEA036397
:10452000D2180B4B1A600A4B1A68074B1B68D2183B
:10453000074B1A60064B1A68064B1A6000F0A8FA7F
:1045400003B000BD741E00204C080020781E00201F
:1045500050080020701E0020AFF30080AFF30080F1
:1045600008B5114B1B6803F101020F4B1A600E4B8B
:104570001A680E4B1B689A4203D10D48FFF7D0F919
:1045800011E0094B1A680B4B1B689A420BD30A487F
:10459000FFF7C6F9044B1A68064B1B68D21A024B88
:1045A0001A6000F075FA08BD701E00204C0800204B
:1045B000781E002050080020741E0020AFF30080F9
:1045C00000B583B0FFF744FA0190019B1B781A46AF
:1045D000019B03F101031B784FEA03239BB2D3181D
:1045E0009AB2404B1A80019B03F102031B781A46D2
:1045F000019B03F103031B784FEA03239BB2D318FB
:104600009AB2384B5A80019B03F104031B781A4677
:10461000019B03F105031B784FEA03239BB2D318D8
:104620009AB2314B1A80019B03F106031B781A469C
:10463000019B03F107031B784FEA03239BB2D318B6
:104640009AB2294B5A80019B03F108031B781A4642
:10465000019B03F109031B784FEA0323D218019B46
:1046600003F10A031B784FEA0343D218019B03F1BD
:104670000B031B784FEA0363D3181A461B4B1A60CF
:104680001A4B1B681846FBF7EDFD03461D481946FB
:10469000FBF7F2FE03461A46154B1A60124B1B88B5
:1046A0001A46104B1B88D31A1846FBF7DBFD02464F
:1046B000104B1A600C4B5B881A460A4B5B88D31A66
:1046C0001846FBF7CFFD02460B4B1A600B4B4FF021
:1046D00000021A600A4B4FF001021A7000F0D8F97C
:1046E00003B000BD801E0020841E0020540800205E
:1046F00058080020881E00208C1E00207C1E0020F0
:104700005C0800200000803FAFF30080AFF3008022
:1047100000B587B03D4B1B785AB23D4B1B68D21891
:104720003B4B1A603A4B1A683A4B1B689A42B4BF2B
:10473000002301238DF81330354B1B68002BCCBFB1
:10474000002301238DF812309DF81330002B03D085
:10475000304B1B6805930CE09DF81230002B05D000
:104760004FF00003059300F093F902E0284B1B681B
:1047700005939DF81330002B03D19DF81230002BC8
:1047800008D0224B1B78DBB2C3F10003DBB2DAB2F4
:104790001E4B1A700598FBF765FD02461E4B1B6801
:1047A00010461946FBF7B4FD034603931B4B1B88C9
:1047B00002931B4B1B6818460399FBF7A9FD0346A0
:1047C0001846FBF7F5FE0246029BD3180193019BA6
:1047D0009BB2ADF80030114B5B880293114B1B6804
:1047E00018460399FBF794FD03461846FBF7E0FED5
:1047F0000246029BD3180193019B9BB2ADF8023095
:104800006B461846FFF78CF807B000BD5C08002027
:104810007C1E00205408002058080020801E002024
:10482000881E00208C1E0020AFF30080AFF30080B4
:10483000704700BFAFF30080AFF30080AFF300809C
:10484000704700BFAFF30080AFF30080AFF300808C
:1048500000B587B00190844B1B6803F10102824BC5
:104860001A60824B1B684FEAA3030593059A47F62B
:10487000FF739A42B8BF13460493049B012BB8BF41
:10488000012304937A4B1B684FEA430303F10103AE
:10489000049A02F1FF3202FB03F2019B1B884FEAEC
:1048A0004313D31803F10102049BB2FBF3F2704BE4
:1048B0001A606F4B1B684FEA53026D4B1A606C4BCA
:1048C0005B684FEA430303F10103049A02F1FF32EC
:1048D00002FB03F2019B03F102031B884FEA43131F
:1048E000D31803F10102049BB2FBF3F2604B5A6050
:1048F0005F4B5B684FEA53025D4B5A605C4B9B68B1
:104900004FEA430303F10103049A02F1FF3202FB71
:1049100003F2019B03F104031B884FEA4313D318EE
:1049200003F10102049BB2FBF3F2514B9A60504B2E
:104930009B684FEA53024E4B9A604B4B1A684B4BA5
:104940001B689A42C0F28D80474B1A68474B1B6820
:10495000D21A454B1A604FF0200383F31188FCF7FD
:1049600007F9444B1B691A46424BDB68D31A1A46B7
:10497000404B9B68D31A012B69D93F4B1B691A46E0
:104980003D4BDB68D31A1A463B4B9B68D31A012B6D
:104990005DD93A4B1B691A46384BDB68D31A1A4665
:1049A000364B9B68D31A012B51D9314B1B68ADF89C
:1049B0000E30BDF80E308DF80D30BDF80E304FEAD8
:1049C00013239BB28DF80C309DF80D302948194601
:1049D000FCF7CEFF9DF80C3026481946FCF7C8FFBF
:1049E000234B5B68ADF80E30BDF80E308DF80D30FE
:1049F000BDF80E304FEA13239BB28DF80C309DF8B2
:104A00000D301D481946FCF7B3FF9DF80C301A48CD
:104A10001946FCF7ADFF164B9B68ADF80E30BDF89C
:104A20000E308DF80D30BDF80E304FEA13239BB2D7
:104A30008DF80C309DF80D3010481946FCF798FFA2
:104A40009DF80C300D481946FCF792FF03E00C4B23
:104A50004FF000021A70FCF7A3F84FF0000383F345
:104A6000118807B000BD00BF501E00204008002084
:104A7000600800204C1900206C1900208C190020BF
:104A8000541E0020AFF30080AFF30080AFF300802E
:104A900000B583B04FF0200383F31188FCF768F86A
:104AA0000D4B1B78002B0FD10C4B9A680C4B9B685D
:104AB000D2180C4B9B68D3180193019B002B03DA8F
:104AC000054B4FF001021A70FCF76AF84FF0000333
:104AD00083F3118803B000BD541E00204C19002040
:104AE0006C1900208C190020AFF30080AFF3008018
:104AF00008B50B4B4FF400725A61094B4FF48072AA
:104B00005A6107484FF400714FF00602FEF750FE5D
:104B100003484FF480714FF00602FEF749FE08BDCE
:104B2000000C0140AFF30080AFF30080AFF30080D2
:104B300082B003468DF807309DF80730002B04D073
:104B4000054B4FF400721A6103E0034B4FF40072FF
:104B50005A6102B0704700BF000C0140AFF3008003
:104B600082B003468DF807309DF80730002B04D043
:104B7000054B4FF480721A6103E0034B4FF48072CF
:104B80005A6102B0704700BF000C0140AFF30080D3
:104B900069646C65000000006D61696E00000000D2
:104BA000535623310000000053562332000000000A
:104BB00053562333000000005356233400000000F6
:104BC00053562335000000005356233600000000E2
:104BD00053562337000000005356233800000000CE
:104BE0005356233900000000535623313000000093
:104BF0005356233131000000000000000000000087
:104C00002263685654536574492228290000000025
:104C1000226368565452657365744922282900003E
:104C20006368565452657365744928292C202331D2
:104C30000000000000000000000000000000000074
:104C4000636853636852656164794928292C20237D
:104C500031000000737461636B206F766572666C5F
:104C60006F7700000000000000000000000000005E
:104C70002263685468644372656174654922282917
:104C800000000000226368546864536574507269C0
:104C90006F726974792228290000000063685468E3
:104CA00064526573756D6528292C2023310000003E
:104CB000226368546864536C65657022282900007B
:104CC0006368546864457869745328292C2023311B
:104CD00000000000226368546864576169742228E8
:104CE0002900000063685468645761697428292C9E
:104CF0002023310000000000000000000000000040
:104D00002263684D7478496E697422282900000076
:104D10002263684D74784C6F636B5322282900001E
:104D200063684D74784C6F636B5328292C202331B2
:104D30000000000063684D74784C6F636B53282942
:104D40002C202332000000002263684D74785472D6
:104D5000794C6F636B5322282900000063684D74FF
:104D600078556E6C6F636B28292C2023310000006E
:104D700063684D7478556E6C6F636B28292C202303
:104D80003200000063684D7478556E6C6F636B532E
:104D900028292C202331000063684D7478556E6CEF
:104DA0006F636B5328292C20233200000000000081
:104DB00022636845767452656769737465724D61E4
:104DC000736B222829000000226368457674556EB3
:104DD00072656769737465722228290022636845C9
:104DE00076745369676E616C2228290022636845D6
:104DF00076745369676E616C4922282900000000AF
:104E000022636845767442726F6164636173744DA6
:104E100061736B49222829002263684576744469CE
:104E20007370617463682228290000006368457606
:104E300074446973706174636828292C20233100DD
:104E400022636849515265616454696D656F757478
:104E5000222829002263684F51577269746554698A
:104E60006D656F75742228290000000000000000A5
:104E70002261646353746172742228290000000067
:104E8000616463537461727428292C2023310000FB
:104E90002261646353746F70222829006164635334
:104EA000746F7028292C2023310000002261646374
:104EB0005374617274436F6E76657273696F6E4975
:104EC000222829006164635374617274436F6E76A3
:104ED000657273696F6E4928292C20233100000008
:104EE0002261646353746F70436F6E766572736989
:104EF0006F6E22282900000061646353746F704351
:104F00006F6E76657273696F6E28292C20233100CD
:104F10002261646353746F70436F6E766572736958
:104F20006F6E49222829000061646353746F7043D7
:104F30006F6E76657273696F6E4928292C20233154
:104F400000000000616463436F6E76657274282907
:104F50002C202331000000002261646341637175DD
:104F6000697265427573222829000000226164631A
:104F700052656C65617365427573222829000000D3
:104F80002273645374617274222829007364537409
:104F900061727428292C202331000000227364538D
:104FA000746F702228290000736453746F7028296D
:104FB0002C20233100000000227364496E636F6D62
:104FC000696E674461746149222829002273645222
:104FD0006571756573744461746149222829000004
:104FE00022646D61416C6C6F6361746522282900D5
:104FF00022646D6152656C65617365222829000029
:10500000646D6152656C6561736528292C202331BC
:105010000000000000000000000000000000000090
:105020006164635F6C6C645F737461727428292CB3
:1050300020233100000000000000000000000000FC
:10504000766F6C74616D702D312E302E3000000043
:10505000302E302E31000000000000000000000063
:105060006C64000000000000000000000000000070
:10507000212000085120000881200008A1200008FC
:10508000C1200008F120000811210008412100087A
:105090007121000800000000000000000000000076
:1050A000080002400400024000000B001C00024007
:1050B0000400024004010C003000024004000240E1
:1050C00008020D0044000240040002400C030E00E0
:1050D000580002400400024010040F006C0002401F
:1050E0000400024014051000800002400400024049
:1050F0001806110000000000000000000000000081
:1051000000C201000000004000000000000000009C
:10511000040204080800030708080808080808082B
:105120000B0F000000000000000000000000000065
:10513000FFFFFFFF4444444444444444FFFFFFFF57
:105140004444444444444444FFFFFFFF4444444433
:1051500044444444FFFFFFFF444444444444444423
:10516000FFFFFFFF88888888888888880000000003
:105170000100000003000000D13F00080000000013
:105180000000000000000000FF010000000000001F
:0C51900000002000000000006A31000058
:1051A000C13B0008E13B0008013C0008213C00082D
:1051B000713C0008913C0008B13C0008D13C00085B
:1051C000F13C0008113D0008313D0008513D000848
:1051D000A13D0008F13D0008FF070000FF070000A7
:1051E0001027000001000000E8030000E8030000B1
:1051F000D0070000E80300006F12833A01000000AE
:0C520000FF070000FF070000FF07000090
:0400000508000621C8
:00000001FF
