:020000040800F2
:100000000004002011010008E1010008E1010008DE
:10001000E1010008E1010008E1010008E101000838
:10002000E1010008E1010008E101000811020008F7
:10003000E1010008E1010008E1010008E102000817
:10004000E1010008E1010008E1010008E101000808
:10005000E1010008E1010008E1010008E1010008F8
:10006000E1010008E1010008E10100085114000865
:1000700091140008D114000811150008511500084A
:1000800091150008D1150008E1010008E101000800
:10009000E1010008E1010008E1010008E1010008B8
:1000A000E1010008E1010008E1010008E1010008A8
:1000B000E1010008E1010008E10100084118000821
:1000C000E1190008E1010008E1010008E101000870
:1000D000E1010008211D0008411D0008E1010008A0
:0C00E000E1010008E1010008E101000856
:1000F000704700BFAFF30080AFF30080AFF3008024
:10010000FEE700BFAFF30080AFF30080AFF30080E5
:1001100072B6244A82F30988022383F31488BFF35A
:100120006F8F214B21498B4205D24FF0553043F858
:10013000040B8B42FBD31E4B934205D24FF055313B
:1001400043F8041B9342FBD301F0B2FE194B1A484B
:10015000834206D2194A52F8041B43F8041B834217
:10016000F9D3174B174A934204D2002143F8041BDA
:100170009342FBD3144D154CFFF7BAFFAC4204D2A7
:1001800054F8043B9847AC42FAD3114D114C01F09E
:100190009FFEAC4204D254F8043B9847AC42FAD3D9
:1001A000FFF7AEFF00080020000000200004002040
:1001B0000004002000080020000800207824000827
:1001C00000080020D0100020EC000008EC0000081F
:1001D000EC000008EC000008AFF30080AFF30080F3
:1001E000FEE700BFAFF30080AFF30080AFF3008005
:1001F00072B6FEE7AFF30080AFF30080AFF300808C
:1002000000F04EF900F0C4FB00F062F900DF00BF1F
:10021000EFF30983203383F30988002383F31188E4
:10022000704700BFAFF30080AFF30080AFF30080F2
:1002300008B500224FF46D43CEF20003C0F2FA522B
:10024000002199600720DA60102100F079F80A2077
:100250004FF4007100F074F80B20802100F070F86A
:1002600008BD00BFAFF30080AFF30080AFF30080A4
:10027000202383F311884FF46D43CEF200035B68B3
:1002800013F4006316D0EFF30983203B83F309884E
:10029000104A4FF080709169D86171B11168D269CC
:1002A00089689268914294BF002201227AB10A4A79
:1002B0009A6101E083F3118870471168D2698968F7
:1002C0009268914234BF00220122002AEFD1034AF2
:1002D0009A61F1E72C0D0020010200080C020008D1
:1002E00008B500F055F9202383F3118800F010F9C8
:1002F00000F08EF800F02CF9002383F3118800F051
:1003000067F9FFF7B5FF08BDAFF30080AFF30080DA
:100310002DE9F04FC1F80CD0D0F80CD0BDE8F08F2B
:1003200008B500F0D5F8002383F311882846A047CC
:1003300000F046FC08BD00BFAFF30080AFF30080C3
:1003400000F0030310B4DB00FF249C4011FA03F318
:1003500080084FF46D42CEF20002063052F820C001
:100360002CEA040141EA030342F8203010BC704734
:10037000024B034ADB699A61FEE700BF2C0D0020A7
:1003800040200008AFF30080AFF30080AFF300809F
:1003900030B583B0FFF74CFF00F022FA00F0B0F95F
:1003A00000F0F6FE00F064F940F600004021C2F2D1
:1003B000000000F015FB40F62C5440F20043C2F25E
:1003C0000003C2F200040125E06180F82050C361FF
:1003D00000F04EF8002383F3118862B642F2480120
:1003E000E269C0F60001916140F64800002240F247
:1003F00071330092C0F60003C0212A46C2F2000009
:1004000000F066FB03B030BDAFF30080AFF30080B7
:1004100070B500F0FDF8114B9A69002A01DD013A30
:100420009A61DB690E4C596A226801315962E368AE
:100430000133A242E3600FD09568013D95605DB93C
:1004400026461168D3681069D5604E6021609847D0
:1004500022689368002BF4D070BD00BF2C0D0020E3
:100460001C0D0020AFF30080AFF30080AFF30080DD
:1004700008B5064B1B6813B9054B1B6823B1054A29
:10048000054B1A60FFF7B4FE08BD00BF0809002045
:10049000140D002060200008180D0020AFF300802C
:1004A000074B10B51B68074C13B9064C236823B1E2
:1004B000054A064B1A60FFF79BFE0123236010BD1F
:1004C00008090020140D002068200008180D0020E5
:1004D000084B10B51B68084C33B9074C2368002B38
:1004E00002DD0023236010BD044A054B1A60FFF7AC
:1004F0007FFEF6E708090020140D00207020000898
:10050000180D0020AFF30080AFF30080AFF3008040
:10051000084B10B51B68002BD8BF074C02DD064CFA
:10052000236823B1054A064B1A60FFF761FE0123D9
:10053000236010BD08090020140D00207820000859
:10054000180D0020AFF30080AFF30080AFF3008000
:10055000094B10B51B68002BD8BF084C06DD074CB3
:100560002368002B02DD0023236010BD044A054BE5
:100570001A60FFF73DFEF6E708090020140D002081
:1005800080200008180D0020AFF30080AFF300803A
:1005900010B5202383F31188094C2368002B02DB5C
:1005A000084A12682AB1084B084A1A60FFF720FE71
:1005B000236801332360002383F3118810BD00BF3B
:1005C00008090020140D0020180D002088200008C4
:1005D00010B5202383F31188094C2368002B02DD1A
:1005E000084A12682AB1084B084A1A60FFF700FE51
:1005F0002368013B2360002383F3118810BD00BFF3
:1006000008090020140D0020180D0020902000087B
:1006100008B5074B1B68002B04DB064B1B68002B3F
:1006200000DD08BD044A054B1A60FFF7E1FDF8E75D
:1006300008090020140D002098200008180D002043
:1006400008B5074B1B6823B9064B1B68002B00DD60
:1006500008BD054A054B1A60FFF7CAFDF8E700BF61
:1006600008090020140D0020A0200008180D00200B
:1006700040F60C13C2F200031A46402142F8081B50
:100680005A607047AFF30080AFF30080AFF3008093
:1006900070B40D4A0D495368CE680D49846ACD691E
:1006A00090F820C003F1100102F5816081421E60C4
:1006B0005D609C6083F80CC028BF02F108035160A4
:1006C00028BF536070BC70470C0900201C0D00202F
:1006D0002C0D0020AFF30080AFF30080AFF300805B
:1006E00008B540F61853C2F200031860FFF780FD0A
:1006F00008BD00BFAFF30080AFF30080AFF3008010
:1007000040F61C53C2F200034FF0FF329A60002201
:100710005B601B60DA607047AFF30080AFF300806E
:10072000F8B5044615461F460E46FFF771FFD4F193
:10073000010338BF0023002D08BF43F00103002B45
:1007400019D1002E17D00E4927610B68E5609A6811
:10075000964204D91B68B61A9A68B242FAD35A680C
:100760008B422360626014605C60A66002D09A686D
:10077000961B9E60F8BD0348FFF7B2FFE3E700BF9A
:100780001C0D0020B0200008AFF30080AFF3008004
:1007900010B50446FFF73CFF84B1E36893B12368CA
:1007A0000A4A934203D09968A2688A189A606268DC
:1007B000002113602368E1605A6010BD0448FFF710
:1007C0008FFFEAE70348FFF78BFFE8E71C0D0020E7
:1007D000C0200008D0200008AFF30080AFF30080F5
:1007E00040F62C53C2F2000300229A6014225B6090
:1007F0001B609A615B611B61704700BFAFF30080B3
:1008000010B590F820300446D3F1010238BF002221
:100810000E2B14BF134642F001037BB90022094B93
:10082000A16884F820201B689A688A42FBD25A6823
:100830002360626014605C60204610BD0248FFF7D0
:100840004FFFEBE72C0D0020F0200008AFF30080F5
:1008500008B590F820300D2B11D8DFE803F0151003
:100860001007100B101010101010100B836A9A68EC
:1008700001329A60436802681A60026853604FF060
:10088000FF338362FFF7BCFF08BD00BFAFF30080FA
:1008900070B5104C0646FFF7D3FEE569142185F8C4
:1008A0002060236828461A68A1610121546083F8FA
:1008B00020102260E361FFF7EBFEEA69ADF124034B
:1008C0009A4202D90448FFF70BFFE0692946FFF777
:1008D0001FFD70BD2C0D002004210008AFF3008027
:1008E000F0B50F4687B00546FFF7AAFEB7F1FF3F08
:1008F00013D00C4C01AEE36939460B4A3046FFF782
:100900000FFF2846FFF7C4FF049B13B13046FFF7E3
:100910003FFFE369986A07B0F0BD2846FFF7B8FFCC
:10092000004CF6E72C0D002051080008AFF30080C2
:1009300070B5144D04460E46FFF782FEE869A268C2
:100940008368A6629A4214D9FFF75AFF012306462C
:1009500084F820301423AB61EC61FFF799FEF26953
:10096000ADF124039A4208D820463146FFF7D0FC67
:1009700070BD2046FFF744FFFAE70348FFF7B0FEDB
:10098000F2E700BF2C0D002004210008AFF3008027
:1009900038B50F4C14212368E5691A68A16101215B
:1009A000546083F8201028462260E361FFF728FF97
:1009B0002846FFF76DFEEA69ADF124039A4202D999
:1009C0000448FFF78DFEE0692946FFF7A1FC38BD1A
:1009D0002C0D002004210008AFF30080AFF300804D
:1009E00000234FF0020C40F62C52C2F2000280F8B5
:1009F00020C080F82130D2F814C070B400F1300467
:100A000000F12C0600F1480502618160C0F814C0B5
:100A1000416450610364C36343628361CCF8100096
:100A2000C66244630463C56170BC7047AFF3008065
:100A3000F8B504460D461F461646FFF7E9FDD4F10A
:100A4000010338BF0023AF2D98BF43F0010343B922
:100A50007F2E94BF00230123002F08BF43F0010322
:100A600013B11548FFF73CFE243D06986119E1607B
:100A70004860124800230862114A0221675184F835
:100A8000201084F82130506904F1300104F12C0564
:100A900004F1480C22616061A660666454612364BD
:100AA0000461E3636362A361E56261632163C4F887
:100AB0001CC02046F8BD00BF20210008210300080B
:100AC0002C0D0020AFF30080AFF30080AFF3008067
:100AD000F0B50D4616461F4683B0044600F14802A5
:100AE0000346FF2103F8011B9342FBD163199A428D
:100AF00004D2552102F8011B9A42FBD1202383F333
:100B00001188FFF7CDFCDDF820C03B463246294670
:100B10002046CDF800C0FFF78BFF00210446FFF709
:100B200007FFFFF7D5FC002383F31188204603B0AD
:100B3000F0BD00BFAFF30080AFF30080AFF30080E3
:100B400010B5044610B90948FFF7CAFD202383F306
:100B50001188FFF7A5FC21460620FFF7C1FEFFF72D
:100B6000B7FC002383F3118810BD00BF602100088B
:100B7000114A38B5D4690346254655F82C0FA362AF
:100B8000A84206D00368E362FFF73AFEE06AA84293
:100B9000F8D194F8213013F0030F01BF2269636983
:100BA0001A61226908BF53610E20FFF771FE0348E6
:100BB000FFF796FD38BD00BF2C0D00207021000806
:100BC00010B52023044683F31188FFF769FC204603
:100BD000FFF7CEFF10BD00BFAFF30080AFF3008082
:100BE00010B5044620B1002364602460A36010BDEA
:100BF0000148FFF775FDF6E7B0210008AFF300806C
:100C000038B53D4B0546DC69FFF71AFD002D6FD066
:100C1000A868002867D0A26883689A4208D990F82B
:100C200020308260042B42D0052B2AD0002B1DD00F
:100C30002B461B689D4203D09968A2689142F8D266
:100C40005A682360626004205C601460A562FFF74C
:100C50001FFEAB68A34202D02848FFF741FD236C7A
:100C6000AB4202D02648FFF73BFD38BD436802681F
:100C700001211A60026880F820105360FFF7C0FD60
:100C8000D6E741680368D0F828C00B60D0F800E0D0
:100C90006346CEF804101B689C4502D099689142C7
:100CA000F9D25A680360426010605860C0E741683A
:100CB0000368D0F828C00B60D0F800E06346CEF897
:100CC00004101B689C4502D099688A42F9D95A6879
:100CD0000360426010605860DCF80800A268836816
:100CE00093429CD3A4E7236CAC60EB602564BCE723
:100CF0000448FFF7F5FC8BE72C0D0020D0210008FD
:100D0000E4210008C0210008AFF30080AFF30080A9
:100D100010B52023044683F31188FFF7C1FB20465A
:100D2000FFF76EFFFFF7D4FB002383F3118810BD9C
:100D30001E4A38B5D569202383F31188FFF7B0FB2D
:100D40002C6C002C2CD0A368AB4203D01848FFF7C2
:100D5000C7FC2C6C2068E368A0422B641DD0696C32
:100D60004BB11A689A4203D09268914238BF11463B
:100D7000DB68002BF5D10368026CA96023600021B9
:100D80005C60A060E2600464FFF7D2FDFFF7A0FBA7
:100D9000002383F31188204638BD0023A360F5E7C4
:100DA0000448FFF79DFC2C6CCDE700BF2C0D002004
:100DB000202200080C220008AFF30080AFF300806F
:100DC00038B504460D46FFF723FC002C1CD0E26B1F
:100DD00094F820301543082BE5630CD0092B00D084
:100DE00038BDA36A1D40AB42FAD12046FFF708FD8B
:100DF00000238362F4E7A36A1D42F1D02046FFF787
:100E0000FFFC00238362EBE70148FFF769FCDEE7A4
:100E10008C220008AFF30080AFF30080AFF30080B6
:100E200070B505460E46FFF7F3FB65B12C68AC4282
:100E300008D0A168606846EA0101FFF7C1FF246895
:100E4000AC42F6D170BD0248FFF74AFCEEE700BFA6
:100E5000B0220008AFF30080AFF30080AFF3008052
:100E600008B503464FF0FF3069B1074AD3F804C014
:100E7000D2690D2013609362C2F804C05A60CCF8A6
:100E80000020FFF72DFD08BD2C0D0020AFF30080E2
:100E90008A184FF0000C40600060C0F808C0416143
:100EA0008161C1600261C361704700BFAFF3008020
:100EB00038B504460D46FFF7ABFBA2696369934260
:100EC00018BFA26818D00132A26003F8015B226942
:100ED0006361934228BFE368206828BF6361A04232
:100EE00008D0036823605C60FFF78AFC00238362FC
:100EF000184638BD0020FCE7A268002AE3D06FF056
:100F00000300F6E7AFF30080AFF30080AFF300809B
:100F100070B5202382B004460D4683F31188FFF795
:100F2000BFFAE3690BB120469847A66820462946D8
:100F300066B9FFF795FF0028F7DA0190FFF7C8FAC6
:100F4000334683F31188019802B070BDA369013E56
:100F5000A66013F8015B2269A361934224BFE36892
:100F6000A361FFF7B5FA002383F311882846EBE766
:100F70002DE9F047044690468A461D46C769002A77
:100F800038D0202383F31188FFF78AFA00260FB1A7
:100F90002046B847D4F8089020462946B9F1000FFA
:100FA0000BD1FFF75DFF0028F4D0FFF791FA4B4615
:100FB00083F311883046BDE8F087A36909F1FF3952
:100FC000C4F8089013F8012B0AF806202269A361DF
:100FD000934224BFE368A361FFF77AFA002383F307
:100FE00011880136B045E5D0202383F31188FFF73F
:100FF00057FACCE70148FFF773FBC2E7F02200087D
:1010000001EB020C40600060826041618161C1605F
:10101000C0F810C0C3617047AFF30080AFF3008029
:10102000F0B5202383B004460D46164683F311889D
:10103000FFF736FAA7682046314667B9FFF710FF79
:101040000028F7DA0190FFF743FA3B4683F3118853
:10105000019803B0F0BD6369013FA76003F8015B2D
:1010600022696361934224BFE3686361E3690BB162
:1010700020469847FFF72CFA002383F3118818467F
:10108000E7E700BFAFF30080AFF30080AFF300806D
:1010900038B50446FFF7BCFA6269A3699A4218BFE3
:1010A000A26816D00132A26013F8015B2269A36125
:1010B000934228BFE368206828BFA361A04206D0FE
:1010C000036823605C60FFF79BFB00238362284674
:1010D00038BDA268002AE5D06FF00200F8E700BF33
:1010E0002DE9F047044615460E469A46D0F81C8076
:1010F000002A40D0202383F31188FFF7D1F900277D
:10110000D4F8089009F1FF33B9F1000F25D0A3609E
:101110003278636903F8012B22696361934224BF2B
:10112000E3686361B8F1000F01D02046C047FFF7C4
:10113000CFF9002383F31188013715F1FF3517D05C
:101140000136202383F31188FFF7AAF9D4F8089019
:1011500009F1FF33B9F1000FD9D120465146FFF70D
:101160007FFE0028CCD0FFF7B3F94B4683F31188FC
:101170003846BDE8F0870248FFF7B2FABAE700BF89
:1011800004230008AFF30080AFF30080AFF30080CA
:1011900042F20001084840F6505240F64C53C2F269
:1011A0000001C2F2000220F00700C2F2000321F0A9
:1011B0000701106019607047D7100020AFF300805E
:1011C00008B500F045FA00F01BF942F23040C0F6D5
:1011D000000000F0EDFD00F00BF800F021F800F049
:1011E0008FF800F06DFE08BDAFF30080AFF3008014
:1011F00008B500F0E5FA08BDAFF30080AFF300805A
:1012000008B500220346012100F1180019705A6048
:101210009A60DA601A615A61FFF7E2FC08BD00BF0C
:1012200008B500F095FC08BDAFF30080AFF3008077
:1012300008B5012203461A70002200F10C005A6022
:10124000FFF7CEFC08BD00BFAFF30080AFF3008016
:10125000806BD0F1010038BF00207047AFF30080F1
:101260008069D0F1010038BF00207047AFF30080E3
:1012700070B52023044683F311880026FFF710F988
:10128000A568A660FFF724F9334683F31188284642
:1012900070BD00BFAFF30080AFF30080AFF30080FC
:1012A00008B51030FFF764FE08BD00BFAFF3008043
:1012B00008B510304FF0FF33FFF75AFE08BD00BFEE
:1012C00008B53030FFF70CFF08BD00BFAFF300805A
:1012D00008B530304FF0FF33FFF702FF08BD00BF05
:1012E00008B51030FFF714FE08BD00BFAFF3008053
:1012F00008B53030FFF794FE08BD00BFAFF30080A3
:1013000008B500F02DFD08BDAFF30080AFF30080FD
:1013100038B50B4642F280318446C0F600010446DF
:101320004CF8041BC4F804C04FF0000CC4F808C00B
:101330004FF0010C04F15001154600F1100010228D
:1013400084F80CC0FFF7A4FD04F1600104F1300043
:1013500010222B46FFF754FE38BD00BFAFF30080CC
:1013600038B504460D46FFF753F9002C20D0A1698B
:1013700039B104F110002946FFF79AFD00280EDB71
:1013800038BDA368201D43F00403A360FFF748FDA8
:1013900004F110002946FFF78BFD0028F0DAA3685E
:1013A000201D43F08003A3600021FFF739FDE7E72C
:1013B0000148FFF795F9DAE758230008AFF30080FA
:1013C0004FF48053CEF200035B688360704700BF28
:1013D0004FF48053CEF2000308495A6883680968C5
:1013E000D31AC2685B1A9342836088BFC36003D874
:1013F0000269934238BF0361704700BF540D00205B
:1014000030B541F2C13287B0C0F6000240F6545404
:10141000002301ADC2F20004019241F2D132C0F6C4
:10142000000228462360039304934FF0FF33029297
:101430000593FFF7C5FF029B28469847039B23604F
:1014400007B030BDAFF30080AFF30080AFF3008092
:1014500008B5FFF79DF80A4800220368C4F20202AB
:101460004FF00F0C1168C2F804C01BB1406801EACC
:101470000C019847FFF7ACF8FEF7FAFE08BD00BF75
:10148000580D0020AFF30080AFF30080AFF3008071
:1014900008B5FFF77DF80A4800228368C4F202020B
:1014A0004FF0F00C1168C2F804C01BB1C068C1F362
:1014B00003119847FFF78CF8FEF7DAFE08BD00BF6E
:1014C000580D0020AFF30080AFF30080AFF3008031
:1014D00008B5FFF75DF80A4800220369C4F202026A
:1014E0004FF4706C1168C2F804C01BB14069C1F3BD
:1014F00003219847FFF76CF8FEF7BAFE08BD00BF5E
:10150000580D0020AFF30080AFF30080AFF30080F0
:1015100008B5FFF73DF80A4800228369C4F20202C9
:101520004FF4704C1168C2F804C01BB1C069C1F31C
:1015300003319847FFF74CF8FEF79AFE08BD00BF4D
:10154000580D0020AFF30080AFF30080AFF30080B0
:1015500008B5FFF71DF80A480022036AC4F2020228
:101560004FF4702C1168C2F804C01BB1406AC1F37B
:1015700003419847FFF72CF8FEF77AFE08BD00BF3D
:10158000580D0020AFF30080AFF30080AFF3008070
:1015900008B5FEF7FDFF0A480022836AC4F2020282
:1015A0004FF4700C1168C2F804C01BB1C06AC1F3DB
:1015B00003519847FFF70CF8FEF75AFE08BD00BF2D
:1015C000580D0020AFF30080AFF30080AFF3008030
:1015D00008B5FEF7DDFF0A480022036BC4F20202E1
:1015E0004FF0706C1168C2F804C01BB1406BC1F3BE
:1015F00003619847FEF7ECFFFEF73AFE08BD00BF17
:10160000580D0020AFF30080AFF30080AFF30080EF
:101610000C49002310B4DFF830C00C4C0B601A46A4
:101620001946E0580C3301604CF802100832542B74
:10163000F7D10023C4F202034FF0FF325A6010BC0E
:10164000704700BF900D0020580D0020B023000807
:1016500008B54FF48053C4F2020300214FF0FF306D
:10166000D3F810C04EF2100218611961D3F80CE0E3
:10167000CEF20002D8604BF67F30D9604EF6F05CB7
:10168000506007209160CEF2000C1060DCF80C2056
:101690004FF4805042F08072CCF80C20CEF2000063
:1016A000D0F800C04FF4E0424CF0010CC0F800C08C
:1016B000D869C4F2000240F08050D861D86940F087
:1016C0000060D861106840F4807010601A6A02F4FB
:1016D0004072B2F5407F1EBF4FF480321A62196229
:1016E0004FF48053C4F202031A6A12F4004F07D178
:1016F0001A6A42F440721A621A6A42F400421A628A
:10170000FFF786FF08BD00BFAFF30080AFF3008096
:101710004FF48053C4F202031A68194642F00102E2
:101720001A600A684FF4805312F0020FC4F20203E9
:10173000F7D01A68194602F0F9021A6000225A60BE
:101740004A684FF4805312F00C0FC4F20203F7D131
:101750001A68194642F480321A600A684FF48053BE
:1017600012F4003FC4F20203F7D05A68194642F45B
:10177000A0225A601A6842F080721A600A684FF418
:10178000805312F0007FC4F20203F7D04FF4C84137
:10179000C0F205014FF400525960C4F20202102158
:1017A000116059681A4641F002015960536803F00C
:1017B0000C03082BFAD17047AFF30080AFF3008021
:1017C00010B51D4C2046FFF71BFD42F28A534FF423
:1017D00080522363C4F20202906918494FF41053F7
:1017E000C4F2010340F40070E162A3629061002240
:1017F0005A6001229A60092219469A608A684FF459
:10180000105312F0080FC4F20103F7D105229A60B9
:1018100019468B684FF4105213F00403C4F201020E
:10182000F7D14FF480519360C4F202018B6923F425
:1018300000738B6110BD00BF940D0020B023000821
:10184000F8B5634CFEF7A4FE256B94F834302A8B70
:10185000AE8A92B2B6B2CBB9022346EA024222F075
:101860007F42C0F203039A426ED054D80123C0F2E3
:1018700003039A4201D1238C2B8216F00A0F18BF62
:101880002B8BFEF7A5FEFEF7F3FCF8BD16F00A0F52
:1018900005D0AE8A00232A8BB6B22364236516F0E6
:1018A000800F0CD0236DA26C216CD05CE26C0133F4
:1018B00091422882236502D3454B00221A6516F017
:1018C000400F0BD0226C288AA16B531C8854E26B0A
:1018D0002364934202D33E4B00221A6416F0100F89
:1018E0000AD0AE8A2A88636C92B242F00102B6B284
:1018F0002A800BB13648984716F4806FC1D0AA8A67
:10190000636D22F480621204120CAA82002BB8D0FC
:101910002F489847B5E78223C0F207039A422ED09A
:101920008423C0F207039A42A7D1A36A1B685F68A9
:10193000002F31D02B88228C9BB242F0010243F45D
:10194000A06322842B809CE7AB88A26A23F40073F7
:101950001B0412681B0CAB80136843F00103136077
:10196000AB889BB243F48053AB805368012B84D87F
:101970002B8823F480631B041B0C2B807DE7AB8832
:10198000E26A23F400731B0412681B0CAB8013681B
:1019900043F00103136070E7AA88202322F4007249
:1019A0001204120CAA802A8892B242F400722A8091
:1019B00083F31188FEF7ACFDE06918B18762E76137
:1019C000FEF71EFFFEF7C4FD002383F3118854E7E2
:1019D000C80D0020AFF30080AFF30080AFF30080AC
:1019E00070B5594DFEF7D4FD2C6B202383F311887D
:1019F000FEF78EFDEB6A0F2193F808C01A6801FA12
:101A00000CFCD2F800E058682EF0010EAB6AC2F868
:101A100000E0C0F800C0187A1A68814010685B685E
:101A200020F0010010601960FEF792FD002383F39F
:101A30001188A68A16F4807606D0A38A012623F49C
:101A400080731B041B0CA382A38A13F4007F07D0AE
:101A5000A38A46F0020623F400731B041B0CA38226
:101A600095F834303848002B32D1A38A13F4806FB4
:101A700039D1A38A13F4006F07D0A38A46F0080671
:101A800023F400631B041B0CA382A38A13F4805F5E
:101A900007D0A38A46F0100623F480531B041B0CC6
:101AA000A382A38A13F4804F07D0A38A46F02006AE
:101AB00023F480431B041B0CA382A38A1BB2002BBC
:101AC00025DB002E29D1FEF783FDFEF7D1FB70BD8B
:101AD000A28A436D22F480621204120CA282002BAF
:101AE000C7D09847C5E7A38A46F0040623F480636D
:101AF0001B041B0CA382A38823F400731B041B0C80
:101B0000A38023889BB243F400732380B1E7A38AA8
:101B100046F040065B045B0CA382AE60202383F397
:101B20001188FEF7F5FCE86938B1074B0022DA614D
:101B30006FF001038362FEF763FEFEF709FD0023E9
:101B400083F31188BFE700BFC80D0020AFF300800A
:101B500010B540F6C854C2F200042046FFF768FBF7
:101B6000064B4FF4A842C4F20002A3F10C0100207E
:101B7000E0612263A362E16210BD00BFF8230008A8
:101B80004FF46053C4F201039A8992B242F080028A
:101B90009A817047AFF30080AFF30080AFF300800D
:101BA0004FF48843C4F200039A8992B242F0800253
:101BB0009A817047AFF30080AFF30080AFF30080ED
:101BC0002DE9F845066F0546B7893488B6F80480D4
:101BD000A4B214F00F0FBFB21FFA88F826D014F089
:101BE000080A18BF4FF0800A14F0010F18BF4AF01E
:101BF000200A14F0020F18BF4AF0400A14F0040F34
:101C000018BF4AF4807A202383F31188FEF780FC02
:101C1000AB68281D43EA0A0A0021C5F808A0FFF7AF
:101C2000FFF8FEF795FC002383F3118814F4807FFE
:101C30003AD114F0200F27D117F0800F02D014F002
:101C4000800F4AD114F0400F1CD0202383F3118859
:101C5000FEF75EFCAB68281D43F01003AB6000216B
:101C6000FFF7DEF8FEF774FC002383F311884FF6CC
:101C7000BF7307EA0303B381338823F040031B04D7
:101C80001B0C3380BDE8F885202383F31188FEF711
:101C90003FFC5FFA88F12846FFF762FBFEF758FC2D
:101CA000002383F31188C7E7202383F31188FEF70D
:101CB0002FFCAB68281D43F40073AB600021FFF7D5
:101CC000AFF8FEF745FC002383F31188338823F433
:101CD00080731B041B0C3380ABE7202383F3118834
:101CE000FEF716FC05F13000FFF7D2F90028A4BF7B
:101CF00080B2B08005DBFEF72BFC002383F3118854
:101D0000A0E7AB68281D43F00803AB600021FFF794
:101D100087F827F0C00343F04003B381EBE700BF2F
:101D200008B5FEF735FC40F62060C2F20000FFF770
:101D300047FFFEF74DFCFEF79BFA08BDAFF30080AE
:101D400008B5FEF725FC40F69460C2F20000FFF7EC
:101D500037FFFEF73DFCFEF78BFA08BDAFF30080BE
:101D600038B540F62065C2F2000541F68132C0F672
:101D700000022846002140F69464FFF7C9FAC2F237
:101D8000000441F6A1324FF46053C4F20103C0F6DF
:101D90000002204600212B67FFF7BAFA4FF4884370
:101DA000C4F20003236738BDAFF30080AFF30080B7
:101DB0004FF48053C4F202039A6942F07D029A61A3
:101DC00003684FF40062C4F20102D36081684FF4EB
:101DD000406351604168C4F201031160C2684FF46E
:101DE0008051DA604269C4F201015A60D0F810C033
:101DF0004FF4A052C3F800C08369C4F20102CB6063
:101E0000D0F820C04FF4C053C1F804C0D0F81CC0B3
:101E1000C4F20103C1F800C0416AD160C16A5160D7
:101E2000816A1160026BDA60826B5A60426B1A60E1
:101E3000704700BFAFF30080AFF30080AFF30080C6
:101E4000032A70B408BF016102D0042A08BF4161AF
:101E5000DFF858C000231CF8026008259C461A468B
:101E60001C4600E04900120124011B0111F0800F03
:101E700008BF42F00F024FEA0C1C18BF334311F4A5
:101E8000004F0CBF44F00F044CEA060C15F1FF356F
:101E9000E8D141680C4044EA0C0CC0F804C0016869
:101EA0000A4042EA0303036070BC70471024000834
:101EB00008B5FFF72DFC08BDAFF30080AFF300803D
:101EC000704700BFAFF30080AFF30080AFF3008036
:101ED00008B5FFF775F9FEF75BFA00F061F801202D
:101EE00000F096F84FF4FA70FEF72AFE022000F098
:101EF0008FF84FF4FA70FEF723FE042000F088F804
:101F00004FF4FA70FEF71CFEE9E700BFAFF3008064
:101F10001D4B1E4ADB692DE9F0474FF480554FF405
:101F200040641B4F1B4E9A61C4F201054FF020091B
:101F3000C4F201044FF0010A4FF002081648FEF700
:101F4000E7FE3B68336013F0010F17BFEA68C5F87E
:101F5000149082F02002EA6013F0020F17BFE268CB
:101F6000C4F814A082F00102E26013F0040F17BF5E
:101F7000E368C4F8148083F00203E360FEF7D8FE40
:101F80007D20FEF7DDFDD9E72C0D00207024000830
:101F9000180F00201C0F0020080F0020AFF3008056
:101FA00070B54FF480504FF44064C4F20104202116
:101FB000C4F201000126022582B041610622666159
:101FC0006561FFF73DFF204631460622FFF738FFE7
:101FD000294606222046FFF733FF40F60870C2F27A
:101FE0000000FEF7FDFD002240F6207041F611735F
:101FF0000092C0F600034FF4D8714022C2F20000F4
:10200000FEF766FD02B070BDAFF30080AFF3008055
:1020100040F60873C2F2000310B504461846FEF7F6
:1020200077FE40F61873C2F200031C60FEF780FED4
:1020300010BD00BFAFF30080AFF30080AFF30080AE
:1020400069646C65000000006D61696E000000004D
:102050005356233100000000535623320000000085
:102060005356233300000000535623340000000071
:10207000535623350000000053562336000000005D
:102080005356233700000000535623380000000049
:10209000535623390000000053562331300000000E
:1020A0005356233131000000000000000000000002
:1020B00022636856545365744922282900000000A1
:1020C00022636856545265736574492228290000BA
:1020D0006368565452657365744928292C2023314E
:1020E00000000000000000000000000000000000F0
:1020F000636853636852656164794928292C2023F9
:1021000031000000737461636B206F766572666CDA
:102110006F770000000000000000000000000000D9
:102120002263685468644372656174654922282992
:10213000000000002263685468645365745072693B
:102140006F7269747922282900000000636854685E
:1021500064526573756D6528292C202331000000B9
:10216000226368546864536C6565702228290000F6
:102170006368546864457869745328292C20233196
:102180000000000022636854686457616974222863
:102190002900000063685468645761697428292C19
:1021A00020233100000000000000000000000000BB
:1021B0002263684D7478496E6974222829000000F2
:1021C0002263684D74784C6F636B5322282900009A
:1021D00063684D74784C6F636B5328292C2023312E
:1021E0000000000063684D74784C6F636B532829BE
:1021F0002C202332000000002263684D7478547252
:10220000794C6F636B5322282900000063684D747A
:1022100078556E6C6F636B28292C202331000000E9
:1022200063684D7478556E6C6F636B28292C20237E
:102230003200000063684D7478556E6C6F636B53A9
:1022400028292C202331000063684D7478556E6C6A
:102250006F636B5328292C202332000000000000FC
:1022600022636845767452656769737465724D615F
:10227000736B222829000000226368457674556E2E
:102280007265676973746572222829002263684544
:1022900076745369676E616C49222829000000003A
:1022A0002263684576745369676E616C2228290041
:1022B00022636845767442726F6164636173744D22
:1022C00061736B492228290022636845767444694A
:1022D0007370617463682228290000006368457682
:1022E00074446973706174636828292C2023310059
:1022F00022636849515265616454696D656F7574F4
:10230000222829002263684F515772697465546905
:102310006D656F7574222829000000000000000020
:102320002273645374617274222829007364537495
:1023300061727428292C2023310000002273645319
:10234000746F702228290000736453746F702829F9
:102350002C20233100000000227364496E636F6DEE
:10236000696E6744617461492228290022736452AE
:102370006571756573744461746149222829000090
:10238000D1120008B11200085112000861120008B1
:10239000F1120008E1120008C1120008A1120008A1
:1023A00071120008000000000000000000000000A2
:1023B000080002400400024000000B001C00024024
:1023C0000400024004010C003000024004000240FE
:1023D00008020D0044000240040002400C030E00FD
:1023E000580002400400024010040F006C0002403C
:1023F0000400024014051000800002400400024066
:10240000180611000000000000000000000000009D
:102410000402040808000307080808080808080858
:102420000B0F000000000000000000000000000092
:10243000FFFFFFFF4444444444444444FFFFFFFF84
:102440004444444444444444FFFFFFFF4444444460
:1024500044444444FFFFFFFF444444444444444450
:10246000FFFFFFFF88888888888888880000000030
:042470006C64000098
:0400000508000111DD
:00000001FF
